:020000040800F2
:10000000800600203D020008450200084702000863
:10001000490200084B0200084D02000800000000E1
:100020000000000000000000000000004F02000877
:1000300051020008000000005302000855020008A9
:10004000570200085702000857020008570200082C
:10005000570200085702000857020008570200081C
:10006000570200085702000857020008570200080C
:1000700057020008570200085702000857020008FC
:10008000570200085702000857020008000000004D
:1000900000000000000000000000000057020008FF
:1000A00057020008570200085702000857020008CC
:1000B00057020008570200085702000857020008BC
:1000C00057020008570200085702000857020008AC
:1000D00057020008B9070008570200080000000096
:1000E00057020008570200085702000800000000ED
:1000F000000000000000000000000000570200089F
:1001000000000000570200085702000857020008CC
:1001100000000000000000000000000000000000DF
:10012000570200085702000857020008570200084B
:10013000570200080000000000000000000000005E
:10014000000000000000000000000000570200084E
:10015000570200085702000857020008570200081B
:1001600057020008570200080000000000000000CD
:10017000000000000000000000000000000000007F
:10018000000000005702000800000000000000000E
:100190005702000800F002F800F041F80AA090E8C9
:1001A000000C82448344AAF10107DA4501D100F032
:1001B00036F8AFF2090EBAE80F0013F0010F18BFBE
:1001C000FB1A43F0010318472C0C00004C0C0000F4
:1001D000103A24BF78C878C1FAD8520724BF30C873
:1001E00030C144BF04680C60704700000023002445
:1001F00000250026103A28BF78C1FBD8520728BF37
:1002000030C148BF0B607047732900F0F9800020AF
:1002100070471FB500F0E8FD1FBD10B510BD00F020
:1002200021F91146FFF7F5FF00F02CFD00F03FF932
:1002300003B4FFF7F2FF03BC00F054FB094880470A
:1002400009480047FEE7FEE7FEE7FEE7FEE7FEE7B8
:10025000FEE7FEE7FEE7FEE704480549054A064BD0
:100260007047000089060008950100088000002002
:1002700080060020800200208002002070470000DD
:100280000FB4044910B503AA029800F0BDF810BCE1
:100290005DF814FB000000202DE9F0410E460446F5
:1002A000002020622046E168884730B3252805D029
:1002B000D4E901219047206A401CF2E7E16820461A
:1002C00000278847050018D0A5F14100192802D859
:1002D00020354FF400673246294620462760FFF755
:1002E00093FF40B1012804D0F61D26F0070608361A
:1002F000D8E7361DD6E72846DAE7206ABDE8F08160
:1003000070B50C460546012A05D02878800600D530
:10031000EA69002302E0012305E05B1C934202D25C
:10032000E05C0028F9D1A869E618C01AA861286A1B
:10033000184428622846AFF3008004E0D5E9012183
:1003400014F8010B9047B442F8D32846AFF300806D
:1003500070BD00004FF0013C50F8042B51F8043BF5
:100360009A4221D1A2EB0C03934313EACC1317D189
:1003700050F8042B51F8043B9A4215D1A2EB0C0320
:10038000934313EACC130BD150F8042B51F8043BE0
:100390009A4209D1A2EB0C03934313EACC13DBD0AE
:1003A0004FF00000704700BFD01A01BAB1FA81F1D6
:1003B00001F0180122FA01F0CB40C1F12001DBB2BB
:1003C000C0B2C01A2CFA01F3D11A914311EAC31139
:1003D000E6D17047704770477047704710B5436962
:1003E00013B1AFF3008001E0FFF78AFF012010BDD9
:1003F000127800F124010A7000224A700122EDE710
:1004000011684FF0FF32E9E7074B70B50D467B44AA
:1004100000F011F80446284600F020F810B14FF023
:10042000FF3070BD204670BD1B05000001694A1CED
:1004300002610878704700B58FB0CDE90131002125
:10044000059105497944CDE9031011466846FFF747
:1004500023FF0FB000BD0000E5FFFFFF007B00F0B1
:1004600080007047754600F02BF8AE4605006946DF
:10047000534620F00700854618B020B5FFF7ECFE84
:10048000BDE820404FF000064FF000074FF0000895
:100490004FF0000B21F00701AC46ACE8C009ACE816
:1004A000C009ACE8C009ACE8C0098D46704710B57A
:1004B0000446AFF300802046BDE81040FFF7B8BE09
:1004C000004870471C000020F0B50A4600210023B8
:1004D000002400BF3DE0012505FA01F3156805EA97
:1004E00003049C4234D105684F000326BE40B54347
:1004F000056015794E00B5400668354305601579ED
:10050000012D02D01579022D16D185684F000326E2
:10051000BE40B543856055794E00B5408668354389
:100520008560456801268E40B543456045689679EB
:100530008E40B6B235434560C5684F000326BE40C5
:10054000B543C560D5794E00B540C6683543C56032
:10055000491C1029BFD3F0BD418370470183704708
:1005600029B1064A12680243044B1A6004E0034AA8
:1005700012688243014B1A60704700003038024015
:1005800029B1064A12680243044B1A6004E0034A88
:1005900012688243014B1A607047000040380240E5
:1005A0000CB50020019000903348006840F4803082
:1005B0003149086000BF3048006800F40030009006
:1005C0000198401C0190009818B90198B0F5A04F0F
:1005D000F1D12948006800F4003010B101200090EA
:1005E00001E0002000900098012844D122484030CA
:1005F000006840F080502049403108601F48006882
:1006000040F440401D4908601B48083000681A4902
:10061000083108600846006808600846006840F431
:10062000805008601648091F0860081F006840F0E5
:100630008070091F086000BF0F48006800F000705C
:100640000028F9D040F202700E4908600A480830CC
:10065000006820F003000849083108600846006877
:1006600040F00200086000BF03480830006800F056
:100670000C000828F8D10CBD003802400070004082
:1006800019544107003C024010B51548006840F479
:100690007000134908601348006840F001001149D8
:1006A000086000200F49083108600E4800680E49B4
:1006B00008400C4908600D48091D0860081F0068C3
:1006C00020F48020091F0860002006490C310860D2
:1006D000FFF766FF4FF0006001498039086010BDE8
:1006E00088ED00E000380240FFFFF6FE10300024E5
:1006F000CA430282704721B1028842F0010202809F
:1007000004E002884FF6FE731A40028070470246EA
:100710000020138A0B400BB1012000E0002070473D
:1007200002884FF6F7731A40028002880A4302805B
:100730007047000000220288184B98420ED0184BD8
:1007400098420BD0B0F1804F08D0164B984205D09C
:10075000154B984202D0154B984204D14FF68F7337
:100760001A404B881A43124B984207D0114B9842BB
:1007700004D04FF6FF431A400B891A4302804B689E
:10078000C3620B880385054B984202D0044B984204
:1007900001D18B7A038601238382704700000140D8
:1007A000000401400004004000080040000C00402C
:1007B000001000400014004010B540F225511D48C3
:1007C00000F061F880B140F225511A4800F04CF871
:1007D000184800F082F81849184A127888541748C7
:1007E0000078401C1549087040F22441114800F07F
:1007F0004AF8E8B10F4800880E48808800200E496A
:100800000E4A127888540D4908700B490CA0FFF766
:1008100037FD11A10848FFF79DFD10B900F03EFA21
:1008200006E00FA10448FFF795FD08B900F05CF859
:1008300010BD00000010014008000020040000204E
:10084000BDD3CAD5B5BDB5C4D7D6B7FBB4AECAC73C
:10085000A3BA25730D0A00006F70656E00000000DA
:10086000636C6F736500000010B50022002340F632
:100870006A14A14200D100BF0A1201249440A3B21D
:10088000DC43048010BD70B502460024002300251F
:10089000002040F66A16B14200D100BFC1F34215F4
:1008A00001F01F03012606FA03F3012D02D19689F8
:1008B000334006E0022D02D1168A334001E0968AC9
:1008C00033400C12012606FA04F41688344013B1A2
:1008D0000CB1012000E0002070BD01468888C0F303
:1008E0000800704700BF704710B508210948FFF79E
:1008F00033FE10210748FFF731FE4FF4967000F0E9
:100900000BF808210348FFF729FE10210148FFF7E3
:1009100025FE10BD00040240014645F2082201FBFD
:1009200002F000E0401E0028FCD1704700BF054ADD
:10093000128802F04002002AF9D0C2B2014B9A801C
:10094000704700000010014070B505462A2000F0F5
:10095000CFF9002000F0FCF9EF2000F0F9F92B208E
:1009600000F0C6F9002000F0F3F9EF2000F0F0F9F4
:100970002C2000F0BDF9002403E0284600F0E8F93F
:10098000641CB4F5614FF8D370BD70B506460C46D3
:1009900015462A2000F0ACF9304600F0D9F930466F
:1009A00000F0D6F92B2000F0A3F9204600F0D0F992
:1009B000204600F0CDF92C2000F09AF9284600F0EE
:1009C000C7F970BD10B500F0C3F800F03DF900F0B4
:1009D0007DF9362000F08CF9002000F0A1F93A20D2
:1009E00000F086F9052000F09BF9B22000F080F9B4
:1009F0000C2000F095F90C2000F092F9002000F096
:100A00008FF9332000F08CF9332000F089F9B720FA
:100A100000F06EF9352000F083F9BB2000F068F992
:100A2000192000F07DF9C02000F062F92C2000F0C0
:100A300077F9C22000F05CF9012000F071F9C320C1
:100A400000F056F9122000F06BF9C42000F050F9C4
:100A5000202000F065F9C62000F04AF90F2000F0D0
:100A60005FF9D02000F044F9A42000F059F9A1204A
:100A700000F056F9E02000F03BF9D02000F050F9EA
:100A8000042000F04DF90D2000F04AF9112000F08B
:100A900047F9132000F044F92B2000F041F93F20E2
:100AA00000F03EF9542000F03BF94C2000F038F9FA
:100AB000182000F035F90D2000F032F90B2000F07D
:100AC0002FF91F2000F02CF9232000F029F9E12054
:100AD00000F00EF9D02000F023F9042000F020F9F6
:100AE0000C2000F01DF9112000F01AF9132000F07D
:100AF00017F92C2000F014F93F2000F011F94420E0
:100B000000F00EF9512000F00BF92F2000F008F949
:100B10001F2000F005F91F2000F002F9202000F04E
:100B2000FFF8232000F0FCF8212000F0E1F811206C
:100B300000F0DEF8292000F0DBF802210348FFF77F
:100B40000DFD0020FFF700FF10BD00000004024073
:100B50001CB501210220FFF703FD45F20240009081
:100B600001208DF8040000208DF806008DF80700A4
:100B700069460648FFF7A8FC02210448FFF7ECFC91
:100B80004FF480510148FFF7E9FC1CBD000402400E
:100B90002DE9F04707460D4614469946381B1FFAC3
:100BA00080F81BE0281B86B211E0A8EB0700404349
:100BB000711B721B01FB020104FB04F0814204DC87
:100BC0004A4631464046FFF7E0FE701C86B22819BF
:100BD000B042EADA08F101001FFA80F838194045FE
:100BE000E0DABDE8F087000070B504464FF400512C
:100BF0001448FFF7B1FC4FF400411248FFF7AEFC78
:100C000000251BE04FF400510E48FFF7A5FC04F04F
:100C1000800028B14FF400410A48FFF79FFC04E030
:100C20004FF400410748FFF797FC4FF40051054887
:100C3000FFF794FC6006040E681CC5B2082DE1DBCA
:100C400070BD0000000402401CB501210220FFF726
:100C500087FC0020009001904FF42040009001207C
:100C60008DF8040000208DF806008DF807000220A2
:100C70008DF8050069460248FFF726FC1CBD000000
:100C800000040240FFF79EFE4FF4784332227821A1
:100C90000846FFF77DFF00BFFEE7000010B5082102
:100CA0000948FFF75BFC10210748FFF755FC4FF49C
:100CB0009670FFF731FE08210348FFF74FFC102123
:100CC0000148FFF74BFC10BD0004024010B54FF483
:100CD00080610648FFF740FC642000F053F84FF4B1
:100CE00080610248FFF73AFC10BD0000000402409A
:100CF00010B504464FF480510848FFF72DFC4FF41F
:100D000080410648FFF728FC2046FFF76DFF4FF4AF
:100D100080510248FFF722FC10BD00000004024091
:100D200010B504464FF480510848FFF715FC4FF406
:100D300080410648FFF712FC2046FFF755FF4FF4AD
:100D400080510248FFF70AFC10BD00000004024079
:100D500010B504464FF480510948FFF7FDFB4FF4EE
:100D600080410748FFF7FAFB2012FFF73DFFE0B292
:100D7000FFF73AFF4FF480510148FFF7EFFB10BD3A
:100D8000000402403EB5044601210820FFF7F8FBAD
:100D90000020009001900290ADF80800ADF802002C
:100DA00004EB84000121C1EB4000019042F2CF002E
:100DB000ADF8000069460B48FFF7BCFC0821094864
:100DC000FFF7AEFC01210748FFF792FC012105481F
:100DD000FFF791FC00BF01210248FFF798FC0028B3
:100DE000F9D03EBD000C00404FF04070E1EE100A1B
:100DF00070470000140E00080000002008000000EA
:100E0000D00100081C0E0008080000207806000031
:0C0E1000EC0100080000000000000000E1
:040000050800019559
:00000001FF
