:020000040800F2
:10000000B00600203902000841020008430200083F
:1000100045020008470200084902000800000000ED
:100020000000000000000000000000004B0200087B
:100030004D020008000000004F02000851020008B5
:10004000530200085302000853020008530200083C
:10005000530200085302000853020008530200082C
:10006000530200085302000853020008530200081C
:10007000530200085302000853020008530200080C
:100080005302000853020008530200080000000059
:100090000000000000000000000000005302000803
:1000A0002D0E0008530200085302000853020008F6
:1000B00053020008530200085302000853020008CC
:1000C00053020008530200085302000853020008BC
:1000D00053020008950F00085302000800000000BA
:1000E00053020008530200085302000800000000F9
:1000F00000000000000000000000000053020008A3
:1001000000000000530200085302000853020008D8
:1001100000000000000000000000000000000000DF
:10012000530200085302000853020008530200085B
:100130005302000800000000000000000000000062
:100140000000000000000000000000005302000852
:10015000530200085302000853020008411000082F
:1001600053020008530200080000000000000000D5
:10017000000000000000000000000000000000007F
:100180000000000053020008000000000000000012
:100190005302000800F002F800F03EF80AA090E8D0
:1001A000000C82448344AAF10107DA4501D100F032
:1001B00033F8AFF2090EBAE80F0013F0010F18BFC1
:1001C000FB1A43F0010318472422000044220000D8
:1001D000103A24BF78C878C1FAD8520724BF30C873
:1001E00030C144BF04680C60704700000023002445
:1001F00000250026103A28BF78C1FBD8520728BF37
:1002000030C148BF0B607047002070471FB502F037
:10021000E7F81FBD10B510BD00F0FCF81146FFF760
:10022000F5FF01F0F5FC00F01AF903B4FFF7F2FF57
:1002300003BC01F022F80000094880470948004744
:10024000FEE7FEE7FEE7FEE7FEE7FEE7FEE7FEE786
:10025000FEE7FEE704480549054A064B70470000E3
:10026000C50D000895010008B0000020B006002070
:10027000B0020020B0020020704700000FB4044913
:1002800010B503AA029800F097F810BC5DF814FBB3
:10029000040000202DE9F0410E46044600202062B3
:1002A0002046E168884730B3252805D0D4E90121EC
:1002B0009047206A401CF2E7E16820460027884703
:1002C000050018D0A5F14100192802D820354FF4B7
:1002D00000673246294620462760FFF795FF40B168
:1002E000012804D0F61D26F007060836D8E7361D8B
:1002F000D6E72846DAE7206ABDE8F08110B5203A53
:10030000C0F00B80B1E81850203AA0E81850B1E8CE
:100310001850A0E81850BFF4F5AF5FEA027C24BF84
:10032000B1E81850A0E8185044BF18C918C0BDE87B
:1003300010405FEA827C24BF51F8043B40F8043B44
:1003400008BF7047D20728BF31F8023B48BF11F8F9
:10035000012B28BF20F8023B48BF00F8012B704753
:100360004FF0000200B5134694469646203922BF4E
:10037000A0E80C50A0E80C50B1F12001BFF4F7AF99
:10038000090728BFA0E80C5048BF0CC05DF804EB7B
:10039000890028BF40F8042B08BF704748BF20F8E9
:1003A000022B11F0804F18BF00F8012B70477047E7
:1003B0007047704770470000074B70B50D467B448F
:1003C00000F011F80446284600F020F810B14FF074
:1003D000FF3070BD204670BD4314000001694A1C07
:1003E00002610878704700B58FB0CDE90131002176
:1003F000059105497944CDE9031011466846FFF798
:1004000049FF0FB000BD0000E5FFFFFF007B00F0DB
:1004100080007047754600F02BF8AE46050069462F
:10042000534620F00700854618B020B5FFF712FFAD
:10043000BDE820404FF000064FF000074FF00008E5
:100440004FF0000B21F00701AC46ACE8C009ACE866
:10045000C009ACE8C009ACE8C0098D46704710B5CA
:100460000446AFF300802046BDE81040FFF7DDBE34
:1004700000487047500000201CB546A0FFF7FEFE64
:100480004DA0FFF7FBFE00BF0121504800F08FF99F
:100490000028F9D002214D4800F094F91E2001F007
:1004A000D9FC00BF002000F079FA0446002CF9D1F5
:1004B00047A0FFF7E3FE00BF0121444800F077F9B1
:1004C0000028F9D14BA0FFF7D9FE00BF01213F481A
:1004D00000F06DF90028F9D000BF012000F05EFAAD
:1004E0000446002CF9D13AA0FFF7C8FE00BF012155
:1004F000364800F05CF90028F9D143A0FFF7BEFEB2
:1005000000BF0121314800F052F90028F9D000BFA6
:10051000022000F043FA0446002CF9D100217F208C
:1005200001F004FC6A4601A97F2001F0C1FB40B143
:100530003AA0FFF7A3FE0221244800F041F9FF2072
:100540001CBD9DF80000912811D003DC38B1832830
:1005500019D108E093280ED0942814D10FE03EA0C2
:10056000FFF78CFE0FE03FA0FFF788FE0BE04AA0EC
:10057000FFF784FE07E04FA0FFF780FE03E051A0E5
:10058000FFF77CFE00BF00BF0221104800F018F901
:100590000020D5E7C7EBBDABCAD6D6B8B7C5B5BD49
:1005A000D6B8CEC6C4A3BFE9BFAACABCD7A2B2E11F
:1005B000D6B8CEC60D0A0000B5DAD2BBB4CED6B8D6
:1005C000CEC6B2C9BCAF0D0A000000000008024050
:1005D000C7EBCCA7C6F0CAD6D6B8A3ACD4D9B4CE94
:1005E000B2C9BCAFCFC2D2BBB4CED6B8CEC60D0A4C
:1005F00000000000B5DAB6FEB4CED6B8CEC6B2C999
:10060000BCAF0D0A00000000B5DAC8FDB4CED6B804
:10061000CEC6B2C9BCAF0D0A00000000CDA8D0C53F
:10062000CAA7B0DCB5BCD6C2D7A2B2E1CAA7B0DCBB
:10063000A3A1C8E7D0E8D6D8D0C2D7A2B2E1A3AC74
:10064000C7EBD4D9B4CEBDF8C8EBD7A2B2E1B9A6F6
:10065000C4DCA3A10D0A0000D7A2B2E1B3C9B9A6B8
:100660000D0A0000494420B4EDCEF3284944203C53
:10067000203020BBF2D5DF204944203E20D7EEB405
:10068000F3D3C3BBA7CAFD29BBF2D5DFCDA8D0C524
:10069000B4EDCEF30D0A0000D7A2B2E1CAA7B0DCD8
:1006A00028D3C3BBA7C7F8D3F2D2D1C2FA290D0A07
:1006B00000000000D2D1BEADD7A2B2E1B5C420493E
:1006C000440D0A00D6B8CEC6CCE1C8A1B4CECAFD4E
:1006D000203C20330D0A0000F0B50A46002100231B
:1006E000002400BF3DE0012505FA01F3156805EA85
:1006F00003049C4234D105684F000326BE40B54335
:10070000056015794E00B5400668354305601579DA
:10071000012D02D01579022D16D185684F000326D0
:10072000BE40B543856055794E00B5408668354377
:100730008560456801268E40B543456045689679D9
:100740008E40B6B235434560C5684F000326BE40B3
:10075000B543C560D5794E00B540C6683543C56020
:10076000491C1029BFD3F0BDF0B5002300244D076C
:10077000ED0E02FA05F3CE1000F1200555F82650D3
:100780004E07F70E0F26BE40B543CF1000F12006EE
:1007900046F82750CE1000F1200555F8265045EABE
:1007A0000304CE1000F1200545F82640F0BD0246B6
:1007B000002013690B400BB1012000E000207047BE
:1007C000418370470183704770B5002100230F22D9
:1007D000C4781CB3174C246804F4E064C4F5E064E6
:1007E000C4F30721C1F10404E3B20A4144789C40F8
:1007F000E1B28478144021430C07210E0E4C057899
:100800006155047804F01F050124AC4005786D1192
:10081000AD0005F1E025C5F8004109E0047804F0D9
:100820001F050124AC40054D0678761145F8264099
:1008300070BD00000CED00E000E400E080E100E0AD
:1008400002490143024A1160704700000000FA05A6
:100850000CED00E029B1064A12680243044B1A600D
:1008600004E0034A12688243014B1A60704700009B
:100870003038024029B1064A12680243044B1A601C
:1008800004E0034A12688243014B1A60704700007B
:100890004038024029B1064A12680243044B1A60EC
:1008A00004E0034A12688243014B1A60704700005B
:1008B00044380240F0B50021002200240225002621
:1008C0000223324F3F6807F00C0121B1042905D003
:1008D000082937D105E02E4F076036E02D4F07601D
:1008E00033E02A4F3F1F3F68C7F38056274F3F1F13
:1008F0003F6807F03F036EB1264FB7FBF3F7DFF811
:100900008CC0ACF1040CDCF800C0CCF3881C07FBF5
:100910000CF40CE01E4FB7FBF3F7DFF870C0ACF13E
:10092000040CDCF800C0CCF3881C07FB0CF4174F58
:100930003F1F3F68C7F301477F1C7D00B4FBF5F7FD
:10094000076002E0124F076000BF00BF0F4F3F6813
:1009500007F0F0010909104F7A5C0768D74047603B
:100960000A4F3F6807F4E051890A0B4F7A5C4768E9
:10097000D7408760054F3F6807F46041490B064F39
:100980007A5C4768D740C760F0BD00000838024075
:100990000024F40040787D011E0000207CB5044650
:1009A0002146512001F0C2F96A4601A9512001F007
:1009B0007FF90546002D4ED19DF80000B5282DD0B9
:1009C0000BDCB2281ED003DCA0B1B1283ED115E06B
:1009D000B3281BD0B42839D11CE0B8282AD004DCB5
:1009E000B6281FD0B72831D120E0C02826D0C22891
:1009F0002CD127E01CA0FFF741FC2BE022A0FFF741
:100A00003DFC27E027A0FFF739FC23E02BA0FFF7F0
:100A100035FC1FE038A0FFF731FC1BE045A0FFF7D5
:100A20002DFC17E051A0FFF729FC13E05DA0FFF7B4
:100A300025FC0FE068A0FFF721FC0BE06CA0FFF79E
:100A40001DFC07E06EA0FFF719FC03E073A0FFF7A1
:100A500015FC00BF04E079A0FFF710FCFF207CBD6F
:100A60009DF80000FBE70000D7A5C8A1D6B8CEC608
:100A7000CDBCCFF1BCB0CCD8D5F7C1BFCCE1C8A1BB
:100A8000B3C9B9A60D0A0000D6B8CEC6B9FDD0A12B
:100A900028736D616C6C2066696E676572290D0A3A
:100AA00000000000CEDED6B8CEC620286E6F2066CD
:100AB000696E676572290D0A00000000D6B8CEC6BF
:100AC000CEBBD6C3B9FDD3DABFBFD7F3A3ACD0E852
:100AD000D2AABDABCAD6D6B8BFBFD3D2B1DFDEF47F
:100AE000B0B4A3A8206C6566742066696E676572F1
:100AF000A3A90D0A00000000D6B8CEC6CEBBD6C34F
:100B0000B9FDD3DABFBFD3D2A3ACD0E8D2AABDAB74
:100B1000CAD6D6B8BFBFD7F3B1DFDEF4B0B4A3A84E
:100B20002072696768742066696E676572A3A90D93
:100B30000A000000D6B8CEC6CEBBD6C3B9FDD3DA04
:100B4000BFBFC9CFA3ACD0E8D2AABDABCAD6D6B876
:100B5000BFBFCFC2B1DFDEF4B0B4A3A82075702050
:100B600066696E676572A3A90D0A0000D6B8CEC685
:100B7000CEBBD6C3B9FDD3DABFBFCFC2A3ACD0E8DA
:100B8000D2AABDABCAD6D6B8BFBFC9CFB1DFDEF4DB
:100B9000B0B42028646F776E2066696E676572A3B3
:100BA000A90D0A00CAAACAD6D6B820A3A8D6B8CE1C
:100BB000C6B1EDC3E6B3F6BAB9BBF2D5DFCBAED75B
:100BC000D5B9FDB6E0A3A920287765742066696EC3
:100BD000676572290D0A0000B8C9D4EFCAD6D6B825
:100BE000286472792066696E676572290D0A0000B3
:100BF000CCD8D5F7CCE1C8A1B4EDCEF30D0A0000F6
:100C0000CCD8D5F7CCE1C8A1B4EDCEF32028CDBC2B
:100C1000CFF1D6CAC1BFB2EE290D0A00D7A5C8A12F
:100C2000D6B8CEC6CDBCCFF1BCB0CCD8D5F7C1BFFD
:100C3000CCE1C8A1B4EDCEF30D0A0000CDA8D0C51B
:100C4000CAA7B0DCA3A10D0A0000000021B10288F0
:100C500042F04002028004E002884FF6BF731A405F
:100C6000028070470246002013890B400BB101201F
:100C700000E00020704701468889704781817047F5
:100C800010B50022028802F441520B884C8823439D
:100C90008C882343CC8823430C8923434C892343EA
:100CA0008C892343CC8923431A430280838B4FF2E0
:100CB000FF74234083830B8A038210BD4FF6FF62CB
:100CC000914204D0028842F48072028004E00288DB
:100CD0004FF6FF631A400280704700000CB50020F9
:100CE000019000903348006840F48030314908603A
:100CF00000BF3048006800F4003000900198401CAC
:100D00000190009818B90198B0F5A04FF1D1294889
:100D1000006800F4003010B10120009001E00020D4
:100D200000900098012844D122484030006840F0EB
:100D300080502049403108601F48006840F440401E
:100D40001D4908601B48083000681A4908310860CE
:100D50000846006808600846006840F48050086053
:100D60001648091F0860081F006840F08070091FBE
:100D7000086000BF0F48006800F000700028F9D03C
:100D800040F202700E4908600A480830006820F0FE
:100D900003000849083108600846006840F0020076
:100DA000086000BF03480830006800F00C00082805
:100DB000F8D10CBD003802400070004019544107C2
:100DC000003C024010B51548006840F4700013491B
:100DD00008601348006840F00100114908600020D5
:100DE0000F49083108600E4800680E4908400C4958
:100DF00008600D48091D0860081F006820F4802065
:100E0000091F0860002006490C310860FFF766FFE3
:100E10004FF0006001498039086010BD88ED00E0A6
:100E200000380240FFFFF6FE1030002410B501210B
:100E3000174800F050F848B30121154800F033F886
:100E40001448007801280DD113480088401C12492D
:100E5000088008460088B0F57A7F12DB00200D4933
:100E600008700EE00B48007858B90B480088401E07
:100E70000949088008460088002802DC012005494D
:100E8000087005480188054800F03FF810BD0000D3
:100E9000004001401800002016000020000800401B
:100EA000CA4302827047CA430282704721B1028856
:100EB00042F00102028004E002884FF6FE731A40FD
:100EC0000280704702460020138A0B400BB10120BC
:100ED00000E00020704730B50246002000230024C7
:100EE000158A05EA0103958905EA010413B10CB1DD
:100EF000012000E0002030BD02884FF6F7731A4051
:100F0000028002880A430280704701647047000033
:100F100000220288184B98420ED0184B98420BD0F2
:100F2000B0F1804F08D0164B984205D0154B98422F
:100F300002D0154B984204D14FF68F731A404B885C
:100F40001A43124B984207D0114B984204D04FF6E7
:100F5000FF431A400B891A4302804B68C3620B8817
:100F60000385054B984202D0044B984201D18B7AFD
:100F70000386012383827047000001400004014082
:100F80000004004000080040000C00400010004039
:100F90000014004008B540F22551204800F0AAF89E
:100FA00000282FD040F225511C4800F07BF81C4847
:100FB000007838B34FF480711A48FFF701FC1748E6
:100FC00000F052F9C0B200906A460121164800684C
:100FD00001F0F6F814480068401C134908601348F3
:100FE0000068401E114908600846006850B910A00A
:100FF000FFF744F94FF480710A48FFF7E3FB002044
:101000000749087040F22441044800F073F818B111
:10101000024800880148808808BD00000010014097
:1010200008000020000402400C00002010000020F6
:10103000D7D6BFE2C9D5C2BCCDEAB3C9210D0A00DB
:1010400010B540F22551134800F054F880B140F239
:101050002551104800F026F80E4800F005F9C1B2FD
:101060000D4802780078401C0B4B18700B488154D7
:1010700040F22441074800F03DF850B1054800888F
:101080000448001D0088002003490870012004491D
:10109000087010BD0014014014000020440000201E
:1010A0000900002010B50022002340F66A14A14276
:1010B00000D100BF0A1201249440A3B2DC43048093
:1010C00010BD21B1828942F40052828104E08289FC
:1010D0004DF6FF731A408281704702460020B1F539
:1010E000007F00D100BF13880B400BB1012000E04E
:1010F0000020704770B50246002400230025002020
:1011000040F66A16B14200D100BFC1F3421501F0AA
:101110001F03012606FA03F3012D02D196893340FD
:1011200006E0022D02D1168A334001E0968A334050
:101130000C12012606FA04F41688344013B10CB1DF
:10114000012000E0002070BDF0B503460024002619
:101150000025002040F66A17B94200D100BF1846AA
:10116000C1F3421401F01F06012707FA06F5012C0E
:1011700001D10C3004E0022C01D1103000E0143019
:101180001AB107682F43076002E00768AF430760A2
:10119000F0BD00002DE9FF4705460E460024A1469C
:1011A00000BFA046B08900B100BF2C8A24F440548F
:1011B000F08804432C82AC8941F20C608443B088EF
:1011C00031890843718908430443AC81AC8A24F413
:1011D0004074B0890443AC826846FFF76BFB20483B
:1011E000854202D01F48854202D1DDF80C9001E013
:1011F000DDF80890A88900F4004040B109EBC9006F
:1012000000EB091031684900B0FBF1F707E009EB8A
:10121000C90000EB091031688900B0FBF1F76420C8
:10122000B7FBF0F004012009642101FB1078A889C4
:1012300000F4004040B1322000EBC800B0FBF1F0F8
:1012400000F00700044308E0322000EB081064219E
:10125000B0FBF1F000F00F0004432C81BDE8FF87E4
:10126000001001400014014001468888C0F30800C6
:101270007047C1F308028280704700BF704710B505
:1012800000F0CEFA10BD000010B500241048006830
:1012900040F080000E4908600846006820F04000D9
:1012A0000860052000F008FE0948006840F0400092
:1012B00007490860052000F0FFFD0548001F006891
:1012C00000F0800000B900E00124204610BD0000BD
:1012D000140402401CB501210220FFF7BBFA0120D3
:1012E0008DF804008DF80600C020009000208DF8D5
:1012F00007008DF8050069460548FFF7EDF9402124
:101300000348FFF75FFA80210148FFF75BFA1CBD35
:101310000004024070B51548006840F08000134991
:10132000086000251DE01148006820F040000F49CA
:101330000860052000F0C0FD0C48006840F0400047
:101340000A490860052000F0B7FD6006040E074852
:10135000001F006800F0800008B144F00104681C20
:10136000C5B2082DDFDB204670BD0000140402402A
:1013700010B504461248006820F04000104908608B
:10138000052000F099FD34B90D48006820F0800078
:101390000B49086007E0012C05D10948006840F0BE
:1013A000800007490860052000F086FD04480068B9
:1013B00040F0400002490860052000F07DFD10BDAE
:1013C0001404024070B50446002528E01548006862
:1013D00020F0400013490860052000F06DFD04F086
:1013E000800030B10F48006840F080000D4908606F
:1013F00005E00C48006820F080000A4908600520DC
:1014000000F05AFD0748006840F0400005490860B8
:10141000052000F051FD6006040E681CC5B2082DC1
:10142000D4DB70BD1404024010B51048006820F0F1
:1014300040000E490860052000F03EFD0B480068A2
:1014400040F08000094908600846006840F040000C
:101450000860052000F030FD0448006820F080009E
:1014600002490860052000F027FD10BD1404024069
:1014700010B51048006820F040000E4908600520B3
:1014800000F01AFD0B48006820F080000949086050
:101490000846006840F040000860052000F00CFDA0
:1014A0000448006840F0800002490860052000F010
:1014B00003FD10BD1404024000B587B018220BA133
:1014C00001A8FEF71BFFFFF705FF0E48006840F07C
:1014D00001000C4908600C48006820F00C000A4923
:1014E000086001A800F0BAF807B000BD000083F35F
:1014F0009810101010101010101010101010101064
:1015000050000000303802400000024010B5FF24B7
:101510000C48006900F0020050B90B48007838B15F
:1015200000F014F80446FF2C02D000200649087091
:101530000448006900F0020010B10120024908705F
:10154000204610BD000002401900002010B5FF2405
:10155000FFF76AFFA020FFF735FFFFF795FE18B1F0
:10156000FFF786FF012010BD00BF3B48006800F078
:1015700040000028F9D00820FFF724FFFFF784FE81
:1015800018B1FFF775FF0220EDE700BF3248006891
:1015900000F040000028F9D0FFF746FFA120FFF738
:1015A00011FFFFF771FE18B1FFF762FF0320DAE7C2
:1015B00000BF2948006800F040000028F9D0FFF77C
:1015C000A9FE04460020FFF7D3FEFFF7A3FE44EA7E
:1015D00000240120FFF7CCFEFFF74AFF402C2AD061
:1015E0000EDC082C29D006DC012C1AD0022C1ED0CF
:1015F000042C2ED127E0102C29D0202C29D120E03A
:10160000B4F5007F21D005DC802C0ED0B4F5807FAE
:101610001FD114E0B4F5806F05D0B4F5006F18D178
:1016200007E031209FE732209DE733209BE73420FD
:1016300099E7352097E7362095E7372093E738205C
:1016400091E739208FE72A208DE730208BE7232090
:1016500089E700BFFF2086E71004024070B504460A
:101660000026FFF7E1FEA020FFF7ACFEFFF70CFE1F
:1016700018B1FFF7FDFE012070BD00BF1D480068D6
:1016800000F040000028F9D0B020FFF79BFEFFF7E4
:10169000FBFD18B1FFF7ECFE0220EDE700BF154897
:1016A000006800F040000028F9D001251BE0162D4D
:1016B00003D1F0B2FFF786FE05E02078FFF782FE47
:1016C00020780644641CFFF7DFFD18B1FFF7D0FE59
:1016D0000320D1E700BF0748006800F04000002861
:1016E000F9D0681CC5B2162DE1DDFFF7C1FE002060
:1016F000C2E700001004024045F2082200FB02F19C
:1017000000BF0A1EA1F10101FBD170471CB50020EA
:101710000090019001210220FFF79CF801208DF834
:10172000040000208DF806001820009000208DF89D
:1017300007008DF8050069460548FEF7CDFF082132
:101740000348FFF73FF810210148FFF73BF81CBDA5
:10175000000402401CB502211848FFF733F81E2090
:1017600000F078FB0021542000F0E0FA6A4601A95D
:10177000542000F09DFA40B111A0FEF77FFD022138
:101780000E48FFF71DF8FF201CBD9DF8000010B1AA
:10179000902808D103E011A0FEF770FD07E012A029
:1017A000FEF76CFD03E014A0FEF768FD00BF00BF6C
:1017B00002210248FFF704F80020E5E70008024094
:1017C000CDA8D0C5CAA7B0DC2CBDD3CAD5CAFDBE32
:1017D000DDB0FCB4EDCEF30D0A000000C9BEB3FDD0
:1017E000B3C9B9A60D0A0000CEB4D7A2B2E1B5C400
:1017F000D3C3BBA70D0A0000C9BEB3FDCAA7B0DCA6
:101800000D0A000000BF054A128802F04002002ABB
:10181000F9D0C2B2014B9A8070470000001001401D
:101820001CB501210846FFF715F801210420FFF738
:1018300011F800200090019001208DF80400002094
:101840008DF806004FF48070009000208DF807009E
:1018500002208DF8050069461148FEF73DFF012082
:101860008DF804008DF806004002009000208DF8ED
:10187000070002208DF8050069460A48FEF72CFF94
:101880000748406940F480700549486105481430B4
:10189000006840F400700349143108601CBD00006A
:1018A00000000240000802401CB50020009001909A
:1018B00001210420FEF7CEFF00208DF804004FF434
:1018C0000050009069460248FEF706FF1CBD00006C
:1018D0000008024010B54FF400510C48FEF767FFB6
:1018E00010B10B48007860B90A20FFF705FF4FF4EC
:1018F00000510648FEF75BFF30B90120044908702B
:1019000010BD0020024908700020F9E700080240DD
:101910000000002070B505462A2000F051FA002092
:1019200000F07EFAEF2000F07BFA2B2000F048FA5E
:10193000002000F075FAEF2000F072FA2C2000F081
:101940003FFA002403E0284600F06AFA641CB4F56C
:10195000614FF8D370BD000010B500F0C3F800F07F
:1019600011F900F01BFA362000F02AFA002000F0EE
:101970003FFA3A2000F024FA052000F039FAB220AC
:1019800000F01EFA0C2000F033FA0C2000F030FAC0
:10199000002000F02DFA332000F02AFA332000F066
:1019A00027FAB72000F00CFA352000F021FABB200E
:1019B00000F006FA192000F01BFAC02000F000FA2F
:1019C0002C2000F015FAC22000F0FAF9012000F0F6
:1019D0000FFAC32000F0F4F9122000F009FAC42035
:1019E00000F0EEF9202000F003FAC62000F0E8F93C
:1019F0000F2000F0FDF9D02000F0E2F9A42000F063
:101A0000F7F9A12000F0F4F9E02000F0D9F9D02096
:101A100000F0EEF9042000F0EBF90D2000F0E8F9F9
:101A2000112000F0E5F9132000F0E2F92B2000F07E
:101A3000DFF93F2000F0DCF9542000F0D9F94C2008
:101A400000F0D6F9182000F0D3F90D2000F0D0F9FD
:101A50000B2000F0CDF91F2000F0CAF9232000F080
:101A6000C7F9E12000F0ACF9D02000F0C1F9042062
:101A700000F0BEF90C2000F0BBF9112000F0B8F91D
:101A8000132000F0B5F92C2000F0B2F93F2000F04F
:101A9000AFF9442000F0ACF9512000F0A9F92F2053
:101AA00000F0A6F91F2000F0A3F91F2000F0A0F914
:101AB000202000F09DF9232000F09AF9212000F069
:101AC0007FF9112000F07CF9292000F079F902213A
:101AD0000348FEF777FE0020FFF71CFF10BD000053
:101AE000000402401CB501210220FEF7B3FE45F2BE
:101AF0000240009001208DF8040000208DF80600BF
:101B00008DF8070069460648FEF7E6FD0221044805
:101B1000FEF758FE4FF480510148FEF753FE1CBDFE
:101B20000004024070B504464FF400511448FEF71B
:101B300047FE4FF400411248FEF744FE00251BE02B
:101B40004FF400510E48FEF73BFE04F0800028B130
:101B50004FF400410A48FEF735FE04E04FF400411F
:101B60000748FEF72DFE4FF400510548FEF72AFE08
:101B70006006040E681CC5B2082DE1DB70BD0000D4
:101B8000000402401CB501210220FEF763FE002084
:101B9000009001904FF42040009001208DF8040047
:101BA00000208DF806008DF8070002208DF8050052
:101BB00069460248FEF790FD1CBD0000000402408B
:101BC0001CB500200090019001210220FEF742FE8A
:101BD00001208DF8040000208DF806004FF44070BD
:101BE000009000208DF8070002208DF8050069465E
:101BF0000648FEF771FD4FF480710448FEF7E2FDE0
:101C00004FF400710148FEF7DDFD1CBD00040240E9
:101C10004FF4E13000F07EF900F0B0FAFFF744FE37
:101C2000FFF7CEFF00F0A8FB00F04CFAFFF794FEA0
:101C3000FFF742FCFFF723FBFFF768FD00F00EF80B
:101C40000BE0FFF763FC0446312C02D1FEF714FCD5
:101C500003E0322C01D1FFF77DFDF2E71CB54FF414
:101C6000E13000F0BBF901210420FEF7F3FD002074
:101C7000009001908DF804000120009000208DF864
:101C800007008DF8050069460848FEF725FD01208C
:101C90008DF804000220009069460448FEF71CFD00
:101CA00002210248FEF78CFD1CBD00000008024026
:101CB00030B5034600BF1B4800780028FBD0002049
:101CC000184D2870184800786C2801D0012030BDCC
:101CD00015484078622801D00220F8E71248807841
:101CE000632801D00320F2E70F48C078984201D062
:101CF0000420ECE70C48007910700B48407908701C
:101D000003F1C500157828440D782844064DAD79B7
:101D10002844C4B20448C079A04201D00620D6E7C6
:101D20000020D4E7090000204400002070B50546DB
:101D30000C4600266C2000F0B5F9632000F0B2F9E3
:101D4000622000F0AFF9284600F0ACF9204600F020
:101D5000A9F9002000F0A6F905F1C5002044C6B29B
:101D6000304600F09FF900200149087070BD000066
:101D70000900002010B510210748FEF721FD0520BD
:101D800000F058FAFF2000F055FA044610210248EE
:101D9000FEF718FD204610BD0000024010B54FF4BC
:101DA00080610648FEF70CFD642000F053F84FF404
:101DB00080610248FEF706FD10BD000000040240ED
:101DC00010B504464FF480510848FEF7F9FC4FF473
:101DD00080410648FEF7F4FC2046FFF7A3FE4FF4CF
:101DE00080510248FEF7EEFC10BD000000040240E6
:101DF00010B504464FF480510848FEF7E1FC4FF45B
:101E000080410648FEF7DEFC2046FFF78BFE4FF4CC
:101E100080510248FEF7D6FC10BD000000040240CD
:101E200010B504464FF480510948FEF7C9FC4FF441
:101E300080410748FEF7C6FC2012FFF773FEE0B2B0
:101E4000FFF770FE4FF480510148FEF7BBFC10BD58
:101E5000000402403EB5044601210820FEF70AFDB9
:101E60000020009001900290ADF80800ADF802004B
:101E700004EB84000121C1EB4000019042F2CF004D
:101E8000ADF8000069460B48FFF742F80821094801
:101E9000FFF732F801210748FFF702F80121054852
:101EA000FFF704F800BF01210248FFF70BF80028F4
:101EB000F9D03EBD000C00403EB50446012108208B
:101EC000FEF7D8FC0020009001900290ADF80800C9
:101ED000ADF80200601E01905320ADF80000694685
:101EE0000B48FFF715F808210948FFF705F801210D
:101EF0000748FEF7D5FF01210548FEF7D7FF00BFD1
:101F000001210348FEF7DEFF0028F9D03EBD0000A6
:101F1000000C004010B588B0044601210846FEF7C9
:101F200099FC00200690079002208DF81C000020EC
:101F30008DF81E004FF4C060069000208DF81F0041
:101F40008DF81D0006A92348FEF7C6FB07220921CC
:101F50002048FEF709FC07220A211E48FEF704FC70
:101F600001211020FEF796FC02940020ADF8140029
:101F70000C20ADF812000020ADF81000ADF80E00F6
:101F8000ADF80C0002A91448FFF704F9012240F251
:101F900025511148FFF7D8F8012240F224410E489C
:101FA000FFF7D2F84FF4A060FEF74AFC25208DF829
:101FB000040001208DF807008DF805008DF806005B
:101FC00001A8FEF701FC01210348FFF77AF808B0E9
:101FD00010BD0000000002400010014010B588B0A4
:101FE000044601210420FEF735FC002006900790EE
:101FF00002208DF81C0000208DF81E00C0200690E5
:1020000000208DF81F008DF81D0006A92348FEF75B
:1020100063FB082206212148FEF7A6FB08220721C0
:102020001E48FEF7A1FB01212020FEF733FC002013
:1020300002900390049005900294ADF814000C20D7
:10204000ADF812000020ADF81000ADF80E00ADF8AC
:102050000C0002A91248FFF79DF8012240F2255119
:102060000F48FFF771F8012240F224410C48FFF7B6
:102070006BF847208DF8040001208DF80700002040
:102080008DF8050001208DF8060001A8FEF79CFBE5
:1020900001210348FFF715F808B010BD0008024001
:1020A0000014014010B5044600BF40210448FFF76A
:1020B00014F80028F9D021460148FFF7DAF810BDDE
:1020C000001401401CB50020009001900121042063
:1020D000FEF7C0FB01208DF8040000208DF80600FB
:1020E0002020009000208DF807008DF8050069463B
:1020F0000848FEF7F1FA00208DF804001020009047
:1021000069460448FEF7E8FA20210248FEF758FB2A
:102110001CBD00000008024010B5044600F000F9A4
:1021200010210E48FEF74CFBD82000F083F8C4F3D2
:10213000074000F07FF8C4F3072000F07BF8E0B21E
:1021400000F078F810210548FEF73CFB00BFFFF7D0
:1021500011FE00F001000028F9D110BD000002407E
:1021600070B505460C4606E02846FFF7D5FF05F595
:102170008035601EC4B2002CF6D170BD1CB500F0D5
:1021800077F801210846FEF765FB01208DF8040071
:1021900000208DF806001020009000208DF8070028
:1021A00002208DF8050069460448FEF795FA1021D3
:1021B0000248FEF707FB00F0C3F81CBD0000024018
:1021C00070B504460D461646210A6019401EB1EB53
:1021D000102F01D0002070BD00F0A2F8102114488B
:1021E000FEF7EEFA022000F025F8C4F3074000F0F5
:1021F00021F8C4F3072000F01DF8E0B200F01AF84F
:1022000007E0307800F016F8681EC5B205B901E0A5
:10221000761CF6E700BF10210548FEF7D3FA00BF91
:10222000FFF7A8FD00F001000028F9D10120D2E756
:102230000000024070B50446002500BF02210B4893
:10224000FEF710FD0028F9D021460848FEF716FDDC
:1022500000BF01210548FEF705FD0028F9D003481D
:10226000FEF709FDC5B2284670BD000000300140F0
:1022700000B587B001210846FEF7ECFA02208DF880
:10228000180000208DF81A00E020059000208DF83D
:102290001B0002208DF8190005A91F48FEF71CFA43
:1022A000052211461C48FEF75FFA052206211A484E
:1022B000FEF75AFA052207211748FEF755FA0121C1
:1022C0000803FEF7E7FA14216846FEF749F80020F4
:1022D000ADF80C00ADF80800ADF80600ADF804004C
:1022E000ADF80000ADF80E004FF48270ADF80200BA
:1022F0004FF40070ADF80A0069460848FEF7C0FCCC
:102300004FF480710548FEF7D9FC01210348FEF720
:102310009DFC07B000BD00000000024000300140FD
:1023200010B510210548FEF74BFA0620FFF782FF93
:1023300010210248FEF746FA10BD000000000240DE
:1023400010B5FFF7EDFF10210A48FEF739FA01201A
:10235000FFF770FF0020FFF76DFF10210548FEF723
:1023600031FA00BFFFF706FD00F001000028F9D1A7
:1023700010BD00000000024010B5FFF7ABFA0446A4
:10238000012C0BD10649087006A0FDF777FF152137
:102390000020FFF7E5FE0BA0FDF770FF10BD000069
:1023A00008000020D5FDD4DAB2C1B3FDB4E6B4A272
:1023B000D0BEC6AC2CC7EBB5C8B4FD2E2E2E0D0A70
:1023C00000000000B2C1B3FDCDEAB3C92CC7EBC910
:1023D000D5C2BCD7D6BFE22E2E2E0D0A00000000BB
:1023E0004FF04070E1EE100A704700000C24000826
:1023F0000000002030000000D00100083C2400084C
:102400003000002080060000EC0100080000000001
:10241000000000000000000000000000581F140031
:1024200000000000010101000001000000000102A5
:0C24300003040102030406070809000071
:040000050800019559
:00000001FF
