:020000040800F2
:10000000900600203D020008450200084702000853
:10001000490200084B0200084D02000800000000E1
:100020000000000000000000000000004F02000877
:1000300051020008000000005302000855020008A9
:10004000570200085702000857020008570200082C
:10005000570200085702000857020008570200081C
:10006000570200085702000857020008570200080C
:1000700057020008570200085702000857020008FC
:10008000570200085702000857020008000000004D
:1000900000000000000000000000000057020008FF
:1000A00057020008570200085702000857020008CC
:1000B00057020008570200085702000857020008BC
:1000C00057020008570200085702000857020008AC
:1000D00057020008450A0008570200080000000007
:1000E00057020008570200085702000800000000ED
:1000F000000000000000000000000000570200089F
:1001000000000000570200085702000857020008CC
:1001100000000000000000000000000000000000DF
:10012000570200085702000857020008570200084B
:10013000570200080000000000000000000000005E
:10014000000000000000000000000000570200084E
:10015000570200085702000857020008570200081B
:1001600057020008570200080000000000000000CD
:10017000000000000000000000000000000000007F
:10018000000000005702000800000000000000000E
:100190005702000800F002F800F041F80AA090E8C9
:1001A000000C82448344AAF10107DA4501D100F032
:1001B00036F8AFF2090EBAE80F0013F0010F18BFBE
:1001C000FB1A43F0010318470C1200002C12000028
:1001D000103A24BF78C878C1FAD8520724BF30C873
:1001E00030C144BF04680C60704700000023002445
:1001F00000250026103A28BF78C1FBD8520728BF37
:1002000030C148BF0B607047732900F05181002056
:1002100070471FB501F0D8F81FBD10B510BD00F034
:1002200079F91146FFF7F5FF00F0BCFF00F097F9F0
:1002300003B4FFF7F2FF03BC00F035FD0948804727
:1002400009480047FEE7FEE7FEE7FEE7FEE7FEE7B8
:10025000FEE7FEE7FEE7FEE704480549054A064BD0
:100260007047000015090008950100089000002063
:1002700090060020900200209002002070470000AD
:100280000FB4044910B503AA029800F015F910BC88
:100290005DF814FB000000202DE9F0410E460446F5
:1002A000002020622046E168884730B3252805D029
:1002B000D4E901219047206A401CF2E7E16820461A
:1002C00000278847050018D0A5F14100192802D859
:1002D00020354FF400673246294620462760FFF755
:1002E00093FF40B1012804D0F61D26F0070608361A
:1002F000D8E7361DD6E72846DAE7206ABDE8F08160
:1003000070B50C460546012A05D02878800600D530
:10031000EA69002302E0012305E05B1C934202D25C
:10032000E05C0028F9D1A869E618C01AA861286A1B
:10033000184428622846AFF3008004E0D5E9012183
:1003400014F8010B9047B442F8D32846AFF300806D
:1003500070BD10B5203AC0F00B80B1E81850203ABB
:10036000A0E81850B1E81850A0E81850BFF4F5AF55
:100370005FEA027C24BFB1E81850A0E8185044BFDF
:1003800018C918C0BDE810405FEA827C24BF51F84C
:10039000043B40F8043B08BF7047D20728BF31F840
:1003A000023B48BF11F8012B28BF20F8023B48BF91
:1003B00000F8012B70474FF0000200B51346944639
:1003C0009646203922BFA0E80C50A0E80C50B1F1AD
:1003D0002001BFF4F7AF090728BFA0E80C5048BFC1
:1003E0000CC05DF804EB890028BF40F8042B08BF5F
:1003F000704748BF20F8022B11F0804F18BF00F85B
:10040000012B70474FF0013C50F8042B51F8043B8E
:100410009A4221D1A2EB0C03934313EACC1317D1D8
:1004200050F8042B51F8043B9A4215D1A2EB0C036F
:10043000934313EACC130BD150F8042B51F8043B2F
:100440009A4209D1A2EB0C03934313EACC13DBD0FD
:100450004FF00000704700BFD01A01BAB1FA81F125
:1004600001F0180122FA01F0CB40C1F12001DBB20A
:10047000C0B2C01A2CFA01F3D11A914311EAC31188
:10048000E6D17047704770477047704710B54369B1
:1004900013B1AFF3008001E0FFF732FF012010BD80
:1004A000127800F124010A7000224A700122EDE75F
:1004B00011684FF0FF32E9E7074B70B50D467B44FA
:1004C00000F011F80446284600F020F810B14FF073
:1004D000FF3070BD204670BDBF09000001694A1C95
:1004E00002610878704700B58FB0CDE90131002175
:1004F000059105497944CDE9031011466846FFF797
:10050000CBFE0FB000BD0000E5FFFFFF007B00F059
:1005100080007047754600F02BF8AE46050069462E
:10052000534620F00700854618B020B5FFF794FE2B
:10053000BDE820404FF000064FF000074FF00008E4
:100540004FF0000B21F00701AC46ACE8C009ACE865
:10055000C009ACE8C009ACE8C0098D46704710B5C9
:100560000446AFF300802046BDE81040FFF760BEB0
:10057000004870472C000020F0B50A4600210023F7
:10058000002400BF3DE0012505FA01F3156805EAE6
:1005900003049C4234D105684F000326BE40B54396
:1005A000056015794E00B54006683543056015793C
:1005B000012D02D01579022D16D185684F00032632
:1005C000BE40B543856055794E00B54086683543D9
:1005D0008560456801268E40B5434560456896793B
:1005E0008E40B6B235434560C5684F000326BE4015
:1005F000B543C560D5794E00B540C6683543C56082
:10060000491C1029BFD3F0BDF0B5002300244D07CD
:10061000ED0E02FA05F3CE1000F1200555F8265034
:100620004E07F70E0F26BE40B543CF1000F120064F
:1006300046F82750CE1000F1200555F8265045EA1F
:100640000304CE1000F1200545F82640F0BD41839B
:10065000704701837047000070B5002100230F220E
:10066000C4781CB3174C246804F4E064C4F5E06457
:10067000C4F30721C1F10404E3B20A4144789C4069
:10068000E1B28478144021430C07210E0E4C05780A
:100690006155047804F01F050124AC4005786D1104
:1006A000AD0005F1E025C5F8004109E0047804F04B
:1006B0001F050124AC40054D0678761145F826400B
:1006C00070BD00000CED00E000E400E080E100E01F
:1006D00002490143024A1160704700000000FA0518
:1006E0000CED00E029B1064A12680243044B1A607F
:1006F00004E0034A12688243014B1A60704700000D
:100700003038024029B1064A12680243044B1A608D
:1007100004E0034A12688243014B1A6070470000EC
:100720004038024029B1064A12680243044B1A605D
:1007300004E0034A12688243014B1A6070470000CC
:1007400044380240F0B50021002200240225002692
:100750000223324F3F6807F00C0121B1042905D074
:10076000082937D105E02E4F076036E02D4F07608E
:1007700033E02A4F3F1F3F68C7F38056274F3F1F84
:100780003F6807F03F036EB1264FB7FBF3F7DFF882
:100790008CC0ACF1040CDCF800C0CCF3881C07FB67
:1007A0000CF40CE01E4FB7FBF3F7DFF870C0ACF1B0
:1007B000040CDCF800C0CCF3881C07FB0CF4174FCA
:1007C0003F1F3F68C7F301477F1C7D00B4FBF5F76F
:1007D000076002E0124F076000BF00BF0F4F3F6885
:1007E00007F0F0010909104F7A5C0768D7404760AD
:1007F0000A4F3F6807F4E051890A0B4F7A5C47685B
:10080000D7408760054F3F6807F46041490B064FAA
:100810007A5C4768D740C760F0BD000008380240E6
:100820000024F40040787D01050000200CB5002074
:10083000019000903348006840F4803031490860EE
:1008400000BF3048006800F4003000900198401C60
:100850000190009818B90198B0F5A04FF1D129483E
:10086000006800F4003010B10120009001E0002089
:1008700000900098012844D122484030006840F0A0
:1008800080502049403108601F48006840F44040D3
:100890001D4908601B48083000681A490831086083
:1008A0000846006808600846006840F48050086008
:1008B0001648091F0860081F006840F08070091F73
:1008C000086000BF0F48006800F000700028F9D0F1
:1008D00040F202700E4908600A480830006820F0B3
:1008E00003000849083108600846006840F002002B
:1008F000086000BF03480830006800F00C000828BA
:10090000F8D10CBD00380240007000401954410776
:10091000003C024010B51548006840F470001349CF
:1009200008601348006840F0010011490860002089
:100930000F49083108600E4800680E4908400C490C
:1009400008600D48091D0860081F006820F4802019
:10095000091F0860002006490C310860FFF766FF98
:100960004FF0006001498039086010BD88ED00E05B
:1009700000380240FFFFF6FE10300024CA43028216
:10098000704721B1028842F00102028004E002882F
:100990004FF6FE731A400280704702460020138A09
:1009A0000B400BB1012000E00020704702884FF699
:1009B000F7731A40028002880A43028070470000E1
:1009C00000220288184B98420ED0184B98420BD048
:1009D000B0F1804F08D0164B984205D0154B984285
:1009E00002D0154B984204D14FF68F731A404B88B2
:1009F0001A43124B984207D0114B984204D04FF63D
:100A0000FF431A400B891A4302804B68C3620B886C
:100A10000385054B984202D0044B984201D18B7A52
:100A200003860123838270470000014000040140D7
:100A30000004004000080040000C0040001000408E
:100A40000014004010B540F225511D4800F06DF82B
:100A500080B140F225511A4800F04CF8184800F0D7
:100A60001DF91849184A1278885417480078401C14
:100A70001549087040F22441114800F056F8E8B1D9
:100A80000F4800880E48808800200E490E4A1278D0
:100A900088540D4908700B490CA0FFF7F1FB11A118
:100AA0000848FFF7AFFC10B900F0B2FB06E00FA159
:100AB0000448FFF7A7FC08B900F0C0F910BD00001A
:100AC000001001401800002004000020BDD3CAD54A
:100AD000B5BDB5C4D7D6B7FBB4AECAC7A3BA2573E4
:100AE0000D0A00006F70656E00000000636C6F738C
:100AF0006500000010B50022002340F66A14A142F0
:100B000000D100BF0A1201249440A3B2DC43048048
:100B100010BD21B1828942F40052828104E08289B1
:100B20004DF6FF731A408281704770B5024600246B
:100B300000230025002040F66A16B14200D100BF14
:100B4000C1F3421501F01F03012606FA03F3012D3C
:100B500002D19689334006E0022D02D1168A334035
:100B600001E0968A33400C12012606FA04F4168836
:100B7000344013B10CB1012000E0002070BDF0B58D
:100B80000346002400260025002040F66A17B942DB
:100B900000D100BF1846C1F3421401F01F0601271F
:100BA00007FA06F5012C01D10C3004E0022C01D12A
:100BB000103000E014301AB107682F43076002E0DC
:100BC0000768AF430760F0BD2DE9FF4705460E46B5
:100BD0000024A14600BFA046B08900B100BF2C8A06
:100BE00024F44054F08804432C82AC8941F20C6018
:100BF0008443B08831890843718908430443AC8138
:100C0000AC8A24F44074B0890443AC826846FFF790
:100C100099FD2048854202D01F48854202D1DDF867
:100C20000C9001E0DDF80890A88900F4004040B184
:100C300009EBC90000EB091031684900B0FBF1F77E
:100C400007E009EBC90000EB091031688900B0FB2F
:100C5000F1F76420B7FBF0F004012009642101FBE7
:100C60001078A88900F4004040B1322000EBC800A1
:100C7000B0FBF1F000F00700044308E0322000EB85
:100C800008106421B0FBF1F000F00F0004432C8148
:100C9000BDE8FF870010014000140140014688882C
:100CA000C0F30800704700BF704710B500F02AF984
:100CB00010BD2DE9F04105460E46174600F024FA16
:100CC000FF2D03DCA02000F0E5F902E0A22000F0F7
:100CD000E1F900F0E3F80446012C04D100F03EFAFB
:100CE0000120BDE8F081E8B200F0D4F900F0D6F8B8
:100CF0000446012C03D100F031FA0220F1E700F0A4
:100D000003FAFF2D03DCA12000F0C4F902E0A320C8
:100D100000F0C0F900F0C2F80446012C03D100F045
:100D20001DFA0120DDE70DE000F030F93870701E8B
:100D3000C6B21EB9012000F065F904E0002000F001
:100D400061F97F1CF0E700BF00F008FA0020C8E757
:100D50002DE9F04104460E4617461AE02046E117F9
:100D600004EB11710911A4EB0111C1F11001CDB215
:100D7000B54204DB3A46314600F010F80AE03A4644
:100D80002946204600F00AF8601984B2701BC6B2EA
:100D90002F44E3E700BF0020BDE8F0812DE9F041DA
:100DA00004460E461746A219501EE21704EB1272B3
:100DB0001211C31700EB1373B2EB231F02D00420F0
:100DC000BDE8F08100F0A0F9FF2C03DCA02000F0CA
:100DD00061F902E0A22000F05DF900F05FF805463D
:100DE000012D03D100F0BAF90120E9E7E0B200F0EB
:100DF00051F900F053F80546012D03D100F0AEF98A
:100E00000220DDE710E0387800F044F900F046F801
:100E10000546012D03D100F0A1F90320D0E7701E93
:100E2000C6B206B901E07F1CEDE700BF00F096F9FD
:100E3000052000F005FA0020C2E7000010B50821E7
:100E40000948FFF704FC10210748FFF702FC4FF4A4
:100E5000967000F00BF808210348FFF7FAFB102109
:100E60000148FFF7F6FB10BD00040240014645F2C1
:100E7000082201FB02F000E0401E0028FCD1704770
:100E800000BF054A128802F04002002AF9D0C2B21F
:100E9000014B9A80704700000010014010B51748C0
:100EA000406920F48070154948611548006840F495
:100EB0000070134908601148406920F480700F49A0
:100EC0004861052000F0EEF90C48406940F480705C
:100ED0000A494861052000F0E5F90948001F00684B
:100EE00000F4007008B9002400E0012403484069C0
:100EF00020F4807001494861204610BD0000024086
:100F0000140802401CB501210846FFF7EBFB012144
:100F10000420FFF7E7FB00200090019001208DF8EE
:100F2000040000208DF806004FF48070009000202F
:100F30008DF8070002208DF8050069461148FFF77B
:100F40001BFB01208DF804008DF806004002009084
:100F500000208DF8070002208DF8050069460A4838
:100F6000FFF70AFB0748406940F480700549486173
:100F700005481430006840F40070034914310860DB
:100F80001CBD0000000002400008024070B51B4874
:100F9000406920F48070194948611948006840F49C
:100FA00000701749086000251DE01448406920F4CE
:100FB000807012494861052000F074F90F484069BB
:100FC00040F480700D494861052000F06BF960061F
:100FD000040E0B48001F006800F4007008B144F0D4
:100FE0000104681CC5B2082DDFDB0448406920F409
:100FF000807002494861204670BD00000000024038
:101000001408024010B50446DCB92048406920F4B9
:1010100080701E494861052000F044F91C480068B2
:1010200020F400701A490860052000F03BF91748C9
:10103000406940F4807015494861052000F032F99C
:101040001CE0012C1AD11148406920F480700F492E
:101050004861052000F026F90D48006840F4007052
:101060000B490860052000F01DF90848406940F46C
:10107000807006494861052000F014F90348406972
:1010800020F480700149486110BD0000000002405A
:101090001408024070B50446002528E0184840694D
:1010A00020F4807016494861052000F0FBF804F038
:1010B000800030B11348006840F4007011490860A6
:1010C00005E01048006820F400700E490860052013
:1010D00000F0E8F80A48406940F480700849486127
:1010E000052000F0DFF86006040E681CC5B2082D6C
:1010F000D4DB0348406920F480700149486170BD29
:10110000000002401408024010B51248406920F463
:101110008070104948611048006840F400700E4922
:1011200008600C48406940F480700A494861052015
:1011300000F0B8F80848006820F40070064908601C
:10114000052000F0AFF80348406920F480700149A1
:10115000486110BD000002401408024010B50F485D
:10116000406920F480700D4948610D48006820F402
:1011700000700B4908600948406940F480700749D5
:101180004861052000F08EF80548006840F40070C2
:1011900003490860052000F085F810BD00000240FA
:1011A000140802408EB0182210A108A8FFF7D1F849
:1011B00020216846FFF7FFF84FF4E13000F0A0F877
:1011C000FFF773FD08AA18210020FFF7C1FD6A464A
:1011D0001E210020FFF76DFD07E0694609A0FFF71B
:1011E0004FF84FF4FA7000F02BF8F6E7BDF1CCECB5
:1011F000CAC732303232C4EA36D4C238C8D568657C
:101200006C6C6F007265633A25730D0A0000000074
:1012100010B508210948FFF71CFA10210748FFF70D
:1012200016FA4FF49670FFF721FE08210348FFF7E6
:1012300010FA10210148FFF70CFA10BD000402401B
:101240003EB5044601210820FFF75CFA002000901B
:1012500001900290ADF80800ADF8020004EB8400A4
:101260000121C1EB4000019042F2CF00ADF8000037
:1012700069460B48FFF7A4FB08210948FFF796FBD6
:1012800001210748FFF77AFB01210548FFF779FBA9
:1012900000BF01210248FFF780FB0028F9D03EBDC6
:1012A000000C00403EB5044601210820FFF72AFA51
:1012B0000020009001900290ADF80800ADF8020007
:1012C000601E01905320ADF8000069460B48FFF7FF
:1012D00077FB08210948FFF769FB01210748FFF761
:1012E0004DFB01210548FFF74CFB00BF01210348DE
:1012F000FFF753FB0028F9D03EBD0000000C004072
:1013000010B588B0044601210846FFF7EBF900202C
:101310000690079002208DF81C0000208DF81E001A
:101320004FF4C060069000208DF81F008DF81D005E
:1013300006A92348FFF720F9072209212048FFF7D3
:1013400063F907220A211E48FFF75EF901211020E8
:10135000FFF7E8F902940020ADF814000C20ADF876
:1013600012000020ADF81000ADF80E00ADF80C0032
:1013700002A91448FFF728FC012240F22551114828
:10138000FFF7FDFB012240F224410E48FFF7F7FB77
:101390004FF4A060FFF79CF925208DF80400012090
:1013A0008DF807008DF805008DF8060001A8FFF7FD
:1013B00053F901210348FFF7ACFB08B010BD000052
:1013C00000000240001001404FF04070E1EE100AB2
:1013D00070470000F413000800000020180000000F
:1013E000D00100080C140008180000207806000046
:1013F000EC010008000000000000000000010203F2
:0C140000040102030406070809000000B4
:040000050800019559
:00000001FF
