:020000040800F2
:10000000A0060020350200083D0200083F0200085B
:1000100041020008430200084502000800000000F9
:10002000000000000000000000000000470200087F
:1000300049020008000000004B0200084D020008C1
:100040004F0200084F0200084F0200084F0200084C
:100050004F0200084F0200084F0200084F0200083C
:100060004F0200084F0200084F0200084F0200082C
:100070004F0200084F0200084F0200084F0200081C
:100080004F0200084F0200084F0200080000000065
:100090000000000000000000000000004F02000807
:1000A000590900084F0200084F0200084F020008DB
:1000B0004F0200084F0200084F0200084F020008DC
:1000C0004F0200084F0200084F0200084F020008CC
:1000D0004F020008C10A00084F020008000000009B
:1000E0004F0200084F0200084F0200080000000005
:1000F0000000000000000000000000004F020008A7
:10010000000000004F0200084F0200084F020008E4
:1001100000000000000000000000000000000000DF
:100120004F0200084F0200084F0200084F0200086B
:100130004F02000800000000000000000000000066
:100140000000000000000000000000004F02000856
:100150004F0200084F0200084F0200084F0200083B
:100160004F0200084F0200080000000000000000DD
:10017000000000000000000000000000000000007F
:10018000000000004F020008000000000000000016
:100190004F02000800F002F800F03CF80AA090E8D6
:1001A000000C82448344AAF10107DA4501D100F032
:1001B00031F8AFF2090EBAE80F0013F0010F18BFC3
:1001C000FB1A43F001031847042400002424000014
:1001D000103A24BF78C878C1FAD8520724BF30C873
:1001E00030C144BF04680C60704700000023002445
:1001F00000250026103A28BF78C1FBD8520728BF37
:1002000030C148BF0B6070471FB502F0D9F91FBD60
:1002100010B510BD00F008F91146FFF7F5FF01F029
:100220004DFD00F03AF903B4FFF7F2FF03BC00F014
:1002300076FD00000948804709480047FEE7FEE7D1
:10024000FEE7FEE7FEE7FEE7FEE7FEE7FEE7FEE786
:1002500004480549054A064B70470000F1080008AC
:1002600095010008A0000020A0060020A0020020A8
:10027000A0020020704700000FB4044910B503AA83
:10028000029800F0A3F810BC5DF814FB00000020F9
:1002900010B5203AC0F00B80B1E81850203AA0E821
:1002A0001850B1E81850A0E81850BFF4F5AF5FEA55
:1002B000027C24BFB1E81850A0E8185044BF18C908
:1002C00018C0BDE810405FEA827C24BF51F8043BAF
:1002D00040F8043B08BF7047D20728BF31F8023B03
:1002E00048BF11F8012B28BF20F8023B48BF00F897
:1002F000012B70474FF0000200B513469446964616
:10030000203922BFA0E80C50A0E80C50B1F1200128
:10031000BFF4F7AF090728BFA0E80C5048BF0CC0D6
:100320005DF804EB890028BF40F8042B08BF704734
:1003300048BF20F8022B11F0804F18BF00F8012BA6
:10034000704700004FF0013C50F8042B51F8043B7B
:100350009A4221D1A2EB0C03934313EACC1317D199
:1003600050F8042B51F8043B9A4215D1A2EB0C0330
:10037000934313EACC130BD150F8042B51F8043BF0
:100380009A4209D1A2EB0C03934313EACC13DBD0BE
:100390004FF00000704700BFD01A01BAB1FA81F1E6
:1003A00001F0180122FA01F0CB40C1F12001DBB2CB
:1003B000C0B2C01A2CFA01F3D11A914311EAC31149
:1003C000E6D170477047704770477047074B70B56C
:1003D0000D467B4400F011F80446284600F020F852
:1003E00010B14FF0FF3070BD204670BDC710000047
:1003F00001694A1C02610878704700B58FB0CDE9E9
:1004000001310021059105497944CDE903101146D8
:10041000684600F02EF80FB000BD0000E5FFFFFFBA
:10042000007B00F080007047754600F03FF8AE4654
:1004300005006946534620F00700854618B020B5F0
:10044000FFF706FFBDE820404FF000064FF0000721
:100450004FF000084FF0000B21F00701AC46ACE86C
:10046000C009ACE8C009ACE8C009ACE8C0098D46D9
:1004700070472DE9F04106460024D6E90170F56881
:100480008046304603E04146B847641C3046A847E2
:100490000028F8D12046BDE8F08110B50446AFF33E
:1004A00000802046BDE81040FFF7BDBE0048704701
:1004B0003C000020F0B50A4600210023002400BFC4
:1004C0003DE0012505FA01F3156805EA03049C42A5
:1004D00034D105684F000326BE40B5430560157949
:1004E0004E00B5400668354305601579012D02D0F0
:1004F0001579022D16D185684F000326BE40B543FD
:10050000856055794E00B5408668354385604568FD
:1005100001268E40B5434560456896798E40B6B257
:1005200035434560C5684F000326BE40B543C560EE
:10053000D5794E00B540C6683543C560491C1029C1
:10054000BFD3F0BDF0B5002300244D07ED0E02FA35
:1005500005F3CE1000F1200555F826504E07F70E92
:100560000F26BE40B543CF1000F1200646F82750B5
:10057000CE1000F1200555F8265045EA0304CE10B0
:1005800000F1200545F82640F0BD02460020136921
:100590000B400BB1012000E0002070474183704701
:1005A0000183704770B5002100230F22C4781CB36B
:1005B000174C246804F4E064C4F5E064C4F3072134
:1005C000C1F10404E3B20A4144789C40E1B284786A
:1005D000144021430C07210E0E4C05786155047818
:1005E00004F01F050124AC4005786D11AD0005F144
:1005F000E025C5F8004109E0047804F01F05012456
:10060000AC40054D0678761145F8264070BD0000D7
:100610000CED00E000E400E080E100E0024901436D
:10062000024A1160704700000000FA050CED00E07E
:1006300029B1064A12680243044B1A6004E0034AD7
:1006400012688243014B1A60704700003038024044
:1006500029B1064A12680243044B1A6004E0034AB7
:1006600012688243014B1A60704700004038024014
:1006700029B1064A12680243044B1A6004E0034A97
:1006800012688243014B1A607047000044380240F0
:10069000F0B5002100220024022500260223324F5B
:1006A0003F6807F00C0121B1042905D0082937D192
:1006B00005E02E4F076036E02D4F076033E02A4FEC
:1006C0003F1F3F68C7F38056274F3F1F3F6807F023
:1006D0003F036EB1264FB7FBF3F7DFF88CC0ACF1E8
:1006E000040CDCF800C0CCF3881C07FB0CF40CE015
:1006F0001E4FB7FBF3F7DFF870C0ACF1040CDCF869
:1007000000C0CCF3881C07FB0CF4174F3F1F3F6859
:10071000C7F301477F1C7D00B4FBF5F7076002E0DB
:10072000124F076000BF00BF0F4F3F6807F0F00196
:100730000909104F7A5C0768D74047600A4F3F6845
:1007400007F4E051890A0B4F7A5C4768D74087600D
:10075000054F3F6807F46041490B064F7A5C4768D4
:10076000D740C760F0BD0000083802400024F40004
:1007700040787D011800002021B1028842F040023B
:10078000028004E002884FF6BF731A40028070476F
:100790000246002013890B400BB1012000E000202D
:1007A00070470146888970478181704710B50022E3
:1007B000028802F441520B884C8823438C882343DF
:1007C000CC8823430C8923434C8923438C892343BE
:1007D000CC8923431A430280838B4FF2FF7423405A
:1007E00083830B8A038210BD4FF6FF62914204D0CF
:1007F000028842F48072028004E002884FF6FF63B0
:100800001A400280704700000CB500200190009053
:100810003348006840F480303149086000BF3048F8
:10082000006800F4003000900198401C019000988E
:1008300018B90198B0F5A04FF1D12948006800F42B
:10084000003010B10120009001E0002000900098DD
:10085000012844D122484030006840F080502049AF
:10086000403108601F48006840F440401D4908605E
:100870001B48083000681A490831086008460068BB
:1008800008600846006840F4805008601648091F58
:100890000860081F006840F08070091F086000BFF2
:1008A0000F48006800F000700028F9D040F2027094
:1008B0000E4908600A480830006820F00300084923
:1008C000083108600846006840F00200086000BF78
:1008D00003480830006800F00C000828F8D10CBD6F
:1008E000003802400070004019544107003C0240AB
:1008F00010B51548006840F47000134908601348AB
:10090000006840F001001149086000200F490831DB
:1009100008600E4800680E4908400C4908600D4800
:10092000091D0860081F006820F48020091F086066
:10093000002006490C310860FFF766FF4FF00060A9
:1009400001498039086010BD88ED00E000380240A0
:10095000FFFFF6FE1030002410B50121174800F00B
:1009600050F848B30121154800F033F814480078D6
:1009700001280DD113480088401C12490880084600
:100980000088B0F57A7F12DB00200D4908700EE078
:100990000B48007858B90B480088401E0949088068
:1009A00008460088002802DC012005490870054837
:1009B0000188054800F03FF810BD000000400140EC
:1009C000120000201000002000080040CA430282EC
:1009D0007047CA430282704721B1028842F0010287
:1009E000028004E002884FF6FE731A4002807047CE
:1009F00002460020138A0B400BB1012000E00020CA
:100A0000704730B50246002000230024158A05EA0D
:100A10000103958905EA010413B10CB1012000E03E
:100A2000002030BD02884FF6F7731A40028002881A
:100A30000A43028070470164704700000022028868
:100A4000184B98420ED0184B98420BD0B0F1804F03
:100A500008D0164B984205D0154B984202D0154B42
:100A6000984204D14FF68F731A404B881A43124BA9
:100A7000984207D0114B984204D04FF6FF431A40DA
:100A80000B891A4302804B68C3620B880385054BB0
:100A9000984202D0044B984201D18B7A03860123FD
:100AA00083827047000001400004014000040040C0
:100AB00000080040000C00400010004000140040FE
:100AC00008B540F22551204800F06BF800282FD0DF
:100AD00040F225511C4800F049F81C48007838B312
:100AE0004FF480711A48FFF759FD174800F012F9CA
:100AF000C0B200906A4601211648006801F05CFC13
:100B000014480068401C1349086013480068401EE0
:100B1000114908600846006850B910A0FFF7ACFB07
:100B20004FF480710A48FFF73BFD00200749087029
:100B300040F22441044800F034F818B1024800881B
:100B40000148808808BD000000100140040000201A
:100B500000040240080000200C000020D7D6BFE2AD
:100B6000C9D5C2BCCDEAB3C9210D0A0010B5002217
:100B7000002340F66A14A14200D100BF0A120124EA
:100B80009440A3B2DC43048010BD21B1828942F4B9
:100B90000052828104E082894DF6FF731A408281FF
:100BA000704770B50246002400230025002040F65F
:100BB0006A16B14200D100BFC1F3421501F01F0314
:100BC000012606FA03F3012D02D19689334006E08F
:100BD000022D02D1168A334001E0968A33400C126E
:100BE000012606FA04F41688344013B10CB1012032
:100BF00000E0002070BDF0B503460024002600256B
:100C0000002040F66A17B94200D100BF1846C1F370
:100C1000421401F01F06012707FA06F5012C01D145
:100C20000C3004E0022C01D1103000E014301AB175
:100C300007682F43076002E00768AF430760F0BD15
:100C40002DE9FF4705460E460024A14600BFA046F9
:100C5000B08900B100BF2C8A24F44054F0880443CA
:100C60002C82AC8941F20C608443B08831890843FE
:100C7000718908430443AC81AC8A24F44074B08980
:100C80000443AC826846FFF703FD2048854202D04A
:100C90001F48854202D1DDF80C9001E0DDF8089094
:100CA000A88900F4004040B109EBC90000EB09102D
:100CB00031684900B0FBF1F707E009EBC90000EB30
:100CC000091031688900B0FBF1F76420B7FBF0F040
:100CD00004012009642101FB1078A88900F4004078
:100CE00040B1322000EBC800B0FBF1F000F007008B
:100CF000044308E0322000EB08106421B0FBF1F05F
:100D000000F00F0004432C81BDE8FF870010014074
:100D10000014014001468888C0F30800704700BFF6
:100D2000704710B500F0FCFB10BD70B505460E46CF
:100D300000F0F8FCFF2D03DCA02000F0B9FC02E07D
:100D4000A22000F0B5FC00F0B7FB0446012C03D153
:100D500000F012FD012070BDE8B200F0A9FC00F027
:100D6000ABFB0446012C03D100F006FD0220F2E7A4
:100D700000F0D8FCFF2D03DCA12000F099FC02E07C
:100D8000A32000F095FC00F097FB0446012C03D152
:100D900000F0F2FC0120DEE700F006FC30700120DC
:100DA00000F03EFC00F0E8FC0020D4E72DE9F04123
:100DB00005460E46174600F0B5FCFF2D03DCA020CB
:100DC00000F076FC02E0A22000F072FC00F074FB60
:100DD0000446012C04D100F0CFFC0120BDE8F081D5
:100DE000E8B200F065FC00F067FB0446012C03D17B
:100DF00000F0C2FC0220F1E700F094FCFF2D03DCC0
:100E0000A12000F055FC02E0A32000F051FC00F00E
:100E100053FB0446012C03D100F0AEFC0120DDE7BA
:100E20000DE000F0C1FB3870701EC6B21EB9012083
:100E300000F0F6FB04E0002000F0F2FB7F1CF0E77E
:100E400000BF00F099FC0020C8E770B505460E46CB
:100E500000F068FCFF2D03DCA02000F029FC02E07C
:100E6000A22000F025FC00F027FB0446012C03D152
:100E700000F082FC012070BDE8B200F019FC00F027
:100E80001BFB0446012C03D100F076FC0220F2E7A4
:100E9000304600F00DFC00F00FFB0446012C03D19E
:100EA00000F06AFC0320E6E700F066FC052001F094
:100EB0001BF90020DFE72DE9F04104460E461746F6
:100EC0001AE02046E11704EB11710911A4EB01119E
:100ED000C1F11001CDB2B54204DB3A46314600F013
:100EE00010F80AE03A462946204600F00AF8601950
:100EF00084B2701BC6B22F44E3E700BF0020BDE8F8
:100F0000F0812DE9F04104460E461746A219501E05
:100F1000E21704EB12721211C31700EB1373B2EB5A
:100F2000231F02D00420BDE8F08100F0FBFBFF2C62
:100F300003DCA02000F0BCFB02E0A22000F0B8FB24
:100F400000F0BAFA0546012D03D100F015FC01208E
:100F5000E9E7E0B200F0ACFB00F0AEFA0546012D87
:100F600003D100F009FC0220DDE710E0387800F042
:100F70009FFB00F0A1FA0546012D03D100F0FCFB18
:100F80000320D0E7701EC6B206B901E07F1CEDE772
:100F900000BF00F0F1FB052001F0A6F80020C2E739
:100FA00010B500241048006840F080000E49086029
:100FB0000846006820F040000860052001F0C6F8EF
:100FC0000948006840F0400007490860052001F02A
:100FD000BDF80548001F006800F0800000B900E07F
:100FE0000124204610BD0000140402401CB501215C
:100FF0000220FFF71DFB01208DF804008DF806008C
:10100000C020009000208DF807008DF8050069468B
:101010000548FFF74FFA40210348FFF7C1FA802146
:101020000148FFF7BDFA1CBD0004024070B5154829
:10103000006840F080001349086000251DE0114859
:10104000006820F040000F490860052001F07EF89C
:101050000C48006840F040000A490860052001F093
:1010600075F86006040E0748001F006800F0800055
:1010700008B144F00104681CC5B2082DDFDB20462E
:1010800070BD00001404024010B504461248006808
:1010900020F0400010490860052001F057F834B9ED
:1010A0000D48006820F080000B49086007E0012C23
:1010B00005D10948006840F0800007490860052014
:1010C00001F044F80448006840F04000024908601C
:1010D000052001F03BF810BD1404024070B5044631
:1010E000002528E01548006820F0400013490860FA
:1010F000052001F02BF804F0800030B10F480068A3
:1011000040F080000D49086005E00C48006820F0C0
:1011100080000A490860052001F018F807480068B7
:1011200040F0400005490860052001F00FF8600616
:10113000040E681CC5B2082DD4DB70BD1404024037
:1011400010B51048006820F040000E4908600520E6
:1011500000F0FCFF0B48006840F08000094908607F
:101160000846006840F040000860052000F0EEFFEF
:101170000448006820F0800002490860052000F063
:10118000E5FF10BD1404024010B51048006820F0BF
:1011900040000E490860052000F0D8FF0B480068A9
:1011A00020F08000094908600846006840F04000CF
:1011B0000860052000F0CAFF0448006840F0800085
:1011C00002490860052000F0C1FF10BD1404024070
:1011D00000B587B018220BA101A8FFF759F8FFF757
:1011E00005FF0E48006840F001000C4908600C48FB
:1011F000006820F00C000A49086001A800F0BAF865
:1012000007B000BD000083F39810101010101010EC
:101210001010101010101010500000003038024054
:101220000000024010B5FF240C48006900F00200E5
:1012300050B90B48007838B100F014F80446FF2C80
:1012400002D00020064908700448006900F002003E
:1012500010B1012002490870204610BD0000024074
:101260001300002010B5FF24FFF76AFFA020FFF74E
:1012700035FFFFF795FE18B1FFF786FF012010BD7F
:1012800000BF3B48006800F040000028F9D008206B
:10129000FFF724FFFFF784FE18B1FFF775FF022068
:1012A000EDE700BF3248006800F040000028F9D0A8
:1012B000FFF746FFA120FFF711FFFFF771FE18B1FE
:1012C000FFF762FF0320DAE700BF2948006800F05B
:1012D00040000028F9D0FFF7A9FE04460020FFF7E0
:1012E000D3FEFFF7A3FE44EA00240120FFF7CCFE63
:1012F000FFF74AFF402C2AD00EDC082C29D006DC50
:10130000012C1AD0022C1ED0042C2ED127E0102C38
:1013100029D0202C29D120E0B4F5007F21D005DC94
:10132000802C0ED0B4F5807F1FD114E0B4F5806F0F
:1013300005D0B4F5006F18D107E031209FE73220C7
:101340009DE733209BE7342099E7352097E7362047
:1013500095E7372093E7382091E739208FE72A2057
:101360008DE730208BE7232089E700BFFF2086E749
:101370001004024070B504460026FFF7E1FEA020ED
:10138000FFF7ACFEFFF70CFE18B1FFF7FDFE0120E2
:1013900070BD00BF1D48006800F040000028F9D073
:1013A000B020FFF79BFEFFF7FBFD18B1FFF7ECFE47
:1013B0000220EDE700BF1548006800F0400000285B
:1013C000F9D001251BE0162D03D1F0B2FFF786FE00
:1013D00005E02078FFF782FE20780644641CFFF7C2
:1013E000DFFD18B1FFF7D0FE0320D1E700BF0748AB
:1013F000006800F040000028F9D0681CC5B2162D26
:10140000E1DDFFF7C1FE0020C2E70000100402404A
:1014100010B508210948FFF7C1F810210748FFF768
:10142000BFF84FF4967000F00BF808210348FFF75F
:10143000B7F810210148FFF7B3F810BD00040240CF
:10144000014645F2082201FB02F000E0401E0028A0
:10145000FCD170471CB500200090019001210220B2
:10146000FFF7E6F801208DF8040000208DF8060053
:101470001820009000208DF807008DF805006946BF
:101480000548FFF717F808210348FFF789F81021EE
:101490000148FFF785F81CBD0004024000BF054A63
:1014A000128802F04002002AF9D0C2B2014B9A80A1
:1014B000704700000010014010B51748406920F443
:1014C0008070154948611548006840F40070134960
:1014D00008601148406920F480700F494861052078
:1014E00000F034FE0C48406940F480700A494861BD
:1014F000052000F02BFE0948001F006800F4007072
:1015000008B9002400E001240348406920F48070F9
:1015100001494861204610BD000002401408024005
:101520001CB501210846FFF783F801210420FFF7CD
:101530007FF800200090019001208DF80400002029
:101540008DF806004FF48070009000208DF80700A1
:1015500002208DF8050069461148FEF7ABFF012017
:101560008DF804008DF806004002009000208DF8F0
:10157000070002208DF8050069460A48FEF79AFF29
:101580000748406940F480700549486105481430B7
:10159000006840F400700349143108601CBD00006D
:1015A000000002400008024070B51B48406920F46A
:1015B0008070194948611948006840F40070174963
:1015C000086000251DE01448406920F4807012492D
:1015D0004861052000F0BAFD0F48406940F4807072
:1015E0000D494861052000F0B1FD6006040E0B486E
:1015F000001F006800F4007008B144F00104681C8A
:10160000C5B2082DDFDB0448406920F48070024930
:101610004861204670BD00000000024014080240EE
:1016200010B50446DCB92048406920F480701E499A
:101630004861052000F08AFD1C48006820F4007015
:101640001A490860052000F081FD1748406940F400
:10165000807015494861052000F078FD1CE0012CE0
:101660001AD11148406920F480700F494861052063
:1016700000F06CFD0D48006840F400700B490860F4
:10168000052000F063FD0848406940F48070064979
:101690004861052000F05AFD0348406920F480703D
:1016A0000149486110BD00000000024014080240DA
:1016B00070B50446002528E01848406920F4807081
:1016C00016494861052000F041FD04F0800030B16A
:1016D0001348006840F400701149086005E01048A4
:1016E000006820F400700E490860052000F02EFD0F
:1016F0000A48406940F4807008494861052000F0BC
:1017000025FD6006040E681CC5B2082DD4DB034815
:10171000406920F480700149486170BD00000240BA
:101720001408024010B51248406920F48070104936
:1017300048611048006840F400700E4908600C4889
:10174000406940F480700A494861052000F0FEFCC1
:101750000848006820F4007006490860052000F081
:10176000F5FC0348406920F480700149486110BDD0
:10177000000002401408024010B50F48406920F4F0
:1017800080700D4948610D48006820F400700B49D5
:1017900008600948406940F48070074948610520A5
:1017A00000F0D4FC0548006840F40070034908606C
:1017B000052000F0CBFC10BD0000024014080240E0
:1017C0001CB500200090019001210420FEF730FF9D
:1017D00000208DF804004FF4005000906946024844
:1017E000FEF768FE1CBD00000008024070B505460B
:1017F0002A2000F02FFC002000F05CFCEF2000F01D
:1018000059FC2B2000F026FC002000F053FCEF20B8
:1018100000F050FC2C2000F01DFC002403E02846C2
:1018200000F048FC641CB4F5614FF8D370BD70B58E
:1018300006460C4615462A2000F00CFC304600F007
:1018400039FC304600F036FC2B2000F003FC20462B
:1018500000F030FC204600F02DFC2C2000F0FAFBBC
:10186000284600F027FC70BD2DE9F84305460E46DA
:1018700014469846089F25E020787F2811DC0097C1
:10188000227843463146284600F021F8641C05F1D1
:10189000100085B2E02D15DB002506F1200086B290
:1018A00010E04346224631462846009700F052F8A1
:1018B000A41C05F1200085B2D02D03DB002506F124
:1018C000200086B220780028D6D1BDE8F8832DE923
:1018D000F04F91B006460F4690469946402101A828
:1018E000FEF708FD404600F0FF0A40F6060101EB56
:1018F0008A1001AA402100F099FD002425E0600033
:10190000401C01A9085C01AA12F8141040EA012B3E
:10191000002516E04FF40040284100EA0B0038B1E2
:101920003A1991B2721990B24A46FFF780FF06E069
:101930003A1991B2721990B21A9AFFF778FF681C9F
:10194000C5B2102DE6DB601CC4B2202CD7DB11B071
:10195000BDE8F08F2DE9F04FA1B006460F46904646
:101960009946802101A8FEF7C5FC98F80100A1382E
:1019700098F80010A139C1EB011202EB411100EB04
:10198000410A1F4901EBCA1001AA802100F04EFD57
:10199000002430E001A911F824000106A000401C39
:1019A00001AA105C41EA0041A000801C105C41EAE1
:1019B0000020A100C91C515C40EA010B002516E083
:1019C0004FF00040E84000EA0B0038B13A1991B2FC
:1019D000721990B24A46FFF72AFF06E03A1991B20F
:1019E000721990B22A9AFFF722FF681CC5B2202D07
:1019F000E6DB601CC4B2202CCCDB21B0BDE8F08F4C
:101A00005226040010B500F0C3F800F011F900F000
:101A10000FFB362000F01EFB002000F033FB3A20C5
:101A200000F018FB052000F02DFBB22000F012FBA7
:101A30000C2000F027FB0C2000F024FB002000F01D
:101A400021FB332000F01EFB332000F01BFBB720EE
:101A500000F000FB352000F015FBBB2000F0FAFA87
:101A6000192000F00FFBC02000F0F4FA2C2000F049
:101A700009FBC22000F0EEFA012000F003FBC320B6
:101A800000F0E8FA122000F0FDFAC42000F0E2FABB
:101A9000202000F0F7FAC62000F0DCFA0F2000F05A
:101AA000F1FAD02000F0D6FAA42000F0EBFAA12041
:101AB00000F0E8FAE02000F0CDFAD02000F0E2FAE1
:101AC000042000F0DFFA0D2000F0DCFA112000F015
:101AD000D9FA132000F0D6FA2B2000F0D3FA3F20D9
:101AE00000F0D0FA542000F0CDFA4C2000F0CAFAF1
:101AF000182000F0C7FA0D2000F0C4FA0B2000F007
:101B0000C1FA1F2000F0BEFA232000F0BBFAE1204A
:101B100000F0A0FAD02000F0B5FA042000F0B2FAEC
:101B20000C2000F0AFFA112000F0ACFA132000F006
:101B3000A9FA2C2000F0A6FA3F2000F0A3FA4420D6
:101B400000F0A0FA512000F09DFA2F2000F09AFA40
:101B50001F2000F097FA1F2000F094FA202000F0D8
:101B600091FA232000F08EFA212000F073FA112060
:101B700000F070FA292000F06DFA02210348FEF708
:101B80000FFD0020FFF732FE10BD000000040240F0
:101B90001CB501210220FEF74BFD45F202400090EA
:101BA00001208DF8040000208DF806008DF8070054
:101BB00069460648FEF77EFC02210448FEF7F0FC69
:101BC0004FF480510148FEF7EBFC1CBD00040240BD
:101BD00070B504464FF400511448FEF7DFFC4FF493
:101BE00000411248FEF7DCFC00251BE04FF40051D9
:101BF0000E48FEF7D3FC04F0800028B14FF40041FA
:101C00000A48FEF7CDFC04E04FF400410748FEF718
:101C1000C5FC4FF400510548FEF7C2FC6006040EF7
:101C2000681CC5B2082DE1DB70BD00000004024055
:101C30001CB501210220FEF7FBFC00200090019062
:101C40004FF42040009001208DF8040000208DF812
:101C500006008DF8070002208DF80500694602484D
:101C6000FEF728FC1CBD0000000402401CB500204B
:101C70000090019001210220FEF7DAFC01208DF88E
:101C8000040000208DF806004FF440700090002002
:101C90008DF8070002208DF8050069460648FEF71A
:101CA00009FC4FF480710448FEF77AFC4FF4007190
:101CB0000148FEF775FC1CBD000402404FF4E13002
:101CC00000F072FA00F056FBFFF77AFDFFF7CEFF47
:101CD00000F012FBFFF796FEFFF77AFAFFF721F804
:101CE000FFF7B8FB05E0FFF79DFA0446204600F039
:101CF00019F8F8E710B508210948FEF751FC102142
:101D00000748FEF74BFC4FF49670FFF799FB08214C
:101D10000348FEF745FC10210148FEF741FC10BDC9
:101D20000004024038B504469348007868B19349EE
:101D30000020FEF7FAFF91480078FF2802D0022029
:101D400000F096FA00208C4908708C480078FF2833
:101D50007AD04FF6FF704FF4784389A22821009083
:101D60000020FFF781FD4FF6FF704FF4784388A203
:101D70004B2100900020FFF777FDFF2C71D08848A1
:101D80000078052826DC87488549097844544FF6B1
:101D9000FF7083490090097848014FF4784382A28C
:101DA0006E21FFF761FD7E480078401C7C49087079
:101DB0000846007806282DD14FF6FF704FF478437F
:101DC0007AA2912100900020FFF74EFD0E2000F036
:101DD0004FFA1FE07248007806281BDB7048007835
:101DE0000B2817DC6E480078801F74490C544FF69E
:101DF000FF706B4900900978891F00EA41104FF489
:101E0000784369A2B421FFF72FFD65480078401C94
:101E100063490870624800780C2822D167496148FC
:101E2000FEF790FAF0B95F4A0A210120FFF743F864
:101E3000FF210020FFF709F80020FFF7D7FC4FF63D
:101E4000FF704FF4784300E020E05DA20021009095
:101E50000846FFF709FD112000F00AFA0120464963
:101E6000087087E00020FFF7C1FC4FF6FF704FF4C9
:101E7000784357A2002100900846FFF7F5FC102098
:101E800000F0F6F900204649087073E054480078E5
:101E900078B10020FFF7AAFC4FF6FF704FF47843AB
:101EA00050A2002100900846FFF7DEFC00204C49BC
:101EB0000870FF2C5ED03A48007805285ADC394873
:101EC0003749097844544FF6FF7035490090097836
:101ED00048014FF4784334A26E21FFF7C5FC304827
:101EE0000078401C2E49087008460078062841D129
:101EF000324A0A210120FEF759FF30492948FEF7EE
:101F000021FA08BB0020FFF771FC4FF6FF704FF479
:101F1000784337A2642100903220FFF7A5FCFFF739
:101F2000E9FE4FF4967000F0DFF8FFF771FA002039
:101F3000FFF75CFC00201A4908700120284908704E
:101F4000182000F095F915E00020FFF74FFC4FF640
:101F5000FF704FF4784329A2642100903220FFF7EC
:101F600083FC00200E49087001201D4908701920CB
:101F700000F07EF938BD000014000020150000209C
:101F8000C7EBC9E8D6C3BFAACBF8C3DCC2EB0000DD
:101F9000B5DAD2BBB4CECAE4C8EBC3DCC2EB0000F6
:101FA00016000020280000202A000000B5DAB6FE46
:101FB000B4CECAE4C8EBC3DCC2EB000032000020A0
:101FC000C3DCC2EBC9E8D6C3B3C9B9A600000000A0
:101FD000C1BDB4CEC3DCC2EBB2BBD2BBD6C2000023
:101FE00017000020C7EBCAE4C8EBC3DCC2EB00005B
:101FF000BBB6D3ADBBD8BCD200000000C3DCC2EB83
:10200000B4EDCEF30000000010B510210748FEF734
:10201000C5FA052000F032FAFF2000F02FFA04463E
:1020200010210248FEF7BCFA204610BD0000024015
:1020300010B54FF480610648FEF7B0FA642000F056
:1020400053F84FF480610248FEF7AAFA10BD000071
:102050000004024010B504464FF480510848FEF7D2
:102060009DFA4FF480410648FEF798FA2046FFF7A4
:10207000AFFD4FF480510248FEF792FA10BD000008
:102080000004024010B504464FF480510848FEF7A2
:1020900085FA4FF480410648FEF782FA2046FFF7A2
:1020A00097FD4FF480510248FEF77AFA10BD000008
:1020B0000004024010B504464FF480510948FEF771
:1020C0006DFA4FF480410748FEF76AFA2012FFF7D5
:1020D0007FFDE0B2FFF77CFD4FF480510148FEF731
:1020E0005FFA10BD000402403EB5044601210820FD
:1020F000FEF7AEFA0020009001900290ADF80800C3
:10210000ADF8020004EB84000121C1EB4000019016
:1021100042F2CF00ADF8000069460B48FEF78EFC96
:1021200008210948FEF77EFC01210748FEF74EFC16
:1021300001210548FEF750FC00BF01210248FEF7CF
:1021400057FC0028F9D03EBD000C00403EB50446C7
:1021500001210820FEF77CFA0020009001900290F7
:10216000ADF80800ADF80200601E01905320ADF8F4
:10217000000069460B48FEF761FC08210948FEF79C
:1021800051FC01210748FEF721FC01210548FEF71B
:1021900023FC00BF01210348FEF72AFC0028F9D0E8
:1021A0003EBD0000000C004010B588B0044601217F
:1021B0000846FEF73DFA00200690079002208DF8B1
:1021C0001C0000208DF81E004FF4C0600690002017
:1021D0008DF81F008DF81D0006A92348FEF76AF947
:1021E000072209212048FEF7ADF907220A211E48DF
:1021F000FEF7A8F901211020FEF73AFA0294002018
:10220000ADF814000C20ADF812000020ADF810005D
:10221000ADF80E00ADF80C0002A91448FEF710FD51
:10222000012240F225511148FEF7E5FC012240F25F
:1022300024410E48FEF7DFFC4FF4A060FEF7EEF9F4
:1022400025208DF8040001208DF807008DF8050089
:102250008DF8060001A8FEF7A5F901210348FEF755
:1022600094FC08B010BD00000000024000100140C6
:1022700070B5054600BF10210B48FEF786F900280F
:10228000F9D100F013F800240AE080202041284012
:1022900010B100F01DF801E000F058F8601CC4B265
:1022A000082CF2DB70BD00000008024010B52021B0
:1022B0000648FEF775F90820FFF716FF20210348AE
:1022C000FEF76CF90120FFF70FFF10BD0008024078
:1022D00010B520210748FEF763F940F2DC50FFF704
:1022E00035FF20210348FEF759F94FF4FA70FFF744
:1022F0002DFF10BD000802401CB500200090019089
:1023000001210420FEF794F901208DF8040000203B
:102310008DF806002020009000208DF807008DF831
:10232000050069460848FEF7C5F800208DF804004E
:102330001020009069460448FEF7BCF820210248AE
:10234000FEF72CF91CBD00000008024010B520214A
:102350000748FEF725F94FF4FA70FFF7F7FE202142
:102360000348FEF71BF940F2DC50FFF7EFFE10BD0B
:10237000000802401CB500F09FF801210846FEF756
:1023800057F901208DF8040000208DF80600102078
:10239000009000208DF8070002208DF805006946A6
:1023A0000448FEF787F810210248FEF7F9F800F01C
:1023B000EBF81CBD0000024070B504460D46164601
:1023C000210A6019401EB1EB102F01D0002070BD12
:1023D00000F0CAF810211448FEF7E0F8022000F0DF
:1023E0004DF8C4F3074000F049F8C4F3072000F0AB
:1023F00045F8E0B200F042F807E0307800F03EF82F
:10240000681EC5B205B901E0761CF6E700BF1021D1
:102410000548FEF7C5F800BFFFF7F6FD00F0010024
:102420000028F9D10120D2E70000024070B504462F
:102430000D46164610211048FEF7B0F8032000F0B4
:102440001DF8C4F3074000F019F8C4F3072000F0AA
:1024500015F8E0B200F012F807E0FF2000F00EF8E7
:1024600030706D1E05B901E0761CF6E700BF102143
:102470000148FEF795F870BD0000024070B50446B3
:10248000002500BF02210B48FEF782F90028F9D091
:1024900021460848FEF788F900BF01210548FEF7EC
:1024A00077F90028F9D00348FEF77BF9C5B2284632
:1024B00070BD00000030014000B587B00121084622
:1024C000FEF7B6F802208DF8180000208DF81A00EB
:1024D000E020059000208DF81B0002208DF81900E7
:1024E00005A91F48FDF7E6FF052211461C48FEF727
:1024F00029F8052206211A48FEF724F805220721AB
:102500001748FEF71FF801210803FEF7B1F8142160
:102510006846FDF7EFFE0020ADF80C00ADF80800AE
:10252000ADF80600ADF80400ADF80000ADF80E00FF
:102530004FF48270ADF802004FF40070ADF80A005D
:1025400069460848FEF732F94FF480710548FEF7F6
:102550004BF901210348FEF70FF907B000BD000059
:10256000000002400030014010B510210548FEF780
:1025700015F80620FFF782FF10210248FEF710F839
:1025800010BD00000000024010B5FFF7EDFF102164
:102590000A48FEF703F80120FFF770FF0020FFF75D
:1025A0006DFF10210548FDF7FBFF00BFFFF72CFD75
:1025B00000F001000028F9D110BD00000000024029
:1025C0004FF04070E1EE100A70470000EC25000863
:1025D0000000002028000000D00100081426000898
:1025E0002800002078060000EC0100080000000030
:1025F0000000000000000000581F1400000001014E
:1026000001000001000000000102030401020304B4
:0426100006070809A8
:040000050800019559
:00000001FF
