:020000040800F2
:1000000088060020350200083D0200083F02000873
:1000100041020008430200084502000800000000F9
:10002000000000000000000000000000470200087F
:1000300049020008000000004B0200084D020008C1
:100040004F0200084F0200084F0200084F0200084C
:100050004F0200084F0200084F0200084F0200083C
:100060004F0200084F0200084F0200084F0200082C
:100070004F0200084F0200084F0200084F0200081C
:100080004F0200084F0200084F0200080000000065
:100090000000000000000000000000004F02000807
:1000A000C90800084F0200084F0200084F0200086C
:1000B0004F0200084F0200084F0200084F020008DC
:1000C0004F0200084F0200084F0200084F020008CC
:1000D0004F020008310A00084F020008000000002B
:1000E0004F0200084F0200084F0200080000000005
:1000F0000000000000000000000000004F020008A7
:10010000000000004F0200084F0200084F020008E4
:1001100000000000000000000000000000000000DF
:100120004F0200084F0200084F0200084F0200086B
:100130004F02000800000000000000000000000066
:100140000000000000000000000000004F02000856
:100150004F0200084F0200084F0200084F0200083B
:100160004F0200084F0200080000000000000000DD
:10017000000000000000000000000000000000007F
:10018000000000004F020008000000000000000016
:100190004F02000800F002F800F03CF80AA090E8D6
:1001A000000C82448344AAF10107DA4501D100F032
:1001B00031F8AFF2090EBAE80F0013F0010F18BFC3
:1001C000FB1A43F001031847D0170000F017000096
:1001D000103A24BF78C878C1FAD8520724BF30C873
:1001E00030C144BF04680C60704700000023002445
:1001F00000250026103A28BF78C1FBD8520728BF37
:1002000030C148BF0B6070471FB501F0BFFB1FBD79
:1002100010B510BD00F0C8F81146FFF7F5FF01F06A
:1002200015F900F0FAF803B4FFF7F2FF03BC00F091
:100230002EFD00000948804709480047FEE7FEE719
:10024000FEE7FEE7FEE7FEE7FEE7FEE7FEE7FEE786
:1002500004480549054A064B70470000610800083C
:1002600095010008880000208806002088020020F0
:1002700088020020704700000FB4044910B503AA9B
:10028000029800F063F810BC5DF814FB0000002039
:1002900010B5203AC0F00B80B1E81850203AA0E821
:1002A0001850B1E81850A0E81850BFF4F5AF5FEA55
:1002B000027C24BFB1E81850A0E8185044BF18C908
:1002C00018C0BDE810405FEA827C24BF51F8043BAF
:1002D00040F8043B08BF7047D20728BF31F8023B03
:1002E00048BF11F8012B28BF20F8023B48BF00F897
:1002F000012B70474FF0000200B513469446964616
:10030000203922BFA0E80C50A0E80C50B1F1200128
:10031000BFF4F7AF090728BFA0E80C5048BF0CC0D6
:100320005DF804EB890028BF40F8042B08BF704734
:1003300048BF20F8022B11F0804F18BF00F8012BA6
:10034000704770477047704770470000074B70B5A3
:100350000D467B4400F011F80446284600F020F8D2
:1003600010B14FF0FF3070BD204670BDB30D0000DE
:1003700001694A1C02610878704700B58FB0CDE969
:1003800001310021059105497944CDE90310114659
:10039000684600F02EF80FB000BD0000E5FFFFFF3B
:1003A000007B00F080007047754600F03FF8AE46D5
:1003B00005006946534620F00700854618B020B571
:1003C000FFF746FFBDE820404FF000064FF0000762
:1003D0004FF000084FF0000B21F00701AC46ACE8ED
:1003E000C009ACE8C009ACE8C009ACE8C0098D465A
:1003F00070472DE9F04106460024D6E90170F56802
:100400008046304603E04146B847641C3046A84762
:100410000028F8D12046BDE8F08110B50446AFF3BE
:1004200000802046BDE81040FFF7FDBE0048704741
:1004300024000020F0B50A4600210023002400BF5C
:100440003DE0012505FA01F3156805EA03049C4225
:1004500034D105684F000326BE40B54305601579C9
:100460004E00B5400668354305601579012D02D070
:100470001579022D16D185684F000326BE40B5437D
:10048000856055794E00B54086683543856045687E
:1004900001268E40B5434560456896798E40B6B2D8
:1004A00035434560C5684F000326BE40B543C5606F
:1004B000D5794E00B540C6683543C560491C102942
:1004C000BFD3F0BDF0B5002300244D07ED0E02FAB6
:1004D00005F3CE1000F1200555F826504E07F70E13
:1004E0000F26BE40B543CF1000F1200646F8275036
:1004F000CE1000F1200555F8265045EA0304CE1031
:1005000000F1200545F82640F0BD41837047018386
:100510007047000070B5002100230F22C4781CB37F
:10052000174C246804F4E064C4F5E064C4F30721C4
:10053000C1F10404E3B20A4144789C40E1B28478FA
:10054000144021430C07210E0E4C057861550478A8
:1005500004F01F050124AC4005786D11AD0005F1D4
:10056000E025C5F8004109E0047804F01F050124E6
:10057000AC40054D0678761145F8264070BD000068
:100580000CED00E000E400E080E100E002490143FE
:10059000024A1160704700000000FA050CED00E00F
:1005A00029B1064A12680243044B1A6004E0034A68
:1005B00012688243014B1A607047000030380240D5
:1005C00029B1064A12680243044B1A6004E0034A48
:1005D00012688243014B1A607047000040380240A5
:1005E00029B1064A12680243044B1A6004E0034A28
:1005F00012688243014B1A60704700004438024081
:10060000F0B5002100220024022500260223324FEB
:100610003F6807F00C0121B1042905D0082937D122
:1006200005E02E4F076036E02D4F076033E02A4F7C
:100630003F1F3F68C7F38056274F3F1F3F6807F0B3
:100640003F036EB1264FB7FBF3F7DFF88CC0ACF178
:10065000040CDCF800C0CCF3881C07FB0CF40CE0A5
:100660001E4FB7FBF3F7DFF870C0ACF1040CDCF8F9
:1006700000C0CCF3881C07FB0CF4174F3F1F3F68EA
:10068000C7F301477F1C7D00B4FBF5F7076002E06C
:10069000124F076000BF00BF0F4F3F6807F0F00127
:1006A0000909104F7A5C0768D74047600A4F3F68D6
:1006B00007F4E051890A0B4F7A5C4768D74087609E
:1006C000054F3F6807F46041490B064F7A5C476865
:1006D000D740C760F0BD0000083802400024F40095
:1006E00040787D011400002021B1028842F04002D0
:1006F000028004E002884FF6BF731A400280704700
:100700000246002013890B400BB1012000E00020BD
:1007100070470146888970478181704710B5002273
:10072000028802F441520B884C8823438C8823436F
:10073000CC8823430C8923434C8923438C8923434E
:10074000CC8923431A430280838B4FF2FF742340EA
:1007500083830B8A038210BD4FF6FF62914204D05F
:10076000028842F48072028004E002884FF6FF6340
:100770001A400280704700000CB5002001900090E4
:100780003348006840F480303149086000BF304889
:10079000006800F4003000900198401C019000981F
:1007A00018B90198B0F5A04FF1D12948006800F4BC
:1007B000003010B10120009001E00020009000986E
:1007C000012844D122484030006840F08050204940
:1007D000403108601F48006840F440401D490860EF
:1007E0001B48083000681A4908310860084600684C
:1007F00008600846006840F4805008601648091FE9
:100800000860081F006840F08070091F086000BF82
:100810000F48006800F000700028F9D040F2027024
:100820000E4908600A480830006820F003000849B3
:10083000083108600846006840F00200086000BF08
:1008400003480830006800F00C000828F8D10CBDFF
:10085000003802400070004019544107003C02403B
:1008600010B51548006840F470001349086013483B
:10087000006840F001001149086000200F4908316C
:1008800008600E4800680E4908400C4908600D4891
:10089000091D0860081F006820F48020091F0860F7
:1008A000002006490C310860FFF766FF4FF000603A
:1008B00001498039086010BD88ED00E00038024031
:1008C000FFFFF6FE1030002410B50121174800F09C
:1008D00050F848B30121154800F033F81448007867
:1008E00001280DD113480088401C12490880084691
:1008F0000088B0F57A7F12DB00200D4908700EE009
:100900000B48007858B90B480088401E09490880F8
:1009100008460088002802DC0120054908700548C7
:100920000188054800F03FF810BD0000004001407C
:10093000120000201000002000080040CA4302827C
:100940007047CA430282704721B1028842F0010217
:10095000028004E002884FF6FE731A40028070475E
:1009600002460020138A0B400BB1012000E000205A
:10097000704730B50246002000230024158A05EA9E
:100980000103958905EA010413B10CB1012000E0CF
:10099000002030BD02884FF6F7731A4002800288AB
:1009A0000A430280704701647047000000220288F9
:1009B000184B98420ED0184B98420BD0B0F1804F94
:1009C00008D0164B984205D0154B984202D0154BD3
:1009D000984204D14FF68F731A404B881A43124B3A
:1009E000984207D0114B984204D04FF6FF431A406B
:1009F0000B891A4302804B68C3620B880385054B41
:100A0000984202D0044B984201D18B7A038601238D
:100A10008382704700000140000401400004004050
:100A200000080040000C004000100040001400408E
:100A300008B540F22551204800F06BF800282FD06F
:100A400040F225511C4800F049F81C48007838B3A2
:100A50004FF480711A48FFF758FD174800F012F95B
:100A6000C0B200906A4601211648006800F0B2FE4C
:100A700014480068401C1349086013480068401E71
:100A8000114908600846006850B910A0FFF7F4FB50
:100A90004FF480710A48FFF73AFD002007490870BB
:100AA00040F22441044800F034F818B102480088AC
:100AB0000148808808BD00000010014004000020AB
:100AC00000040240080000200C000020D7D6BFE23E
:100AD000C9D5C2BCCDEAB3C9210D0A0010B50022A8
:100AE000002340F66A14A14200D100BF0A1201247B
:100AF0009440A3B2DC43048010BD21B1828942F44A
:100B00000052828104E082894DF6FF731A4082818F
:100B1000704770B50246002400230025002040F6EF
:100B20006A16B14200D100BFC1F3421501F01F03A4
:100B3000012606FA03F3012D02D19689334006E01F
:100B4000022D02D1168A334001E0968A33400C12FE
:100B5000012606FA04F41688344013B10CB10120C2
:100B600000E0002070BDF0B50346002400260025FB
:100B7000002040F66A17B94200D100BF1846C1F301
:100B8000421401F01F06012707FA06F5012C01D1D6
:100B90000C3004E0022C01D1103000E014301AB106
:100BA00007682F43076002E00768AF430760F0BDA6
:100BB0002DE9FF4705460E460024A14600BFA0468A
:100BC000B08900B100BF2C8A24F44054F08804435B
:100BD0002C82AC8941F20C608443B088318908438F
:100BE000718908430443AC81AC8A24F44074B08911
:100BF0000443AC826846FFF703FD2048854202D0DB
:100C00001F48854202D1DDF80C9001E0DDF8089024
:100C1000A88900F4004040B109EBC90000EB0910BD
:100C200031684900B0FBF1F707E009EBC90000EBC0
:100C3000091031688900B0FBF1F76420B7FBF0F0D0
:100C400004012009642101FB1078A88900F4004008
:100C500040B1322000EBC800B0FBF1F000F007001B
:100C6000044308E0322000EB08106421B0FBF1F0EF
:100C700000F00F0004432C81BDE8FF870010014005
:100C80000014014001468888C0F30800704700BF87
:100C90007047000010B500241048006840F0800044
:100CA0000E4908600846006820F0400008600520F2
:100CB00000F0DCFC0948006840F04000074908608B
:100CC000052000F0D3FC0548001F006800F08000FC
:100CD00000B900E00124204610BD000014040240C9
:100CE0001CB501210220FFF75BFC01208DF80400F8
:100CF0008DF80600C020009000208DF807008DF8C8
:100D0000050069460548FFF795FB40210348FFF7BA
:100D1000FEFB80210148FFF7FAFB1CBD00040240E6
:100D200070B51548006840F0800013490860002540
:100D30001DE01148006820F040000F4908600520C0
:100D400000F094FC0C48006840F040000A4908603C
:100D5000052000F08BFC6006040E0748001F0068A9
:100D600000F0800008B144F00104681CC5B2082DF1
:100D7000DFDB204670BD00001404024010B50446BD
:100D80001248006820F0400010490860052000F07B
:100D90006DFC34B90D48006820F080000B490860F4
:100DA00007E0012C05D10948006840F080000749A0
:100DB0000860052000F05AFC0448006840F040003C
:100DC00002490860052000F051FC10BD14040240E7
:100DD00070B50446002528E01548006820F0400062
:100DE00013490860052000F041FC04F0800030B198
:100DF0000F48006840F080000D49086005E00C488D
:100E0000006820F080000A490860052000F02EFCF0
:100E10000748006840F0400005490860052000F0E0
:100E200025FC6006040E681CC5B2082DD4DB70BD1D
:100E30001404024010B51048006820F040000E492C
:100E40000860052000F012FC0B48006840F08000AC
:100E5000094908600846006840F040000860052025
:100E600000F004FC0448006820F08000024908609B
:100E7000052000F0FBFB10BD1404024010B5104823
:100E8000006820F040000E490860052000F0EEFBED
:100E90000B48006820F08000094908600846006897
:100EA00040F040000860052000F0E0FB04480068C6
:100EB00040F0800002490860052000F0D7FB10BD1B
:100EC0001404024000B587B018220BA101A8FFF757
:100ED000DFF9FFF705FF0E48006840F001000C49FC
:100EE00008600C48006820F00C000A49086001A85E
:100EF00000F0BCF807B000BD000083F3981010109C
:100F000010101010101010101010101050000000D1
:100F1000303802400000024010B5FF240C48006940
:100F200000F0020050B90B48007838B100F014F816
:100F30000446FF2C02D000200649087004480069CE
:100F400000F0020010B1012002490870204610BDD7
:100F5000000002401300002010B5FF24FFF76AFFD5
:100F6000A020FFF735FFFFF795FE18B1FFF786FFCA
:100F7000012010BD00BF3C48006800F04000002880
:100F8000F9D00820FFF724FFFFF784FE18B1FFF720
:100F900075FF0220EDE700BF3348006800F0400015
:100FA0000028F9D0FFF746FFA120FFF711FFFFF758
:100FB00071FE18B1FFF762FF0320DAE700BF2A488D
:100FC000006800F040000028F9D0FFF7A9FE0446B1
:100FD0000020FFF7D3FEFFF7A3FE44EA0024012020
:100FE000FFF7CCFEFFF74AFF402C2AD00EDC082C7E
:100FF00029D006DC012C1AD0022C1ED0042C2ED1B4
:1010000027E0102C29D0202C29D120E0B4F5007F36
:1010100021D005DC802C0ED0B4F5807F1FD114E0E8
:10102000B4F5806F05D0B4F5006F18D107E031201A
:101030009FE732209DE733209BE7342099E7352056
:1010400097E7362095E7372093E7382091E7392056
:101050008FE72A208DE730208BE7232089E700BF28
:1010600000BFFF2085E700001004024070B5044671
:101070000026FFF7DFFEA020FFF7AAFEFFF70AFE1B
:1010800018B1FFF7FBFE012070BD00BF1D480068CE
:1010900000F040000028F9D0B020FFF799FEFFF7DC
:1010A000F9FD18B1FFF7EAFE0220EDE700BF154891
:1010B000006800F040000028F9D001251BE0162D43
:1010C00003D1F0B2FFF784FE05E02078FFF780FE41
:1010D00020780644641CFFF7DDFD18B1FFF7CEFE53
:1010E0000320D1E700BF0748006800F04000002857
:1010F000F9D0681CC5B2162DE1DDFFF7BFFE002058
:10110000C2E700001004024000BF054A128802F046
:101110004002002AF9D0C2B2014B9A807047000009
:10112000001001401CB50020009001900121042016
:10113000FFF736FA00208DF804004FF400500090BD
:1011400069460248FFF776F91CBD0000000802401E
:1011500070B505462A2000F00DFA002000F03AFA9A
:10116000EF2000F037FA2B2000F004FA002000F006
:1011700031FAEF2000F02EFA2C2000F0FBF90024C9
:1011800003E0284600F026FA641CB4F5614FF8D35A
:1011900070BD000010B500F0C3F800F011F900F0C8
:1011A000D7F9362000F0E6F9002000F0FBF93A20EC
:1011B00000F0E0F9052000F0F5F9B22000F0DAF9CE
:1011C0000C2000F0EFF90C2000F0ECF9002000F00A
:1011D000E9F9332000F0E6F9332000F0E3F9B72015
:1011E00000F0C8F9352000F0DDF9BB2000F0C2F9AD
:1011F000192000F0D7F9C02000F0BCF92C2000F035
:10120000D1F9C22000F0B6F9012000F0CBF9C320DB
:1012100000F0B0F9122000F0C5F9C42000F0AAF9DE
:10122000202000F0BFF9C62000F0A4F90F2000F044
:10123000B9F9D02000F09EF9A42000F0B3F9A12064
:1012400000F0B0F9E02000F095F9D02000F0AAF904
:10125000042000F0A7F90D2000F0A4F9112000F0FF
:10126000A1F9132000F09EF92B2000F09BF93F20FC
:1012700000F098F9542000F095F94C2000F092F914
:10128000182000F08FF90D2000F08CF90B2000F0F1
:1012900089F91F2000F086F9232000F083F9E1206E
:1012A00000F068F9D02000F07DF9042000F07AF910
:1012B0000C2000F077F9112000F074F9132000F0F1
:1012C00071F92C2000F06EF93F2000F06BF94420FA
:1012D00000F068F9512000F065F92F2000F062F964
:1012E0001F2000F05FF91F2000F05CF9202000F0C3
:1012F00059F9232000F056F9212000F03BF9112084
:1013000000F038F9292000F035F902210348FFF7F1
:10131000FEF80020FFF71CFF10BD00000004024093
:101320001CB501210220FFF73BF945F20240009075
:1013300001208DF8040000208DF806008DF80700CC
:1013400069460648FFF776F802210448FFF7DDF802
:101350004FF480510148FFF7DAF81CBD0004024049
:1013600070B504464FF400511448FFF7CEF84FF41F
:1013700000411248FFF7CBF800251BE04FF4005165
:101380000E48FFF7C2F804F0800028B14FF4004186
:101390000A48FFF7BCF804E04FF400410748FFF7A4
:1013A000B4F84FF400510548FFF7B1F86006040E99
:1013B000681CC5B2082DE1DB70BD000000040240CE
:1013C0001CB501210220FFF7EBF8002000900190EE
:1013D0004FF42040009001208DF8040000208DF88B
:1013E00006008DF8070002208DF8050069460248C6
:1013F000FFF720F81CBD0000000402401CB50020CF
:101400000090019001210220FFF7CAF801208DF819
:10141000040000208DF806004FF44070009000207A
:101420008DF8070002208DF8050069460648FFF791
:1014300001F84FF480710448FFF769F84FF4007128
:101440000148FFF764F81CBD000402404FF4E1308E
:1014500000F03AF900F09CF9FFF764FEFFF7CEFFC9
:10146000FFF798FEFFF72EFD45E0FFF755FD044618
:10147000A4F1230017283DD2DFE800F0383C3C3CC3
:101480003C3C3C303C3C3C3C3C340C1014181C2094
:1014900024282C0018A0FEF7EFFE2BE017A0FEF783
:1014A000EBFE27E016A0FEF7E7FE23E015A0FEF70F
:1014B000E3FE1FE014A0FEF7DFFE1BE013A0FEF723
:1014C000DBFE17E012A0FEF7D7FE13E011A0FEF737
:1014D000D3FE0FE010A0FEF7CFFE0BE00FA0FEF74B
:1014E000CBFE07E00EA0FEF7C7FE03E00DA0FEF75F
:1014F000C3FE00BF00BFB8E7310D0A00320D0A007D
:10150000330D0A00340D0A00350D0A00360D0A00AD
:10151000370D0A00380D0A00390D0A002A0D0A009D
:10152000300D0A00230D0A0010B510210748FEF700
:10153000ECFF052000F088F9FF2000F085F9044653
:1015400010210248FEF7E3FF204610BD00000240D4
:1015500010B54FF480610648FEF7D7FF642000F015
:1015600053F84FF480610248FEF7D1FF10BD000030
:101570000004024010B504464FF480510848FEF7BD
:10158000C4FF4FF480410648FEF7BFFF2046FFF737
:10159000E7FE4FF480510248FEF7B9FF10BD00008E
:1015A0000004024010B504464FF480510848FEF78D
:1015B000ACFF4FF480410648FEF7A9FF2046FFF735
:1015C000CFFE4FF480510248FEF7A1FF10BD00008E
:1015D0000004024010B504464FF480510948FEF75C
:1015E00094FF4FF480410748FEF791FF2012FFF768
:1015F000B7FEE0B2FFF7B4FE4FF480510148FEF7AA
:1016000086FF10BD000402403EB5044601210820BB
:10161000FEF7D6FF0020009001900290ADF8080080
:10162000ADF8020004EB84000121C1EB4000019001
:1016300042F2CF00ADF8000069460B48FFF7B6F95B
:1016400008210948FFF7A6F901210748FFF776F9B5
:1016500001210548FFF778F900BF01210248FFF793
:101660007FF90028F9D03EBD000C00403EB504468D
:1016700001210820FEF7A4FF0020009001900290B5
:10168000ADF80800ADF80200601E01905320ADF8DF
:10169000000069460B48FFF789F908210948FFF760
:1016A00079F901210748FFF749F901210548FFF7BA
:1016B0004BF900BF01210348FFF752F90028F9D088
:1016C0003EBD0000000C004010B588B0044601216A
:1016D0000846FEF765FF00200690079002208DF86F
:1016E0001C0000208DF81E004FF4C0600690002002
:1016F0008DF81F008DF81D0006A92348FEF79AFEFD
:10170000072209212048FEF7DDFE07220A211E4894
:10171000FEF7D8FE01211020FEF762FF02940020A0
:10172000ADF814000C20ADF812000020ADF8100048
:10173000ADF80E00ADF80C0002A91448FFF738FA16
:10174000012240F225511148FFF70DFA012240F223
:1017500024410E48FFF707FA4FF4A060FEF716FF8A
:1017600025208DF8040001208DF807008DF8050074
:101770008DF8060001A8FEF7CDFE01210348FFF712
:10178000BCF908B010BD000000000240001001408C
:101790001CB500F077F801210846FEF701FF012093
:1017A0008DF8040000208DF8060010200090002025
:1017B0008DF8070002208DF8050069460448FEF701
:1017C00039FE10210248FEF7A2FE00F0C3F81CBD4E
:1017D0000000024070B504460D461646210A601905
:1017E000401EB1EB102F01D0002070BD00F0A2F818
:1017F00010211448FEF789FE022000F025F8C4F3FA
:10180000074000F021F8C4F3072000F01DF8E0B213
:1018100000F01AF807E0307800F016F8681EC5B23C
:1018200005B901E0761CF6E700BF10210548FEF778
:101830006EFE00BFFFF778FE00F001000028F9D12E
:101840000120D2E70000024070B50446002500BF29
:1018500002210B48FEF754FF0028F9D02146084822
:10186000FEF75AFF00BF01210548FEF749FF002897
:10187000F9D00348FEF74DFFC5B2284670BD000001
:101880000030014000B587B001210846FEF788FE10
:1018900002208DF8180000208DF81A00E020059035
:1018A00000208DF81B0002208DF8190005A91F48A3
:1018B000FEF7C0FD052211461C48FEF703FE052277
:1018C00006211A48FEF7FEFD052207211748FEF7FC
:1018D000F9FD01210803FEF783FE14216846FEF797
:1018E00009FD0020ADF80C00ADF80800ADF80600C9
:1018F000ADF80400ADF80000ADF80E004FF48270B2
:10190000ADF802004FF40070ADF80A0069460848CF
:10191000FEF704FF4FF480710548FEF71DFF01211B
:101920000348FEF7E1FE07B000BD000000000240E2
:101930000030014010B510210548FEF7E6FD0620F5
:10194000FFF782FF10210248FEF7E1FD10BD000005
:101950000000024010B5FFF7EDFF10210A48FEF726
:10196000D4FD0120FFF770FF0020FFF76DFF10216D
:101970000548FEF7CCFD00BFFFF7D6FD00F00100E3
:101980000028F9D110BD0000000002404FF0407067
:10199000E1EE100A70470000B819000800000020AE
:1019A00024000000D0010008DC19000824000020F9
:1019B00064060000EC0100080000000000000000C8
:1019C00000000000581F140000000101000000008A
:0C19D000010203040102030406070809D9
:040000050800019559
:00000001FF
