:020000040800F2
:10000000900600203D020008450200084702000853
:10001000490200084B0200084D02000800000000E1
:100020000000000000000000000000004F02000877
:1000300051020008000000005302000855020008A9
:10004000570200085702000857020008570200082C
:10005000570200085702000857020008570200081C
:10006000570200085702000857020008570200080C
:1000700057020008570200085702000857020008FC
:10008000570200085702000857020008000000004D
:1000900000000000000000000000000057020008FF
:1000A00057020008570200085702000857020008CC
:1000B00057020008570200085702000857020008BC
:1000C00057020008570200085702000857020008AC
:1000D00057020008B5080008570200080000000099
:1000E00057020008570200085702000800000000ED
:1000F000000000000000000000000000570200089F
:1001000000000000570200085702000857020008CC
:1001100000000000000000000000000000000000DF
:10012000570200085702000857020008570200084B
:10013000570200080000000000000000000000005E
:10014000000000000000000000000000570200084E
:10015000570200085702000857020008570200081B
:1001600057020008570200080000000000000000CD
:10017000000000000000000000000000000000007F
:10018000000000005702000800000000000000000E
:100190005702000800F002F800F041F80AA090E8C9
:1001A000000C82448344AAF10107DA4501D100F032
:1001B00036F8AFF2090EBAE80F0013F0010F18BFBE
:1001C000FB1A43F0010318478C0B0000AC0B000036
:1001D000103A24BF78C878C1FAD8520724BF30C873
:1001E00030C144BF04680C60704700000023002445
:1001F00000250026103A28BF78C1FBD8520728BF37
:1002000030C148BF0B607047732900F0F9800020AF
:1002100070471FB500F098FD1FBD10B510BD00F070
:1002200021F91146FFF7F5FF00F0FEFC00F03FF961
:1002300003B4FFF7F2FF03BC00F06DFC09488047F0
:1002400009480047FEE7FEE7FEE7FEE7FEE7FEE7B8
:10025000FEE7FEE7FEE7FEE704480549054A064BD0
:10026000704700004D08000895010008900000202C
:1002700090060020900200209002002070470000AD
:100280000FB4044910B503AA029800F0BDF810BCE1
:100290005DF814FB000000202DE9F0410E460446F5
:1002A000002020622046E168884730B3252805D029
:1002B000D4E901219047206A401CF2E7E16820461A
:1002C00000278847050018D0A5F14100192802D859
:1002D00020354FF400673246294620462760FFF755
:1002E00093FF40B1012804D0F61D26F0070608361A
:1002F000D8E7361DD6E72846DAE7206ABDE8F08160
:1003000070B50C460546012A05D02878800600D530
:10031000EA69002302E0012305E05B1C934202D25C
:10032000E05C0028F9D1A869E618C01AA861286A1B
:10033000184428622846AFF3008004E0D5E9012183
:1003400014F8010B9047B442F8D32846AFF300806D
:1003500070BD00004FF0013C50F8042B51F8043BF5
:100360009A4221D1A2EB0C03934313EACC1317D189
:1003700050F8042B51F8043B9A4215D1A2EB0C0320
:10038000934313EACC130BD150F8042B51F8043BE0
:100390009A4209D1A2EB0C03934313EACC13DBD0AE
:1003A0004FF00000704700BFD01A01BAB1FA81F1D6
:1003B00001F0180122FA01F0CB40C1F12001DBB2BB
:1003C000C0B2C01A2CFA01F3D11A914311EAC31139
:1003D000E6D17047704770477047704710B5436962
:1003E00013B1AFF3008001E0FFF78AFF012010BDD9
:1003F000127800F124010A7000224A700122EDE710
:1004000011684FF0FF32E9E7074B70B50D467B44AA
:1004100000F011F80446284600F020F810B14FF023
:10042000FF3070BD204670BDAB07000001694A1C5B
:1004300002610878704700B58FB0CDE90131002125
:10044000059105497944CDE9031011466846FFF747
:1004500023FF0FB000BD0000E5FFFFFF007B00F0B1
:1004600080007047754600F02BF8AE4605006946DF
:10047000534620F00700854618B020B5FFF7ECFE84
:10048000BDE820404FF000064FF000074FF0000895
:100490004FF0000B21F00701AC46ACE8C009ACE816
:1004A000C009ACE8C009ACE8C0098D46704710B57A
:1004B0000446AFF300802046BDE81040FFF7B8BE09
:1004C000004870472C000020F0B50A4600210023A8
:1004D000002400BF3DE0012505FA01F3156805EA97
:1004E00003049C4234D105684F000326BE40B54347
:1004F000056015794E00B5400668354305601579ED
:10050000012D02D01579022D16D185684F000326E2
:10051000BE40B543856055794E00B5408668354389
:100520008560456801268E40B543456045689679EB
:100530008E40B6B235434560C5684F000326BE40C5
:10054000B543C560D5794E00B540C6683543C56032
:10055000491C1029BFD3F0BDF0B5002300244D077E
:10056000ED0E02FA05F3CE1000F1200555F82650E5
:100570004E07F70E0F26BE40B543CF1000F1200600
:1005800046F82750CE1000F1200555F8265045EAD0
:100590000304CE1000F1200545F82640F0BD41834C
:1005A00070470183704742694A40426170470000CA
:1005B00070B5002100230F22C4781CB3174C2468A7
:1005C00004F4E064C4F5E064C4F30721C1F1040459
:1005D000E3B20A4144789C40E1B28478144021435C
:1005E0000C07210E0E4C05786155047804F01F05A8
:1005F0000124AC4005786D11AD0005F1E025C5F88A
:10060000004109E0047804F01F050124AC40054DC9
:100610000678761145F8264070BD00000CED00E02C
:1006200000E400E080E100E002490143024A116079
:10063000704700000000FA050CED00E029B1064A01
:1006400012680243044B1A6004E0034A12688243B2
:10065000014B1A60704700003038024029B1064A49
:1006600012680243044B1A6004E0034A1268824392
:10067000014B1A607047000044380240F0B5002179
:1006800000220024022500260223324F3F6807F093
:100690000C0121B1042905D0082937D105E02E4FDE
:1006A000076036E02D4F076033E02A4F3F1F3F6859
:1006B000C7F38056274F3F1F3F6807F03F036EB1D7
:1006C000264FB7FBF3F7DFF88CC0ACF1040CDCF875
:1006D00000C0CCF3881C07FB0CF40CE01E4FB7FBEA
:1006E000F3F7DFF870C0ACF1040CDCF800C0CCF319
:1006F000881C07FB0CF4174F3F1F3F68C7F30147E7
:100700007F1C7D00B4FBF5F7076002E0124F076025
:1007100000BF00BF0F4F3F6807F0F0010909104FFD
:100720007A5C0768D74047600A4F3F6807F4E0519A
:10073000890A0B4F7A5C4768D7408760054F3F684E
:1007400007F46041490B064F7A5C4768D740C760A1
:10075000F0BD0000083802400024F40040787D011C
:10076000050000200CB5002001900090334800687F
:1007700040F480303149086000BF3048006800F420
:10078000003000900198401C0190009818B9019821
:10079000B0F5A04FF1D12948006800F4003010B145
:1007A0000120009001E0002000900098012844D131
:1007B00022484030006840F08050204940310860B5
:1007C0001F48006840F440401D4908601B4808303D
:1007D00000681A4908310860084600680860084641
:1007E000006840F4805008601648091F0860081F20
:1007F000006840F08070091F086000BF0F48006863
:1008000000F000700028F9D040F202700E49086034
:100810000A480830006820F00300084908310860E1
:100820000846006840F00200086000BF0348083036
:10083000006800F00C000828F8D10CBD0038024018
:100840000070004019544107003C024010B51548A3
:10085000006840F47000134908601348006840F0D5
:1008600001001149086000200F49083108600E4856
:1008700000680E4908400C4908600D48091D0860D1
:10088000081F006820F48020091F08600020064926
:100890000C310860FFF766FF4FF0006001498039B6
:1008A000086010BD88ED00E000380240FFFFF6FE52
:1008B0001030002410B540F225511D4800F06DF8AD
:1008C00080B140F225511A4800F04CF8184800F069
:1008D0001DF91849184A1278885417480078401CA6
:1008E0001549087040F22441114800F056F8E8B16B
:1008F0000F4800880E48808800200E490E4A127862
:1009000088540D4908700B490CA0FFF7B9FC11A1E0
:100910000848FFF71FFD10B900F09AF906E00FA193
:100920000448FFF717FD08B900F0F8F810BD000003
:10093000001001401800002004000020BDD3CAD5DB
:10094000B5BDB5C4D7D6B7FBB4AECAC7A3BA257375
:100950000D0A00006F70656E00000000636C6F731D
:100960006500000010B50022002340F66A14A14281
:1009700000D100BF0A1201249440A3B2DC430480DA
:1009800010BD21B1828942F40052828104E0828943
:100990004DF6FF731A408281704770B502460024FD
:1009A00000230025002040F66A16B14200D100BFA6
:1009B000C1F3421501F01F03012606FA03F3012DCE
:1009C00002D19689334006E0022D02D1168A3340C7
:1009D00001E0968A33400C12012606FA04F41688C8
:1009E000344013B10CB1012000E0002070BDF0B51F
:1009F0000346002400260025002040F66A17B9426D
:100A000000D100BF1846C1F3421401F01F060127B0
:100A100007FA06F5012C01D10C3004E0022C01D1BB
:100A2000103000E014301AB107682F43076002E06D
:100A30000768AF430760F0BD2DE9FF4705460E4646
:100A40000024A14600BFA046B08900B100BF2C8A97
:100A500024F44054F08804432C82AC8941F20C60A9
:100A60008443B08831890843718908430443AC81C9
:100A7000AC8A24F44074B0890443AC826846FFF722
:100A8000FDFD2048854202D01F48854202D1DDF895
:100A90000C9001E0DDF80890A88900F4004040B116
:100AA00009EBC90000EB091031684900B0FBF1F710
:100AB00007E009EBC90000EB091031688900B0FBC1
:100AC000F1F76420B7FBF0F004012009642101FB79
:100AD0001078A88900F4004040B1322000EBC80033
:100AE000B0FBF1F000F00700044308E0322000EB17
:100AF00008106421B0FBF1F000F00F0004432C81DA
:100B0000BDE8FF87001001400014014001468888BD
:100B1000C0F30800704700BF7047000010B50821FF
:100B20000948FFF73CFD10210748FFF73AFD4FF455
:100B3000967000F015F808210348FFF732FD1021E8
:100B40000148FFF72EFD10BD00040240014645F2AA
:100B5000082201FB02F000E0401E0028FCD1704793
:100B6000014645F2082201FB02F000E0401E002889
:100B7000FCD170471CB5002000900190012102209B
:100B8000FFF75CFD01208DF8040000208DF80600C1
:100B90001820009000208DF807008DF805006946A8
:100BA0000548FFF791FC08210348FFF7FAFC1021E4
:100BB0000148FFF7F6FC1CBD0004024000BF054AD7
:100BC000128802F04002002AF9D0C2B2014B9A808A
:100BD00070470000001001401CB5002000900190FB
:100BE00001210220FFF72AFD01208DF804000020DA
:100BF0008DF806004FF44070009000208DF807003B
:100C000002208DF8050069460648FFF75DFC4FF4A9
:100C100080710448FFF7C5FC4FF400710148FFF7ED
:100C2000C0FC1CBD000402404FF4E13000F028F885
:100C3000FFF7A0FFFFF7D0FF07E04FF480710348F4
:100C4000FFF7B1FCC820FFF781FFF6E70004024080
:100C500010B508210948FFF7A4FC10210748FFF749
:100C60009EFC4FF49670FFF77BFF08210348FFF7C7
:100C700098FC10210148FFF794FC10BD00040240CD
:100C800010B588B0044601210846FFF7D7FC0020C4
:100C90000690079002208DF81C0000208DF81E00A1
:100CA0004FF4C060069000208DF81F008DF81D00E5
:100CB00006A92348FFF708FC072209212048FFF76F
:100CC0004BFC07220A211E48FFF746FC0121102099
:100CD000FFF7C4FC02940020ADF814000C20ADF81E
:100CE00012000020ADF81000ADF80E00ADF80C00B9
:100CF00002A91448FFF7A0FE012240F22551114835
:100D0000FFF775FE012240F224410E48FFF76FFE07
:100D10004FF4A060FFF788FC25208DF80400012027
:100D20008DF807008DF805008DF8060001A8FFF783
:100D30003FFC01210348FFF724FE08B010BD00006E
:100D400000000240001001404FF04070E1EE100A38
:100D500070470000740D000800000020180000001B
:100D6000D00100088C0D0008180000207806000053
:100D7000EC01000800000000000000000001020378
:0C0D80000401020304060708090000003B
:040000050800019559
:00000001FF
