:020000040800F2
:10000000E00C0020450200084D0200084F020008E5
:1000100051020008530200085502000800000000C9
:10002000000000000000000000000000570200086F
:1000300059020008000000005B0200085D02000891
:100040005F0200085F0200085F0200085F0200080C
:100050005F0200085F0200085F0200085F020008FC
:100060005F0200085F0200085F0200085F020008EC
:100070005F0200085F0200085F0200085F020008DC
:100080005F0200085F0200085F0200080000000035
:100090000000000000000000000000005F020008F7
:1000A000FD1D00085F0200085F0200085F020008F3
:1000B0005F0200085F0200085F0200085F0200089C
:1000C0005F0200085F0200085F0200085F0200088C
:1000D0005F0200081D200008C92000080000000081
:1000E0005F0200085F0200085F02000800000000D5
:1000F0000000000000000000000000005F02000897
:10010000000000005F0200085F0200085F020008B4
:1001100000000000000000000000000000000000DF
:100120005F0200085F0200085F0200085F0200082B
:100130005F02000800000000000000000000000056
:100140000000000000000000000000005F02000846
:100150005F0200085F0200085F0200084D210008EE
:100160005F0200085F0200080000000000000000BD
:10017000000000000000000000000000000000007F
:10018000000000005F020008000000000000000006
:100190005F02000800F002F800F044F80AA090E8BE
:1001A000000C82448344AAF10107DA4501D100F032
:1001B00039F8AFF2090EBAE80F0013F0010F18BFBB
:1001C000FB1A43F00103184754300000743000005C
:1001D000103A24BF78C878C1FAD8520724BF30C873
:1001E00030C144BF04680C60704700000023002445
:1001F00000250026103A28BF78C1FBD8520728BF37
:1002000030C148BF0B607047642900F087807329B4
:1002100000F0C382002070471FB502F085FF1FBDAC
:1002200010B510BD00F0D4FA1146FFF7F5FF02F04B
:1002300063FA00F0F2FA03B4FFF7F2FF03BC02F036
:10024000B2F800000948804709480047FEE7FEE78A
:10025000FEE7FEE7FEE7FEE7FEE7FEE7FEE7FEE776
:1002600004480549054A064B70470000951D0008E3
:1002700095010008E0060020E00C0020E0080020C6
:10028000E0080020704700000FB4044910B503AA2D
:10029000029800F087FA10BC5DF814FB04000020FF
:1002A0000FB41CB5074B06AA7B446946009005981D
:1002B00000F049FA0020694600F058FA1CBC5DF8CD
:1002C00014FB0000C104000070B50C460546012A6D
:1002D00005D02878800600D5EA69002302E00123D2
:1002E00005E05B1C934202D2E05C0028F9D1A869CA
:1002F000E618C01AA861286A184428622846AFF395
:10030000008004E0D5E9012114F8010B9047B442C4
:10031000F8D32846AFF3008070BD00002DE9F0410E
:100320000646002410687529314616A510D0AFF393
:100330000080002802DA404213A507E031688A07EE
:1003400001D512A502E0490704D511A5012401E059
:10035000AFF3008000210A2206F1240709E0B0FB78
:10036000F2FCB0FBF2F302FB1C003030785418466C
:10037000491C0028F3D123462A463046BDE8F04107
:1003800000F083B9000000002D0000002B000000E9
:10039000200000002DE9F05F894604464FF0000A76
:1003A000DFF824B1FB44C0F820A02046E16888476C
:1003B00000287DD0252806D0D4E901219047206A65
:1003C000401C2062F1E700255F462046E16888472F
:1003D0002028064607DB312E05D2B81910F8200C6C
:1003E00008B10543F1E7A80701D525F00405C4F8D5
:1003F0001CA00027C4F818A02A2E09D0304601F00E
:10040000CBFF38B304EB8708303EC8F8186019E01A
:1004100059F8041B204604EB87029161E168884784
:10042000012F064618D1E069002820DA25F02005C2
:100430001DE0D8F8180000EB800006EB40003038D3
:10044000C8F818002046E1688847064601F0A4FF76
:100450000028EED1012F0AD02E2E08D12046E168C7
:1004600088477F1C0646022F45F02005C4DBA069A3
:10047000002803DA404245F00105A061E80701D0F9
:1004800025F01005A6B1A6F14100192802D82036A2
:1004900045F400654A463146204625604D46FFF743
:1004A000B3FE60B1012807D0ED1D25F0070000E084
:1004B00007E000F1080978E705F1040975E730461F
:1004C0007AE7206ABDE8F09FD62D000030B50546DA
:1004D0000B462A4613F8014B12F8010B08B1A04253
:1004E000F8D01CB1002802D06D1CF1E7284630BDC1
:1004F00010B5431C02E010F8011B71B18107FAD15D
:100500004FF0013202C88C1A8C4314EAC211F9D0A0
:10051000C01A0A0603D0C01E10BDC01A10BD0A04BE
:1005200001D0801E10BD0902FCD0401E10BD421E2D
:1005300012F8013F002BFBD111F8013B002B02F810
:10054000013BF9D17047032A40F2308010F0030CD0
:1005500000F0158011F8013BBCF1020F624498BF16
:1005600011F801CB00F8013B38BF11F8013BA2F1B3
:10057000040298BF00F801CB38BF00F8013B11F02E
:10058000030300F02580083AC0F0088051F8043BCE
:10059000083A51F804CBA0E80810F5E7121D5CBF3B
:1005A00051F8043B40F8043BAFF30080D20724BF6E
:1005B00011F8013B11F801CB48BF11F8012B24BF02
:1005C00000F8013B00F801CB48BF00F8012B704751
:1005D00010B5203AC0F00B80B1E81850203AA0E8DE
:1005E0001850B1E81850A0E81850BFF4F5AF5FEA12
:1005F000027C24BFB1E81850A0E8185044BF18C9C5
:1006000018C0BDE810405FEA827C24BF51F8043B6B
:1006100040F8043B08BF7047D20728BF31F8023BBF
:1006200048BF11F8012B28BF20F8023B48BF00F853
:10063000012B70474FF0000200B5134694469646D2
:10064000203922BFA0E80C50A0E80C50B1F12001E5
:10065000BFF4F7AF090728BFA0E80C5048BF0CC093
:100660005DF804EB890028BF40F8042B08BF7047F1
:1006700048BF20F8022B11F0804F18BF00F8012B63
:10068000704770477047704770472DE9F0470D4637
:1006900099469246044600F124080168880604D56C
:1006A000E06921F01001216000E00120A84201DD95
:1006B000471B00E00027A1697A1902EB0900081A1C
:1006C000A0612078C00602D42046AFF30080002647
:1006D00008E0D4E901211AF806009047206A401C7E
:1006E000761C20624E45F4DB2078C0060AD52046F1
:1006F000AFF3008006E0D4E9012130209047206A62
:10070000401C2062381EA7F10107F4DC07E0D4E9A1
:10071000012118F805009047206A401C2062281E1D
:10072000A5F10105F3DC2046AFF300802078000638
:1007300002D50220BDE8F0870120FBE701694A1CD1
:1007400002610878704700B58FB0CDE90131002112
:10075000059105497944CDE9031011466846FFF734
:1007600019FE0FB000BD0000E5FFFFFF0A6802F8A8
:10077000010B0A60704710B5436913B1AFF30080F5
:1007800001E0FFF7A1FD012010BD127800F1240166
:100790000A7000224A700122EDE711684FF0FF3223
:1007A000E9E70000074B70B50D467B44FFF7CBFF30
:1007B0000446284600F008F810B14FF0FF3070BD35
:1007C000204670BDDF1D0000007B00F080007047F8
:1007D000754600F02BF8AE4605006946534620F0FA
:1007E0000700854618B020B5FFF73AFDBDE8204068
:1007F0004FF000064FF000074FF000084FF0000BDD
:1008000021F00701AC46ACE8C009ACE8C009ACE88F
:10081000C009ACE8C0098D46704710B50446AFF377
:1008200000802046BDE81040FFF705BD0048704736
:100830008006002070B50446002601F033FEA0209B
:1008400001F0FEFD01F0D6FD18B101F04FFE0120D0
:1008500070BD00BF1D48006800F040000028F9D0BE
:10086000B02001F0EDFD01F0C5FD18B101F03EFE34
:100870000220EDE700BF1548006800F040000028A6
:10088000F9D001251BE0162D03D1F0B201F0D8FDFF
:1008900005E0207801F0D4FD20780644641C01F0C6
:1008A000A9FD18B101F022FE0320D1E700BF0748DF
:1008B000006800F040000028F9D0681CC5B2162D71
:1008C000E1DD01F013FE0020C2E700001004024049
:1008D00000B58DB0182107A8FFF7ACFE18220BA1B8
:1008E00001A8FFF775FE01F065FD0E48006840F0B5
:1008F00001000C4908600C48006820F00C000A490F
:10090000086001A8FFF796FF0DB000BD000083F35B
:10091000981010101010101010101010101010104F
:100920005000000030380240000002400146C8B2CA
:1009300070470146C1F30720704770B505460C4665
:100940000026284600F0EAFF064626EA040128466B
:1009500001F008FD70BD00002DE9F05F81468A4678
:1009600090464846FFF7C4FD07465046FFF7C0FDD6
:1009700005464046FFF7BCFD0646002097498881A2
:1009800007F10C00A91C0144B01C0C18102193485D
:1009900082898089401C914B9881184680688154D7
:1009A00000BF2046E21704EB5262D211A4EBC21240
:1009B000D1B2E21704EB5262D411002C01DD41F0F8
:1009C0008001864882898089401C844B9881184622
:1009D00080688154002CE4DC0021184682898089DB
:1009E000401C9881184680688154042218468189E9
:1009F0008089401C98811846806842544D211846D1
:100A000082898089401C98811846806881545122CF
:100A1000184681898089401C988118468068425414
:100A20005421184682898089401C98811846806824
:100A30008154184682898089401C988118468068B4
:100A400081540421184682898089401C9881184667
:100A500080688154C221184682898089401C98810F
:100A60001846806881540121184682898089401C7B
:100A70009881184680688154F422184681898089BB
:100A8000401C98811846806842543846FFF751FF51
:100A900052498A898989491C504B9981194689682C
:100AA00088543846FFF742FF4C498A898989491C96
:100AB0004A4B9981194689688854194689681A46AB
:100AC000928988183A464946FFF73DFD4348808998
:100AD000384442498881002D25DD2846FFF729FF4B
:100AE0003E498A898989491C3C4B99811946896804
:100AF00088542846FFF71AFF38498A898989491C92
:100B0000364B9981194689688854194689681A466E
:100B1000928988182A465146FFF715FD2F4880898B
:100B200028442E498881002E25DD3046FFF701FF3D
:100B30002A498A898989491C284B998119468968DB
:100B400088543046FFF7F2FE24498A898989491C76
:100B5000224B9981194689688854194689681A4632
:100B60009289881832464146FFF7EDFC1B48808980
:100B700030441A498881194B998998689A6A904734
:100B80004FF0000B0AE0012001F0ECF90BF101003D
:100B900080B28346B0F5FA7F00DD04E0104890F89B
:100BA00002040028EFD000BF0D4890F8020490B175
:100BB00000200B4981F802040846007809490978A9
:100BC000884208D10648407806494978884202D1CF
:100BD0000120BDE8F09F0020FBE700001C00002082
:100BE0007A0000207231000810B503480221826AA1
:100BF0000248904710BD00001C000020763100081C
:100C000010B540F6B83207A108A000F09DF80446E0
:100C10001CB90AA0FFF738FB02E00DA0FFF734FB78
:100C2000204610BD726561647900000041542B526A
:100C30004553544F52450D0A00000000BBD6B8B4CE
:100C4000B3F6B3A7C9E8D6C3B3C9B9A60D0A000065
:100C5000BBD6B8B4B3F6B3A7C9E8D6C3CAA7B0DC4D
:100C60000D0A000010B501F089FF0A2214A115A099
:100C700000F06AF80A2212A112A000F065F808B18B
:100C800000F064F9FFF7BCFF0A220DA10FA000F0ED
:100C90005BF818B911A0FFF7F7FA02E016A0FFF70A
:100CA000F3FA0A2206A11AA000F04EF818B91CA007
:100CB000FFF7EAFA02E01FA0FFF7E6FA10BD000016
:100CC0004F4B000041540D0A0000000041542B43DB
:100CD000574D4F44453D310D0A000000BFCDBBA725
:100CE000B6CBC4A3CABDD6B8C1EED6B4D0D0B3C9B2
:100CF000B9A60D0A00000000BFCDBBA7B6CBC4A3A8
:100D0000D6B8C1EED6B4D0D0CAA7B0DC0D0A000068
:100D100041542B4349504D4F44453D310D0A00008D
:100D2000CDB8B4ABD6B8C1EED6B4D0D0B3C9B9A69D
:100D30000D0A0000CDB8B4ABD6B8C1EED6B4D0D051
:100D4000CAA7B0DC0D0A00002DE9F04106460F46A7
:100D500014460025304601F0B9FF642001F002F985
:100D600019E008E06D1C012001F0FCF8A54202D159
:100D70000120BDE8F081084890F802040028F1D075
:100D80000020054981F8020439460348FFF79EFB1D
:100D900008B10020EDE7E4E77A00002030B595B017
:100DA00004460D46502101A8FFF744FC2B4622467D
:100DB00013A101A8FFF774FA41F2883217A101A824
:100DC000FFF7C2FF002816D115A0FFF75DFA0A222F
:100DD00012A119A0FFF7B8FF40B91BA0FFF754FA02
:100DE0001FA0FFF751FA002015B030BD25A0FFF776
:100DF0004BFA0220F8E729A0FFF746FA0120F3E7B3
:100E000041542B43495053544152543D2254435072
:100E1000222C222573222C25640D0A004F4B000042
:100E2000544350C1ACBDD3D6B8C1EED6B4D0D0B3C4
:100E3000C9B9A60D0A00000041542B43495053453F
:100E40004E440D0A00000000B7A2CBCDCAFDBEDDA6
:100E5000D6B8C1EED6B4D0D0B3C9B9A60D0A000039
:100E6000B7FECEF1C6F7C1ACBDD3B3C9B9A62CBD90
:100E7000F8C8EBB4ABCAE4CAFDBEDDC4A3CABD0D5D
:100E80000A000000B7A2CBCDCAFDBEDDD6B8C1EEC8
:100E9000D6B4D0D0CAA7B0DC0D0A0000544350C16C
:100EA000ACBDD3D6B8C1EED6B4D0D0CAA7B0DC0D95
:100EB0000A00000030B58DB004460D4634221349B7
:100EC0006846FFF785FB21466846FFF730FB10A117
:100ED0006846FFF72CFB29466846FFF728FB0DA163
:100EE0006846FFF724FB41F288320BA16846FFF702
:100EF0002BFF28B909A0FFF7C7F900200DB030BDBE
:100F00000CA0FFF7C1F90120F8E70000403100080C
:100F1000222C2200220D0A004F4B0000574946495F
:100F2000C1ACBDD3D6B8C1EED6B4D0D0B3C9B9A682
:100F30000D0A000057494649C1ACBDD3D6B8C1EE31
:100F4000D6B4D0D0CAA7B0DC0D0A000010B505A0F9
:100F500001F0BCFE4FF4FA6001F004F802A0FFF7C4
:100F600093F910BD2B2B2B00CDB8B4ABC4A3CABDD5
:100F7000D2D4CDCBB3F62CBDF8C8EBC9E8D6C3C4E8
:100F8000A3CABD0D0A000000F0B50A4600210023E7
:100F9000002400BF3DE0012505FA01F3156805EACC
:100FA00003049C4234D105684F000326BE40B5437C
:100FB000056015794E00B540066835430560157922
:100FC000012D02D01579022D16D185684F00032618
:100FD000BE40B543856055794E00B54086683543BF
:100FE0008560456801268E40B54345604568967921
:100FF0008E40B6B235434560C5684F000326BE40FB
:10100000B543C560D5794E00B540C6683543C56067
:10101000491C1029BFD3F0BDF0B5002300244D07B3
:10102000ED0E02FA05F3CE1000F1200555F826501A
:101030004E07F70E0F26BE40B543CF1000F1200635
:1010400046F82750CE1000F1200555F8265045EA05
:101050000304CE1000F1200545F82640F0BD0246FD
:10106000002013690B400BB1012000E00020704705
:10107000418370470183704710B5034C2060A18005
:10108000A260A38110BD00001C0000201CB501213E
:10109000022000F091FB45F20240009001208DF803
:1010A000040000208DF806008DF807006946064808
:1010B000FFF76AFF02210448FFF7DAFF4FF480517F
:1010C0000148FFF7D7FF1CBD0004024070B506467B
:1010D0000C4615462A2001F0ABFC304601F0D8FC46
:1010E000304601F0D5FC2B2001F0A2FC204601F097
:1010F000CFFC204601F0CCFC2C2001F099FC2846C6
:1011000001F0C6FC70BD70B505462A2001F090FCC8
:10111000002001F0BDFCEF2001F0BAFC2B2001F013
:1011200087FC002001F0B4FCEF2001F0B1FC2C2082
:1011300001F07EFC002403E0284601F0A9FC641CB9
:10114000B4F5614FF8D370BD2DE9FF4F85B0064669
:101150000F469846DDF848B00020019002900390B9
:101160000490584600F0FF094FF4003101EB0910DC
:1011700001AA102101F0F8FE002421E001A810F8D6
:1011800004A0002518E08020284100EA0A0038B1B8
:101190003A1991B2721990B2079AFFF797FF09E0D6
:1011A0001398012806D13A1991B2721990B24246A9
:1011B000FFF78CFF681CC5B2082DE4DB601CC4B2CD
:1011C000102CDBDB09B0BDE8F08F00002DE9FF4FEC
:1011D00089B006460F469846DDF85890202101A8B0
:1011E000FFF728FA99F80100A13899F80010A13901
:1011F000C1EB011202EB411100EB410A1B4901EB6B
:101200004A1001AA202101F0AFFE002428E060006E
:10121000401C01A9085C01AA12F8141040EA012B35
:10122000002519E04FF40040284100EA0B0038B1D6
:101230003A1991B2721990B20B9AFFF747FF09E081
:101240001798012806D13A1991B2721990B2424604
:10125000FFF73CFF681CC5B2102DE3DB601CC4B275
:10126000102CD4DB0DB0BDE8F08F00000C2802007C
:101270002DE9FC4705460E4690469946DDE90A47AA
:101280002BE02078002816DB20787F2813DC2078DC
:101290004B4642463146CDE900072846FFF754FF4A
:1012A000641C05F1080085B2E82D16DB002506F167
:1012B000100086B211E04B46424631462846CDE941
:1012C0000047FFF783FFA41C05F1100085B2E02D55
:1012D00003DB002506F1100086B220780028D0D16B
:1012E000BDE8FC8710B5FFF7D1FE00F0C1F801F0B2
:1012F0008BFB362001F09CFB002001F0B1FB3A2073
:1013000001F096FB052001F0ABFBB22001F090FB51
:101310000C2001F0A5FB0C2001F0A2FB002001F045
:101320009FFB332001F09CFB332001F099FBB72099
:1013300001F07EFB352001F093FBBB2001F078FB30
:10134000192001F08DFBC02001F072FB2C2001F070
:1013500087FBC22001F06CFB012001F081FBC32060
:1013600001F066FB122001F07BFBC42001F060FB62
:10137000202001F075FBC62001F05AFB0F2001F080
:101380006FFBD02001F054FBA42001F069FBA120E9
:1013900001F066FBE02001F04BFBD02001F060FB88
:1013A000042001F05DFB0D2001F05AFB112001F03B
:1013B00057FB132001F054FB2B2001F051FB3F2081
:1013C00001F04EFB542001F04BFB4C2001F048FB98
:1013D000182001F045FB0D2001F042FB0B2001F02D
:1013E0003FFB1F2001F03CFB232001F039FBE120F3
:1013F00001F01EFBD02001F033FB042001F030FB94
:101400000C2001F02DFB112001F02AFB132001F02C
:1014100027FB2C2001F024FB3F2001F021FB44207E
:1014200001F01EFB512001F01BFB2F2001F018FBE7
:101430001F2001F015FB1F2001F012FB202001F0FE
:101440000FFB232001F00CFB212001F0F1FA112009
:1014500001F0EEFA292001F0EBFA02210348FFF730
:1014600009FE0020FFF74FFE10BD000000040240FF
:101470001CB50121022000F09FF94FF4204000909C
:1014800001208DF8040000208DF806008DF807007B
:1014900002208DF8050069460148FFF775FD1CBD67
:1014A0000004024070B504464FF400511448FFF7A1
:1014B000DFFD4FF400411248FFF7DCFD00251BE083
:1014C0004FF400510E48FFF7D3FD04F0800028B11F
:1014D0004FF400410A48FFF7CDFD04E04FF400410E
:1014E0000748FFF7C5FD4FF400510548FFF7C2FD5F
:1014F0006006040E681CC5B2082DE1DB70BD00005B
:101500000004024010B50446412C25D108210846AC
:10151000FFF713FA3D21112000F024FF8621172048
:1015200000F020FF7F21262000F01CFF1E212D202F
:1015300000F018FF00212C2000F014FF8D212A203C
:1015400000F010FF3E212B2000F00CFF022000F0E5
:1015500039FD00F047F801E0012010BD0020FCE754
:1015600070B5002100230F22C4781CB3174C2468E7
:1015700004F4E064C4F5E064C4F30721C1F1040499
:10158000E3B20A4144789C40E1B28478144021439C
:101590000C07210E0E4C05786155047804F01F05E8
:1015A0000124AC4005786D11AD0005F1E025C5F8CA
:1015B000004109E0047804F01F050124AC40054D0A
:1015C0000678761145F8264070BD00000CED00E06D
:1015D00000E400E080E100E010B503211420FFF7F3
:1015E000ACF910BD10B5142000F098F9044604F0D1
:1015F000030018B90321142000F04EFA10BD0000BA
:1016000010B504211C48FFF735FD022000F0DAFC7C
:1016100004211948FFF72CFD022000F0D3FC04211F
:101620001548FFF727FD022000F0CCFC0F21012018
:1016300000F098FE0F21012000F094FE022000F03F
:10164000C1FC3D21112000F08DFE1E212D2000F057
:1016500089FE00212C2000F085FE8D212A2000F03B
:1016600081FE3E212B2000F07DFE4021152000F060
:1016700079FE002010BD0000000C02402DE9F0476B
:101680008046894617464046FEF732FF05464846E3
:10169000FEF72EFF064600204549888117B1281D18
:1016A000841901E0A81C841930214148828980896D
:1016B000401C3F4B988118468068815400BF2046EB
:1016C000E21704EB5262D211A4EBC212D1B2E217BC
:1016D00004EB5262D411002C01DD41F0800134484A
:1016E00082898089401C324B9881184680688154D9
:1016F000002CE4DC2846FFF71CF92D498A898989EA
:10170000491C2B4B99811946896888542846FFF754
:101710000DF90146264882898089401C244B988116
:10172000184680688154194689681A469289881833
:101730002A464146FEF707FF1D48808928441C4978
:101740008881F7B11B480088FFF7F3F818498A89A8
:101750008989491C164B998119468968885415480E
:101760000088FFF7E3F812498A898989491C104BE0
:1017700099811946896888540E480088401C0D4993
:1017800008800B4989680A4A928988183246494676
:10179000FEF7D9FE064880893044054988810B460A
:1017A000998998689A6A90470148007BBDE8F0875C
:1017B0001C0000204800002029B1064A126802439C
:1017C000044B1A6004E0034A12688243014B1A601A
:1017D000704700003038024029B1064A12680243BF
:1017E000044B1A6004E0034A12688243014B1A60FA
:1017F000704700004038024029B1064A126802438F
:10180000044B1A6004E0034A12688243014B1A60D9
:101810007047000044380240F0B500210022002447
:10182000022500260223324F3F6807F00C0121B148
:10183000042905D0082937D105E02E4F076036E08E
:101840002D4F076033E02A4F3F1F3F68C7F3805694
:10185000274F3F1F3F6807F03F036EB1264FB7FB8E
:10186000F3F7DFF88CC0ACF1040CDCF800C0CCF36B
:10187000881C07FB0CF40CE01E4FB7FBF3F7DFF8F6
:1018800070C0ACF1040CDCF800C0CCF3881C07FB82
:101890000CF4174F3F1F3F68C7F301477F1C7D00C3
:1018A000B4FBF5F7076002E0124F076000BF00BF0E
:1018B0000F4F3F6807F0F0010909104F7A5C076885
:1018C000D74047600A4F3F6807F4E051890A0B4F41
:1018D0007A5C4768D7408760054F3F6807F46041EE
:1018E000490B064F7A5C4768D740C760F0BD0000DF
:1018F000083802400024F40040787D014A000020AE
:1019000010B500F04BF9FFF77BFEFFF765FEFFF720
:1019100069FE4120FFF7F6FD10BD000070B50446DA
:1019200000264FF400410B48FFF7A2FB7E2000EA9F
:10193000440040F08005284600F00EF8002000F03A
:101940000BF806464FF400410248FFF793FB304680
:1019500070BD00000000024070B5064600254FF43F
:1019600080611748FFF786FB002424E04FF4806174
:101970001348FFF77DFB80202041304028B14FF411
:1019800080510F48FFF776FB04E04FF480510C487C
:10199000FFF76EFB4FF480610948FFF76BFB6806A9
:1019A000050E4FF400610648FFF759FB08B145F0FA
:1019B0000105601CC4B2082CD8DB284670BD0000AD
:1019C0000008024021B1028842F04002028004E097
:1019D00002884FF6BF731A4002807047024600200B
:1019E00013890B400BB1012000E000207047014635
:1019F000888970478181704710B50022028802F4FF
:101A000041520B884C8823438C882343CC88234342
:101A10000C8923434C8923438C892343CC8923435A
:101A20001A430280838B4FF2FF74234083830B8A17
:101A3000038210BD4FF6FF62914204D0028842F447
:101A40008072028004E002884FF6FF631A40028031
:101A5000704700000BE000BF084A128802F08002C5
:101A6000002AF9D00278054B1B1D1A80401C0A1E63
:101A7000A1F1010399B2EED170470000004400408B
:101A800010B503480221826A0248904710BD000049
:101A90001C0000207A31000870B505460C4600266F
:101AA0002846FFF73BFF064646EA0401284600F0B9
:101AB00059FC70BD0CB500200190009033480068BF
:101AC00040F480303149086000BF3048006800F4BD
:101AD000003000900198401C0190009818B90198BE
:101AE000B0F5A04FF1D12948006800F4003010B1E2
:101AF0000120009001E0002000900098012844D1CE
:101B000022484030006840F0805020494031086051
:101B10001F48006840F440401D4908601B480830D9
:101B200000681A49083108600846006808600846DD
:101B3000006840F4805008601648091F0860081FBC
:101B4000006840F08070091F086000BF0F480068FF
:101B500000F000700028F9D040F202700E490860D1
:101B60000A480830006820F003000849083108607E
:101B70000846006840F00200086000BF03480830D3
:101B8000006800F00C000828F8D10CBD00380240B5
:101B90000070004019544107003C02401CB501216F
:101BA0000D20FFF709FE4FF4A050009001208DF8A2
:101BB000040000208DF806008DF8070069461248E1
:101BC000FFF7E2F94FF40040009069460F48FFF735
:101BD000DBF90420009069460D48FFF7D5F9002095
:101BE0008DF804004FF40060009069460648FFF746
:101BF000CBF904210648FFF73DFA4FF400410348B2
:101C0000FFF738FA1CBD0000000802400000024047
:101C1000000C02402DE9F047074688461546002093
:101C2000594988813846FEF763FC0646301D0DB1E0
:101C3000012100E00021441855B1822152488289D7
:101C40008089401C504B988118468068815409E077
:101C5000A2214D4882898089401C4B4B98811846AF
:101C60008068815400BF2046E21704EB5262D21113
:101C7000A4EBC212D1B2E21704EB5262D411002CD1
:101C800001DD41F08001404882898089401C3E4B43
:101C90009881184680688154002CE4DC00221846A4
:101CA00081898089401C98811846806842540121AE
:101CB000184682898089401C988118468068815422
:101CC0003046FEF736FE30498A898989491C2E4BF9
:101CD00099811946896888543046FEF727FE2A49BB
:101CE0008A898989491C284B9981194689688854B1
:101CF000194689681A469289881832463946FEF78D
:101D000022FC2148808930441F4988814DB1084612
:101D100081898089401C1C4A90811046806800F8A7
:101D20000180194B998998689A6A90474FF0000989
:101D30000AE0012000F016F909F1010080B28146A5
:101D4000B0F5FA7F00DD04E0104890F802040028A6
:101D5000EFD000BF0D4890F8020490B100200B496D
:101D600081F802040846007809490978884208D1B8
:101D70000648407806494978884202D10120BDE8EA
:101D8000F0870020FBE700001C0000207A00002004
:101D90007831000810B51548006840F47000134908
:101DA00008601348006840F00100114908600020F5
:101DB0000F49083108600E4800680E4908400C4978
:101DC00008600D48091D0860081F006820F4802085
:101DD000091F0860002006490C310860FFF76AFE01
:101DE0004FF0006001498039086010BD88ED00E0C7
:101DF00000380240FFFFF6FE1030002410B501212C
:101E0000174800F050F848B30121154800F033F8A6
:101E10001448007801280DD113480088401C12494D
:101E2000088008460088B0F57A7F12DB00200D4953
:101E300008700EE00B48007858B90B480088401E27
:101E40000949088008460088002802DC012005496D
:101E5000087005480188054800F03FF810BD0000F3
:101E6000004001401800002016000020000800403B
:101E7000CA4302827047CA430282704721B1028876
:101E800042F00102028004E002884FF6FE731A401D
:101E90000280704702460020138A0B400BB10120DC
:101EA00000E00020704730B50246002000230024E7
:101EB000158A05EA0103958905EA010413B10CB1FD
:101EC000012000E0002030BD02884FF6F7731A4071
:101ED000028002880A430280704701647047000054
:101EE00000220288184B98420ED0184B98420BD013
:101EF000B0F1804F08D0164B984205D0154B984250
:101F000002D0154B984204D14FF68F731A404B887C
:101F10001A43124B984207D0114B984204D04FF607
:101F2000FF431A400B891A4302804B68C3620B8837
:101F30000385054B984202D0044B984201D18B7A1D
:101F400003860123838270470000014000040140A2
:101F50000004004000080040000C00400010004059
:101F6000001400403EB5044601210820FFF734FC70
:101F70000020009001900290ADF802004FF47A71B9
:101F800004FB01F0401E01905320ADF800006946AB
:101F90000B48FFF7A5FF01210948FFF769FF08215A
:101FA0000748FFF791FF01210548FFF767FF00BFD2
:101FB00001210348FFF76EFF0028F9D03EBD000065
:101FC000000C00403EB5044601210820FFF704FC48
:101FD0000020009001900290ADF80200601E019078
:101FE0005320ADF8000069460B48FFF779FF012147
:101FF0000948FFF73DFF01210748FFF73FFF00BFFA
:1020000001210548FFF746FF0028F9D000210248CA
:10201000FFF734FF3EBD0000000C004008B540F261
:102020002551204800F0DFF800282FD040F225513C
:102030001C4800F0BDF81C48007838B34FF480719C
:102040001A48FFF715F8174800F086F9C0B200905B
:102050006A4601211648006800F04CFF14480068E9
:10206000401C1349086013480068401E114908606D
:102070000846006850B910A0FEF706F94FF48071C9
:102080000A48FEF7F7FF00200749087040F2244194
:10209000044800F0A8F818B1024800880148808878
:1020A00008BD0000001001400800002000040240AC
:1020B0000C00002010000020D7D6BFE2C9D5C2BC5A
:1020C000CDEAB3C9210D0A0010B540F225511D48D3
:1020D00000F089F8E8B11B4800F03EF9C4B264B9D9
:1020E00020211948B0F80024B0F80004401C164B19
:1020F000A3F800041846815422E01348B0F80014F5
:10210000B0F80004401C104AA2F8000410464454E1
:1021100016E040F224410B4800F065F880B1094810
:1021200000880848001D008800200749B1F8001405
:10213000054A50541146A1F80004012081F8020418
:1021400010BD0000004400407A00002010B540F2AD
:102150002551134800F047F880B140F2255110484E
:1021600000F026F80E4800F0F7F8C1B20D480278EA
:102170000078401C0B4B18700B48815440F22441EE
:10218000074800F030F850B1054800880448001DA9
:10219000008800200349087001200449087010BD20
:1021A00000140140140000207000002009000020ED
:1021B00010B50022002340F66A14A14200D100BFEE
:1021C0000A1201249440A3B2DC43048010BD21B163
:1021D000828942F40052828104E082894DF6FF73C5
:1021E0001A408281704770B5024600240023002502
:1021F000002040F66A16B14200D100BFC1F342157B
:1022000001F01F03012606FA03F3012D02D196897E
:10221000334006E0022D02D1168A334001E0968A4F
:1022200033400C12012606FA04F41688344013B128
:102230000CB1012000E0002070BDF0B50346002481
:1022400000260025002040F66A17B94200D100BFE1
:102250001846C1F3421401F01F06012707FA06F5DC
:10226000012C01D10C3004E0022C01D1103000E02F
:1022700014301AB107682F43076002E00768AF43C4
:102280000760F0BD2DE9FF4705460E460024A14634
:1022900000BFA046B08900B100BF2C8A24F440548E
:1022A000F08804432C82AC8941F20C608443B088EE
:1022B00031890843718908430443AC81AC8A24F412
:1022C0004074B0890443AC826846FFF7A5FA204801
:1022D000854202D01F48854202D1DDF80C9001E012
:1022E000DDF80890A88900F4004040B109EBC9006E
:1022F00000EB091031684900B0FBF1F707E009EB8A
:10230000C90000EB091031688900B0FBF1F76420C7
:10231000B7FBF0F004012009642101FB1078A889C3
:1023200000F4004040B1322000EBC800B0FBF1F0F7
:1023300000F00700044308E0322000EB081064219D
:10234000B0FBF1F000F00F0004432C81BDE8FF87E3
:10235000001001400014014001468888C0F30800C5
:102360007047000070B504460D464FF4004109481F
:10237000FEF77EFE7E2000EA44063046FFF7ECFAC8
:102380002846FFF7E9FA4FF400410248FEF772FED3
:1023900070BD00000000024030380A2801D2012040
:1023A000704700207047014600BF704700B500F03D
:1023B000FBF800BD1CB501210220FFF7FDF901204B
:1023C0008DF804008DF80600C020009000208DF8E4
:1023D00007008DF8050069460548FEF7D5FD402148
:1023E0000348FEF747FE80210148FEF743FE1CBD6F
:1023F0000004024010B500241048006840F080003E
:102400000E4908600846006820F04000086005207A
:10241000FFF7D8FD0948006840F040000749086010
:102420000520FFF7CFFD0548001F006800F0800081
:1024300000B900E00124204610BD00001404024051
:1024400070B50446002528E01548006820F04000DB
:10245000134908600520FFF7B5FD04F0800030B196
:102460000F48006840F080000D49086005E00C4806
:10247000006820F080000A4908600520FFF7A2FDEF
:102480000748006840F04000054908600520FFF754
:1024900099FD6006040E681CC5B2082DD4DB70BD22
:1024A0001404024010B51048006820F040000E49A6
:1024B00008600520FFF786FD0B48006840F08000AB
:1024C000094908600846006840F04000086005209F
:1024D000FFF778FD0448006820F08000024908609A
:1024E0000520FFF76FFD10BD1404024010B5104821
:1024F000006820F040000E4908600520FFF762FDEB
:102500000B48006820F08000094908600846006810
:1025100040F0400008600520FFF754FD04480068C3
:1025200040F08000024908600520FFF74BFD10BD18
:1025300014040240014645F2082201FB02F000E0CB
:10254000401E0028FCD170471CB501210220FFF776
:1025500033F901208DF8040000208DF806001820C2
:10256000009000208DF807008DF8050069460648A8
:10257000FEF70AFD08210448FEF77CFD1021024801
:10258000FEF778FD1CBD00000004024000BF054AB4
:10259000128802F04002002AF9D0C2B2014B9A80A0
:1025A00070470000001001401E48006840F0010024
:1025B0001C4908600846006840F0040008601A489A
:1025C000006820F44030184908600846006840F46C
:1025D000803008601548006820F4402013490860E6
:1025E0000846006840F4802008600F48406820F4E6
:1025F00080700D4948600D48001D006840F400706F
:102600000A49091D08600848406940F4807006497D
:10261000486106481430006840F4007003491431E2
:102620000860704730380240000002400008024055
:102630001CB500200090019001210420FFF7BCF898
:1026400000208DF804004FF40050009000208DF819
:10265000070069460148FEF797FC1CBD00080240D0
:1026600010B5FF244FF400510F48FEF7F8FC78B97D
:102670000E48007860B10A20FFF75CFF4FF400516C
:102680000948FEF7ECFC18B900200849087001243D
:102690004FF400510448FEF7E2FC10B10120034959
:1026A0000870204610BD0000000802400000002015
:1026B0001CB501210220FFF77FF801208DF80400EE
:1026C00000208DF806004FF44070009000208DF837
:1026D00007008DF8050069460648FEF755FC4FF4E3
:1026E00080710448FEF7C6FC4FF400710148FEF704
:1026F000C1FC1CBD00040240ADF50A7D00BF00BF57
:10270000002087908890899000BF00BF00BF00BF65
:1027100000BF4FF4E13000F0D5F900F0C9FBFFF73E
:1027200087FFFFF7C5FF00F0CBFC00F047FBFEF78B
:10273000D9FDFEF7CDF8FFF739FEFFF705FF00F0F2
:1027400025F9FFF7DDF8FEF78DFA00202DA14FF4F3
:1027500078431A46CDE900100A210846FEF788FDA5
:102760002EA131A0FEF7A6FB40F25B712FA0FEF771
:1027700015FB0446002C1ED139480023394A19465E
:1027800007693948B847364838A243A1436949A088
:1027900098470446012C0ED150A0FDF775FD304836
:1027A00001220021C36951A098470446012C02D19F
:1027B0005DA0FDF769FD4FF4027105A8FDF73AFF32
:1027C0005D4A07CA02AB07C3012558262B4602AA59
:1027D0005A4905A80096FDF763FD2148002205A986
:1027E000036A57A098470BE0644890F80204012858
:1027F00006D10020614981F8020461A0FDF744FD83
:10280000F2E70000333434334434334644BCF2B589
:10281000A5BFECBDDDC8EBBFDAB7A200313233345F
:1028200035363738000000004C4C00006865706297
:10283000374B4D685775422E696F742D61732D6D3E
:102840007174742E636E2D7368616E676861692E92
:10285000616C6979756E63732E636F6D00000000A3
:102860001C0000207E0400207E050020303634321B
:1028700032343038434645344144323243334438AD
:10288000433443433437464445354445313244327A
:102890003944373300000000736D6172745F6C6FF0
:1028A000636B5F5859442668657062374B4D6857B3
:1028B0007542000065737033327C736563757265B1
:1028C0006D6F64653D332C7369676E6D6574686FF9
:1028D000643D686D6163736861317C004D5154548F
:1028E000BDD3C8EBB3C9B9A60D0A00002F73797325
:1028F0002F68657062374B4D685775422F736D6155
:1029000072745F6C6F636B5F5859442F7468696EA3
:10291000672F736572766963652F70726F70657269
:1029200074792F73657400004D515454B6A9D4C402
:10293000B3C9B9A60D0A000034310008903100086F
:102940002F7379732F68657062374B4D68577542E6
:102950002F736D6172745F6C6F636B5F5859442F96
:102960007468696E672F6576656E742F70726F700C
:10297000657274792F706F73740000007A00002004
:10298000BDD3CAD53A25730D0A0000001CB54FF41B
:10299000E13000F0AFF901210420FEF70DFF002027
:1029A000009001908DF804000120009000208DF827
:1029B00007008DF8050069460848FEF7E5FA012092
:1029C0008DF804000220009069460448FEF7DCFA06
:1029D00002210248FEF74CFB1CBD0000000802402B
:1029E00010B510210748FEF743FB052000F010FA50
:1029F000FF2000F00DFA044610210248FEF73AFBD2
:102A0000204610BD0000024010B54FF48061074819
:102A1000FEF72EFB6420FFF7A5FA4FF48061034810
:102A2000FEF728FB6420FFF79DFA10BD000402406A
:102A300010B504464FF480510848FEF719FB4FF4D7
:102A400080410648FEF714FB2046FEF72BFD4FF4AD
:102A500080510248FEF70EFB10BD0000000402404A
:102A600010B504464FF480510848FEF701FB4FF4BF
:102A700080410648FEF7FEFA2046FEF713FD4FF4AC
:102A800080510248FEF7F6FA10BD00000004024033
:102A900010B504464FF480510948FEF7E9FA4FF4A7
:102AA00080410748FEF7E6FA2012FEF7FBFCE0B291
:102AB000FEF7F8FC4FF480510148FEF7DBFA10BD39
:102AC0000004024010B588B0044601210846FEF714
:102AD00073FE02208DF81C0000208DF81E004FF4BC
:102AE000C060069000208DF81F008DF81D0006A91B
:102AF0002048FEF749FA072209211E48FEF78CFA02
:102B000007220A211B48FEF787FA01211020FEF751
:102B100073FE02940020ADF814000C20ADF81200F2
:102B20000020ADF81000ADF80E00ADF80C0002A9C1
:102B30001148FFF7A7FB012240F225510E48FFF78D
:102B40007CFB012240F224410B48FFF776FB252055
:102B50008DF8040001208DF807008DF805008DF830
:102B6000060001A8FEF7FCFC01210348FFF72FFB3C
:102B700008B010BD00000240001001402DE9F041F6
:102B800086B001210846FEF717FE0020049005904C
:102B900002208DF8140000208DF816000C200490FF
:102BA00000208DF817008DF8150004A94348FEF7A2
:102BB000EBF9072202214148FEF72EFA07220321F2
:102BC0003E48FEF729FA01214804FEF705FE0020E1
:102BD00000900190029003904FF4E13000900020AB
:102BE000ADF80C000C20ADF80A000020ADF808008C
:102BF000ADF80600ADF8040069463148FFF742FB26
:102C0000012240F225512E48FFF717FB012240F226
:102C100024412B48FFF711FB2620052201242546DD
:102C20001346C3F1070CBCF1040F02D94FF0040C9A
:102C300001E0C3F1070C674603F1040CBCF1070F78
:102C400002D24FF0000C01E0A3F1030C66464FF0F6
:102C5000010C0CFA07FCACF1010C0CEA040C0CFAA8
:102C600006FC4FF0010808FA06F8A8F1010808EA86
:102C700005084CEA080100BF002807DA0A07140E0D
:102C8000104A00F00F031B1FD45403E00A07130E71
:102C90000D4A135400BF262000F01F02012191406D
:102CA0004209920002F1E022C2F8001100BF0121A6
:102CB0000348FFF78CFA06B0BDE8F081000002403F
:102CC0000044004018ED00E000E400E00BE000BF2D
:102CD0000749098801F040010029F9D010F8011BCB
:102CE000034A121D118001780029F0D170470000BD
:102CF0000044004010B588B0044601210420FEF7CE
:102D00005BFD00200690079002208DF81C0000203B
:102D10008DF81E00C020069000208DF81F008DF851
:102D20001D0006A92348FEF72FF908220621214895
:102D3000FEF772F9082207211E48FEF76DF90121FE
:102D40002020FEF759FD002002900390049005908A
:102D50000294ADF814000C20ADF812000020ADF87C
:102D60001000ADF80E00ADF80C0002A91248FFF7F4
:102D700089FA012240F225510F48FFF75EFA01223D
:102D800040F224410C48FFF758FA47208DF8040020
:102D900001208DF8070000208DF8050001208DF836
:102DA000060001A8FEF7DCFB01210348FFF70FFA3C
:102DB00008B010BD00080240001401401CB50020FE
:102DC0000090019001210420FEF7F6FC01208DF80F
:102DD000040000208DF806002020009000208DF8CF
:102DE00007008DF8050069460848FEF7CDF8002079
:102DF0008DF804001020009069460448FEF7C4F8DE
:102E000020210248FEF734F91CBD000000080240F2
:102E100070B50446002500BF02210B48FEF7DEFD19
:102E20000028F9D021460848FEF7E4FD00BF012143
:102E30000548FEF7D3FD0028F9D00348FEF7D7FD7B
:102E4000C5B2284670BD00000030014010B50446F0
:102E500000F00AF910210E48FEF70AF9D820FFF712
:102E6000D7FFC4F30740FFF7D3FFC4F30720FFF7F2
:102E7000CFFFE0B2FFF7CCFF10210548FEF7FAF8CC
:102E800000BFFFF7ADFD00F001000028F9D110BD33
:102E90000000024070B505460C4606E02846FFF7E4
:102EA000D5FF05F58035601EC4B2002CF6D170BD8B
:102EB0001CB500F081F801210846FEF77DFC0120D9
:102EC0008DF8040000208DF80600102000900020EE
:102ED0008DF8070002208DF8050069460448FEF7CA
:102EE00053F810210248FEF7C5F800F0CDF81CBDDC
:102EF0000000024070B504460D461646210A6019CE
:102F0000401EB1EB102F01D0002070BD00F0ACF8D6
:102F100010211448FEF7ACF80220FFF779FFC4F344
:102F20000740FFF775FFC4F30720FFF771FFE0B21A
:102F3000FFF76EFF07E03078FFF76AFF681EC5B243
:102F400005B901E0761CF6E700BF10210548FEF741
:102F500091F800BFFFF744FD00F001000028F9D10F
:102F60000120D2E70000024070B504460D46164627
:102F700010211048FEF77CF80320FFF749FFC4F347
:102F80000740FFF745FFC4F30720FFF741FFE0B21A
:102F9000FFF73EFF07E0FF20FFF73AFF30706D1E9E
:102FA00005B901E0761CF6E700BF10210148FEF7E5
:102FB00061F870BD0000024000B587B001210846ED
:102FC000FEF7FAFB02208DF8180000208DF81A0099
:102FD000E020059000208DF81B0002208DF81900DC
:102FE00005A91F48FDF7D0FF052211461C48FEF732
:102FF00013F8052206211A48FEF70EF805220721CC
:103000001748FEF709F801210803FEF7F5FB142124
:103010006846FDF70FFB0020ADF80C00ADF8080086
:10302000ADF80600ADF80400ADF80000ADF80E00F4
:103030004FF48270ADF802004FF40070ADF80A0052
:1030400069460848FEF7D8FC4FF480710548FEF742
:10305000F1FC01210348FEF7B5FC07B000BD0000FC
:10306000000002400030014010B510210548FDF776
:10307000FFFF0620FFF7CCFE10210248FDF7FAFF04
:1030800010BD00000000024010B5FFF7EDFF102159
:103090000A48FDF7EDFF0120FFF7BAFE0020FFF719
:1030A000B7FE10210548FDF7E5FF00BFFFF798FCCC
:1030B00000F001000028F9D110BD0000000002401E
:1030C00010B5FFF7CDFA0446012C0BD10649087064
:1030D00006A0FDF7D9F815216004FFF7DBFE0BA071
:1030E000FDF7D2F810BD000008000020D5FDD4DAAD
:1030F000B2C1B3FDB4E6B4A2D0BEC6AC2CC7EBB52A
:10310000C8B4FD2E2E2E0D0A00000000B2C1B3FD82
:10311000CDEAB3C92CC7EBC9D5C2BCD7D6BFE22E06
:103120002E2E0D0A000000004FF04070E1EE100A54
:1031300070470000313233343536000000000000A3
:1031400041542B43574A41503D22000000000000EB
:10315000000000000000000000000000000000006F
:10316000000000000000000000000000000000005F
:10317000000020020000E0009003C000D000040026
:103180000008000000000000000200010000100024
:103190007B226D6574686F64223A227468696E6779
:1031A0002E736572766963652E70726F70657274C6
:1031B000792E736574222C226964223A22333033CB
:1031C000363935363831222C22706172616D7322A6
:1031D0003A7B226C6F636B5F70617373776F72649D
:1031E000223A222573222C226C6F636B5F73746109
:1031F000747573223A25642C226C6F636B5F74655F
:103200007374223A25647D2C2276657273696F6E21
:10321000223A22312E302E30227D00003C3200082E
:10322000000000205C000000D00100089832000877
:103230005C000020840C0000EC010008010000008C
:10324000000000000000000000000200581F1400F1
:10325000000000000100000000000000000000006D
:103260000000000000000000791000085909000863
:10327000E90B0008151C00087D160008811A0008DB
:10328000551A0008000000000000010203040102BA
:08329000030406070809000011
:040000050800019559
:00000001FF
