:020000040800F2
:1000000068060020350200083D0200083F02000893
:1000100041020008430200084502000800000000F9
:10002000000000000000000000000000470200087F
:1000300049020008000000004B0200084D020008C1
:100040004F0200084F0200084F0200084F0200084C
:100050004F0200084F0200084F0200084F0200083C
:100060004F0200084F0200084F0200084F0200082C
:100070004F0200084F0200084F0200084F0200081C
:100080004F0200084F0200084F0200080000000065
:100090000000000000000000000000004F02000807
:1000A0004F0200084F0200084F0200084F020008EC
:1000B0004F0200084F0200084F0200084F020008DC
:1000C0004F0200084F0200084F0200084F020008CC
:1000D0004F0200084F0200084F0200080000000015
:1000E0004F0200084F0200084F0200080000000005
:1000F0000000000000000000000000004F020008A7
:10010000000000004F0200084F0200084F020008E4
:1001100000000000000000000000000000000000DF
:100120004F0200084F0200084F0200084F0200086B
:100130004F02000800000000000000000000000066
:100140000000000000000000000000004F02000856
:100150004F0200084F0200084F0200084F0200083B
:100160004F0200084F0200080000000000000000DD
:10017000000000000000000000000000000000007F
:10018000000000004F020008000000000000000016
:100190004F02000800F002F800F03CF80AA090E8D6
:1001A000000C82448344AAF10107DA4501D100F032
:1001B00031F8AFF2090EBAE80F0013F0010F18BFC3
:1001C000FB1A43F0010318474C0400006C040000C4
:1001D000103A24BF78C878C1FAD8520724BF30C873
:1001E00030C144BF04680C60704700000023002445
:1001F00000250026103A28BF78C1FBD8520728BF37
:1002000030C148BF0B6070471FB500F0FDF91FBD3E
:1002100010B510BD00F031F81146FFF7F5FF00F002
:10022000DDF900F04FF803B4FFF7F2FF03BC00F074
:1002300057F800000948804709480047FEE7FEE7F5
:10024000FEE7FEE7FEE7FEE7FEE7FEE7FEE7FEE786
:1002500004480549054A064B70470000A5040008FC
:100260009501000868000020680600206802002050
:1002700068020020704770477047754600F02CF800
:10028000AE4605006946534620F00700854618B083
:1002900020B5FFF7DDFFBDE820404FF000064FF02E
:1002A00000074FF000084FF0000B21F00701AC46AB
:1002B000ACE8C009ACE8C009ACE8C009ACE8C009CA
:1002C0008D46704710B50446AFF300802046BDE868
:1002D0001040FFF7A8BF000000487047040000204E
:1002E00001491820ABBEFEE7260002007047F0B5BA
:1002F0000A4600210023002400BF3DE0012505FA45
:1003000001F3156805EA03049C4234D105684F00E7
:100310000326BE40B543056015794E00B54006681A
:10032000354305601579012D02D01579022D16D1BE
:1003300085684F000326BE40B543856055794E0061
:10034000B540866835438560456801268E40B543D3
:100350004560456896798E40B6B235434560C568BC
:100360004F000326BE40B543C560D5794E00B54069
:10037000C6683543C560491C1029BFD3F0BD02468D
:10038000002013690B400BB1012000E000207047F2
:100390000183704742694A404261704729B1064A69
:1003A00012680243044B1A6004E0034A1268824355
:1003B000014B1A6070470000303802400CB5002035
:1003C000019000903348006840F480303149086063
:1003D00000BF3048006800F4003000900198401CD5
:1003E0000190009818B90198B0F5A04FF1D12948B3
:1003F000006800F4003010B10120009001E00020FE
:1004000000900098012844D122484030006840F014
:1004100080502049403108601F48006840F4404047
:100420001D4908601B48083000681A4908310860F7
:100430000846006808600846006840F4805008607C
:100440001648091F0860081F006840F08070091FE7
:10045000086000BF0F48006800F000700028F9D065
:1004600040F202700E4908600A480830006820F027
:1004700003000849083108600846006840F002009F
:10048000086000BF03480830006800F00C0008282E
:10049000F8D10CBD003802400070004019544107EB
:1004A000003C024010B51548006840F47000134944
:1004B00008601348006840F00100114908600020FE
:1004C0000F49083108600E4800680E4908400C4981
:1004D00008600D48091D0860081F006820F480208E
:1004E000091F0860002006490C310860FFF766FF0D
:1004F0004FF0006001498039086010BD88ED00E0D0
:1005000000380240FFFFF6FE1030002445F20822BA
:1005100000FB02F100BF0A1EA1F10101FBD17047EF
:100520001CB500200090019001210420FFF736FF48
:1005300000208DF804004FF40050009069460248F6
:10054000FFF7D5FE1CBD00000008024010B54FF4B7
:1005500000510C48FFF713FF10B10B48007860B949
:100560000A20FFF7D3FF4FF400510648FFF707FFBB
:1005700030B901200449087010BD002002490870FC
:100580000020F9E700080240000000201CB5002010
:100590000090019001210220FFF700FF01208DF85B
:1005A000040000208DF806004FF4407000900020F9
:1005B0008DF8070002208DF8050069460648FFF710
:1005C00096FE4FF480710448FFF7E2FE4FF400718D
:1005D0000148FFF7DDFE1CBD00040240FFF7D6FF17
:1005E000FFF79EFF0CE0FFF7B1FF0446012C07D197
:1005F00001020448FFF7CEFE61020248FFF7CAFE7F
:10060000F1E70000000402404FF04070E1EE100AF4
:1006100070470000340600080000002004000000BD
:10062000D00100083806000804000020640600001D
:08063000EC01000800000000CD
:040000050800019559
:00000001FF
