:020000040800F2
:10000000B00A0020450200084D0200084F02000817
:1000100051020008530200085502000800000000C9
:10002000000000000000000000000000570200086F
:1000300059020008000000005B0200085D02000891
:100040005F0200085F0200085F0200085F0200080C
:100050005F0200085F0200085F0200085F020008FC
:100060005F0200085F0200085F0200085F020008EC
:100070005F0200085F0200085F0200085F020008DC
:100080005F0200085F0200085F0200080000000035
:100090000000000000000000000000005F020008F7
:1000A000911500085F0200085F0200085F02000867
:1000B0005F0200085F0200085F0200085F0200089C
:1000C0005F0200085F0200085F0200085F0200088C
:1000D0005F020008B11700085D180008000000006A
:1000E0005F0200085F0200085F02000800000000D5
:1000F0000000000000000000000000005F02000897
:10010000000000005F0200085F0200085F020008B4
:1001100000000000000000000000000000000000DF
:100120005F0200085F0200085F0200085F0200082B
:100130005F02000800000000000000000000000056
:100140000000000000000000000000005F02000846
:100150005F0200085F0200085F020008E118000863
:100160005F0200085F0200080000000000000000BD
:10017000000000000000000000000000000000007F
:10018000000000005F020008000000000000000006
:100190005F02000800F002F800F044F80AA090E8BE
:1001A000000C82448344AAF10107DA4501D100F032
:1001B00039F8AFF2090EBAE80F0013F0010F18BFBB
:1001C000FB1A43F0010318470C2500002C25000002
:1001D000103A24BF78C878C1FAD8520724BF30C873
:1001E00030C144BF04680C60704700000023002445
:1001F00000250026103A28BF78C1FBD8520728BF37
:1002000030C148BF0B607047642900F087807329B4
:1002100000F05F82002070471FB502F033FA1FBD67
:1002200010B510BD00F070FA1146FFF7F5FF01F0B0
:1002300037FE00F08EFA03B4FFF7F2FF03BC01F0C3
:100240007CFC00000948804709480047FEE7FEE7BC
:10025000FEE7FEE7FEE7FEE7FEE7FEE7FEE7FEE776
:1002600004480549054A064B704700002915000857
:1002700095010008B0040020B00A0020B00600205C
:10028000B0060020704700000FB4044910B503AA5F
:10029000029800F023FA10BC5DF814FB0400002063
:1002A0000FB41CB5074B06AA7B446946009005981D
:1002B00000F0E5F90020694600F0F4F91CBC5DF897
:1002C00014FB0000F903000070B50C460546012A36
:1002D00005D02878800600D5EA69002302E00123D2
:1002E00005E05B1C934202D2E05C0028F9D1A869CA
:1002F000E618C01AA861286A184428622846AFF395
:10030000008004E0D5E9012114F8010B9047B442C4
:10031000F8D32846AFF3008070BD00002DE9F0410E
:100320000646002410687529314616A510D0AFF393
:100330000080002802DA404213A507E031688A07EE
:1003400001D512A502E0490704D511A5012401E059
:10035000AFF3008000210A2206F1240709E0B0FB78
:10036000F2FCB0FBF2F302FB1C003030785418466C
:10037000491C0028F3D123462A463046BDE8F04107
:1003800000F01FB9000000002D0000002B0000004D
:10039000200000002DE9F05F894604464FF0000A76
:1003A000DFF824B1FB44C0F820A02046E16888476C
:1003B00000287DD0252806D0D4E901219047206A65
:1003C000401C2062F1E700255F462046E16888472F
:1003D0002028064607DB312E05D2B81910F8200C6C
:1003E00008B10543F1E7A80701D525F00405C4F8D5
:1003F0001CA00027C4F818A02A2E09D0304601F00E
:1004000095FB38B304EB8708303EC8F8186019E054
:1004100059F8041B204604EB87029161E168884784
:10042000012F064618D1E069002820DA25F02005C2
:100430001DE0D8F8180000EB800006EB40003038D3
:10044000C8F818002046E1688847064601F06EFBB0
:100450000028EED1012F0AD02E2E08D12046E168C7
:1004600088477F1C0646022F45F02005C4DBA069A3
:10047000002803DA404245F00105A061E80701D0F9
:1004800025F01005A6B1A6F14100192802D82036A2
:1004900045F400654A463146204625604D46FFF743
:1004A000B3FE60B1012807D0ED1D25F0070000E084
:1004B00007E000F1080978E705F1040975E730461F
:1004C0007AE7206ABDE8F09F1A23000030B50546A0
:1004D0000B462A4613F8014B12F8010B08B1A04253
:1004E000F8D01CB1002802D06D1CF1E7284630BDC1
:1004F000421E12F8013F002BFBD111F8013B002BEB
:1005000002F8013BF9D1704710B5203AC0F00B80DA
:10051000B1E81850203AA0E81850B1E81850A0E807
:100520001850BFF4F5AF5FEA027C24BFB1E8185061
:10053000A0E8185044BF18C918C0BDE810405FEAD1
:10054000827C24BF51F8043B40F8043B08BF70474D
:10055000D20728BF31F8023B48BF11F8012B28BF52
:1005600020F8023B48BF00F8012B70474FF0000213
:1005700000B5134694469646203922BFA0E80C5099
:10058000A0E80C50B1F12001BFF4F7AF090728BF74
:10059000A0E80C5048BF0CC05DF804EB890028BFF0
:1005A00040F8042B08BF704748BF20F8022B11F019
:1005B000804F18BF00F8012B704770477047704795
:1005C00070472DE9F0470D4699469246044600F1E2
:1005D00024080168880604D5E06921F01001216033
:1005E00000E00120A84201DD471B00E00027A169CF
:1005F0007A1902EB0900081AA0612078C00602D41B
:100600002046AFF30080002608E0D4E901211AF863
:1006100006009047206A401C761C20624E45F4DBA1
:100620002078C0060AD52046AFF3008006E0D4E962
:10063000012130209047206A401C2062381EA7F11B
:100640000107F4DC07E0D4E9012118F80500904720
:10065000206A401C2062281EA5F10105F3DC20461B
:10066000AFF300802078000602D50220BDE8F087B5
:100670000120FBE701694A1C02610878704700B558
:100680008FB0CDE901310021059105497944CDE9CB
:10069000031011466846FFF77DFE0FB000BD000055
:1006A000E5FFFFFF0A6802F8010B0A60704710B50A
:1006B000436913B1AFF3008001E0FFF705FE0120AD
:1006C00010BD127800F124010A7000224A70012244
:1006D000EDE711684FF0FF32E9E70000074B70B516
:1006E0000D467B44FFF7CBFF0446284600F008F890
:1006F00010B14FF0FF3070BD204670BD4F160000A6
:10070000007B00F080007047754600F029F8AE4687
:1007100005006946534620F00700854618B020B50D
:10072000FFF79EFDBDE820404FF000064FF00007A8
:100730004FF000084FF0000B21F00701AC46ACE889
:10074000C009ACE8C009ACE8C009ACE8C0098D46F6
:1007500070470446AFF300802046FFF76CFD0000B1
:10076000004870475004002070B50446002601F090
:1007700063FAA02001F02EFA01F006FA18B101F098
:100780007FFA012070BD00BF1D48006800F04000E6
:100790000028F9D0B02001F01DFA01F0F5F918B1E8
:1007A00001F06EFA0220EDE700BF1548006800F086
:1007B00040000028F9D001251BE0162D03D1F0B22E
:1007C00001F008FA05E0207801F004FA20780644E8
:1007D000641C01F0D9F918B101F052FA0320D1E7F5
:1007E00000BF0748006800F040000028F9D0681CEE
:1007F000C5B2162DE1DD01F043FA0020C2E700008A
:100800001004024000B58DB0182107A8FFF7AEFE16
:1008100018220BA101A8FFF777FE01F095F90E4809
:10082000006840F001000C4908600C48006820F0A6
:100830000C000A49086001A8FFF796FF0DB000BD43
:10084000000083F3981010101010101010101010EA
:10085000101010105000000030380240000002401C
:1008600070B505460C460026284600F003FD0646F6
:1008700026EA0401284601F03FF970BD10B540F6A4
:10088000B83207A108A000F09DF804461CB90AA0E0
:10089000FFF7FAFC02E00DA0FFF7F6FC204610BDC2
:1008A000726561647900000041542B524553544FE6
:1008B00052450D0A00000000BBD6B8B4B3F6B3A78A
:1008C000C9E8D6C3B3C9B9A60D0A0000BBD6B8B4EF
:1008D000B3F6B3A7C9E8D6C3CAA7B0DC0D0A0000B7
:1008E00010B501F021FC0A2214A115A000F06AF84D
:1008F0000A2212A112A000F065F808B100F064F914
:10090000FFF7BCFF0A220DA10FA000F05BF818B999
:1009100011A0FFF7B9FC02E016A0FFF7B5FC0A2210
:1009200006A11AA000F04EF818B91CA0FFF7ACFC05
:1009300002E01FA0FFF7A8FC10BD00004F4B000015
:1009400041540D0A0000000041542B43574D4F44C1
:10095000453D310D0A000000BFCDBBA7B6CBC4A3F7
:10096000CABDD6B8C1EED6B4D0D0B3C9B9A60D0AA7
:1009700000000000BFCDBBA7B6CBC4A3D6B8C1EE64
:10098000D6B4D0D0CAA7B0DC0D0A000041542B4326
:1009900049504D4F44453D310D0A0000CDB8B4AB30
:1009A000D6B8C1EED6B4D0D0B3C9B9A60D0A0000EE
:1009B000CDB8B4ABD6B8C1EED6B4D0D0CAA7B0DCEF
:1009C0000D0A00002DE9F04106460F4614460025A9
:1009D000304601F051FC642000F08EFE19E008E082
:1009E0006D1C012000F088FEA54202D10120BDE867
:1009F000F081084890F802040028F1D00020054951
:100A000081F8020439460348FFF760FD08B1002071
:100A1000EDE7E4E74A00002030B595B004460D4606
:100A2000502101A8FFF7A2FD2B46224613A101A8E1
:100A3000FFF736FC41F2883217A101A8FFF7C2FF89
:100A4000002816D115A0FFF71FFC0A2212A119A039
:100A5000FFF7B8FF40B91BA0FFF716FC1FA0FFF778
:100A600013FC002015B030BD25A0FFF70DFC0220BF
:100A7000F8E729A0FFF708FC0120F3E741542B43D6
:100A8000495053544152543D22544350222C222564
:100A900073222C25640D0A004F4B0000544350C1B3
:100AA000ACBDD3D6B8C1EED6B4D0D0B3C9B9A60DBB
:100AB0000A00000041542B43495053454E440D0A4F
:100AC00000000000B7A2CBCDCAFDBEDDD6B8C1EE96
:100AD000D6B4D0D0B3C9B9A60D0A0000B7FECEF186
:100AE000C6F7C1ACBDD3B3C9B9A62CBDF8C8EBB429
:100AF000ABCAE4CAFDBEDDC4A3CABD0D0A00000036
:100B0000B7A2CBCDCAFDBEDDD6B8C1EED6B4D0D02B
:100B1000CAA7B0DC0D0A0000544350C1ACBDD3D607
:100B2000B8C1EED6B4D0D0CAA7B0DC0D0A00000020
:100B300030B58DB004460D46342213496846FFF7A0
:100B4000E3FC21466846FFF7D3FC10A16846FFF797
:100B5000CFFC29466846FFF7CBFC0DA16846FFF79E
:100B6000C7FC41F288320BA16846FFF72BFF28B97A
:100B700009A0FFF789FB00200DB030BD0CA0FFF7E6
:100B800083FB0120F8E7000090260008222C2200B9
:100B9000220D0A004F4B000057494649C1ACBDD356
:100BA000D6B8C1EED6B4D0D0B3C9B9A60D0A0000EC
:100BB00057494649C1ACBDD3D6B8C1EED6B4D0D0A2
:100BC000CAA7B0DC0D0A000010B505A001F054FB67
:100BD0004FF4FA6000F090FD02A0FFF755FB10BD46
:100BE0002B2B2B00CDB8B4ABC4A3CABDD2D4CDCB74
:100BF000B3F62CBDF8C8EBC9E8D6C3C4A3CABD0D73
:100C00000A000000F0B50A4600210023002400BFBE
:100C10003DE0012505FA01F3156805EA03049C424D
:100C200034D105684F000326BE40B54305601579F1
:100C30004E00B5400668354305601579012D02D098
:100C40001579022D16D185684F000326BE40B543A5
:100C5000856055794E00B5408668354385604568A6
:100C600001268E40B5434560456896798E40B6B200
:100C700035434560C5684F000326BE40B543C56097
:100C8000D5794E00B540C6683543C560491C10296A
:100C9000BFD3F0BDF0B5002300244D07ED0E02FADE
:100CA00005F3CE1000F1200555F826504E07F70E3B
:100CB0000F26BE40B543CF1000F1200646F827505E
:100CC000CE1000F1200555F8265045EA0304CE1059
:100CD00000F1200545F82640F0BD024600201369CA
:100CE0000B400BB1012000E00020704741837047AA
:100CF000018370471CB50121022000F009FA45F27A
:100D00000240009001208DF8040000208DF80600BC
:100D10008DF8070069460648FFF774FF0221044872
:100D2000FFF7E4FF4FF480510148FFF7E1FF1CBDDE
:100D30000004024070B505462A2001F04FF900205A
:100D400001F07CF9EF2001F079F92B2001F046F950
:100D5000002001F073F9EF2001F070F92C2001F070
:100D60003DF9002403E0284601F068F9641CB4F55D
:100D7000614FF8D370BD000010B5FFF7BBFF00F066
:100D8000C1F801F017F9362001F028F9002001F030
:100D90003DF93A2001F022F9052001F037F9B2209F
:100DA00001F01CF90C2001F031F90C2001F02EF9B2
:100DB000002001F02BF9332001F028F9332001F055
:100DC00025F9B72001F00AF9352001F01FF9BB2001
:100DD00001F004F9192001F019F9C02001F0FEF822
:100DE0002C2001F013F9C22001F0F8F8012001F0E5
:100DF0000DF9C32001F0F2F8122001F007F9C42028
:100E000001F0ECF8202001F001F9C62001F0E6F82D
:100E10000F2001F0FBF8D02001F0E0F8A42001F051
:100E2000F5F8A12001F0F2F8E02001F0D7F8D02089
:100E300001F0ECF8042001F0E9F80D2001F0E6F8EB
:100E4000112001F0E3F8132001F0E0F82B2001F06D
:100E5000DDF83F2001F0DAF8542001F0D7F84C20FB
:100E600001F0D4F8182001F0D1F80D2001F0CEF8EF
:100E70000B2001F0CBF81F2001F0C8F8232001F06F
:100E8000C5F8E12001F0AAF8D02001F0BFF8042055
:100E900001F0BCF80C2001F0B9F8112001F0B6F80F
:100EA000132001F0B3F82C2001F0B0F83F2001F03E
:100EB000ADF8442001F0AAF8512001F0A7F82F2046
:100EC00001F0A4F81F2001F0A1F81F2001F09EF806
:100ED000202001F09BF8232001F098F8212001F058
:100EE0007DF8112001F07AF8292001F077F802212D
:100EF0000348FFF7FDFE0020FFF71CFF10BD0000B8
:100F0000000402401CB50121022000F001F94FF459
:100F10002040009001208DF8040000208DF806008C
:100F20008DF8070002208DF8050069460148FFF79B
:100F300069FE1CBD0004024070B504464FF4005128
:100F40001448FFF7D3FE4FF400411248FFF7D0FEDC
:100F500000251BE04FF400510E48FFF7C7FE04F0D8
:100F6000800028B14FF400410A48FFF7C1FE04E0B9
:100F70004FF400410748FFF7B9FE4FF40051054810
:100F8000FFF7B6FE6006040E681CC5B2082DE1DB53
:100F900070BD00000004024010B50446412C25D16C
:100FA00008210846FFF75CFC3D21112000F0A4FD5C
:100FB0008621172000F0A0FD7F21262000F09CFD57
:100FC0001E212D2000F098FD00212C2000F094FD22
:100FD0008D212A2000F090FD3E212B2000F08CFD79
:100FE000022000F0B9FB00F047F801E0012010BD3D
:100FF0000020FCE770B5002100230F22C4781CB349
:10100000174C246804F4E064C4F5E064C4F30721D9
:10101000C1F10404E3B20A4144789C40E1B284780F
:10102000144021430C07210E0E4C057861550478BD
:1010300004F01F050124AC4005786D11AD0005F1E9
:10104000E025C5F8004109E0047804F01F050124FB
:10105000AC40054D0678761145F8264070BD00007D
:101060000CED00E000E400E080E100E010B50321B9
:101070001420FFF7F5FB10BD10B5142000F0FAF8AE
:10108000044604F0030018B90321142000F08DF980
:1010900010BD000010B504211C48FFF729FE0220F6
:1010A00000F05AFB04211948FFF720FE022000F04F
:1010B00053FB04211548FFF71BFE022000F04CFBF8
:1010C0000F21012000F018FD0F21012000F014FD78
:1010D000022000F041FB3D21112000F00DFD1E21FA
:1010E0002D2000F009FD00212C2000F005FD8D21B0
:1010F0002A2000F001FD3E212B2000F0FDFC4021C4
:10110000152000F0F9FC002010BD0000000C02408A
:1011100029B1064A12680243044B1A6004E0034AEC
:1011200012688243014B1A60704700003038024059
:1011300029B1064A12680243044B1A6004E0034ACC
:1011400012688243014B1A60704700004038024029
:1011500029B1064A12680243044B1A6004E0034AAC
:1011600012688243014B1A60704700004438024005
:10117000F0B5002100220024022500260223324F70
:101180003F6807F00C0121B1042905D0082937D1A7
:1011900005E02E4F076036E02D4F076033E02A4F01
:1011A0003F1F3F68C7F38056274F3F1F3F6807F038
:1011B0003F036EB1264FB7FBF3F7DFF88CC0ACF1FD
:1011C000040CDCF800C0CCF3881C07FB0CF40CE02A
:1011D0001E4FB7FBF3F7DFF870C0ACF1040CDCF87E
:1011E00000C0CCF3881C07FB0CF4174F3F1F3F686F
:1011F000C7F301477F1C7D00B4FBF5F7076002E0F1
:10120000124F076000BF00BF0F4F3F6807F0F001AB
:101210000909104F7A5C0768D74047600A4F3F685A
:1012200007F4E051890A0B4F7A5C4768D740876022
:10123000054F3F6807F46041490B064F7A5C4768E9
:10124000D740C760F0BD0000083802400024F40019
:1012500040787D011900002010B500F029F9FFF752
:1012600019FFFFF703FFFFF707FF4120FFF794FE89
:1012700010BD000070B5044600264FF400410B4835
:10128000FFF734FD7E2000EA440040F08005284648
:1012900000F00EF8002000F00BF806464FF4004175
:1012A0000248FFF725FD304670BD000000000240F7
:1012B00070B5064600254FF480611748FFF718FD0A
:1012C000002424E04FF480611348FFF70FFD8020D5
:1012D0002041304028B14FF480510F48FFF708FDFE
:1012E00004E04FF480510C48FFF700FD4FF480619B
:1012F0000948FFF7FDFC6806050E4FF4006106483B
:10130000FFF7EBFC08B145F00105601CC4B2082CE6
:10131000D8DB284670BD00000008024021B10288D9
:1013200042F04002028004E002884FF6BF731A4088
:10133000028070470246002013890B400BB1012048
:1013400000E000207047014688897047818170471E
:1013500010B50022028802F441520B884C882343C6
:101360008C882343CC8823430C8923434C89234313
:101370008C892343CC8923431A430280838B4FF209
:10138000FF74234083830B8A038210BD4FF6FF62F4
:10139000914204D0028842F48072028004E0028804
:1013A0004FF6FF631A400280704770B505460C4641
:1013B00000262846FFF75EFF064646EA0401284657
:1013C00000F09AFB70BD00000CB500200190009069
:1013D0003348006840F480303149086000BF30482D
:1013E000006800F4003000900198401C01900098C3
:1013F00018B90198B0F5A04FF1D12948006800F460
:10140000003010B10120009001E000200090009811
:10141000012844D122484030006840F080502049E3
:10142000403108601F48006840F440401D49086092
:101430001B48083000681A490831086008460068EF
:1014400008600846006840F4805008601648091F8C
:101450000860081F006840F08070091F086000BF26
:101460000F48006800F000700028F9D040F20270C8
:101470000E4908600A480830006820F00300084957
:10148000083108600846006840F00200086000BFAC
:1014900003480830006800F00C000828F8D10CBDA3
:1014A000003802400070004019544107003C0240DF
:1014B0001CB501210D20FFF72BFE4FF4A05000902A
:1014C00001208DF8040000208DF806008DF807003B
:1014D00069461248FFF796FB4FF4004000906946BA
:1014E0000F48FFF78FFB0420009069460D48FFF777
:1014F00089FB00208DF804004FF4006000906946DD
:101500000648FFF77FFB04210648FFF7F1FB4FF485
:1015100000410348FFF7ECFB1CBD0000000802403F
:1015200000000240000C024010B51548006840F46D
:101530007000134908601348006840F00100114929
:10154000086000200F49083108600E4800680E4905
:1015500008400C4908600D48091D0860081F006814
:1015600020F48020091F0860002006490C31086023
:10157000FFF72AFF4FF0006001498039086010BD75
:1015800088ED00E000380240FFFFF6FE1030002436
:1015900010B50121174800F050F848B30121154853
:1015A00000F033F81448007801280DD11348008862
:1015B000401C1249088008460088B0F57A7F12DB8B
:1015C00000200D4908700EE00B48007858B90B4810
:1015D0000088401E0949088008460088002802DC6F
:1015E00001200549087005480188054800F03FF8CA
:1015F00010BD00000040014018000020160000202F
:1016000000080040CA4302827047CA430282704702
:1016100021B1028842F00102028004E002884FF604
:10162000FE731A400280704702460020138A0B4066
:101630000BB1012000E00020704730B502460020C9
:1016400000230024158A05EA0103958905EA0104AF
:1016500013B10CB1012000E0002030BD02884FF62C
:10166000F7731A40028002880A43028070470164BF
:101670007047000000220288184B98420ED0184B89
:1016800098420BD0B0F1804F08D0164B984205D04D
:10169000154B984202D0154B984204D14FF68F73E8
:1016A0001A404B881A43124B984207D0114B98426C
:1016B00004D04FF6FF431A400B891A4302804B684F
:1016C000C3620B880385054B984202D0044B9842B5
:1016D00001D18B7A03860123838270470000014089
:1016E000000401400004004000080040000C0040DD
:1016F00000100040001400403EB5044601210820BF
:10170000FFF716FD0020009001900290ADF8020056
:101710004FF47A7104FB01F0401E01905320ADF8A4
:10172000000069460B48FFF7A5FF01210948FFF7B4
:1017300069FF08210748FFF791FF01210548FFF7DE
:1017400067FF00BF01210348FFF76EFF0028F9D0B3
:101750003EBD0000000C00403EB5044601210820BB
:10176000FFF7E6FC0020009001900290ADF8020027
:10177000601E01905320ADF8000069460B48FFF74A
:1017800079FF01210948FFF73DFF01210748FFF7D5
:101790003FFF00BF01210548FFF746FF0028F9D0B1
:1017A00000210248FFF734FF3EBD0000000C00405E
:1017B00008B540F22551204800F0DFF800282FD06E
:1017C00040F225511C4800F0BDF81C48007838B3A1
:1017D0004FF480711A48FFF789FA174800F086F92C
:1017E000C0B200906A4601211648006800F058FE19
:1017F00014480068401C1349086013480068401EE4
:10180000114908600846006850B910A0FEF73CFD79
:101810004FF480710A48FFF76BFA002007490870FF
:1018200040F22441044800F0A8F818B102480088AA
:101830000148808808BD0000001001400800002019
:10184000000402400C00002010000020D7D6BFE2A8
:10185000C9D5C2BCCDEAB3C9210D0A0010B540F20A
:1018600025511D4800F089F8E8B11B4800F03EF909
:10187000C4B264B920211948B0F80024B0F80004BB
:10188000401C164BA3F800041846815422E013486C
:10189000B0F80014B0F80004401C104AA2F800048C
:1018A0001046445416E040F224410B4800F065F81D
:1018B00080B1094800880848001D008800200749B9
:1018C000B1F80014054A50541146A1F80004012053
:1018D00081F8020410BD0000004400404A000020CE
:1018E00010B540F22551134800F047F880B140F29E
:1018F0002551104800F026F80E4800F0F7F8C1B264
:101900000D4802780078401C0B4B18700B4881542E
:1019100040F22441074800F030F850B105480088F3
:101920000448001D00880020034908700120044974
:10193000087010BD00140140140000204000002079
:101940000900002010B50022002340F66A14A142CD
:1019500000D100BF0A1201249440A3B2DC430480EA
:1019600010BD21B1828942F40052828104E0828953
:101970004DF6FF731A408281704770B5024600240D
:1019800000230025002040F66A16B14200D100BFB6
:10199000C1F3421501F01F03012606FA03F3012DDE
:1019A00002D19689334006E0022D02D1168A3340D7
:1019B00001E0968A33400C12012606FA04F41688D8
:1019C000344013B10CB1012000E0002070BDF0B52F
:1019D0000346002400260025002040F66A17B9427D
:1019E00000D100BF1846C1F3421401F01F060127C1
:1019F00007FA06F5012C01D10C3004E0022C01D1CC
:101A0000103000E014301AB107682F43076002E07D
:101A10000768AF430760F0BD2DE9FF4705460E4656
:101A20000024A14600BFA046B08900B100BF2C8AA7
:101A300024F44054F08804432C82AC8941F20C60B9
:101A40008443B08831890843718908430443AC81D9
:101A5000AC8A24F44074B0890443AC826846FFF732
:101A600087FB2048854202D01F48854202D1DDF81D
:101A70000C9001E0DDF80890A88900F4004040B126
:101A800009EBC90000EB091031684900B0FBF1F720
:101A900007E009EBC90000EB091031688900B0FBD1
:101AA000F1F76420B7FBF0F004012009642101FB89
:101AB0001078A88900F4004040B1322000EBC80043
:101AC000B0FBF1F000F00700044308E0322000EB27
:101AD00008106421B0FBF1F000F00F0004432C81EA
:101AE000BDE8FF87001001400014014001468888CE
:101AF000C0F308007047000070B504460D464FF46F
:101B000000410948FFF7F2F87E2000EA440630461B
:101B1000FFF7CEFB2846FFF7CBFB4FF4004102480E
:101B2000FFF7E6F870BD00000000024030380A28D8
:101B300001D20120704700207047014600BF704766
:101B400000B500F005F900BD1CB501210220FFF72A
:101B5000DFFA01208DF804008DF80600C020009007
:101B600000208DF807008DF8050069460548FFF74D
:101B700049F840210348FFF7BBF880210148FFF7EF
:101B8000B7F81CBD0004024010B5002410480068DE
:101B900040F080000E4908600846006820F04000D0
:101BA00008600520FFF7D8FD0948006840F04000B4
:101BB000074908600520FFF7CFFD0548001F0068B2
:101BC00000F0800000B900E00124204610BD0000B4
:101BD0001404024070B50446002528E0154800684A
:101BE00020F04000134908600520FFF7B5FD04F020
:101BF000800030B10F48006840F080000D49086057
:101C000005E00C48006820F080000A4908600520C3
:101C1000FFF7A2FD0748006840F040000549086052
:101C20000520FFF799FD6006040E681CC5B2082D5B
:101C3000D4DB70BD1404024010B51048006820F0D9
:101C400040000E4908600520FFF786FD0B4800683C
:101C500040F08000094908600846006840F04000F4
:101C600008600520FFF778FD0448006820F0800038
:101C7000024908600520FFF76FFD10BD1404024003
:101C800010B51048006820F040000E49086005209B
:101C9000FFF762FD0B48006820F0800009490860EA
:101CA0000846006840F0400008600520FFF754FD3A
:101CB0000448006840F08000024908600520FFF7F2
:101CC0004BFD10BD14040240014645F2082201FB01
:101CD00002F000E0401E0028FCD17047014645F2AA
:101CE000082201FB02F000E0401E0028FCD17047F2
:101CF0001CB501210220FFF70BFA01208DF804002A
:101D000000208DF806001820009000208DF80700B4
:101D10008DF8050069460648FEF774FF082104485F
:101D2000FEF7E6FF10210248FEF7E2FF1CBD0000AF
:101D30000004024000BF054A128802F04002002A57
:101D4000F9D0C2B2014B9A807047000000100140E8
:101D50001E48006840F001001C4908600846006801
:101D600040F0040008601A48006820F44030184928
:101D700008600846006840F4803008601548006834
:101D800020F44020134908600846006840F4802091
:101D900008600F48406820F480700D4948600D4885
:101DA000001D006840F400700A49091D08600848D9
:101DB000406940F480700649486106481430006864
:101DC00040F4007003491431086070473038024015
:101DD00000000240000802401CB500200090019065
:101DE00001210420FFF794F900208DF804004FF43E
:101DF0000050009000208DF8070069460148FEF76A
:101E000001FF1CBD0008024010B5FF244FF4005133
:101E10000F48FEF762FF78B90E48007860B10A20DB
:101E2000FFF75CFF4FF400510948FEF756FF18B961
:101E300000200849087001244FF400510448FEF7BF
:101E40004CFF10B1012003490870204610BD00006E
:101E500000080240000000201CB501210220FFF70D
:101E600057F901208DF8040000208DF806004FF48A
:101E70004070009000208DF807008DF8050069463D
:101E80000648FEF7BFFE4FF480710448FEF730FFAE
:101E90004FF400710148FEF72BFF1CBD0004024007
:101EA0000EB500BF00BF002000900190029000BF5F
:101EB00000BF00BF00BF00BF4FF4E13000F0D8F812
:101EC00000F0CCFAFFF788FFFFF7C6FF00F0A6FB93
:101ED00000F04AFAFEF750FFFEF794FCFFF730FEE1
:101EE000FFF706FF00F028F8FFF7B6F9FEF7F8FC59
:101EF00008A10BA0FEF71CFE42F2107109A0FEF72C
:101F00008BFD06E00BA000F0B7F94FF4FA70FFF775
:101F1000DBFEF7E731323334353637380000000066
:101F20004C4C00003139322E3136382E3133372EB9
:101F300031313100310000001CB54FF4E13000F0C8
:101F4000AFF901210420FFF7E3F800200090019091
:101F50008DF804000120009000208DF807008DF816
:101F6000050069460848FEF74DFE01208DF8040083
:101F70000220009069460448FEF744FE0221024810
:101F8000FEF7B4FE1CBD00000008024010B5102191
:101F90000748FEF7ABFE052000F010FAFF2000F026
:101FA0000DFA044610210248FEF7A2FE204610BD9D
:101FB0000000024010B54FF480610748FEF796FE1E
:101FC0006420FFF799FB4FF480610348FEF790FE11
:101FD0006420FFF791FB10BD0004024010B50446D9
:101FE0004FF480510848FEF781FE4FF480410648C7
:101FF000FEF77CFE2046FEF79FFF4FF4805102481B
:10200000FEF776FE10BD00000004024010B5044645
:102010004FF480510848FEF769FE4FF480410648AE
:10202000FEF766FE2046FEF787FF4FF48051024818
:10203000FEF75EFE10BD00000004024010B504462D
:102040004FF480510948FEF751FE4FF48041074894
:10205000FEF74EFE2012FEF76FFFE0B2FEF76CFFB8
:102060004FF480510148FEF743FE10BD00040240CA
:1020700010B588B0044601210846FFF749F8022050
:102080008DF81C0000208DF81E004FF4C0600690F3
:1020900000208DF81F008DF81D0006A92048FEF7CE
:1020A000B1FD072209211E48FEF7F4FD07220A218F
:1020B0001B48FEF7EFFD01211020FFF749F80294BD
:1020C0000020ADF814000C20ADF812000020ADF88F
:1020D0001000ADF80E00ADF80C0002A91148FFF792
:1020E0009BFC012240F225510E48FFF770FC0122B3
:1020F00040F224410B48FFF76AFC25208DF80400CC
:1021000001208DF807008DF805008DF8060001A864
:10211000FEF770FF01210348FFF723FC08B010BD54
:1021200000000240001001402DE9F04186B001217D
:102130000846FEF7EDFF00200490059002208DF880
:10214000140000208DF816000C20049000208DF85B
:1021500017008DF8150004A94348FEF753FD072228
:1021600002214148FEF796FD072203213E48FEF773
:1021700091FD01214804FEF7DBFF00200090019053
:10218000029003904FF4E13000900020ADF80C0075
:102190000C20ADF80A000020ADF80800ADF80600EC
:1021A000ADF8040069463148FFF736FC012240F2E1
:1021B00025512E48FFF70BFC012240F224412B4809
:1021C000FFF705FC26200522012425461346C3F10E
:1021D000070CBCF1040F02D94FF0040C01E0C3F16D
:1021E000070C674603F1040CBCF1070F02D24FF055
:1021F000000C01E0A3F1030C66464FF0010C0CFA51
:1022000007FCACF1010C0CEA040C0CFA06FC4FF0D4
:10221000010808FA06F8A8F1010808EA05084CEADE
:10222000080100BF002807DA0A07140E104A00F060
:102230000F031B1FD45403E00A07130E0D4A135457
:1022400000BF262000F01F020121914042099200A8
:1022500002F1E022C2F8001100BF01210348FFF79C
:1022600080FB06B0BDE8F081000002400044004061
:1022700018ED00E000E400E00BE000BF074909882A
:1022800001F040010029F9D010F8011B034A121D8A
:10229000118001780029F0D170470000004400400F
:1022A00010B588B0044601210420FEF731FF00205C
:1022B0000690079002208DF81C0000208DF81E006B
:1022C000C020069000208DF81F008DF81D0006A983
:1022D0002348FEF797FC082206212148FEF7DAFC86
:1022E000082207211E48FEF7D5FC01212020FEF719
:1022F0002FFF002002900390049005900294ADF807
:1023000014000C20ADF812000020ADF81000ADF85C
:102310000E00ADF80C0002A91248FFF77DFB012268
:1023200040F225510F48FFF752FB012240F22441B1
:102330000C48FFF74CFB47208DF8040001208DF876
:10234000070000208DF8050001208DF8060001A887
:10235000FEF750FE01210348FFF703FB08B010BD54
:1023600000080240001401401CB5002000900190BC
:1023700001210420FEF7CCFE01208DF8040000208E
:102380008DF806002020009000208DF807008DF8C1
:10239000050069460848FEF735FC00208DF804006A
:1023A0001020009069460448FEF72CFC20210248CA
:1023B000FEF79CFC1CBD00000008024070B50446FE
:1023C000002500BF02210B48FEF7B4FF0028F9D01A
:1023D00021460848FEF7BAFF00BF01210548FEF775
:1023E000A9FF0028F9D00348FEF7ADFFC5B2284683
:1023F00070BD00000030014010B5044600F0E2F866
:1024000010210E48FEF772FCD820FFF7D7FFC4F367
:102410000740FFF7D3FFC4F30720FFF7CFFFE0B279
:10242000FFF7CCFF10210548FEF762FC00BFFFF765
:10243000ADFD00F001000028F9D110BD0000024000
:1024400070B505460C4606E02846FFF7D5FF05F5B2
:102450008035601EC4B2002CF6D170BD1CB500F0F2
:1024600059F801210846FEF753FE01208DF80400BB
:1024700000208DF806001020009000208DF8070045
:1024800002208DF8050069460448FEF7BBFB1021C9
:102490000248FEF72DFC00F0A5F81CBD000002402C
:1024A00070B504460D461646210A6019401EB1EB70
:1024B000102F01D0002070BD00F084F810211448C6
:1024C000FEF714FC0220FFF779FFC4F30740FFF783
:1024D00075FFC4F30720FFF771FFE0B2FFF76EFF4F
:1024E00007E03078FFF76AFF681EC5B205B901E062
:1024F000761CF6E700BF10210548FEF7F9FB00BF88
:10250000FFF744FD00F001000028F9D10120D2E7D7
:102510000000024000B587B001210846FEF7F8FD33
:1025200002208DF8180000208DF81A00E020059098
:1025300000208DF81B0002208DF8190005A91F4806
:10254000FEF760FB052211461C48FEF7A3FB05229F
:1025500006211A48FEF79EFB052207211748FEF7C1
:1025600099FB01210803FEF7F3FD14216846FDF7EE
:10257000FDFF0020ADF80C00ADF80800ADF8060036
:10258000ADF80400ADF80000ADF80E004FF4827015
:10259000ADF802004FF40070ADF80A006946084833
:1025A000FEF7D6FE4FF480710548FEF7EFFE0121DD
:1025B0000348FEF7B3FE07B000BD00000000024074
:1025C0000030014010B510210548FEF78FFB0620B2
:1025D000FFF7F4FE10210248FEF78AFB10BD000051
:1025E0000000024010B5FFF7EDFF10210A48FEF78A
:1025F0007DFB0120FFF7E2FE0020FFF7DFFE102148
:102600000548FEF775FB00BFFFF7C0FC00F00100B6
:102610000028F9D110BD00000000024010B5FFF7FE
:10262000F3FB0446012C0BD10649087006A0FDF708
:102630002BFE15216004FFF703FF0BA0FDF724FE1E
:1026400010BD000008000020D5FDD4DAB2C1B3FDF2
:10265000B4E6B4A2D0BEC6AC2CC7EBB5C8B4FD2E50
:102660002E2E0D0A00000000B2C1B3FDCDEAB3C9A1
:102670002CC7EBC9D5C2BCD7D6BFE22E2E2E0D0A71
:10268000000000004FF04070E1EE100A70470000BB
:1026900041542B43574A41503D22000000000000A6
:1026A000000000000000000000000000000000002A
:1026B000000000000000000000000000000000001A
:1026C00000000400000800000000000000020001FB
:1026D00000001000F4260008000000202C0000007C
:1026E000D0010008202700082C000020840A0000E8
:1026F000EC010008010000000000000000000000E4
:1027000000000200581F140000000000010000003B
:102710000001020304010203040607080900000087
:040000050800019559
:00000001FF
