:020000040800F2
:10000000C80600203D02000845020008470200081B
:10001000490200084B0200084D02000800000000E1
:100020000000000000000000000000004F02000877
:1000300051020008000000005302000855020008A9
:10004000570200085702000857020008570200082C
:10005000570200085702000857020008570200081C
:10006000570200085702000857020008570200080C
:1000700057020008570200085702000857020008FC
:10008000570200085702000857020008000000004D
:1000900000000000000000000000000057020008FF
:1000A0005D1A0008570200085702000857020008AE
:1000B00057020008570200085702000857020008BC
:1000C00057020008570200085702000857020008AC
:1000D000570200087D1C00085702000800000000BD
:1000E00057020008570200085702000800000000ED
:1000F000000000000000000000000000570200089F
:1001000000000000570200085702000857020008CC
:1001100000000000000000000000000000000000DF
:10012000570200085702000857020008570200084B
:10013000570200080000000000000000000000005E
:10014000000000000000000000000000570200084E
:10015000570200085702000857020008291D00082E
:1001600057020008570200080000000000000000CD
:10017000000000000000000000000000000000007F
:10018000000000005702000800000000000000000E
:100190005702000800F002F800F041F80AA090E8C9
:1001A000000C82448344AAF10107DA4501D100F032
:1001B00036F8AFF2090EBAE80F0013F0010F18BFBE
:1001C000FB1A43F0010318470C3300002C330000E6
:1001D000103A24BF78C878C1FAD8520724BF30C873
:1001E00030C144BF04680C60704700000023002445
:1001F00000250026103A28BF78C1FBD8520728BF37
:1002000030C148BF0B607047642900F0798000203E
:1002100070471FB503F058F91FBD10B510BD00F0B1
:10022000D1F91146FFF7F5FF02F0C0FA00F0EFF93F
:1002300003B4FFF7F2FF03BC01F093FE09488047C7
:1002400009480047FEE7FEE7FEE7FEE7FEE7FEE7B8
:10025000FEE7FEE7FEE7FEE704480549054A064BD0
:1002600070470000F519000895010008C80000203B
:10027000C8060020C8020020C80200207047000005
:100280000FB4044910B503AA029800F06DF910BC30
:100290005DF814FB040000202DE9F0410E460446F1
:1002A000002020622046E168884730B3252805D029
:1002B000D4E901219047206A401CF2E7E16820461A
:1002C00000278847050018D0A5F14100192802D859
:1002D00020354FF400673246294620462760FFF755
:1002E00093FF40B1012804D0F61D26F0070608361A
:1002F000D8E7361DD6E72846DAE7206ABDE8F08160
:100300002DE9F0410646002410687529314616A5EE
:1003100010D0AFF30080002802DA404213A507E0B6
:1003200031688A0701D512A502E0490704D511A555
:10033000012401E0AFF3008000210A2206F1240726
:1003400009E0B0FBF2FCB0FBF2F302FB1C00303022
:1003500078541846491C0028F3D123462A463046D3
:10036000BDE8F04100F0A6B8000000002D0000003C
:100370002B0000002000000010B5203AC0F00B80D8
:10038000B1E81850203AA0E81850B1E81850A0E899
:100390001850BFF4F5AF5FEA027C24BFB1E81850F3
:1003A000A0E8185044BF18C918C0BDE810405FEA63
:1003B000827C24BF51F8043B40F8043B08BF7047DF
:1003C000D20728BF31F8023B48BF11F8012B28BFE4
:1003D00020F8023B48BF00F8012B70474FF00002A5
:1003E00000B5134694469646203922BFA0E80C502B
:1003F000A0E80C50B1F12001BFF4F7AF090728BF06
:10040000A0E80C5048BF0CC05DF804EB890028BF81
:1004100040F8042B08BF704748BF20F8022B11F0AA
:10042000804F18BF00F8012B704700004FF0013CCF
:1004300050F8042B51F8043B9A4221D1A2EB0C0353
:10044000934313EACC1317D150F8042B51F8043B13
:100450009A4215D1A2EB0C03934313EACC130BD1B0
:1004600050F8042B51F8043B9A4209D1A2EB0C033B
:10047000934313EACC13DBD04FF00000704700BF6A
:10048000D01A01BAB1FA81F101F0180122FA01F093
:10049000CB40C1F12001DBB2C0B2C01A2CFA01F38B
:1004A000D11A914311EAC311E6D1704770477047E2
:1004B000704770472DE9F0470D469946924604462D
:1004C00000F124080168880604D5E06921F01001D4
:1004D000216000E00120A84201DD471B00E0002769
:1004E000A1697A1902EB0900081AA0612078C006F8
:1004F00002D42046AFF30080002608E0D4E90121B1
:100500001AF806009047206A401C761C20624E456F
:10051000F4DB2078C0060AD52046AFF3008006E061
:10052000D4E9012130209047206A401C2062381E07
:10053000A7F10107F4DC07E0D4E9012118F8050070
:100540009047206A401C2062281EA5F10105F3DCBB
:100550002046AFF300802078000602D50220BDE8D7
:10056000F0870120FBE70000074B70B50D467B4488
:1005700000F011F80446284600F020F810B14FF0C2
:10058000FF3070BD204670BD4F1E000001694A1C3F
:1005900002610878704700B58FB0CDE901310021C4
:1005A000059105497944CDE9031011466846FFF7E6
:1005B00073FE0FB000BD0000E5FFFFFF007B00F001
:1005C00080007047754600F029F8AE460500694680
:1005D000534620F00700854618B020B5FFF73CFED3
:1005E000BDE820404FF000064FF000074FF0000834
:1005F0004FF0000B21F00701AC46ACE8C009ACE8B5
:10060000C009ACE8C009ACE8C0098D467047044693
:10061000AFF300802046FFF70BFE00000048704754
:100620006400002070B505460E4602F00DF8FF2D5F
:1006300003DCA02001F0CEFF02E0A22001F0CAFFFF
:1006400001F010FF0446012C03D102F027F801202D
:1006500070BDE8B201F0BEFF01F004FF0446012CBA
:1006600003D102F01BF80220F2E701F0EDFFFF2DAD
:1006700003DCA12001F0AEFF02E0A32001F0AAFFFD
:1006800001F0F0FE0446012C03D102F007F801202E
:10069000DEE701F01BFF3070012001F053FF01F095
:1006A000FDFF0020D4E72DE9F04105460E46174630
:1006B00001F0CAFFFF2D03DCA02001F08BFF02E058
:1006C000A22001F087FF01F0CDFE0446012C04D1E9
:1006D00001F0E4FF0120BDE8F081E8B201F07AFF0B
:1006E00001F0C0FE0446012C03D101F0D7FF022027
:1006F000F1E701F0A9FFFF2D03DCA12001F06AFF63
:1007000002E0A32001F066FF01F0ACFE0446012CDC
:1007100003D101F0C3FF0120DDE70DE001F0D6FEBB
:100720003870701EC6B21EB9012001F00BFF04E044
:10073000002001F007FF7F1CF0E700BF01F0AEFFD3
:100740000020C8E770B505460E4601F07DFFFF2D7D
:1007500003DCA02001F03EFF02E0A22001F03AFFFE
:1007600001F080FE0446012C03D101F097FF012027
:1007700070BDE8B201F02EFF01F074FE0446012CBA
:1007800003D101F08BFF0220F2E7304601F022FF97
:1007900001F068FE0446012C03D101F07FFF032025
:1007A000E6E701F07BFF052001F00CFA0020DFE70F
:1007B0002DE9F04104460E4617461AE02046E1179F
:1007C00004EB11710911A4EB0111C1F11001CDB2BB
:1007D000B54204DB3A46314600F010F80AE03A46EA
:1007E0002946204600F00AF8601984B2701BC6B290
:1007F0002F44E3E700BF0020BDE8F0812DE9F04180
:1008000004460E461746A219501EE21704EB127258
:100810001211C31700EB1373B2EB231F02D0042095
:10082000BDE8F08101F010FFFF2C03DCA02001F0F7
:10083000D1FE02E0A22001F0CDFE01F013FE05463C
:10084000012D03D101F02AFF0120E9E7E0B201F018
:10085000C1FE01F007FE0546012D03D101F01EFF88
:100860000220DDE710E0387801F0B4FE01F0FAFD77
:100870000546012D03D101F011FF0320D0E7701EC2
:10088000C6B206B901E07F1CEDE700BF01F006FF2C
:10089000052001F097F90020C2E7000010B5FF2401
:1008A0000E48006900F0020068B90D48007850B1A8
:1008B00000F018F80446FF2C05D01D2002F0F6FBCE
:1008C0000020074908700548006900F0020010B1D7
:1008D000012003490870204610BD000000000240BE
:1008E0001900002010B5FF2401F012FCA02001F037
:1008F000DDFB01F05DFB18B101F02EFC012010BD05
:1009000000BF3B48006800F040000028F9D00820F4
:1009100001F0CCFB01F04CFB18B101F01DFC0220F2
:10092000EDE700BF3248006800F040000028F9D031
:1009300001F0EEFBA12001F0B9FB01F039FB18B189
:1009400001F00AFC0320DAE700BF2948006800F044
:1009500040000028F9D001F051FB0446002001F0CE
:100960007BFB01F04BFB44EA0024012001F074FB07
:1009700001F0F2FB402C2AD00EDC082C29D006DC3A
:10098000012C1AD0022C1ED0042C2ED127E0102CC2
:1009900029D0202C29D120E0B4F5007F21D005DC1E
:1009A000802C0ED0B4F5807F1FD114E0B4F5806F99
:1009B00005D0B4F5006F18D107E031209FE7322051
:1009C0009DE733209BE7342099E7352097E73620D1
:1009D00095E7372093E7382091E739208FE72A20E1
:1009E0008DE730208BE7232089E700BFFF2086E7D3
:1009F0001004024070B50446002601F089FBA020D7
:100A000001F054FB01F0D4FA18B101F0A5FB01206C
:100A100070BD00BF1D48006800F040000028F9D0FC
:100A2000B02001F043FB01F0C3FA18B101F094FBD0
:100A30000220EDE700BF1548006800F040000028E4
:100A4000F9D001251BE0162D03D1F0B201F02EFBE9
:100A500005E0207801F02AFB20780644641C01F0B0
:100A6000A7FA18B101F078FB0320D1E700BF0748CF
:100A7000006800F040000028F9D0681CC5B2162DAF
:100A8000E1DD01F069FB0020C2E700001004024034
:100A900000B58DB0182107A8FFF7A0FC18220BA104
:100AA00001A8FFF769FC01F063FA0E48006840F006
:100AB00001000C4908600C48006820F00C000A494D
:100AC000086001A8FFF796FF0DB000BD000083F39A
:100AD000981010101010101010101010101010108E
:100AE0005000000030380240000002407CB505464E
:100AF00046A0FFF7C5FB4EA0FFF7C2FB00BF0121D8
:100B0000504800F090F90028F9D002214D4800F03B
:100B100095F91E2001F056F800BF002000F056FDA8
:100B20000446002CF9D148A0FFF7AAFB00BF012121
:100B3000444800F078F90028F9D14CA0FFF7A0FB59
:100B400000BF01213F4800F06EF90028F9D000BF36
:100B5000012000F03BFD0446002CF9D13AA0FFF73C
:100B60008FFB00BF0121374800F05DF90028F9D163
:100B700043A0FFF785FB00BF0121324800F053F985
:100B80000028F9D000BF022000F020FD0446002C10
:100B9000F9D129467F2001F08DFF6A4601A97F2007
:100BA00001F04AFF40B13BA0FFF76AFB0221254854
:100BB00000F042F9FF207CBD9DF80000912811D083
:100BC00003DC38B1832819D108E093280ED094288B
:100BD00014D10FE03EA0FFF753FB0FE03FA0FFF75B
:100BE0004FFB0BE04AA0FFF74BFB07E04FA0FFF7DE
:100BF00047FB03E051A0FFF743FB00BF00BF02210A
:100C0000104800F019F90020D5E70000C7EBBDAB94
:100C1000CAD6D6B8B7C5B5BDD6B8CEC6C4A3BFE987
:100C2000BFAACABCD7A2B2E1D6B8CEC60D0A000090
:100C3000B5DAD2BBB4CED6B8CEC6B2C9BCAF0D0AF7
:100C40000000000000080240C7EBCCA7C6F0CAD6DF
:100C5000D6B8A3ACD4D9B4CEB2C9BCAFCFC2D2BB84
:100C6000B4CED6B8CEC60D0A00000000B5DAB6FE86
:100C7000B4CED6B8CEC6B2C9BCAF0D0A00000000D3
:100C8000B5DAC8FDB4CED6B8CEC6B2C9BCAF0D0A6F
:100C900000000000CDA8D0C5CAA7B0DCB5BCD6C244
:100CA000D7A2B2E1CAA7B0DCA3A1C8E7D0E8D6D8E2
:100CB000D0C2D7A2B2E1A3ACC7EBD4D9B4CEBDF8B1
:100CC000C8EBD7A2B2E1B9A6C4DCA3A10D0A00000B
:100CD000D7A2B2E1B3C9B9A60D0A0000494420B4B5
:100CE000EDCEF3284944203C203020BBF2D5DF2054
:100CF0004944203E20D7EEB4F3D3C3BBA7CAFD2995
:100D0000BBF2D5DFCDA8D0C5B4EDCEF30D0A0000FF
:100D1000D7A2B2E1CAA7B0DC28D3C3BBA7C7F8D318
:100D2000F2D2D1C2FA290D0A00000000D2D1BEAD24
:100D3000D7A2B2E1B5C42049440D0A00D6B8CEC648
:100D4000CCE1C8A1B4CECAFD203C20330D0A00007E
:100D5000F0B50A4600210023002400BF3DE0012534
:100D600005FA01F3156805EA03049C4234D10568CD
:100D70004F000326BE40B543056015794E00B540CF
:100D80000668354305601579012D02D01579022DCD
:100D900016D185684F000326BE40B543856055795E
:100DA0004E00B540866835438560456801268E4013
:100DB000B5434560456896798E40B6B23543456087
:100DC000C5684F000326BE40B543C560D5794E00C7
:100DD000B540C6683543C560491C1029BFD3F0BD76
:100DE000F0B5002300244D07ED0E02FA05F3CE10F6
:100DF00000F1200555F826504E07F70E0F26BE408D
:100E0000B543CF1000F1200646F82750CE1000F170
:100E1000200555F8265045EA0304CE1000F12005C0
:100E200045F82640F0BD0246002013690B400BB187
:100E3000012000E000207047418370470183704724
:100E40001CB50121022000F01DFB45F2024000907C
:100E500001208DF8040000208DF806008DF80700B1
:100E600069460648FFF774FF02210448FFF7E4FFD4
:100E70004FF480510148FFF7E1FF1CBD0004024020
:100E800070B506460C4615462A2001F0F5FF30469F
:100E900002F022F8304602F01FF82B2001F0ECFFA0
:100EA000204602F019F8204602F016F82C2001F036
:100EB000E3FF284602F010F870BD70B505462A2001
:100EC00001F0DAFF002002F007F8EF2002F004F84A
:100ED0002B2001F0D1FF002001F0FEFFEF2001F0F8
:100EE000FBFF2C2001F0C8FF002403E0284601F09E
:100EF000F3FF641CB4F5614FF8D370BD2DE9FF4FCB
:100F000091B006460F469846DDF878B0402101A81A
:100F1000FFF764FA584600F0FF091B4901EB8910FE
:100F200001AA402102F0F0F9002428E06000401CF2
:100F300001A9085C01AA12F8141040EA012A002550
:100F400019E04FF40040284100EA0A0038B13A198C
:100F500091B2721990B2139AFFF792FF09E01F98AD
:100F6000012806D13A1991B2721990B24246FFF7A0
:100F700087FF681CC5B2102DE3DB601CC4B2202CB7
:100F8000D4DB15B0BDE8F08F060802002DE9FF4F55
:100F9000A1B006460F469846DDF8B890802101A81A
:100FA000FFF71CFA99F80100A13899F80010A1394F
:100FB000C1EB011202EB411100EB410A204901EBA8
:100FC000CA1001AA802102F09FF9002433E001A990
:100FD00011F824000106A000401C01AA105C41EA9F
:100FE0000041A000801C105C41EA0020A100C91C47
:100FF000515C40EA010B002519E04FF00040E84049
:1010000000EA0B0038B13A1991B2721990B2239AE2
:10101000FFF736FF09E02F98012806D13A1991B25F
:10102000721990B24246FFF72BFF681CC5B2202D03
:10103000E3DB601CC4B2202CC9DB25B0BDE8F08F17
:10104000522606002DE9FC4705460E469046994675
:10105000DDE90A472BE02078002816DB20787F287E
:1010600013DC20784B4642463146CDE9000728463E
:10107000FFF744FF641C05F1100085B2E02D16DB7C
:10108000002506F1200086B211E04B46424631466B
:101090002846CDE90047FFF779FFA41C05F12000A1
:1010A00085B2D02D03DB002506F1200086B2207822
:1010B0000028D0D1BDE8FC8710B5FFF7C1FE00F0D5
:1010C000C1F801F0C5FE362001F0D6FE002001F087
:1010D000EBFE3A2001F0D0FE052001F0E5FEB22043
:1010E00001F0CAFE0C2001F0DFFE0C2001F0DCFE56
:1010F000002001F0D9FE332001F0D6FE332001F0AC
:10110000D3FEB72001F0B8FE352001F0CDFEBB20A4
:1011100001F0B2FE192001F0C7FEC02001F0ACFEC4
:101120002C2001F0C1FEC22001F0A6FE012001F03A
:10113000BBFEC32001F0A0FE122001F0B5FEC420CA
:1011400001F09AFE202001F0AFFEC62001F094FECF
:101150000F2001F0A9FED02001F08EFEA42001F0A6
:10116000A3FEA12001F0A0FEE02001F085FED0202A
:1011700001F09AFE042001F097FE0D2001F094FE8C
:10118000112001F091FE132001F08EFE2B2001F0C2
:101190008BFE3F2001F088FE542001F085FE4C209C
:1011A00001F082FE182001F07FFE0D2001F07CFE90
:1011B0000B2001F079FE1F2001F076FE232001F0C4
:1011C00073FEE12001F058FED02001F06DFE0420F6
:1011D00001F06AFE0C2001F067FE112001F064FEB0
:1011E000132001F061FE2C2001F05EFE3F2001F093
:1011F0005BFE442001F058FE512001F055FE2F20E7
:1012000001F052FE1F2001F04FFE1F2001F04CFEA6
:10121000202001F049FE232001F046FE212001F0AC
:101220002BFE112001F028FE292001F025FE0221CD
:101230000348FFF703FE0020FFF73FFE10BD00004C
:10124000000402401CB50121022000F01BF94FF4FC
:101250002040009001208DF8040000208DF8060049
:101260008DF8070002208DF8050069460148FFF758
:101270006FFD1CBD0004024070B504464FF40051E0
:101280001448FFF7D9FD4FF400411248FFF7D6FD8F
:1012900000251BE04FF400510E48FFF7CDFD04F090
:1012A000800028B14FF400410A48FFF7C7FD04E071
:1012B0004FF400410748FFF7BFFD4FF400510548C8
:1012C000FFF7BCFD6006040E681CC5B2082DE1DB0B
:1012D00070BD0000000402401CB5FF2000902F48A4
:1012E000007828B12EA0FEF7CBFF00202B49087014
:1012F00001213348FFF797FD00284CD002213048E8
:10130000FFF79CFD1E2000F05DFC00BF002000F0F8
:101310005DF901909DF804000028F7D100217120AB
:1013200001F0C8FB01AA6946712001F085FB58B1A4
:1013300024A0FEF7A5FF02212148FFF77DFD19201B
:1013400001F0B4FEFF201CBD9DF80400A0B90220EE
:101350002349087023A0FEF793FF182001F0A6FE92
:1013600001F0CCFB00BF01211548FFF75CFD002810
:10137000F9D100F015FF05E01DA0FEF781FF19204F
:1013800001F094FE9DF800101CA0FEF779FF0221E9
:101390000B48FFF751FD9DF80000D4E71F00002027
:1013A000C7EBB7C5CFC2CAD6D6B8BDF8C8EBD6B85A
:1013B000CEC6B6D4B1C8BFAACBF80D0A0000000053
:1013C00000080240CDA8D0C5CAA7B0DC2CBDD3CA46
:1013D000D5CAFDBEDDB0FCB4EDCEF30D0A000000B1
:1013E0001E000020B1C8B6D4B3C9B9A60D0A0000CA
:1013F000B1C8B6D4CAA7B0DC0D0A00004944BAC5CA
:10140000CEAAA3BA25640D0A0000000070B5002121
:1014100000230F22C4781CB3174C246804F4E06442
:10142000C4F5E064C4F30721C1F10404E3B20A4146
:1014300044789C40E1B28478144021430C07210E8B
:101440000E4C05786155047804F01F050124AC406A
:1014500005786D11AD0005F1E025C5F8004109E002
:10146000047804F01F050124AC40054D0678761180
:1014700045F8264070BD00000CED00E000E400E0FF
:1014800080E100E029B1064A12680243044B1A6069
:1014900004E0034A12688243014B1A60704700005F
:1014A0003038024029B1064A12680243044B1A60E0
:1014B00004E0034A12688243014B1A60704700003F
:1014C0004038024029B1064A12680243044B1A60B0
:1014D00004E0034A12688243014B1A60704700001F
:1014E00044380240F0B500210022002402250026E5
:1014F0000223324F3F6807F00C0121B1042905D0C7
:10150000082937D105E02E4F076036E02D4F0760E0
:1015100033E02A4F3F1F3F68C7F38056274F3F1FD6
:101520003F6807F03F036EB1264FB7FBF3F7DFF8D4
:101530008CC0ACF1040CDCF800C0CCF3881C07FBB9
:101540000CF40CE01E4FB7FBF3F7DFF870C0ACF102
:10155000040CDCF800C0CCF3881C07FB0CF4174F1C
:101560003F1F3F68C7F301477F1C7D00B4FBF5F7C1
:10157000076002E0124F076000BF00BF0F4F3F68D7
:1015800007F0F0010909104F7A5C0768D7404760FF
:101590000A4F3F6807F4E051890A0B4F7A5C4768AD
:1015A000D7408760054F3F6807F46041490B064FFD
:1015B0007A5C4768D740C760F0BD00000838024039
:1015C0000024F40040787D01200000207CB5044612
:1015D0002146512001F06EFA6A4601A9512001F01E
:1015E0002BFA0546002D4ED19DF80000B5282DD0D0
:1015F0000BDCB2281ED003DCA0B1B1283ED115E02F
:10160000B3281BD0B42839D11CE0B8282AD004DC78
:10161000B6281FD0B72831D120E0C02826D0C22854
:101620002CD127E01CA0FEF72BFE2BE022A0FEF71A
:1016300027FE27E027A0FEF723FE23E02BA0FEF7DE
:101640001FFE1FE038A0FEF71BFE1BE045A0FEF7C3
:1016500017FE17E051A0FEF713FE13E05DA0FEF7A2
:101660000FFE0FE068A0FEF70BFE0BE06CA0FEF78C
:1016700007FE07E06EA0FEF703FE03E073A0FEF78F
:10168000FFFD00BF04E079A0FEF7FAFDFF207CBD5E
:101690009DF80000FBE70000D7A5C8A1D6B8CEC6CC
:1016A000CDBCCFF1BCB0CCD8D5F7C1BFCCE1C8A17F
:1016B000B3C9B9A60D0A0000D6B8CEC6B9FDD0A1EF
:1016C00028736D616C6C2066696E676572290D0AFE
:1016D00000000000CEDED6B8CEC620286E6F206691
:1016E000696E676572290D0A00000000D6B8CEC683
:1016F000CEBBD6C3B9FDD3DABFBFD7F3A3ACD0E816
:10170000D2AABDABCAD6D6B8BFBFD3D2B1DFDEF442
:10171000B0B4A3A8206C6566742066696E676572B4
:10172000A3A90D0A00000000D6B8CEC6CEBBD6C312
:10173000B9FDD3DABFBFD3D2A3ACD0E8D2AABDAB38
:10174000CAD6D6B8BFBFD7F3B1DFDEF4B0B4A3A812
:101750002072696768742066696E676572A3A90D57
:101760000A000000D6B8CEC6CEBBD6C3B9FDD3DAC8
:10177000BFBFC9CFA3ACD0E8D2AABDABCAD6D6B83A
:10178000BFBFCFC2B1DFDEF4B0B4A3A82075702014
:1017900066696E676572A3A90D0A0000D6B8CEC649
:1017A000CEBBD6C3B9FDD3DABFBFCFC2A3ACD0E89E
:1017B000D2AABDABCAD6D6B8BFBFC9CFB1DFDEF49F
:1017C000B0B42028646F776E2066696E676572A377
:1017D000A90D0A00CAAACAD6D6B820A3A8D6B8CEE0
:1017E000C6B1EDC3E6B3F6BAB9BBF2D5DFCBAED71F
:1017F000D5B9FDB6E0A3A920287765742066696E87
:10180000676572290D0A0000B8C9D4EFCAD6D6B8E8
:10181000286472792066696E676572290D0A000076
:10182000CCD8D5F7CCE1C8A1B4EDCEF30D0A0000B9
:10183000CCD8D5F7CCE1C8A1B4EDCEF32028CDBCEF
:10184000CFF1D6CAC1BFB2EE290D0A00D7A5C8A1F3
:10185000D6B8CEC6CDBCCFF1BCB0CCD8D5F7C1BFC1
:10186000CCE1C8A1B4EDCEF30D0A0000CDA8D0C5DF
:10187000CAA7B0DCA3A10D0A0000000021B10288B4
:1018800042F04002028004E002884FF6BF731A4023
:10189000028070470246002013890B400BB10120E3
:1018A00000E00020704701468889704781817047B9
:1018B00010B50022028802F441520B884C88234361
:1018C0008C882343CC8823430C8923434C892343AE
:1018D0008C892343CC8923431A430280838B4FF2A4
:1018E000FF74234083830B8A038210BD4FF6FF628F
:1018F000914204D0028842F48072028004E002889F
:101900004FF6FF631A400280704700000CB50020BC
:10191000019000903348006840F4803031490860FD
:1019200000BF3048006800F4003000900198401C6F
:101930000190009818B90198B0F5A04FF1D129484D
:10194000006800F4003010B10120009001E0002098
:1019500000900098012844D122484030006840F0AF
:1019600080502049403108601F48006840F44040E2
:101970001D4908601B48083000681A490831086092
:101980000846006808600846006840F48050086017
:101990001648091F0860081F006840F08070091F82
:1019A000086000BF0F48006800F000700028F9D000
:1019B00040F202700E4908600A480830006820F0C2
:1019C00003000849083108600846006840F002003A
:1019D000086000BF03480830006800F00C000828C9
:1019E000F8D10CBD00380240007000401954410786
:1019F000003C024010B51548006840F470001349DF
:101A000008601348006840F0010011490860002098
:101A10000F49083108600E4800680E4908400C491B
:101A200008600D48091D0860081F006820F4802028
:101A3000091F0860002006490C310860FFF766FFA7
:101A40004FF0006001498039086010BD88ED00E06A
:101A500000380240FFFFF6FE1030002410B50121CF
:101A6000174800F050F848B30121154800F033F84A
:101A70001448007801280DD113480088401C1249F1
:101A8000088008460088B0F57A7F12DB00200D49F7
:101A900008700EE00B48007858B90B480088401ECB
:101AA0000949088008460088002802DC0120054911
:101AB000087005480188054800F03FF810BD000097
:101AC00000400140180000201600002000080040DF
:101AD000CA4302827047CA430282704721B102881A
:101AE00042F00102028004E002884FF6FE731A40C1
:101AF0000280704702460020138A0B400BB1012080
:101B000000E00020704730B502460020002300248A
:101B1000158A05EA0103958905EA010413B10CB1A0
:101B2000012000E0002030BD02884FF6F7731A4014
:101B3000028002880A4302807047016470470000F7
:101B400000220288184B98420ED0184B98420BD0B6
:101B5000B0F1804F08D0164B984205D0154B9842F3
:101B600002D0154B984204D14FF68F731A404B8820
:101B70001A43124B984207D0114B984204D04FF6AB
:101B8000FF431A400B891A4302804B68C3620B88DB
:101B90000385054B984202D0044B984201D18B7AC1
:101BA0000386012383827047000001400004014046
:101BB0000004004000080040000C004000100040FD
:101BC000001400403EB5044601210820FFF76AFCDE
:101BD0000020009001900290ADF802004FF47A715D
:101BE00004FB01F0401E01905320ADF8000069464F
:101BF0000B48FFF7A5FF01210948FFF769FF0821FE
:101C00000748FFF791FF01210548FFF767FF00BF75
:101C100001210348FFF76EFF0028F9D03EBD000008
:101C2000000C00403EB5044601210820FFF73AFCB5
:101C30000020009001900290ADF80200601E01901B
:101C40005320ADF8000069460B48FFF779FF0121EA
:101C50000948FFF73DFF01210748FFF73FFF00BF9D
:101C600001210548FFF746FF0028F9D0002102486E
:101C7000FFF734FF3EBD0000000C004008B540F205
:101C80002551204800F0AAF800282FD040F2255115
:101C90001C4800F07BF81C48007838B34FF4807182
:101CA0001A48FFF7C9F8174800F052F9C0B200907F
:101CB0006A4601211648006801F0ECFA14480068F1
:101CC000401C1349086013480068401E1149086011
:101CD0000846006850B910A0FEF7D2FA4FF48071A0
:101CE0000A48FFF7ABF800200749087040F224418A
:101CF000044800F073F818B1024800880148808851
:101D000008BD00000010014008000020000402404F
:101D10000C00002010000020D7D6BFE2C9D5C2BCFD
:101D2000CDEAB3C9210D0A0010B540F22551134880
:101D300000F054F880B140F22551104800F026F828
:101D40000E4800F005F9C1B20D4802780078401C39
:101D50000B4B18700B48815440F22441074800F0A7
:101D60003DF850B1054800880448001D0088002057
:101D70000349087001200449087010BD0014014097
:101D800014000020440000200900002010B50022AB
:101D9000002340F66A14A14200D100BF0A120124B8
:101DA0009440A3B2DC43048010BD21B1828942F487
:101DB0000052828104E082894DF6FF731A408281CD
:101DC000704702460020B1F5007F00D100BF1388A4
:101DD0000B400BB1012000E00020704770B50246B7
:101DE000002400230025002040F66A16B14200D1ED
:101DF00000BFC1F3421501F01F03012606FA03F3E9
:101E0000012D02D19689334006E0022D02D1168AB7
:101E1000334001E0968A33400C12012606FA04F49E
:101E20001688344013B10CB1012000E0002070BDD1
:101E3000F0B50346002400260025002040F66A176E
:101E4000B94200D100BF1846C1F3421401F01F0689
:101E5000012707FA06F5012C01D10C3004E0022C11
:101E600001D1103000E014301AB107682F43076029
:101E700002E00768AF430760F0BD00002DE9FF47AF
:101E800005460E460024A14600BFA046B08900B119
:101E900000BF2C8A24F44054F08804432C82AC897F
:101EA00041F20C608443B08831890843718908434A
:101EB0000443AC81AC8A24F44074B0890443AC82FE
:101EC0006846FFF70FFB2048854202D01F48854235
:101ED00002D1DDF80C9001E0DDF80890A88900F44B
:101EE000004040B109EBC90000EB0910316849001E
:101EF000B0FBF1F707E009EBC90000EB091031680E
:101F00008900B0FBF1F76420B7FBF0F00401200971
:101F1000642101FB1078A88900F4004040B1322010
:101F200000EBC800B0FBF1F000F00700044308E04C
:101F3000322000EB08106421B0FBF1F000F00F003C
:101F400004432C81BDE8FF870010014000140140CC
:101F500001468888C0F308007047C1F308028280F8
:101F60007047014600BF704700B500F037FA00BD6A
:101F70001CB501210220FFF785FA01208DF804002D
:101F80008DF80600C020009000208DF807008DF825
:101F9000050069460548FEF7DBFE40210348FEF7D1
:101FA0004DFF80210148FEF749FF1CBD000402409F
:101FB00010B500241048006840F080000E49086009
:101FC0000846006820F0400008600520FFF72AFE60
:101FD0000948006840F04000074908600520FFF705
:101FE00021FE0548001F006800F0800000B900E0F5
:101FF0000124204610BD00001404024070B51548AD
:10200000006840F080001349086000251DE0114879
:10201000006820F040000F4908600520FFF702FE2D
:102020000C48006840F040000A4908600520FFF7AE
:10203000F9FD6006040E0748001F006800F08000EC
:1020400008B144F00104681CC5B2082DDFDB20464E
:1020500070BD00001404024010B504461248006828
:1020600020F04000104908600520FFF7DBFD34B97F
:102070000D48006820F080000B49086007E0012C43
:1020800005D10948006840F0800007490860052034
:10209000FFF7C8FD0448006840F0400002490860AE
:1020A0000520FFF7BFFD10BD1404024070B50446C3
:1020B000002528E01548006820F04000134908601A
:1020C0000520FFF7AFFD04F0800030B10F48006835
:1020D00040F080000D49086005E00C48006820F0E1
:1020E00080000A4908600520FFF79CFD074800684A
:1020F00040F04000054908600520FFF793FD6006A9
:10210000040E681CC5B2082DD4DB70BD1404024057
:1021100010B51048006820F040000E490860052006
:10212000FFF780FD0B48006840F080000949086017
:102130000846006840F0400008600520FFF772FD87
:102140000448006820F08000024908600520FFF77D
:1021500069FD10BD1404024010B51048006820F05D
:1021600040000E4908600520FFF75CFD0B48006841
:1021700020F08000094908600846006840F04000EF
:1021800008600520FFF74EFD0448006840F080001D
:10219000024908600520FFF745FD10BD1404024008
:1021A00010B508210948FEF747FE10210748FEF741
:1021B00045FE4FF4967000F015F808210348FEF72D
:1021C0003DFE10210148FEF739FE10BD000402401B
:1021D000014645F2082201FB02F000E0401E002803
:1021E000FCD17047014645F2082201FB02F000E0F5
:1021F000401E0028FCD170471CB501210220FFF7CA
:1022000041F901208DF8040000208DF80600182007
:10221000009000208DF807008DF8050069460648FB
:10222000FEF796FD08210448FEF708FE102102483B
:10223000FEF704FE1CBD0000000402401CB5022194
:102240001848FEF7FBFD1E20FFF7BCFC00215420C0
:1022500000F030FC6A4601A9542000F0EDFB40B1CB
:1022600011A0FEF70DF802210E48FEF7E5FDFF2054
:102270001CBD9DF8000010B1902808D103E011A00A
:10228000FDF7FEFF07E012A0FDF7FAFF03E014A040
:10229000FDF7F6FF00BF00BF02210248FEF7CCFDAC
:1022A0000020E5E700080240CDA8D0C5CAA7B0DCF1
:1022B0002CBDD3CAD5CAFDBEDDB0FCB4EDCEF30D46
:1022C0000A000000C9BEB3FDB3C9B9A60D0A0000DB
:1022D000CEB4D7A2B2E1B5C4D3C3BBA70D0A0000E8
:1022E000C9BEB3FDCAA7B0DC0D0A00001CB5044688
:1022F00002211D48FEF7A2FD1E20FFF763FC2146C8
:10230000732000F0D7FB6A4601A9732000F094FB0C
:1023100040B116A0FDF7B4FF02211348FEF78CFD73
:10232000FF201CBD9DF8000030B1832808D0902804
:102330000AD0FF2810D10BE013A0FDF7A1FF0BE09E
:1023400014A0FDF79DFF07E015A0FDF799FF03E03E
:1023500017A0FDF795FF00BF00BF02210248FEF75E
:102360006BFD0020DDE7000000080240CDA8D0C5CD
:10237000CAA7B0DC2CBDD3CAD5CAFDBEDDB0FCB443
:10238000EDCEF30D0A000000C9BEB3FDB3C9B9A676
:102390000D0A0000B2CECAFDB4EDCEF30D0A000066
:1023A000CEB4D7A2B2E1B5C4D3C3BBA70D0A000017
:1023B000D0B4C8EB524F4DB4EDCEF30D0A0000007F
:1023C00000BF054A128802F04002002AF9D0C2B2CA
:1023D000014B9A8070470000001001401E480068C1
:1023E00040F001001C4908600846006840F0040005
:1023F00008601A48006820F4403018490860084610
:10240000006840F4803008601548006820F44020DF
:10241000134908600846006840F4802008600F48AF
:10242000406820F480700D4948600D48001D006828
:1024300040F400700A49091D08600848406940F4EA
:1024400080700649486106481430006840F4007006
:1024500003491431086070473038024000000240E0
:102460000008024010B51748406920F480701549F3
:1024700048611548006840F400701349086011482D
:10248000406920F480700F4948610520FFF7CAFBBE
:102490000C48406940F480700A4948610520FFF704
:1024A000C1FB0948001F006800F4007008B900244F
:1024B00000E001240348406920F48070014948612C
:1024C000204610BD000002401408024070B51B48B1
:1024D000406920F48070194948611948006840F447
:1024E00000701749086000251DE01448406920F479
:1024F0008070124948610520FFF794FB0F4840693E
:1025000040F480700D4948610520FFF78BFB6006A1
:10251000040E0B48001F006800F4007008B144F07E
:102520000104681CC5B2082DDFDB0448406920F4B3
:10253000807002494861204670BD000000000240E2
:102540001408024010B50446DCB92048406920F464
:1025500080701E4948610520FFF764FB1C48006835
:1025600020F400701A4908600520FFF75BFB17484C
:10257000406940F48070154948610520FFF752FB1F
:102580001CE0012C1AD11148406920F480700F49D9
:1025900048610520FFF746FB0D48006840F40070D5
:1025A0000B4908600520FFF73DFB0848406940F4EF
:1025B0008070064948610520FFF734FB03484069F5
:1025C00020F480700149486110BD00000000024005
:1025D0001408024070B50446002528E018484069F8
:1025E00020F48070164948610520FFF71BFB04F0BA
:1025F000800030B11348006840F400701149086051
:1026000005E01048006820F400700E4908600520BD
:10261000FFF708FB0A48406940F4807008494861A8
:102620000520FFF7FFFA6006040E681CC5B2082DEE
:10263000D4DB0348406920F480700149486170BDD3
:10264000000002401408024010B51248406920F40E
:102650008070104948611048006840F400700E49CD
:1026600008600C48406940F480700A4948610520C0
:10267000FFF7D8FA0848006820F40070064908609F
:102680000520FFF7CFFA0348406920F48070014924
:10269000486110BD000002401408024010B50F4808
:1026A000406920F480700D4948610D48006820F4AD
:1026B00000700B4908600948406940F48070074980
:1026C00048610520FFF7AEFA0548006840F4007045
:1026D000034908600520FFF7A5FA10BD000002407D
:1026E000140802401CB50020009001900121042034
:1026F000FEF7C8FE00208DF804004FF40050009053
:1027000000208DF8070069460148FEF721FB1CBD3B
:102710000008024010B5FF244FF400510F48FEF7A7
:1027200082FB78B90E48007860B10A20FFF750FDAF
:102730004FF400510948FEF776FB18B9002008490C
:10274000087001244FF400510448FEF76CFB10B1EF
:10275000012003490870204610BD00000008024017
:10276000000000201CB501210220FEF78BFE012095
:102770008DF8040000208DF806004FF440700090A2
:1027800000208DF807008DF8050069460648FEF721
:10279000DFFA4FF480710448FEF750FB4FF40071EC
:1027A0000148FEF74BFB1CBD0004024088B04FF00F
:1027B0000109CA4600200590069007900490002663
:1027C0000027834680464FF4E13000F09FFB00F085
:1027D0003FFDFFF787FFFFF7C5FF00F041FE00F068
:1027E000A9FCFEF769FCFEF753F9FFF7BDFBFFF705
:1027F00003FD00F0F7F804A97820FDF713FF9DF81A
:102800001000FD280AD005AA09217920FDF7D0FF84
:10281000FD217820FDF796FFFFF710FDA1E0FEF700
:102820003DF804464F480078012805D1204600F0C5
:102830007DF9FEF751FD94E04A48007802284FD117
:10284000B9F1010F0DD148A0FDF71AFD4AA0FDF71F
:1028500017FD4EA0FDF714FD51A0FDF711FD4FF03F
:102860000009312C1DD105AA09217920FDF71BFF94
:1028700001E0701CC6B205A8805D0028F9D1701C6B
:10288000C7B23846FEF732F98346BBF1000F68D174
:1028900005A8875505AA09217920FDF789FF00269B
:1028A0005FE0322C03D103202E49087059E0332C0D
:1028B0000FD1FFF7C3FC8046B8F1000F51D10020C3
:1028C00001900290039001AA09217920FDF770FF81
:1028D00047E0232C45D1012022490870814640E081
:1028E0002048007803283CD1BAF1010F18D105AA7D
:1028F00009217920FDF7D7FE00250AE005A8405DF3
:1029000028B105A8425D29462AA0FDF7B9FC681C3C
:10291000C5B2092DF2DB2DA0FDF7B2FC4FF0000A85
:10292000FF2C1ED02A2C1CD0232C1AD0302C18D0CF
:10293000A4F13001C8B2FFF7D9FC8046B8F1000F0E
:1029400008D10021A4F1310005AA115409217920F0
:10295000FDF72EFF0220034908704FF0010A4FF0E7
:1029600001095CE71E0000205B315DD7A2B2E1D611
:10297000B8CEC60D0A0000005B325DC9BEB3FDD6FD
:10298000B8B6A8D6B8CEC60D0A0000005B335DC944
:10299000BEB3FDC8ABB2BFD6B8CEC60D0A000000AC
:1029A0005B235DCDCBB3F6B9DCC0EDBDE7C3E60D6F
:1029B0000A0000006D673230305B25645DD3C3BB15
:1029C000A749443A25640D0A00000000C7EBCAE499
:1029D000C8EBD2AAC9BEB3FDB5C44944BAC53A0DC5
:1029E0000A0000001CB54FF4E13000F0EBFA0121C1
:1029F0000420FEF747FD0020009001908DF80400B0
:102A00000120009000208DF807008DF80500694630
:102A10000848FEF79DF901208DF80400022000907F
:102A200069460448FEF794F902210248FEF704FAC9
:102A30001CBD00000008024030B5034600BF1B4823
:102A400000780028FBD00020184D28701848007826
:102A50006C2801D0012030BD15484078622801D093
:102A60000220F8E712488078632801D00320F2E7BB
:102A70000F48C078984201D00420ECE70C48007958
:102A800010700B484079087003F1C5001578284490
:102A90000D782844064DAD792844C4B20448C07965
:102AA000A04201D00620D6E70020D4E7090000208C
:102AB0004400002070B505460C4600266C2000F04E
:102AC000E5FA632000F0E2FA622000F0DFFA28461F
:102AD00000F0DCFA204600F0D9FA002000F0D6FA27
:102AE00005F1C5002044C6B2304600F0CFFA002000
:102AF0000149087070BD00000900002010B50821D0
:102B00000948FEF79BF910210748FEF795F94FF4A5
:102B10009670FFF767FB08210348FEF78FF9102135
:102B20000148FEF78BF910BD000402401CB50446B5
:102B30009848007868B198496420FDF773FD96487D
:102B40000078FE2802D0022000F0B0FA002091495F
:102B5000087091480078FE287BD000208FA14FF4A8
:102B600078431A46CDE900102821FEF76BFA0020C1
:102B70008EA14FF478431A46CDE900104B21FEF7A1
:102B800061FAFF2C66D08D480078052827DC8C4838
:102B90008A490978445400208AA1CDE90010874968
:102BA000097848014FF478431A466E21FEF74AFA35
:102BB00082480078401C8149087008460078062841
:102BC00030D1002080A14FF478431A46CDE900109F
:102BD0009121FEF737FA0E2000F068FA22E07748DC
:102BE000007806281EDB754800780B281ADC73482D
:102BF0000078801F78490C54002072A1CDE90010A4
:102C00006E490978891F4FF6FF7202EA41104FF4AE
:102C100078431A46B421FEF715FA68480078401C3C
:102C200066490870654800780C2813D16A496448E1
:102C3000FDF7FCFBF8B9624A0A216520FDF7B8FDF3
:102C4000FE216420FDF77EFD0020FEF736F900200E
:102C500001E024E085E061A14FF478431A46CDE914
:102C600000100146FEF7EEF9112000F01FFA0120D6
:102C7000484908708DE00020FEF71FF900205BA195
:102C80004FF478431A46CDE900100146FEF7DAF911
:102C9000102000F00BFA00204849087079E05748EE
:102CA000007878B1002056A14FF478431A46CDE958
:102CB00000100146FEF7C6F90C2000F0F7F90020DD
:102CC0004E490870FF2C64D03C480078052860DC31
:102CD0003B483A490978445400203AA1CDE9001014
:102CE0003649097848014FF478431A466E21FEF7B9
:102CF000A9F932480078401C30490870084600782D
:102D0000062846D1344A0A216520FDF7CCFC324919
:102D10002B48FDF78BFB28BB0020FEF7CEF80020E8
:102D20003AA14FF478431A46CDE9001064213220CD
:102D3000FEF788F9FFF7E2FE4FF49670FEF742FFC8
:102D4000FFF72EFA0020FEF7B8F800201B490870A4
:102D500001202A490870182000F0A8F902202E4905
:102D6000087016E00020FEF7A8F800202BA14FF411
:102D700078431A46CDE9001064213220FEF762F94B
:102D800000200E49087001201C490870192000F02D
:102D90008DF91CBD1A0000201B000020C7EBC9E8FC
:102DA000D6C3BFAACBF8C3DCC2EB0000CAE4C8EBB1
:102DB000B5DAD2BBB4CEC3DCC2EB00001C000020ED
:102DC0004E0000202A000000CAE4C8EBB5DAB6FEC7
:102DD000B4CEC3DCC2EB000058000020C3DCC2EB61
:102DE000C9E8D6C3B3C9B9A600000000C1BDB4CEBE
:102DF000C3DCC2EBB2BBD2BBD6C200001D000020B8
:102E0000C7EBCAE4C8EBC3DCC2EB0000BBB6D3AD72
:102E1000BBD8BCD2000000001E000020C3DCC2EB07
:102E2000B4EDCEF30000000010B510210748FEF706
:102E300003F8052000F0BCF9FF2000F0B9F90446C2
:102E400010210248FDF7FAFF204610BD00000240A5
:102E500010B54FF480610748FDF7EEFF6420FEF7E0
:102E6000B1FE4FF480610348FDF7E8FF6420FEF7F0
:102E7000A9FE10BD0004024010B504464FF4805175
:102E80000848FDF7D9FF4FF480410648FDF7D4FF0D
:102E90002046FEF7F1F94FF480510248FDF7CEFFCE
:102EA00010BD00000004024010B504464FF48051EC
:102EB0000848FDF7C1FF4FF480410648FDF7BEFF0B
:102EC0002046FEF7D9F94FF480510248FDF7B6FFCE
:102ED00010BD00000004024010B504464FF48051BC
:102EE0000948FDF7A9FF4FF480410748FDF7A6FF09
:102EF0002012FEF7C1F9E0B2FEF7BEF94FF480519F
:102F00000148FDF79BFF10BD0004024010B588B0DA
:102F1000044601210846FEF7B5FA02208DF81C0090
:102F200000208DF81E004FF4C060069000208DF840
:102F30001F008DF81D0006A92048FDF709FF072294
:102F400009211E48FDF74CFF07220A211B48FDF707
:102F500047FF01211020FEF7B5FA02940020ADF8DA
:102F600014000C20ADF812000020ADF81000ADF8F0
:102F70000E00ADF80C0002A91148FEF77FFF0122F8
:102F800040F225510E48FEF753FF012240F2244142
:102F90000B48FEF74DFF25208DF8040001208DF829
:102FA00007008DF805008DF8060001A8FEF72EFA3F
:102FB00001210348FEF7F9FE08B010BD00000240F1
:102FC0000010014010B588B0044601210420FEF72E
:102FD00059FA00200690079002208DF81C0000206E
:102FE0008DF81E00C020069000208DF81F008DF87F
:102FF0001D0006A92348FDF7ABFE08220621214843
:10300000FDF7EEFE082207211E48FDF7E9FE01212B
:103010002020FEF757FA00200290039004900590BC
:103020000294ADF814000C20ADF812000020ADF8A9
:103030001000ADF80E00ADF80C0002A91248FEF722
:103040001DFF012240F225510F48FEF7F1FE01223B
:1030500040F224410C48FEF7EBFE47208DF80400B7
:1030600001208DF8070000208DF8050001208DF863
:10307000060001A8FEF7CAF901210348FEF795FEF4
:1030800008B010BD000802400014014010B504460D
:1030900000BF40210448FEF794FE0028F9D02146E5
:1030A0000148FEF75AFF10BD0014014070B50546F7
:1030B00000BF10210B48FDF7B6FE0028F9D100F043
:1030C00013F800240AE080202041284010B100F0CD
:1030D0001DF801E000F058F8601CC4B2082CF2DBC7
:1030E00070BD00000008024010B520210648FDF721
:1030F000A5FE0820FEF766FD20210348FDF79CFE93
:103100000120FEF75FFD10BD0008024010B5202130
:103110000748FDF793FE40F2DC50FEF783FD2021C7
:103120000348FDF789FE4FF4FA70FEF77BFD10BDF2
:10313000000802401CB500200090019001210420ED
:10314000FEF7A0F901208DF8040000208DF806009C
:103150002020009000208DF807008DF805006946BA
:103160000848FDF7F5FD00208DF8040010200090C0
:1031700069460448FDF7ECFD20210248FDF75CFE9E
:103180001CBD00000008024010B520210748FDF7D3
:1031900055FE4FF4FA70FEF745FD20210348FDF778
:1031A0004BFE40F2DC50FEF73DFD10BD0008024032
:1031B00070B50446002500BF02210B48FEF76AFBEC
:1031C0000028F9D021460848FEF770FB00BF012116
:1031D0000548FEF75FFB0028F9D00348FEF763FBC4
:1031E000C5B2284670BD00000030014010B504464D
:1031F00000F00AF910210E48FDF71EFED820FFF757
:10320000D7FFC4F30740FFF7D3FFC4F30720FFF74E
:10321000CFFFE0B2FFF7CCFF10210548FDF70EFE0F
:1032200000BFFFF701FE00F001000028F9D110BD3A
:103230000000024070B505460C4606E02846FFF740
:10324000D5FF05F58035601EC4B2002CF6D170BDE7
:103250001CB500F081F801210846FEF713F90120A2
:103260008DF8040000208DF806001020009000204A
:103270008DF8070002208DF8050069460448FDF727
:1032800067FD10210248FDF7D9FD00F0CDF81CBD07
:103290000000024070B504460D461646210A60192A
:1032A000401EB1EB102F01D0002070BD00F0ACF833
:1032B00010211448FDF7C0FD0220FFF779FFC4F389
:1032C0000740FFF775FFC4F30720FFF771FFE0B277
:1032D000FFF76EFF07E03078FFF76AFF681EC5B2A0
:1032E00005B901E0761CF6E700BF10210548FDF79F
:1032F000A5FD00BFFFF798FD00F001000028F9D1FF
:103300000120D2E70000024070B504460D46164683
:1033100010211048FDF790FD0320FFF749FFC4F38B
:103320000740FFF745FFC4F30720FFF741FFE0B276
:10333000FFF73EFF07E0FF20FFF73AFF30706D1EFA
:1033400005B901E0761CF6E700BF10210148FDF742
:1033500075FD70BD0000024000B587B00121084630
:10336000FEF790F802208DF8180000208DF81A0062
:10337000E020059000208DF81B0002208DF8190038
:1033800005A91F48FDF7E4FC052211461C48FDF77E
:1033900027FD052206211A48FDF722FD05220721F7
:1033A0001748FDF71DFD01210803FEF78BF81421D6
:1033B0006846FDF713F80020ADF80C00ADF80800E2
:1033C000ADF80600ADF80400ADF80000ADF80E0051
:1033D0004FF48270ADF802004FF40070ADF80A00AF
:1033E00069460848FEF764FA4FF480710548FEF715
:1033F0007DFA01210348FEF741FA07B000BD000045
:10340000000002400030014010B510210548FDF7D2
:1034100013FD0620FFF7CCFE10210248FDF70EFD3C
:1034200010BD00000000024010B5FFF7EDFF1021B5
:103430000A48FDF701FD0120FFF7BAFE0020FFF763
:10344000B7FE10210548FDF7F9FC00BFFFF7ECFCC3
:1034500000F001000028F9D110BD0000000002407A
:1034600010B5FFF757F90446012C0BD10649087037
:1034700006A0FCF705FF15216004FFF7DBFE0BA09B
:10348000FCF7FEFE10BD000008000020D5FDD4DAD8
:10349000B2C1B3FDB4E6B4A2D0BEC6AC2CC7EBB586
:1034A000C8B4FD2E2E2E0D0A00000000B2C1B3FDDF
:1034B000CDEAB3C92CC7EBC9D5C2BCD7D6BFE22E63
:1034C0002E2E0D0A000000004FF04070E1EE100AB1
:1034D00070470000F43400080000002030000000B5
:1034E000D0010008243500083000002098060000B4
:1034F000EC010008010000000000000000000000D6
:1035000000000200581F140000000000010101002B
:103510000001010100000000010203040102030494
:043520000607080989
:040000050800019559
:00000001FF
