:020000040800F2
:1000000088060020350200083D0200083F02000873
:1000100041020008430200084502000800000000F9
:10002000000000000000000000000000470200087F
:1000300049020008000000004B0200084D020008C1
:100040004F0200084F0200084F0200084F0200084C
:100050004F0200084F0200084F0200084F0200083C
:100060004F0200084F0200084F0200084F0200082C
:100070004F0200084F0200084F0200084F0200081C
:100080004F0200084F0200084F0200080000000065
:100090000000000000000000000000004F02000807
:1000A000D90800084F0200084F0200084F0200085C
:1000B0004F0200084F0200084F0200084F020008DC
:1000C0004F0200084F0200084F0200084F020008CC
:1000D0004F020008410A00084F020008000000001B
:1000E0004F0200084F0200084F0200080000000005
:1000F0000000000000000000000000004F020008A7
:10010000000000004F0200084F0200084F020008E4
:1001100000000000000000000000000000000000DF
:100120004F0200084F0200084F0200084F0200086B
:100130004F02000800000000000000000000000066
:100140000000000000000000000000004F02000856
:100150004F0200084F0200084F0200084F0200083B
:100160004F0200084F0200080000000000000000DD
:10017000000000000000000000000000000000007F
:10018000000000004F020008000000000000000016
:100190004F02000800F002F800F03CF80AA090E8D6
:1001A000000C82448344AAF10107DA4501D100F032
:1001B00031F8AFF2090EBAE80F0013F0010F18BFC3
:1001C000FB1A43F001031847EC1800000C1900005B
:1001D000103A24BF78C878C1FAD8520724BF30C873
:1001E00030C144BF04680C60704700000023002445
:1001F00000250026103A28BF78C1FBD8520728BF37
:1002000030C148BF0B6070471FB501F04DFC1FBDEA
:1002100010B510BD00F0C8F81146FFF7F5FF01F06A
:100220001BF900F0FAF803B4FFF7F2FF03BC00F08B
:1002300036FD00000948804709480047FEE7FEE711
:10024000FEE7FEE7FEE7FEE7FEE7FEE7FEE7FEE786
:1002500004480549054A064B70470000710800082C
:1002600095010008880000208806002088020020F0
:1002700088020020704700000FB4044910B503AA9B
:10028000029800F063F810BC5DF814FB0000002039
:1002900010B5203AC0F00B80B1E81850203AA0E821
:1002A0001850B1E81850A0E81850BFF4F5AF5FEA55
:1002B000027C24BFB1E81850A0E8185044BF18C908
:1002C00018C0BDE810405FEA827C24BF51F8043BAF
:1002D00040F8043B08BF7047D20728BF31F8023B03
:1002E00048BF11F8012B28BF20F8023B48BF00F897
:1002F000012B70474FF0000200B513469446964616
:10030000203922BFA0E80C50A0E80C50B1F1200128
:10031000BFF4F7AF090728BFA0E80C5048BF0CC0D6
:100320005DF804EB890028BF40F8042B08BF704734
:1003300048BF20F8022B11F0804F18BF00F8012BA6
:10034000704770477047704770470000074B70B5A3
:100350000D467B4400F011F80446284600F020F8D2
:1003600010B14FF0FF3070BD204670BDBF0D0000D2
:1003700001694A1C02610878704700B58FB0CDE969
:1003800001310021059105497944CDE90310114659
:10039000684600F02EF80FB000BD0000E5FFFFFF3B
:1003A000007B00F080007047754600F03FF8AE46D5
:1003B00005006946534620F00700854618B020B571
:1003C000FFF746FFBDE820404FF000064FF0000762
:1003D0004FF000084FF0000B21F00701AC46ACE8ED
:1003E000C009ACE8C009ACE8C009ACE8C0098D465A
:1003F00070472DE9F04106460024D6E90170F56802
:100400008046304603E04146B847641C3046A84762
:100410000028F8D12046BDE8F08110B50446AFF3BE
:1004200000802046BDE81040FFF7FDBE0048704741
:1004300024000020F0B50A4600210023002400BF5C
:100440003DE0012505FA01F3156805EA03049C4225
:1004500034D105684F000326BE40B54305601579C9
:100460004E00B5400668354305601579012D02D070
:100470001579022D16D185684F000326BE40B5437D
:10048000856055794E00B54086683543856045687E
:1004900001268E40B5434560456896798E40B6B2D8
:1004A00035434560C5684F000326BE40B543C5606F
:1004B000D5794E00B540C6683543C560491C102942
:1004C000BFD3F0BDF0B5002300244D07ED0E02FAB6
:1004D00005F3CE1000F1200555F826504E07F70E13
:1004E0000F26BE40B543CF1000F1200646F8275036
:1004F000CE1000F1200555F8265045EA0304CE1031
:1005000000F1200545F82640F0BD024600201369A1
:100510000B400BB1012000E0002070474183704781
:100520000183704770B5002100230F22C4781CB3EB
:10053000174C246804F4E064C4F5E064C4F30721B4
:10054000C1F10404E3B20A4144789C40E1B28478EA
:10055000144021430C07210E0E4C05786155047898
:1005600004F01F050124AC4005786D11AD0005F1C4
:10057000E025C5F8004109E0047804F01F050124D6
:10058000AC40054D0678761145F8264070BD000058
:100590000CED00E000E400E080E100E002490143EE
:1005A000024A1160704700000000FA050CED00E0FF
:1005B00029B1064A12680243044B1A6004E0034A58
:1005C00012688243014B1A607047000030380240C5
:1005D00029B1064A12680243044B1A6004E0034A38
:1005E00012688243014B1A60704700004038024095
:1005F00029B1064A12680243044B1A6004E0034A18
:1006000012688243014B1A60704700004438024070
:10061000F0B5002100220024022500260223324FDB
:100620003F6807F00C0121B1042905D0082937D112
:1006300005E02E4F076036E02D4F076033E02A4F6C
:100640003F1F3F68C7F38056274F3F1F3F6807F0A3
:100650003F036EB1264FB7FBF3F7DFF88CC0ACF168
:10066000040CDCF800C0CCF3881C07FB0CF40CE095
:100670001E4FB7FBF3F7DFF870C0ACF1040CDCF8E9
:1006800000C0CCF3881C07FB0CF4174F3F1F3F68DA
:10069000C7F301477F1C7D00B4FBF5F7076002E05C
:1006A000124F076000BF00BF0F4F3F6807F0F00117
:1006B0000909104F7A5C0768D74047600A4F3F68C6
:1006C00007F4E051890A0B4F7A5C4768D74087608E
:1006D000054F3F6807F46041490B064F7A5C476855
:1006E000D740C760F0BD0000083802400024F40085
:1006F00040787D011400002021B1028842F04002C0
:10070000028004E002884FF6BF731A4002807047EF
:100710000246002013890B400BB1012000E00020AD
:1007200070470146888970478181704710B5002263
:10073000028802F441520B884C8823438C8823435F
:10074000CC8823430C8923434C8923438C8923433E
:10075000CC8923431A430280838B4FF2FF742340DA
:1007600083830B8A038210BD4FF6FF62914204D04F
:10077000028842F48072028004E002884FF6FF6330
:100780001A400280704700000CB5002001900090D4
:100790003348006840F480303149086000BF304879
:1007A000006800F4003000900198401C019000980F
:1007B00018B90198B0F5A04FF1D12948006800F4AC
:1007C000003010B10120009001E00020009000985E
:1007D000012844D122484030006840F08050204930
:1007E000403108601F48006840F440401D490860DF
:1007F0001B48083000681A4908310860084600683C
:1008000008600846006840F4805008601648091FD8
:100810000860081F006840F08070091F086000BF72
:100820000F48006800F000700028F9D040F2027014
:100830000E4908600A480830006820F003000849A3
:10084000083108600846006840F00200086000BFF8
:1008500003480830006800F00C000828F8D10CBDEF
:10086000003802400070004019544107003C02402B
:1008700010B51548006840F470001349086013482B
:10088000006840F001001149086000200F4908315C
:1008900008600E4800680E4908400C4908600D4881
:1008A000091D0860081F006820F48020091F0860E7
:1008B000002006490C310860FFF766FF4FF000602A
:1008C00001498039086010BD88ED00E00038024021
:1008D000FFFFF6FE1030002410B50121174800F08C
:1008E00050F848B30121154800F033F81448007857
:1008F00001280DD113480088401C12490880084681
:100900000088B0F57A7F12DB00200D4908700EE0F8
:100910000B48007858B90B480088401E09490880E8
:1009200008460088002802DC0120054908700548B7
:100930000188054800F03FF810BD0000004001406C
:10094000120000201000002000080040CA4302826C
:100950007047CA430282704721B1028842F0010207
:10096000028004E002884FF6FE731A40028070474E
:1009700002460020138A0B400BB1012000E000204A
:10098000704730B50246002000230024158A05EA8E
:100990000103958905EA010413B10CB1012000E0BF
:1009A000002030BD02884FF6F7731A40028002889B
:1009B0000A430280704701647047000000220288E9
:1009C000184B98420ED0184B98420BD0B0F1804F84
:1009D00008D0164B984205D0154B984202D0154BC3
:1009E000984204D14FF68F731A404B881A43124B2A
:1009F000984207D0114B984204D04FF6FF431A405B
:100A00000B891A4302804B68C3620B880385054B30
:100A1000984202D0044B984201D18B7A038601237D
:100A20008382704700000140000401400004004040
:100A300000080040000C004000100040001400407E
:100A400008B540F22551204800F06BF800282FD05F
:100A500040F225511C4800F049F81C48007838B392
:100A60004FF480711A48FFF759FD174800F012F94A
:100A7000C0B200906A4601211648006800F038FFB5
:100A800014480068401C1349086013480068401E61
:100A9000114908600846006850B910A0FFF7ECFB48
:100AA0004FF480710A48FFF73BFD002007490870AA
:100AB00040F22441044800F034F818B1024800889C
:100AC0000148808808BD000000100140040000209B
:100AD00000040240080000200C000020D7D6BFE22E
:100AE000C9D5C2BCCDEAB3C9210D0A0010B5002298
:100AF000002340F66A14A14200D100BF0A1201246B
:100B00009440A3B2DC43048010BD21B1828942F439
:100B10000052828104E082894DF6FF731A4082817F
:100B2000704770B50246002400230025002040F6DF
:100B30006A16B14200D100BFC1F3421501F01F0394
:100B4000012606FA03F3012D02D19689334006E00F
:100B5000022D02D1168A334001E0968A33400C12EE
:100B6000012606FA04F41688344013B10CB10120B2
:100B700000E0002070BDF0B50346002400260025EB
:100B8000002040F66A17B94200D100BF1846C1F3F1
:100B9000421401F01F06012707FA06F5012C01D1C6
:100BA0000C3004E0022C01D1103000E014301AB1F6
:100BB00007682F43076002E00768AF430760F0BD96
:100BC0002DE9FF4705460E460024A14600BFA0467A
:100BD000B08900B100BF2C8A24F44054F08804434B
:100BE0002C82AC8941F20C608443B088318908437F
:100BF000718908430443AC81AC8A24F44074B08901
:100C00000443AC826846FFF703FD2048854202D0CA
:100C10001F48854202D1DDF80C9001E0DDF8089014
:100C2000A88900F4004040B109EBC90000EB0910AD
:100C300031684900B0FBF1F707E009EBC90000EBB0
:100C4000091031688900B0FBF1F76420B7FBF0F0C0
:100C500004012009642101FB1078A88900F40040F8
:100C600040B1322000EBC800B0FBF1F000F007000B
:100C7000044308E0322000EB08106421B0FBF1F0DF
:100C800000F00F0004432C81BDE8FF8700100140F5
:100C90000014014001468888C0F30800704700BF77
:100CA0007047000010B500241048006840F0800034
:100CB0000E4908600846006820F0400008600520E2
:100CC00000F0E0FC0948006840F040000749086077
:100CD000052000F0D7FC0548001F006800F08000E8
:100CE00000B900E00124204610BD000014040240B9
:100CF0001CB501210220FFF75BFC01208DF80400E8
:100D00008DF80600C020009000208DF807008DF8B7
:100D1000050069460548FFF78DFB40210348FFF7B2
:100D2000FFFB80210148FFF7FBFB1CBD00040240D4
:100D300070B51548006840F0800013490860002530
:100D40001DE01148006820F040000F4908600520B0
:100D500000F098FC0C48006840F040000A49086028
:100D6000052000F08FFC6006040E0748001F006895
:100D700000F0800008B144F00104681CC5B2082DE1
:100D8000DFDB204670BD00001404024010B50446AD
:100D90001248006820F0400010490860052000F06B
:100DA00071FC34B90D48006820F080000B490860E0
:100DB00007E0012C05D10948006840F08000074990
:100DC0000860052000F05EFC0448006840F0400028
:100DD00002490860052000F055FC10BD14040240D3
:100DE00070B50446002528E01548006820F0400052
:100DF00013490860052000F045FC04F0800030B184
:100E00000F48006840F080000D49086005E00C487C
:100E1000006820F080000A490860052000F032FCDC
:100E20000748006840F0400005490860052000F0D0
:100E300029FC6006040E681CC5B2082DD4DB70BD09
:100E40001404024010B51048006820F040000E491C
:100E50000860052000F016FC0B48006840F0800098
:100E6000094908600846006840F040000860052015
:100E700000F008FC0448006820F080000249086087
:100E8000052000F0FFFB10BD1404024010B510480F
:100E9000006820F040000E490860052000F0F2FBD9
:100EA0000B48006820F08000094908600846006887
:100EB00040F040000860052000F0E4FB04480068B2
:100EC00040F0800002490860052000F0DBFB10BD07
:100ED0001404024000B587B018220BA101A8FFF747
:100EE000D7F9FFF705FF0E48006840F001000C49F4
:100EF00008600C48006820F00C000A49086001A84E
:100F000000F0BAF807B000BD000083F3981010108D
:100F100010101010101010101010101050000000C1
:100F2000303802400000024010B5EE240C48006941
:100F300000F0020050B90B48007838B100F014F806
:100F40000446FF2C02D000200649087004480069BE
:100F500000F0020010B1012002490870204610BDC7
:100F6000000002401300002010B5FF24FFF76AFFC5
:100F7000A020FFF735FFFFF795FE18B1FFF786FFBA
:100F8000012010BD00BF3B48006800F04000002871
:100F9000F9D00820FFF724FFFFF784FE18B1FFF710
:100FA00075FF0220EDE700BF3248006800F0400006
:100FB0000028F9D0FFF746FFA120FFF711FFFFF748
:100FC00071FE18B1FFF762FF0320DAE700BF29487E
:100FD000006800F040000028F9D0FFF7A9FE0446A1
:100FE0000020FFF7D3FEFFF7A3FE44EA0024012010
:100FF000FFF7CCFEFFF74AFF402C2AD00EDC082C6E
:1010000029D006DC012C1AD0022C1ED0042C2ED1A3
:1010100027E0102C29D0202C29D120E0B4F5007F26
:1010200021D005DC802C0ED0B4F5807F1FD114E0D8
:10103000B4F5806F05D0B4F5006F18D107E031200A
:101040009FE732209DE733209BE7342099E7352046
:1010500097E7362095E7372093E7382091E7392046
:101060008FE72A208DE730208BE7232089E700BF18
:10107000FF2086E71004024070B504460026FFF703
:10108000E1FEA020FFF7ACFEFFF70CFE18B1FFF762
:10109000FDFE012070BD00BF1D48006800F040004B
:1010A0000028F9D0B020FFF79BFEFFF7FBFD18B139
:1010B000FFF7ECFE0220EDE700BF1548006800F0E6
:1010C00040000028F9D001251BE0162D03D1F0B215
:1010D000FFF786FE05E02078FFF782FE20780644C1
:1010E000641CFFF7DFFD18B1FFF7D0FE0320D1E746
:1010F00000BF0748006800F040000028F9D0681CD5
:10110000C5B2162DE1DDFFF7C1FE0020C2E70000E9
:101110001004024000BF054A128802F04002002A73
:10112000F9D0C2B2014B9A80704700000010014014
:101130001CB500200090019001210420FFF738FA2F
:1011400000208DF804004FF40050009069460248DA
:10115000FFF770F91CBD00000008024070B505469D
:101160002A2000F013FA002000F040FAEF2000F0EF
:101170003DFA2B2000F00AFA002000F037FAEF20A9
:1011800000F034FA2C2000F001FA002403E0284695
:1011900000F02CFA641CB4F5614FF8D370BD000068
:1011A00010B500F0C3F800F011F900F0DDF93620B9
:1011B00000F0ECF9002000F001FA3A2000F0E6F926
:1011C000052000F0FBF9B22000F0E0F90C2000F05F
:1011D000F5F90C2000F0F2F9002000F0EFF93320CF
:1011E00000F0ECF9332000F0E9F9B72000F0CEF977
:1011F000352000F0E3F9BB2000F0C8F9192000F019
:10120000DDF9C02000F0C2F92C2000F0D7F9C2208F
:1012100000F0BCF9012000F0D1F9C32000F0B6F9CC
:10122000122000F0CBF9C42000F0B0F9202000F02B
:10123000C5F9C62000F0AAF90F2000F0BFF9D020B0
:1012400000F0A4F9A42000F0B9F9A12000F0B6F94B
:10125000E02000F09BF9D02000F0B0F9042000F06D
:10126000ADF90D2000F0AAF9112000F0A7F9132024
:1012700000F0A4F92B2000F0A1F93F2000F09EF926
:10128000542000F09BF94C2000F098F9182000F051
:1012900095F90D2000F092F90B2000F08FF91F2036
:1012A00000F08CF9232000F089F9E12000F06EF9BC
:1012B000D02000F083F9042000F080F90C2000F029
:1012C0007DF9112000F07AF9132000F077F92C2035
:1012D00000F074F93F2000F071F9442000F06EF93D
:1012E000512000F06BF92F2000F068F91F2000F06A
:1012F00065F91F2000F062F9202000F05FF923203B
:1013000000F05CF9212000F041F9112000F03EF9D5
:10131000292000F03BF902210348FFF701F90020E2
:10132000FFF71CFF10BD0000000402401CB50121A6
:101330000220FFF73DF945F20240009001208DF8B0
:10134000040000208DF806008DF807006946064865
:10135000FFF770F802210448FFF7E0F84FF48051DE
:101360000148FFF7DDF81CBD0004024070B50446DB
:101370004FF400511448FFF7D1F84FF400411248E0
:10138000FFF7CEF800251BE04FF400510E48FFF7A1
:10139000C5F804F0800028B14FF400410A48FFF777
:1013A000BFF804E04FF400410748FFF7B7F84FF4E7
:1013B00000510548FFF7B4F86006040E681CC5B27A
:1013C000082DE1DB70BD0000000402401CB50121C6
:1013D0000220FFF7EDF80020009001904FF420402C
:1013E000009001208DF8040000208DF806008DF893
:1013F000070002208DF8050069460248FFF71AF839
:101400001CBD0000000402401CB5002000900190AB
:1014100001210220FFF7CCF801208DF80400002004
:101420008DF806004FF44070009000208DF8070002
:1014300002208DF8050069460648FEF7FBFF4FF4D1
:1014400080710448FFF76CF84FF400710148FFF712
:1014500067F81CBD000402404FF4E13000F040F991
:1014600000F024FAFFF764FEFFF7CEFF00F0E0F98A
:10147000FFF796FEFFF72EFD1E2000F095F945E0E0
:10148000FFF752FD0446A4F1230017283DD2DFE800
:1014900000F0383C3C3C3C3C3C303C3C3C3C3C342C
:1014A0000C1014181C2024282C0019A0FEF7E4FEB0
:1014B0002BE018A0FEF7E0FE27E017A0FEF7DCFE09
:1014C00023E016A0FEF7D8FE1FE015A0FEF7D4FE1D
:1014D0001BE014A0FEF7D0FE17E013A0FEF7CCFE31
:1014E00013E012A0FEF7C8FE0FE011A0FEF7C4FE45
:1014F0000BE010A0FEF7C0FE07E00FA0FEF7BCFE59
:1015000003E00EA0FEF7B8FE00BF00BFB8E7000082
:10151000310D0A00320D0A00330D0A00340D0A00A5
:10152000350D0A00360D0A00370D0A00380D0A0085
:10153000390D0A002A0D0A00300D0A00230D0A0099
:1015400010B510210748FEF7E9FF052000F00AFA60
:10155000FF2000F007FA044610210248FEF7E0FFE2
:10156000204610BD0000024010B54FF480610648CF
:10157000FEF7D4FF642000F053F84FF48061024876
:10158000FEF7CEFF10BD00000004024010B5044677
:101590004FF480510848FEF7C1FF4FF480410648E0
:1015A000FEF7BCFF2046FFF7E1FE4FF480510248F2
:1015B000FEF7B6FF10BD00000004024010B504465F
:1015C0004FF480510848FEF7A9FF4FF480410648C8
:1015D000FEF7A6FF2046FFF7C9FE4FF480510248F0
:1015E000FEF79EFF10BD00000004024010B5044647
:1015F0004FF480510948FEF791FF4FF480410748AE
:10160000FEF78EFF2012FFF7B1FEE0B2FFF7AEFE4D
:101610004FF480510148FEF783FF10BD00040240E3
:101620003EB5044601210820FEF7D2FF00200090BD
:1016300001900290ADF80800ADF8020004EB8400C0
:101640000121C1EB4000019042F2CF00ADF8000053
:1016500069460B48FFF7B2F908210948FFF7A2F9DC
:1016600001210748FFF772F901210548FFF774F9D6
:1016700000BF01210248FFF77BF90028F9D03EBDE9
:10168000000C00403EB5044601210820FEF7A0FFF3
:101690000020009001900290ADF80800ADF8020023
:1016A000601E01905320ADF8000069460B48FFF71B
:1016B00085F908210948FFF775F901210748FFF767
:1016C00045F901210548FFF747F900BF012103480B
:1016D000FFF74EF90028F9D03EBD0000000C004095
:1016E00010B588B0044601210846FEF761FF0020CE
:1016F0000690079002208DF81C0000208DF81E0037
:101700004FF4C060069000208DF81F008DF81D007A
:1017100006A92348FEF78EFE072209212048FEF77E
:10172000D1FE07220A211E48FEF7CCFE012110201F
:10173000FEF75EFF02940020ADF814000C20ADF817
:1017400012000020ADF81000ADF80E00ADF80C004E
:1017500002A91448FFF734FA012240F2255111483A
:10176000FFF709FA012240F224410E48FFF703FA7D
:101770004FF4A060FEF712FF25208DF80400012031
:101780008DF807008DF805008DF8060001A8FEF71A
:10179000C9FE01210348FFF7B8F908B010BD0000E9
:1017A000000002400010014070B5054600BF102146
:1017B0000B48FEF7AAFE0028F9D100F013F8002428
:1017C0000AE080202041284010B100F01DF801E01F
:1017D00000F058F8601CC4B2082CF2DB70BD0000A9
:1017E0000008024010B520210648FEF799FE0820A7
:1017F000FFF716FF20210348FEF790FE0120FFF7B8
:101800000FFF10BD0008024010B520210748FEF769
:1018100087FE40F2DC50FFF735FF20210348FEF73A
:101820007DFE4FF4FA70FFF72DFF10BD0008024057
:101830001CB500200090019001210420FEF7B8FEA5
:1018400001208DF8040000208DF806002020009073
:1018500000208DF807008DF8050069460848FEF75E
:10186000E9FD00208DF8040010200090694604482E
:10187000FEF7E0FD20210248FEF750FE1CBD0000EF
:101880000008024010B520210748FEF749FE4FF43A
:10189000FA70FFF7F7FE20210348FEF73FFE40F203
:1018A000DC50FFF7EFFE10BD000802401CB500F051
:1018B00077F801210846FEF77BFE01208DF8040031
:1018C00000208DF806001020009000208DF8070001
:1018D00002208DF8050069460448FEF7ABFD102193
:1018E0000248FEF71DFE00F0C3F81CBD00000240D8
:1018F00070B504460D461646210A6019401EB1EB2C
:10190000102F01D0002070BD00F0A2F81021144863
:10191000FEF704FE022000F025F8C4F3074000F0B3
:1019200021F8C4F3072000F01DF8E0B200F01AF827
:1019300007E0307800F016F8681EC5B205B901E07E
:10194000761CF6E700BF10210548FEF7E9FD00BF51
:10195000FFF7F6FD00F001000028F9D10120D2E7E1
:101960000000024070B50446002500BF02210B486C
:10197000FEF7CEFE0028F9D021460848FEF7D4FE37
:1019800000BF01210548FEF7C3FE0028F9D0034837
:10199000FEF7C7FEC5B2284670BD0000003001400A
:1019A00000B587B001210846FEF702FE02208DF83F
:1019B000180000208DF81A00E020059000208DF816
:1019C0001B0002208DF8190005A91F48FEF732FD03
:1019D000052211461C48FEF775FD052206211A480E
:1019E000FEF770FD052207211748FEF76BFD012168
:1019F0000803FEF7FDFD14216846FEF77BFC00207E
:101A0000ADF80C00ADF80800ADF80600ADF8040024
:101A1000ADF80000ADF80E004FF48270ADF8020092
:101A20004FF40070ADF80A0069460848FEF77EFEE4
:101A30004FF480710548FEF797FE01210348FEF739
:101A40005BFE07B000BD0000000002400030014016
:101A500010B510210548FEF761FD0620FFF782FF53
:101A600010210248FEF75CFD10BD0000000002409E
:101A700010B5FFF7EDFF10210A48FEF74FFD0120DA
:101A8000FFF770FF0020FFF76DFF10210548FEF7FC
:101A900047FD00BFFFF754FD00F001000028F9D119
:101AA00010BD0000000002404FF04070E1EE100A4F
:101AB00070470000D41A0008000000202400000035
:101AC000D0010008F81A0008240000206406000075
:101AD000EC01000800000000000000000000000011
:101AE000581F14000000010100000000010203045F
:081AF0000102030406070809C6
:040000050800019559
:00000001FF
