:020000040800F2
:1000000068060020350200083D0200083F02000893
:1000100041020008430200084502000800000000F9
:10002000000000000000000000000000470200087F
:1000300049020008000000004B0200084D020008C1
:100040004F0200084F0200084F0200084F0200084C
:100050004F0200084F0200084F0200084F0200083C
:100060004F0200084F0200084F0200084F0200082C
:100070004F0200084F0200084F0200084F0200081C
:100080004F0200084F0200084F0200080000000065
:100090000000000000000000000000004F02000807
:1000A0004F0200084F0200084F0200084F020008EC
:1000B0004F0200084F0200084F0200084F020008DC
:1000C0004F0200084F0200084F0200084F020008CC
:1000D0004F0200084F0200084F0200080000000015
:1000E0004F0200084F0200084F0200080000000005
:1000F0000000000000000000000000004F020008A7
:10010000000000004F0200084F0200084F020008E4
:1001100000000000000000000000000000000000DF
:100120004F0200084F0200084F0200084F0200086B
:100130004F02000800000000000000000000000066
:100140000000000000000000000000004F02000856
:100150004F0200084F0200084F0200084F0200083B
:100160004F0200084F0200080000000000000000DD
:10017000000000000000000000000000000000007F
:10018000000000004F020008000000000000000016
:100190004F02000800F002F800F03CF80AA090E8D6
:1001A000000C82448344AAF10107DA4501D100F032
:1001B00031F8AFF2090EBAE80F0013F0010F18BFC3
:1001C000FB1A43F001031847CC040000EC040000C4
:1001D000103A24BF78C878C1FAD8520724BF30C873
:1001E00030C144BF04680C60704700000023002445
:1001F00000250026103A28BF78C1FBD8520728BF37
:1002000030C148BF0B6070471FB500F03DFA1FBDFD
:1002100010B510BD00F031F81146FFF7F5FF00F002
:1002200003FA00F04FF803B4FFF7F2FF03BC00F04D
:1002300057F800000948804709480047FEE7FEE7F5
:10024000FEE7FEE7FEE7FEE7FEE7FEE7FEE7FEE786
:1002500004480549054A064B70470000A104000800
:100260009501000868000020680600206802002050
:1002700068020020704770477047754600F02CF800
:10028000AE4605006946534620F00700854618B083
:1002900020B5FFF7DDFFBDE820404FF000064FF02E
:1002A00000074FF000084FF0000B21F00701AC46AB
:1002B000ACE8C009ACE8C009ACE8C009ACE8C009CA
:1002C0008D46704710B50446AFF300802046BDE868
:1002D0001040FFF7A8BF000000487047040000204E
:1002E00001491820ABBEFEE7260002007047F0B5BA
:1002F0000A4600210023002400BF3DE0012505FA45
:1003000001F3156805EA03049C4234D105684F00E7
:100310000326BE40B543056015794E00B54006681A
:10032000354305601579012D02D01579022D16D1BE
:1003300085684F000326BE40B543856055794E0061
:10034000B540866835438560456801268E40B543D3
:100350004560456896798E40B6B235434560C568BC
:100360004F000326BE40B543C560D5794E00B54069
:10037000C6683543C560491C1029BFD3F0BD02468D
:10038000002013690B400BB1012000E000207047F2
:10039000418370470183704729B1064A12680243BE
:1003A000044B1A6004E0034A12688243014B1A604E
:1003B00070470000303802400CB5002001900090DA
:1003C0003348006840F480303149086000BF30484D
:1003D000006800F4003000900198401C01900098E3
:1003E00018B90198B0F5A04FF1D12948006800F480
:1003F000003010B10120009001E000200090009832
:10040000012844D122484030006840F08050204903
:10041000403108601F48006840F440401D490860B2
:100420001B48083000681A4908310860084600680F
:1004300008600846006840F4805008601648091FAC
:100440000860081F006840F08070091F086000BF46
:100450000F48006800F000700028F9D040F20270E8
:100460000E4908600A480830006820F00300084977
:10047000083108600846006840F00200086000BFCC
:1004800003480830006800F00C000828F8D10CBDC3
:10049000003802400070004019544107003C0240FF
:1004A00010B51548006840F47000134908601348FF
:1004B000006840F001001149086000200F49083130
:1004C00008600E4800680E4908400C4908600D4855
:1004D000091D0860081F006820F48020091F0860BB
:1004E000002006490C310860FFF766FF4FF00060FE
:1004F00001498039086010BD88ED00E000380240F5
:10050000FFFFF6FE1030002410B508210948FFF760
:100510003FFF10210748FFF73DFF4FF4967000F0B2
:1005200015F808210348FFF735FF10210148FFF7B0
:1005300031FF10BD00040240014645F2082201FBD4
:1005400002F000E0401E0028FCD17047014645F251
:10055000082201FB02F000E0401E0028FCD1704799
:100560001CB500200090019001210220FFF714FF2C
:1005700001208DF8040000208DF80600182000905E
:1005800000208DF807008DF8050069460548FFF743
:10059000AEFE08210348FFF7FDFE10210148FFF7DA
:1005A000F9FE1CBD000402401CB500200090019023
:1005B00001210420FFF7F0FE00208DF804004FF425
:1005C0000050009000208DF8070069460148FFF7B1
:1005D0008EFE1CBD0008024010B5FF244FF40051F0
:1005E0000F48FFF7CCFE78B90E48007860B10A20BA
:1005F000FFF7A2FF4FF400510948FFF7C0FE18B9FA
:1006000000200849087001244FF400510448FFF706
:10061000B6FE10B1012003490870204610BD00004D
:1006200000080240000000200025FFF7BDFFFFF793
:1006300097FF0FE0FFF7D0FF0446012C0AD105B960
:1006400000E000200546012D02D100F005F801E090
:10065000FFF75AFFEEE7000010B508210948FFF741
:1006600099FE10210748FFF793FE4FF49670FFF7AD
:100670006DFF08210348FFF78DFE10210148FFF7A9
:1006800089FE10BD000402404FF04070E1EE100AF8
:1006900070470000B40600080000002004000000BD
:1006A000D0010008B806000804000020640600001D
:0806B000EC010008010000004C
:040000050800019559
:00000001FF
