:020000040800F2
:1000000088060020350200083D0200083F02000873
:1000100041020008430200084502000800000000F9
:10002000000000000000000000000000470200087F
:1000300049020008000000004B0200084D020008C1
:100040004F0200084F0200084F0200084F0200084C
:100050004F0200084F0200084F0200084F0200083C
:100060004F0200084F0200084F0200084F0200082C
:100070004F0200084F0200084F0200084F0200081C
:100080004F0200084F0200084F0200080000000065
:100090000000000000000000000000004F02000807
:1000A000750800084F0200084F0200084F020008C0
:1000B0004F0200084F0200084F0200084F020008DC
:1000C0004F0200084F0200084F0200084F020008CC
:1000D0004F020008DD0900084F0200080000000080
:1000E0004F0200084F0200084F0200080000000005
:1000F0000000000000000000000000004F020008A7
:10010000000000004F0200084F0200084F020008E4
:1001100000000000000000000000000000000000DF
:100120004F0200084F0200084F0200084F0200086B
:100130004F02000800000000000000000000000066
:100140000000000000000000000000004F02000856
:100150004F0200084F0200084F0200084F0200083B
:100160004F0200084F0200080000000000000000DD
:10017000000000000000000000000000000000007F
:10018000000000004F020008000000000000000016
:100190004F02000800F002F800F03CF80AA090E8D6
:1001A000000C82448344AAF10107DA4501D100F032
:1001B00031F8AFF2090EBAE80F0013F0010F18BFC3
:1001C000FB1A43F00103184778150000981500004A
:1001D000103A24BF78C878C1FAD8520724BF30C873
:1001E00030C144BF04680C60704700000023002445
:1001F00000250026103A28BF78C1FBD8520728BF37
:1002000030C148BF0B6070471FB501F093FA1FBDA6
:1002100010B510BD00F096F81146FFF7F5FF00F09D
:10022000C9FF00F0C8F803B4FFF7F2FF03BC00F009
:1002300004FD00000948804709480047FEE7FEE743
:10024000FEE7FEE7FEE7FEE7FEE7FEE7FEE7FEE786
:1002500004480549054A064B704700000D08000890
:1002600095010008880000208806002088020020F0
:1002700088020020704700000FB4044910B503AA9B
:10028000029800F031F810BC5DF814FB0400002067
:100290004FF0000200B5134694469646203922BF1F
:1002A000A0E80C50A0E80C50B1F12001BFF4F7AF6A
:1002B000090728BFA0E80C5048BF0CC05DF804EB4C
:1002C000890028BF40F8042B08BF704748BF20F8BA
:1002D000022B11F0804F18BF00F8012B70477047B8
:1002E0007047704770470000074B70B50D467B4460
:1002F00000F011F80446284600F020F810B14FF045
:10030000FF3070BD204670BD6309000001694A1CC2
:1003100002610878704700B58FB0CDE90131002146
:10032000059105497944CDE903101146684600F06E
:100330002EF80FB000BD0000E5FFFFFF007B00F0CE
:1003400080007047754600F03FF8AE4605006946EC
:10035000534620F00700854618B020B5FFF778FF18
:10036000BDE820404FF000064FF000074FF00008B6
:100370004FF0000B21F00701AC46ACE8C009ACE837
:10038000C009ACE8C009ACE8C0098D4670472DE94A
:10039000F04106460024D6E90170F56880463046F3
:1003A00003E04146B847641C3046A8470028F8D10E
:1003B0002046BDE8F08110B50446AFF3008020462A
:1003C000BDE81040FFF72FBF00487047280000200D
:1003D000F0B50A4600210023002400BF3DE00125BE
:1003E00005FA01F3156805EA03049C4234D1056857
:1003F0004F000326BE40B543056015794E00B54059
:100400000668354305601579012D02D01579022D56
:1004100016D185684F000326BE40B54385605579E7
:100420004E00B540866835438560456801268E409C
:10043000B5434560456896798E40B6B23543456010
:10044000C5684F000326BE40B543C560D5794E0050
:10045000B540C6683543C560491C1029BFD3F0BDFF
:10046000F0B5002300244D07ED0E02FA05F3CE107F
:1004700000F1200555F826504E07F70E0F26BE4016
:10048000B543CF1000F1200646F82750CE1000F1FA
:10049000200555F8265045EA0304CE1000F120054A
:1004A00045F82640F0BD0246002013690B400BB111
:1004B000012000E0002070474183704701837047AE
:1004C00070B5002100230F22C4781CB3174C246898
:1004D00004F4E064C4F5E064C4F30721C1F104044A
:1004E000E3B20A4144789C40E1B28478144021434D
:1004F0000C07210E0E4C05786155047804F01F0599
:100500000124AC4005786D11AD0005F1E025C5F87A
:10051000004109E0047804F01F050124AC40054DBA
:100520000678761145F8264070BD00000CED00E01D
:1005300000E400E080E100E002490143024A11606A
:10054000704700000000FA050CED00E029B1064AF2
:1005500012680243044B1A6004E0034A12688243A3
:10056000014B1A60704700003038024029B1064A3A
:1005700012680243044B1A6004E0034A1268824383
:10058000014B1A60704700004038024029B1064A0A
:1005900012680243044B1A6004E0034A1268824363
:1005A000014B1A607047000044380240F0B500214A
:1005B00000220024022500260223324F3F6807F064
:1005C0000C0121B1042905D0082937D105E02E4FAF
:1005D000076036E02D4F076033E02A4F3F1F3F682A
:1005E000C7F38056274F3F1F3F6807F03F036EB1A8
:1005F000264FB7FBF3F7DFF88CC0ACF1040CDCF846
:1006000000C0CCF3881C07FB0CF40CE01E4FB7FBBA
:10061000F3F7DFF870C0ACF1040CDCF800C0CCF3E9
:10062000881C07FB0CF4174F3F1F3F68C7F30147B7
:100630007F1C7D00B4FBF5F7076002E0124F0760F6
:1006400000BF00BF0F4F3F6807F0F0010909104FCE
:100650007A5C0768D74047600A4F3F6807F4E0516B
:10066000890A0B4F7A5C4768D7408760054F3F681F
:1006700007F46041490B064F7A5C4768D740C76072
:10068000F0BD0000083802400024F40040787D01ED
:100690001700002021B1028842F04002028004E0ED
:1006A00002884FF6BF731A4002807047024600204E
:1006B00013890B400BB1012000E000207047014678
:1006C000888970478181704710B50022028802F442
:1006D00041520B884C8823438C882343CC88234386
:1006E0000C8923434C8923438C892343CC8923439E
:1006F0001A430280838B4FF2FF74234083830B8A5B
:10070000038210BD4FF6FF62914204D0028842F48A
:100710008072028004E002884FF6FF631A40028074
:10072000704700000CB5002001900090334800682D
:1007300040F480303149086000BF3048006800F460
:10074000003000900198401C0190009818B9019861
:10075000B0F5A04FF1D12948006800F4003010B185
:100760000120009001E0002000900098012844D171
:1007700022484030006840F08050204940310860F5
:100780001F48006840F440401D4908601B4808307D
:1007900000681A4908310860084600680860084681
:1007A000006840F4805008601648091F0860081F60
:1007B000006840F08070091F086000BF0F480068A3
:1007C00000F000700028F9D040F202700E49086075
:1007D0000A480830006820F0030008490831086022
:1007E0000846006840F00200086000BF0348083077
:1007F000006800F00C000828F8D10CBD0038024059
:100800000070004019544107003C024010B51548E3
:10081000006840F47000134908601348006840F015
:1008200001001149086000200F49083108600E4896
:1008300000680E4908400C4908600D48091D086011
:10084000081F006820F48020091F08600020064966
:100850000C310860FFF766FF4FF0006001498039F6
:10086000086010BD88ED00E000380240FFFFF6FE92
:100870001030002410B50121174800F050F848B39B
:100880000121154800F033F81448007801280DD1F3
:1008900013480088401C1249088008460088B0F5BB
:1008A0007A7F12DB00200D4908700EE00B480078BB
:1008B00058B90B480088401E09490880084600883E
:1008C000002802DC01200549087005480188054818
:1008D00000F03FF810BD000000400140160000206D
:1008E0001400002000080040CA4302827047CA4337
:1008F0000282704721B1028842F00102028004E0C6
:1009000002884FF6FE731A400280704702460020AC
:10091000138A0B400BB1012000E00020704730B576
:100920000246002000230024158A05EA0103958968
:1009300005EA010413B10CB1012000E0002030BD34
:1009400002884FF6F7731A40028002880A43028039
:10095000704701647047000000220288184B9842DB
:100960000ED0184B98420BD0B0F1804F08D0164BE8
:10097000984205D0154B984202D0154B984204D1AD
:100980004FF68F731A404B881A43124B984207D088
:10099000114B984204D04FF6FF431A400B891A437B
:1009A00002804B68C3620B880385054B984202D0D6
:1009B000044B984201D18B7A0386012383827047CE
:1009C0000000014000040140000400400008004015
:1009D000000C0040001000400014004008B540F238
:1009E0002551204800F06BF800282FD040F2255107
:1009F0001C4800F049F81C48007838B34FF4807167
:100A00001A48FFF759FD174800F012F9C0B20090DC
:100A10006A4601211648006800F054FD1448006839
:100A2000401C1349086013480068401E11490860C3
:100A30000846006850B910A0FFF71EFC4FF4807103
:100A40000A48FFF73BFD00200749087040F22441A7
:100A5000044800F034F818B1024800880148808842
:100A600008BD000000100140080000200004024002
:100A70000C00002010000020D7D6BFE2C9D5C2BCB0
:100A8000CDEAB3C9210D0A0010B50022002340F6BB
:100A90006A14A14200D100BF0A1201249440A3B2FB
:100AA000DC43048010BD21B1828942F4005282816E
:100AB00004E082894DF6FF731A408281704770B559
:100AC0000246002400230025002040F66A16B142A9
:100AD00000D100BFC1F3421501F01F03012606FA41
:100AE00003F3012D02D19689334006E0022D02D195
:100AF000168A334001E0968A33400C12012606FA2A
:100B000004F41688344013B10CB1012000E0002039
:100B100070BDF0B50346002400260025002040F6F5
:100B20006A17B94200D100BF1846C1F3421401F060
:100B30001F06012707FA06F5012C01D10C3004E04D
:100B4000022C01D1103000E014301AB107682F4395
:100B5000076002E00768AF430760F0BD2DE9FF477B
:100B600005460E460024A14600BFA046B08900B14C
:100B700000BF2C8A24F44054F08804432C82AC89B2
:100B800041F20C608443B08831890843718908437D
:100B90000443AC81AC8A24F44074B0890443AC8231
:100BA0006846FFF703FD2048854202D01F48854272
:100BB00002D1DDF80C9001E0DDF80890A88900F47E
:100BC000004040B109EBC90000EB09103168490051
:100BD000B0FBF1F707E009EBC90000EB0910316841
:100BE0008900B0FBF1F76420B7FBF0F004012009A5
:100BF000642101FB1078A88900F4004040B1322044
:100C000000EBC800B0FBF1F000F00700044308E07F
:100C1000322000EB08106421B0FBF1F000F00F006F
:100C200004432C81BDE8FF870010014000140140FF
:100C300001468888C0F30800704700BF704745F23E
:100C4000082200FB02F100BF0A1EA1F10101FBD145
:100C50007047000000BF054A128802F04002002AD7
:100C6000F9D0C2B2014B9A807047000000100140D9
:100C70001CB500200090019001210420FFF766FCC4
:100C800000208DF804004FF400500090694602489F
:100C9000FFF79EFB1CBD00000008024010B54FF49A
:100CA00000510C48FFF7FFFB10B10B48007860B90A
:100CB0000A20FFF7C4FF4FF400510648FFF7F3FB8B
:100CC00030B901200449087010BD002002490870A5
:100CD0000020F9E7000802400000002070B505463A
:100CE0002A2000F0BBFA002000F0E8FAEF2000F024
:100CF000E5FA2B2000F0B2FA002000F0DFFAEF2036
:100D000000F0DCFA2C2000F0A9FA002403E02846C9
:100D100000F0D4FA641CB4F5614FF8D370BD70B51F
:100D200006460C4615462A2000F098FA304600F098
:100D3000C5FA304600F0C2FA2B2000F08FFA2046A8
:100D400000F0BCFA204600F0B9FA2C2000F086FA38
:100D5000284600F0B3FA70BD2DE9F84305460E466B
:100D600014469846089F28E02078002814DB207855
:100D70007F2811DC0097227843463146284600F050
:100D800021F8641C05F1100085B2E02D15DB00256B
:100D900006F1200086B210E043462246314628463E
:100DA000009700F053F8A41C05F1200085B2D02D67
:100DB00003DB002506F1200086B220780028D3D17D
:100DC000BDE8F8832DE9F04F91B006460F469046F6
:100DD0009946402101A8FFF75BFA404600F0FF0A60
:100DE00040F6060101EB8A1001AA402100F0A4FBA5
:100DF000002425E06000401C01A9085C01AA12F84B
:100E0000141040EA012B002516E04FF40040284161
:100E100000EA0B0038B13A1991B2721990B24A4601
:100E2000FFF77DFF06E03A1991B2721990B21A9A53
:100E3000FFF775FF681CC5B2102DE6DB601CC4B25D
:100E4000202CD7DB11B0BDE8F08F00002DE9F04F6A
:100E5000A1B006460F4690469946802101A8FFF7AB
:100E600017FA98F80100A13898F80010A139C1EBE1
:100E7000011202EB411100EB410A1F4901EBCA10BC
:100E800001AA802100F058FB002430E001A911F8EC
:100E900024000106A000401C01AA105C41EA0041A8
:100EA000A000801C105C41EA0020A100C91C515C1C
:100EB00040EA010B002516E04FF00040E84000EA50
:100EC0000B0038B13A1991B2721990B24A46FFF745
:100ED00026FF06E03A1991B2721990B22A9AFFF7EA
:100EE0001EFF681CC5B2202DE6DB601CC4B2202C9E
:100EF000CCDB21B0BDE8F08F5226040010B500F025
:100F0000C3F800F011F900F097F9362000F0A6F9C7
:100F1000002000F0BBF93A2000F0A0F9052000F015
:100F2000B5F9B22000F09AF90C2000F0AFF90C20CE
:100F300000F0ACF9002000F0A9F9332000F0A6F988
:100F4000332000F0A3F9B72000F088F9352000F035
:100F50009DF9BB2000F082F9192000F097F9C0201C
:100F600000F07CF92C2000F091F9C22000F076F915
:100F7000012000F08BF9C32000F070F9122000F07E
:100F800085F9C42000F06AF9202000F07FF9C6201E
:100F900000F064F90F2000F079F9D02000F05EF93C
:100FA000A42000F073F9A12000F070F9E02000F017
:100FB00055F9D02000F06AF9042000F067F90D20FF
:100FC00000F064F9112000F061F9132000F05EF9DF
:100FD0002B2000F05BF93F2000F058F9542000F07E
:100FE00055F94C2000F052F9182000F04FF90D206F
:100FF00000F04CF90B2000F049F91F2000F046F9F1
:10100000232000F043F9E12000F028F9D02000F07F
:101010003DF9042000F03AF90C2000F037F91120D6
:1010200000F034F9132000F031F92C2000F02EF9F3
:101030003F2000F02BF9442000F028F9512000F067
:1010400025F92F2000F022F91F2000F01FF91F20A2
:1010500000F01CF9202000F019F9232000F016F907
:10106000212000F0FBF8112000F0F8F8292000F012
:10107000F5F802210348FFF721FA0020FFF72EFEC2
:1010800010BD0000000402401CB501210220FFF742
:101090005DFA45F20240009001208DF80400002026
:1010A0008DF806008DF8070069460648FFF790F9AD
:1010B00002210448FFF700FA4FF480510148FFF77E
:1010C000FDF91CBD0004024070B504464FF4005108
:1010D0001448FFF7F1F94FF400411248FFF7EEF919
:1010E00000251BE04FF400510E48FFF7E5F904F02E
:1010F000800028B14FF400410A48FFF7DFF904E00F
:101100004FF400410748FFF7D7F94FF40051054865
:10111000FFF7D4F96006040E681CC5B2082DE1DBA8
:1011200070BD0000000402401CB501210220FFF741
:101130000DFA0020009001904FF420400090012013
:101140008DF8040000208DF806008DF807000220BD
:101150008DF8050069460248FFF73AF91CBD00000A
:10116000000402401CB500200090019001210220E3
:10117000FFF7ECF901208DF8040000208DF806003F
:101180004FF44070009000208DF8070002208DF889
:10119000050069460648FFF71BF94FF480710448C3
:1011A000FFF78CF94FF400710148FFF787F91CBD78
:1011B0000004024008B54FF4E13000F0CBF800F035
:1011C0005FF9FFF755FDFFF7CDFFFFF797FE00F042
:1011D0007DFA4FF6FF704FF4784307A2322100905A
:1011E0000846FFF7B9FD06E006A0FFF745F84FF403
:1011F0007A7000F07DF8F7E768656C6C6F20CAC004
:10120000BDE70000BDF8C8EB7768696C650D0A00A2
:1012100010B510210748FFF74FF9052000F0B4F989
:10122000FF2000F0B1F9044610210248FFF746F90B
:10123000204610BD0000024010B54FF48061064802
:10124000FFF73AF9642000F053F84FF48061024848
:10125000FFF734F910BD00000004024010B5044649
:101260004FF480510848FFF727F94FF480410648B2
:10127000FFF722F92046FFF727FF4FF4805102487D
:10128000FFF71CF910BD00000004024010B5044631
:101290004FF480510848FFF70FF94FF4804106489A
:1012A000FFF70CF92046FFF70FFF4FF4805102487B
:1012B000FFF704F910BD00000004024010B5044619
:1012C0004FF480510948FFF7F7F84FF48041074881
:1012D000FFF7F4F82012FFF7F7FEE0B2FFF7F4FE95
:1012E0004FF480510148FFF7E9F810BD00040240B7
:1012F0003EB5044601210820FFF738F90020009090
:1013000001900290ADF80800ADF8020004EB8400F3
:101310000121C1EB4000019042F2CF00ADF8000086
:1013200069460B48FFF718FB08210948FFF708FB3F
:1013300001210748FFF7D8FA01210548FFF7DAFA3B
:1013400000BF01210248FFF7E1FA0028F9D03EBDB5
:10135000000C004010B588B0044601210846FFF794
:10136000F5F800200690079002208DF81C00002060
:101370008DF81E004FF4C060069000208DF81F000D
:101380008DF81D0006A92348FFF722F8072209213E
:101390002048FFF765F807220A211E48FFF760F88A
:1013A00001211020FFF7F2F802940020ADF814009C
:1013B0000C20ADF812000020ADF81000ADF80E00C2
:1013C000ADF80C0002A91448FFF7C8FB012240F257
:1013D00025511148FFF79DFB012240F224410E48A0
:1013E000FFF797FB4FF4A060FFF7A6F825208DF8D4
:1013F000040001208DF807008DF805008DF8060027
:1014000001A8FFF75DF801210348FFF74CFB08B086
:1014100010BD0000000002400010014010B504465D
:1014200000F028F910210E48FFF746F8D82000F008
:10143000ABF8C4F3074000F0A7F8C4F3072000F0AE
:10144000A3F8E0B200F0A0F810210548FFF736F845
:1014500000BFFFF7DDFE00F001000028F9D110BD4C
:101460000000024070B505460C4606E02846FFF72E
:10147000D5FF05F58035601EC4B2002CF6D170BDD5
:101480001CB500F09FF801210846FFF75FF8012026
:101490008DF8040000208DF8060010200090002038
:1014A0008DF8070002208DF8050069460448FEF714
:1014B0008FFF10210248FFF701F800F0EBF81CBD88
:1014C0000000024070B504460D461646210A601918
:1014D000401EB1EB102F01D0002070BD00F0CAF803
:1014E00010211448FEF7E8FF022000F04DF8C4F385
:1014F000074000F049F8C4F3072000F045F8E0B2D7
:1015000000F042F807E0307800F03EF8681EC5B2FF
:1015100005B901E0761CF6E700BF10210548FEF78B
:10152000CDFF00BFFFF774FE00F001000028F9D1E5
:101530000120D2E70000024070B504460D46164671
:1015400010211048FEF7B8FF032000F01DF8C4F387
:10155000074000F019F8C4F3072000F015F8E0B2D6
:1015600000F012F807E0FF2000F00EF830706D1E5A
:1015700005B901E0761CF6E700BF10210148FEF72F
:101580009DFF70BD0000024070B50446002500BFFD
:1015900002210B48FFF78AF80028F9D021460848B5
:1015A000FFF790F800BF01210548FFF77FF80028FA
:1015B000F9D00348FFF783F8C5B2284670BD000094
:1015C0000030014000B587B001210846FEF7BEFF9C
:1015D00002208DF8180000208DF81A00E0200590F8
:1015E00000208DF81B0002208DF8190005A91F4866
:1015F000FEF7EEFE052211461C48FEF731FF0522DC
:1016000006211A48FEF72CFF052207211748FEF78E
:1016100027FF01210803FEF7B9FF14216846FEF7F2
:1016200037FE0020ADF80C00ADF80800ADF806005C
:10163000ADF80400ADF80000ADF80E004FF4827074
:10164000ADF802004FF40070ADF80A006946084892
:10165000FFF73AF84FF480710548FFF753F801217E
:101660000348FFF717F807B000BD00000000024074
:101670000030014010B510210548FEF71DFF06207F
:10168000FFF782FF10210248FEF718FF10BD00008F
:101690000000024010B5FFF7EDFF10210A48FEF7E9
:1016A0000BFF0120FFF770FF0020FFF76DFF1021F7
:1016B0000548FEF703FF00BFFFF7AAFD00F0010099
:1016C0000028F9D110BD00000000024010B5FFF75E
:1016D000E5FA0446012C0BD10649087006A0FEF776
:1016E000CBFD15210020FFF7BDFE0BA0FEF7C4FDCA
:1016F00010BD000008000020D5FDD4DAB2C1B3FD52
:10170000B4E6B4A2D0BEC6AC2CC7EBB5C8B4FD2EAF
:101710002E2E0D0A00000000B2C1B3FDCDEAB3C900
:101720002CC7EBC9D5C2BCD7D6BFE22E2E2E0D0AD0
:10173000000000004FF04070E1EE100A704700001A
:10174000601700080000002028000000D0010008F9
:10175000881700082800002060060000EC0100083F
:101760000000000000000000000000000000000079
:10177000581F1400000001000000000102030401D2
:0817800002030406070809003A
:040000050800019559
:00000001FF
