:020000040800F2
:10000000B8060020450200084D0200084F02000813
:1000100051020008530200085502000800000000C9
:10002000000000000000000000000000570200086F
:1000300059020008000000005B0200085D02000891
:100040005F0200085F0200085F0200085F0200080C
:100050005F0200085F0200085F0200085F020008FC
:100060005F0200085F0200085F0200085F020008EC
:100070005F0200085F0200085F0200085F020008DC
:100080005F0200085F0200085F0200080000000035
:100090000000000000000000000000005F020008F7
:1000A000F91800085F0200085F0200085F020008FC
:1000B0005F0200085F0200085F0200085F0200089C
:1000C0005F0200085F0200085F0200085F0200088C
:1000D0005F020008191B00085F0200080000000012
:1000E0005F0200085F0200085F02000800000000D5
:1000F0000000000000000000000000005F02000897
:10010000000000005F0200085F0200085F020008B4
:1001100000000000000000000000000000000000DF
:100120005F0200085F0200085F0200085F0200082B
:100130005F02000800000000000000000000000056
:100140000000000000000000000000005F02000846
:100150005F0200085F0200085F020008C51B00087C
:100160005F0200085F0200080000000000000000BD
:10017000000000000000000000000000000000007F
:10018000000000005F020008000000000000000006
:100190005F02000800F002F800F044F80AA090E8BE
:1001A000000C82448344AAF10107DA4501D100F032
:1001B00039F8AFF2090EBAE80F0013F0010F18BFBB
:1001C000FB1A43F001031847DC280000FC2800005C
:1001D000103A24BF78C878C1FAD8520724BF30C873
:1001E00030C144BF04680C60704700000023002445
:1001F00000250026103A28BF78C1FBD8520728BF37
:1002000030C148BF0B607047782900F0998073298E
:1002100000F02682002070471FB502F017FC1FBDBA
:1002200010B510BD00F04EFA1146FFF7F5FF02F0D1
:1002300043F800F06CFA03B4FFF7F2FF03BC01F0DF
:100240003AFE00000948804709480047FEE7FEE7FC
:10025000FEE7FEE7FEE7FEE7FEE7FEE7FEE7FEE776
:1002600004480549054A064B7047000091180008EC
:1002700095010008B8000020B8060020B802002050
:10028000B8020020704700000FB4044910B503AA5B
:10029000029800F0E9F910BC5DF814FB040000209E
:1002A00070B5044685690068C10601D5302600E0B6
:1002B0002026C00707D070BDD4E901213046904701
:1002C000206A401C20626D1EF6D570BD70B50446D4
:1002D00085690078C00707D170BDD4E901212020CD
:1002E0009047206A401C20626D1EF6D570BD70B527
:1002F0000C460546012A05D02878800600D5EA6913
:10030000002302E0012305E05B1C934202D2E05C83
:100310000028F9D1A869E618C01AA861286A18440B
:1003200028622846FFF7BCFF04E0D5E9012114F854
:10033000010B9047B442F8D32846FFF7C7FF70BDC2
:1003400070B504460D4621461068AFF30080218841
:10035000090502D50F4A7A4402E00E4A7A440E3269
:10036000002104F1240305E000F00F060009965D6A
:100370005E54491C0028F7D120780023000704D5DB
:10038000702D02D009B1022311322046BDE8704021
:1003900000F0FBB80E2700002DE9F05F8946044607
:1003A0004FF0000ADFF824B1FB44C0F820A020463B
:1003B000E168884700287DD0252806D0D4E90121AE
:1003C0009047206A401C2062F1E700255F462046E6
:1003D000E16888472028064607DB312E05D2B81988
:1003E00010F8200C08B10543F1E7A80701D525F066
:1003F0000405C4F81CA00027C4F818A02A2E09D0B0
:10040000304601F051FD38B304EB8708303EC8F8A0
:10041000186019E059F8041B204604EB870291612B
:10042000E1688847012F064618D1E069002820DAE4
:1004300025F020051DE0D8F8180000EB800006EB41
:1004400040003038C8F818002046E1688847064662
:1004500001F02AFD0028EED1012F0AD02E2E08D15E
:100460002046E16888477F1C0646022F45F020059C
:10047000C4DBA069002803DA404245F00105A06111
:10048000E80701D025F01005A6B1A6F14100192812
:1004900002D8203645F400654A463146204625609C
:1004A0004D46FFF7B1FE60B1012807D0ED1D25F0E4
:1004B000070000E007E000F1080978E705F104090A
:1004C00075E730467AE7206ABDE8F09FE426000031
:1004D00010B5203AC0F00B80B1E81850203AA0E8DF
:1004E0001850B1E81850A0E81850BFF4F5AF5FEA13
:1004F000027C24BFB1E81850A0E8185044BF18C9C6
:1005000018C0BDE810405FEA827C24BF51F8043B6C
:1005100040F8043B08BF7047D20728BF31F8023BC0
:1005200048BF11F8012B28BF20F8023B48BF00F854
:10053000012B70474FF0000200B5134694469646D3
:10054000203922BFA0E80C50A0E80C50B1F12001E6
:10055000BFF4F7AF090728BFA0E80C5048BF0CC094
:100560005DF804EB890028BF40F8042B08BF7047F2
:1005700048BF20F8022B11F0804F18BF00F8012B64
:10058000704770477047704770472DE9F0470D4638
:1005900099469246044600F124080168880604D56D
:1005A000E06921F01001216000E00120A84201DD96
:1005B000471B00E00027A1697A1902EB0900081A1D
:1005C000A0612078C00602D42046FFF769FE00260D
:1005D00008E0D4E901211AF806009047206A401C7F
:1005E000761C20624E45F4DB2078C0060AD52046F2
:1005F000FFF756FE06E0D4E9012130209047206A3B
:10060000401C2062381EA7F10107F4DC07E0D4E9A2
:10061000012118F805009047206A401C2062281E1E
:10062000A5F10105F3DC2046FFF750FE2078000617
:1006300002D50220BDE8F0870120FBE710B5436931
:1006400013B1AFF3008001E0FFF751FE012010BDB0
:10065000127800F124010A7000224A700122EDE7AD
:1006600011684FF0FF32E9E7074B70B50D467B4448
:1006700000F011F80446284600F020F810B14FF0C1
:10068000FF3070BD204670BDDB1A000001694A1CB6
:1006900002610878704700B58FB0CDE901310021C3
:1006A000059105497944CDE9031011466846FFF7E5
:1006B00073FE0FB000BD0000E5FFFFFF007B00F000
:1006C00080007047754600F029F8AE46050069467F
:1006D000534620F00700854618B020B5FFF7C0FD4F
:1006E000BDE820404FF000064FF000074FF0000833
:1006F0004FF0000B21F00701AC46ACE8C009ACE8B4
:10070000C009ACE8C009ACE8C0098D467047044692
:10071000AFF300802046FFF78EFD000000487047D1
:100720005400002010B5FF240E48006900F00200BC
:1007300068B90D48007850B100F018F80446FF2C55
:1007400005D01D2001F09CFF0020074908700548D6
:10075000006900F0020010B1012003490870204632
:1007600010BD0000000002401900002010B5FF2459
:1007700001F078FCA02001F043FC01F0C3FB18B1AC
:1007800001F094FC012010BD00BF3B48006800F060
:1007900040000028F9D0082001F032FC01F0B2FB43
:1007A00018B101F083FC0220EDE700BF3248006879
:1007B00000F040000028F9D001F054FCA12001F025
:1007C0001FFC01F09FFB18B101F070FC0320DAE779
:1007D00000BF2948006800F040000028F9D001F06F
:1007E000B7FB0446002001F0E1FB01F0B1FB44EA55
:1007F0000024012001F0DAFB01F058FC402C2AD043
:100800000EDC082C29D006DC012C1AD0022C1ED0BC
:10081000042C2ED127E0102C29D0202C29D120E027
:10082000B4F5007F21D005DC802C0ED0B4F5807F9C
:100830001FD114E0B4F5806F05D0B4F5006F18D166
:1008400007E031209FE732209DE733209BE73420EB
:1008500099E7352097E7362095E7372093E738204A
:1008600091E739208FE72A208DE730208BE723207E
:1008700089E700BFFF2086E71004024070B50446F8
:10088000002601F0EFFBA02001F0BAFB01F03AFBDB
:1008900018B101F00BFC012070BD00BF1D480068BD
:1008A00000F040000028F9D0B02001F0A9FB01F0D1
:1008B00029FB18B101F0FAFB0220EDE700BF154853
:1008C000006800F040000028F9D001251BE0162D3B
:1008D00003D1F0B201F094FB05E0207801F090FB29
:1008E00020780644641C01F00DFB18B101F0DEFB1A
:1008F0000320D1E700BF0748006800F0400000284F
:10090000F9D0681CC5B2162DE1DD01F0CFFB002047
:10091000C2E700001004024000B58DB0182107A8FE
:10092000FFF708FE18220BA101A8FFF7D1FD01F087
:10093000C9FA0E48006840F001000C4908600C48F4
:10094000006820F00C000A49086001A8FFF796FF34
:100950000DB000BD000083F398101010101010109F
:10096000101010101010101050000000303802400D
:10097000000002402DE9F041074688461546042153
:10098000052000F02DF80021012001F073FA8021EC
:100990000A2000F0BEFE002405E0395D092001F0C8
:1009A00069FA601CC4B24445F7DB0321012001F061
:1009B00061FAFF2400BF052000F010FE0646601E0D
:1009C000C4B21CB106F004000028F4D0222000F0CC
:1009D00005FE2870212000F001FE6870BDE8F0815E
:1009E00070B505460C460026284600F0F7FD064681
:1009F00026EA0401284601F03DFA70BDF0B50A462A
:100A000000210023002400BF3DE0012505FA01F389
:100A1000156805EA03049C4234D105684F0003269B
:100A2000BE40B543056015794E00B54006683543B4
:100A300005601579012D02D01579022D16D1856832
:100A40004F000326BE40B543856055794E00B54042
:100A5000866835438560456801268E40B54345600C
:100A6000456896798E40B6B235434560C5684F00FB
:100A70000326BE40B543C560D5794E00B540C66873
:100A80003543C560491C1029BFD3F0BDF0B5002324
:100A900000244D07ED0E02FA05F3CE1000F12005FB
:100AA00055F826504E07F70E0F26BE40B543CF101F
:100AB00000F1200646F82750CE1000F1200555F829
:100AC000265045EA0304CE1000F1200545F82640E3
:100AD000F0BD0246002013690B400BB1012000E07D
:100AE0000020704741837047018370471CB5012186
:100AF000022000F055FC45F20240009001208DF8E4
:100B0000040000208DF806008DF8070069460648AD
:100B1000FFF774FF02210448FFF7E4FF4FF4805110
:100B20000148FFF7E1FF1CBD0004024070B5054617
:100B30002A2001F09BFC002001F0C8FCEF2001F00E
:100B4000C5FC2B2001F092FC002001F0BFFCEF203F
:100B500001F0BCFC2C2001F089FC002403E02846B5
:100B600001F0B4FC641CB4F5614FF8D370BD000013
:100B700010B5FFF7BBFF00F0C1F801F063FC3620B1
:100B800001F074FC002001F089FC3A2001F06EFCB9
:100B9000052001F083FCB22001F068FC0C2001F07C
:100BA0007DFC0C2001F07AFC002001F077FC332062
:100BB00001F074FC332001F071FCB72001F056FC09
:100BC000352001F06BFCBB2001F050FC192001F036
:100BD00065FCC02001F04AFC2C2001F05FFCC22023
:100BE00001F044FC012001F059FCC32001F03EFC5F
:100BF000122001F053FCC42001F038FC202001F049
:100C00004DFCC62001F032FC0F2001F047FCD02043
:100C100001F02CFCA42001F041FCA12001F03EFCDD
:100C2000E02001F023FCD02001F038FC042001F08A
:100C300035FC0D2001F032FC112001F02FFC1320B7
:100C400001F02CFC2B2001F029FC3F2001F026FCB8
:100C5000542001F023FC4C2001F020FC182001F06E
:100C60001DFC0D2001F01AFC0B2001F017FC1F20C9
:100C700001F014FC232001F011FCE12001F0F6FB4F
:100C8000D02001F00BFC042001F008FC0C2001F046
:100C900005FC112001F002FC132001F0FFFB2C20C9
:100CA00001F0FCFB3F2001F0F9FB442001F0F6FBD2
:100CB000512001F0F3FB2F2001F0F0FB1F2001F089
:100CC000EDFB1F2001F0EAFB202001F0E7FB2320D1
:100CD00001F0E4FB212001F0C9FB112001F0C6FB6B
:100CE000292001F0C3FB02210348FFF7FDFE00208D
:100CF000FFF71CFF10BD0000000402401CB50121DD
:100D0000022000F04DFB4FF42040009001208DF8B0
:100D1000040000208DF806008DF8070002208DF8F1
:100D2000050069460148FFF769FE1CBD000402404A
:100D300070B504464FF400511448FFF7D3FE4FF44A
:100D400000411248FFF7D0FE00251BE04FF4005190
:100D50000E48FFF7C7FE04F0800028B14FF40041B1
:100D60000A48FFF7C1FE04E04FF400410748FFF7CF
:100D7000B9FE4FF400510548FFF7B6FE6006040EB9
:100D8000681CC5B2082DE1DB70BD00000004024004
:100D900010B50446412C25D108210846FFF720FE56
:100DA0003D21112001F066F88621172001F062F83C
:100DB0007F21262001F05EF81E212D2001F05AF837
:100DC00000212C2001F056F88D212A2001F052F844
:100DD0003E212B2001F04EF8022000F071FE00F0C1
:100DE0009BF801E0012010BD0020FCE770B5002158
:100DF00000230F22C4781CB3174C246804F4E06469
:100E0000C4F5E064C4F30721C1F10404E3B20A416C
:100E100044789C40E1B28478144021430C07210EB1
:100E20000E4C05786155047804F01F050124AC4090
:100E300005786D11AD0005F1E025C5F8004109E028
:100E4000047804F01F050124AC40054D06787611A6
:100E500045F8264070BD00000CED00E000E400E025
:100E600080E100E07CB504460D460020019001A918
:100E7000262000F0A5F908B101207CBD204600F035
:100E800058F808B10320F8E7204600F003FA08B14B
:100E90000520F2E70DB100F04EF91D2001F0F0FB46
:100EA00009A0FFF7F1F99DF805209DF8041009A0AD
:100EB000FFF7EAF9E0780090A378627821780BA038
:100EC000FFF7E2F90020D8E7CAB6B1F0B3C9B9A676
:100ED0000D0A0000BFA8B5C4C0E0D0CDA3BA3078D9
:100EE00025303278253032780D0A0000BFA84944F9
:100EF0003A3078253032782025303278202530324B
:100F00007820253032780D0A0000000010B503214A
:100F10001420FFF765FD10BD10B5142000F05EFB36
:100F2000044604F0030018B90321142000F0F1FB7B
:100F300010BDF0B587B00546002708210846FFF729
:100F40004FFD00210D2000F095FF80210E20FFF7BE
:100F500047FD93208DF8040020208DF8050006A899
:100F600001AB022201A900900C2000F045F80646D2
:100F700086B9002407E001A8005D285501A8005D9E
:100F80004740601CC4B2042CF5DB01A8005DB842E8
:100F900000D0022680210E2000F0BBFB304607B0B7
:100FA000F0BD2DE9F04188B004460D4616461F46B7
:100FB0008DF808408DF809503068CDF80A00B088E7
:100FC000ADF80E003868049007A802AB0C2202A905
:100FD00000900E2000F010F88046B8F1000F05D107
:100FE000082000F0FBFA00F0080008B94FF00208F2
:100FF000404608B0BDE8F0812DE9FE4F0646884620
:1010000091469A46DDF830B002200290002001900F
:1010100000900C2E06D00E2E09D112200190102027
:10102000009005E0772001903020009000E000BFA4
:1010300000BF019840F08001022000F01BFF8021DA
:101040000420FFF7CDFC0021012000F013FF8021D8
:101050000A2000F05EFB002506E018F805100920C4
:1010600000F008FF681C85B24D45F6DB31460120D3
:1010700000F000FF0C2E03D180210D2000F049FB71
:101080004FF4167500BF042000F0A8FA0446681E4D
:1010900085B235B104F0010018B90098204000284D
:1010A000F1D080210D20FFF79BFC002D38D00620C9
:1010B00000F094FA00F01B0078BB00200290019829
:1010C000204000F0010008B1012002900C2E27D131
:1010D0000A2000F083FA04460C2000F07FFA00F0AA
:1010E00007072FB1601E07EBC0008BF8000003E07C
:1010F000E006000E8BF8000004B90124122C00DD7C
:101100001224002506E0092000F068FA0AF805001C
:10111000681C85B2A542F6DB02E0FFE702200290E0
:1011200080210C2000F0F5FA0021012000F0A2FE41
:101130000298BDE8FE8F10B588B050208DF80800E9
:1011400000208DF809000DF10A02022102A8FFF724
:1011500011FC07A802AB042202A900900C20FFF7A3
:101160004BFF0446002008B010BDF0B587B005461F
:101170000E4630208DF804008DF805500DF1060262
:10118000022101A8FFF7F6FB06A801AB042201A982
:1011900000900C20FFF730FF07466FB99DF818004C
:1011A000902809D1002404E001A8005D3055601C9E
:1011B000C4B2102CF8DB00E00227384607B0F0BDBF
:1011C00070B588B005460C4608210846FFF708FCB4
:1011D00007210D2000F04EFE0321142000F099FAA3
:1011E0008DF8085007A802AB012202A900900C203C
:1011F000FFF702FF064656B99DF81C00102806D1DD
:101200009DF8080020709DF80900607000E002263B
:10121000304608B070BD000010B504211C48FFF72F
:1012200063FC022000F04CFC04211948FFF75AFC33
:10123000022000F045FC04211548FFF755FC022070
:1012400000F03EFC0F21012000F014FE0F210120D0
:1012500000F010FE022000F033FC3D21112000F0D0
:1012600009FE1E212D2000F005FE00212C2000F09B
:1012700001FE8D212A2000F0FDFD3E212B2000F0F3
:10128000F9FD4021152000F0F5FD002010BD000003
:10129000000C024070B588B0054693208DF8080018
:1012A00070208DF8090000208DF80E0000240BE05E
:1012B000295D02AAA01C11549DF80E00295D48402A
:1012C0008DF80E00601CC4B2042CF1DB0DF10F028E
:1012D000072102A8FFF74EFB08210846FFF780FB15
:1012E00007A802AB092202A900900C20FFF784FE98
:1012F00006462EB99DF81C00182801D1002600E0F2
:101300000226304608B070BDF0B587B006460F46DD
:10131000A0208DF804008DF805600DF10602022171
:1013200001A8FFF727FB06A801AB042201A9009042
:101330000C20FFF761FE05464DB99DF81800042802
:1013400005D19DF8040000F00F000A2800D0022506
:1013500015BB002404E0385D01A90855601CC4B227
:10136000102CF8DB05AA102101A8FFF703FB06A843
:1013700001AB122201A900900C20FFF73DFE0546AB
:101380004DB99DF81800042805D19DF8040000F01F
:101390000F000A2800D00225284607B0F0BD000043
:1013A00029B1064A12680243044B1A6004E0034A5A
:1013B00012688243014B1A607047000030380240C7
:1013C00029B1064A12680243044B1A6004E0034A3A
:1013D00012688243014B1A60704700004038024097
:1013E00029B1064A12680243044B1A6004E0034A1A
:1013F00012688243014B1A60704700004438024073
:10140000F0B5002100220024022500260223324FDD
:101410003F6807F00C0121B1042905D0082937D114
:1014200005E02E4F076036E02D4F076033E02A4F6E
:101430003F1F3F68C7F38056274F3F1F3F6807F0A5
:101440003F036EB1264FB7FBF3F7DFF88CC0ACF16A
:10145000040CDCF800C0CCF3881C07FB0CF40CE097
:101460001E4FB7FBF3F7DFF870C0ACF1040CDCF8EB
:1014700000C0CCF3881C07FB0CF4174F3F1F3F68DC
:10148000C7F301477F1C7D00B4FBF5F7076002E05E
:10149000124F076000BF00BF0F4F3F6807F0F00119
:1014A0000909104F7A5C0768D74047600A4F3F68C8
:1014B00007F4E051890A0B4F7A5C4768D740876090
:1014C000054F3F6807F46041490B064F7A5C476857
:1014D000D740C760F0BD0000083802400024F40087
:1014E00040787D012400002010B500F095F9FFF749
:1014F00093FEFFF70BFDFFF70FFD4120FFF748FCC0
:1015000010BD0000F8B504460E46002000900021F2
:101510006846FFF7A7FC08B10120F8BDE01704EB0F
:1015200090708010032202EB8000C1B26B46144A17
:101530006020FFF736FD20B112A0FEF7A5FE0320C4
:10154000EBE731462046FFF710FE20B112A0FEF770
:101550009BFE0520E1E7FFF7EEFD13A0FEF794FEEA
:10156000002505E0715D13A0FEF78EFE681CC5B274
:10157000102DF7DB314612A0FEF786FE0020CCE7E7
:101580001E000020C3DCC2EB41B6D4B1C8CAA7B06C
:10159000DC210D0A00000000CAFDBEDDB6C1C8A1F5
:1015A000CAA7B0DC210D0A00B6C1C8A1CAFDBEDDC4
:1015B0003A0000003078253032782020000000000A
:1015C0000D0AB6C1C8A1CAFDBEDDD7D6B7FBB4AE01
:1015D000D0CECABD3A25730D0A00000070B504468E
:1015E00000264FF400410B48FFF77CFA7E2000EA0A
:1015F000440040F08005284600F00EF8002000F07E
:101600000BF806464FF400410248FFF76DFA3046EA
:1016100070BD00000000024070B5064600254FF482
:1016200080611748FFF760FA002424E04FF48061DE
:101630001348FFF757FA80202041304028B14FF47B
:1016400080510F48FFF750FA04E04FF480510C48E6
:10165000FFF748FA4FF480610948FFF745FA68063A
:10166000050E4FF400610648FFF733FA08B145F064
:101670000105601CC4B2082CD8DB284670BD0000F0
:101680000008024021B1028842F04002028004E0DA
:1016900002884FF6BF731A4002807047024600204E
:1016A00013890B400BB1012000E000207047014678
:1016B000888970478181704710B50022028802F442
:1016C00041520B884C8823438C882343CC88234386
:1016D0000C8923434C8923438C892343CC8923439E
:1016E0001A430280838B4FF2FF74234083830B8A5B
:1016F000038210BD4FF6FF62914204D0028842F48B
:101700008072028004E002884FF6FF631A40028074
:10171000704770B505460C4600262846FFF75EFF69
:10172000064646EA0401284600F0A4FB70BD00000E
:101730000CB50020019000903348006840F48030E0
:101740003149086000BF3048006800F40030009064
:101750000198401C0190009818B90198B0F5A04F6D
:10176000F1D12948006800F4003010B10120009048
:1017700001E0002000900098012844D12248403028
:10178000006840F080502049403108601F480068E0
:1017900040F440401D4908601B48083000681A4961
:1017A000083108600846006808600846006840F490
:1017B000805008601648091F0860081F006840F044
:1017C0008070091F086000BF0F48006800F00070BB
:1017D0000028F9D040F202700E4908600A4808302B
:1017E000006820F0030008490831086008460068D6
:1017F00040F00200086000BF03480830006800F0B5
:101800000C000828F8D10CBD0038024000700040E0
:1018100019544107003C02401CB501210D20FFF77F
:10182000BFFD4FF4A050009001208DF8040000206F
:101830008DF806008DF8070069461248FFF7DEF8BC
:101840004FF40040009069460F48FFF7D7F8042096
:10185000009069460D48FFF7D1F800208DF804008C
:101860004FF40060009069460648FFF7C7F804216E
:101870000648FFF739F94FF400410348FFF734F900
:101880001CBD00000008024000000240000C0240A5
:1018900010B51548006840F47000134908601348FB
:1018A000006840F001001149086000200F4908312C
:1018B00008600E4800680E4908400C4908600D4851
:1018C000091D0860081F006820F48020091F0860B7
:1018D000002006490C310860FFF72AFF4FF0006036
:1018E00001498039086010BD88ED00E000380240F1
:1018F000FFFFF6FE1030002410B50121174800F05C
:1019000050F848B30121154800F033F81448007826
:1019100001280DD113480088401C12490880084650
:101920000088B0F57A7F12DB00200D4908700EE0C8
:101930000B48007858B90B480088401E09490880B8
:1019400008460088002802DC012005490870054887
:101950000188054800F03FF810BD0000004001403C
:10196000180000201600002000080040CA43028230
:101970007047CA430282704721B1028842F00102D7
:10198000028004E002884FF6FE731A40028070471E
:1019900002460020138A0B400BB1012000E000201A
:1019A000704730B50246002000230024158A05EA5E
:1019B0000103958905EA010413B10CB1012000E08F
:1019C000002030BD02884FF6F7731A40028002886B
:1019D0000A430280704701647047000000220288B9
:1019E000184B98420ED0184B98420BD0B0F1804F54
:1019F00008D0164B984205D0154B984202D0154B93
:101A0000984204D14FF68F731A404B881A43124BF9
:101A1000984207D0114B984204D04FF6FF431A402A
:101A20000B891A4302804B68C3620B880385054B00
:101A3000984202D0044B984201D18B7A038601234D
:101A40008382704700000140000401400004004010
:101A500000080040000C004000100040001400404E
:101A60003EB5044601210820FFF7AAFC00200090A3
:101A700001900290ADF802004FF47A7104FB01F07E
:101A8000401E01905320ADF8000069460B48FFF757
:101A9000A5FF01210948FFF769FF08210748FFF763
:101AA00091FF01210548FFF767FF00BF01210348AF
:101AB000FFF76EFF0028F9D03EBD0000000C00408B
:101AC0003EB5044601210820FFF77AFC0020009073
:101AD00001900290ADF80200601E01905320ADF815
:101AE000000069460B48FFF779FF01210948FFF71D
:101AF0003DFF01210748FFF73FFF00BF01210548D7
:101B0000FFF746FF0028F9D000210248FFF734FF15
:101B10003EBD0000000C004008B540F225512048B1
:101B200000F09DF800282FD040F225511C4800F00D
:101B30007BF81C48007838B34FF480711A48FEF7E0
:101B4000D1FF174800F044F9C0B200906A46012165
:101B50001648006800F088FE14480068401C1349CD
:101B6000086013480068401E114908600846006874
:101B700050B910A0FEF788FB4FF480710A48FEF7B9
:101B8000B3FF00200749087040F22441044800F0E8
:101B900066F818B1024800880148808808BD000036
:101BA0000010014008000020000402400C0000204A
:101BB00010000020D7D6BFE2C9D5C2BCCDEAB3C958
:101BC000210D0A0010B540F22551134800F047F8E6
:101BD00080B140F22551104800F026F80E4800F080
:101BE000F7F8C1B20D4802780078401C0B4B187012
:101BF0000B48815440F22441074800F030F850B1BE
:101C0000054800880448001D00880020034908702A
:101C100001200449087010BD001401401400002088
:101C2000480000200900002010B50022002340F6E3
:101C30006A14A14200D100BF0A1201249440A3B249
:101C4000DC43048010BD21B1828942F400528281BC
:101C500004E082894DF6FF731A408281704770B5A7
:101C60000246002400230025002040F66A16B142F7
:101C700000D100BFC1F3421501F01F03012606FA8F
:101C800003F3012D02D19689334006E0022D02D1E3
:101C9000168A334001E0968A33400C12012606FA78
:101CA00004F41688344013B10CB1012000E0002088
:101CB00070BDF0B50346002400260025002040F644
:101CC0006A17B94200D100BF1846C1F3421401F0AF
:101CD0001F06012707FA06F5012C01D10C3004E09C
:101CE000022C01D1103000E014301AB107682F43E4
:101CF000076002E00768AF430760F0BD2DE9FF47CA
:101D000005460E460024A14600BFA046B08900B19A
:101D100000BF2C8A24F44054F08804432C82AC8900
:101D200041F20C608443B0883189084371890843CB
:101D30000443AC81AC8A24F44074B0890443AC827F
:101D40006846FFF75DFB2048854202D01F48854268
:101D500002D1DDF80C9001E0DDF80890A88900F4CC
:101D6000004040B109EBC90000EB0910316849009F
:101D7000B0FBF1F707E009EBC90000EB091031688F
:101D80008900B0FBF1F76420B7FBF0F004012009F3
:101D9000642101FB1078A88900F4004040B1322092
:101DA00000EBC800B0FBF1F000F00700044308E0CE
:101DB000322000EB08106421B0FBF1F000F00F00BE
:101DC00004432C81BDE8FF8700100140001401404E
:101DD00001468888C0F3080070470000F8B5044643
:101DE0000E460020009000216846FFF73BF808B13E
:101DF0000120F8BDE01704EB90708010032202EB85
:101E00008000C1B26B460D4A6020FFF7CAF820B1CE
:101E10000BA0FEF739FA0320EBE731462046FFF727
:101E200073FA20B10BA0FEF72FFA0520E1E7FFF7C8
:101E300082F90CA0FEF728FA0020DAE71E00002045
:101E4000C3DCC2EB41B6D4B1C8CAA7B0DC210D0ACD
:101E500000000000CAFDBEDDD0B4C8EBCAA7B0DCEC
:101E6000210D0A00CAFDBEDDD0B4C8EBB3C9B9A6C6
:101E70000D0A000070B504460D464FF400410948B4
:101E8000FEF730FE7E2000EA44063046FFF7C4FB32
:101E90002846FFF7C1FB4FF400410248FEF724FE3D
:101EA00070BD00000000024030380A2801D2012035
:101EB000704700207047014600BF704700B500F032
:101EC00053F900BD1CB501210220FFF769FA01207A
:101ED0008DF804008DF80600C020009000208DF8D9
:101EE00007008DF8050069460548FEF787FD40218B
:101EF0000348FEF7F9FD80210148FEF7F5FD1CBD02
:101F00000004024010B500241048006840F0800032
:101F10000E4908600846006820F04000086005206F
:101F2000FFF7CEFD0948006840F04000074908600F
:101F30000520FFF7C5FD0548001F006800F0800080
:101F400000B900E00124204610BD00001404024046
:101F500070B51548006840F08000134908600025FE
:101F60001DE01148006820F040000F49086005207E
:101F7000FFF7A6FD0C48006840F040000A490860E1
:101F80000520FFF79DFD6006040E0748001F00684E
:101F900000F0800008B144F00104681CC5B2082DAF
:101FA000DFDB204670BD00001404024010B504467B
:101FB0001248006820F04000104908600520FFF733
:101FC0007FFD34B90D48006820F080000B4908609F
:101FD00007E0012C05D10948006840F0800007495E
:101FE00008600520FFF76CFD0448006840F04000E1
:101FF000024908600520FFF763FD10BD140402408C
:1020000070B50446002528E01548006820F040001F
:10201000134908600520FFF753FD04F0800030B13C
:102020000F48006840F080000D49086005E00C484A
:10203000006820F080000A4908600520FFF740FD95
:102040000748006840F04000054908600520FFF798
:1020500037FD6006040E681CC5B2082DD4DB70BDC8
:102060001404024010B51048006820F040000E49EA
:1020700008600520FFF724FD0B48006840F0800051
:10208000094908600846006840F0400008600520E3
:10209000FFF716FD0448006820F080000249086040
:1020A0000520FFF70DFD10BD1404024010B51048C7
:1020B000006820F040000E4908600520FFF700FD91
:1020C0000B48006820F08000094908600846006855
:1020D00040F0400008600520FFF7F2FC044800686B
:1020E00040F08000024908600520FFF7E9FC10BDC0
:1020F00014040240014645F2082201FB02F000E010
:10210000401E0028FCD170471CB501210220FFF7BA
:1021100047F901208DF8040000208DF806001820F2
:10212000009000208DF807008DF8050069460648EC
:10213000FEF764FC08210448FEF7D6FC1021024893
:10214000FEF7D2FC1CBD00000004024000BF054A9F
:10215000128802F04002002AF9D0C2B2014B9A80E4
:1021600070470000001001401E48006840F0010068
:102170001C4908600846006840F0040008601A48DE
:10218000006820F44030184908600846006840F4B0
:10219000803008601548006820F44020134908602A
:1021A0000846006840F4802008600F48406820F42A
:1021B00080700D4948600D48001D006840F40070B3
:1021C0000A49091D08600848406940F480700649C2
:1021D000486106481430006840F400700349143127
:1021E000086070473038024000000240000802409A
:1021F0001CB500200090019001210420FFF7D0F8C9
:1022000000208DF804004FF40050009000208DF85D
:10221000070069460148FEF7F1FB1CBD00080240BB
:1022200010B5FF244FF400510F48FEF752FC78B967
:102230000E48007860B10A20FFF75CFF4FF40051B0
:102240000948FEF746FC18B9002008490870012427
:102250004FF400510448FEF73CFC10B10120034943
:102260000870204610BD0000000802400000002059
:102270001CB501210220FFF793F801208DF804001E
:1022800000208DF806004FF44070009000208DF87B
:1022900007008DF8050069460648FEF7AFFB4FF4CE
:1022A00080710448FEF720FC4FF400710148FEF7EE
:1022B0001BFC1CBD000402408CB000BF00BF00200E
:1022C00009900A900B9000BF00BF00BF00BF00BF85
:1022D0004FF4E13000F014F900F0A4FAFFF788FFA2
:1022E000FFF7C6FF00F07EFB00F00EFAFEF740FCA1
:1022F000FEF712FBFFF7E2FDFFF706FF00F064F8C0
:10230000FFF7F2F8002008901B4B0FCBCDE9062316
:10231000CDE9040100200090019002900390002577
:1023200028E0FEF7FFF90446312C04D1012513A063
:10233000FDF7AAFF0CE0322C04D1022515A0FDF711
:10234000A3FF05E0302C03D1002518A0FDF79CFF6A
:102350001DB9012108A8FEF785FD012D04D104A9AE
:102360000120FFF73BFD05E0022D03D16946012066
:10237000FFF7C8F8D5E70000582A0008C7EBB7C533
:10238000C8EBBFA8C6ACD7BCB1B8D0B4BFA80D0AC3
:1023900000000000C7EBB7C5C8EBBFA8C6ACD7BCF0
:1023A000B1B8B6C1BFA80D0A00000000C7EBB7C5A1
:1023B000C8EBBFA8C6ACD7BCB1B8CAB6B1F0BFA80D
:1023C000C6AC0D0A000000001CB54FF4E13000F06F
:1023D000F3F801210420FEF7E3FF002000900190B4
:1023E0008DF804000120009000208DF807008DF882
:1023F000050069460848FEF701FB01208DF804003E
:102400000220009069460448FEF7F8FA02210248CB
:10241000FEF768FB1CBD00000008024010B510214B
:102420000748FEF75FFB052000F0ACF9FF2000F045
:10243000A9F9044610210248FEF756FB204610BDBC
:102440000000024010B54FF480610748FEF74AFBD8
:102450006420FFF705FB4FF480610348FEF744FB5F
:102460006420FFF7FDFA10BD0004024010B50446D9
:102470004FF480510848FEF735FB4FF48041064881
:10248000FEF730FB2046FEF753FC4FF48051024824
:10249000FEF72AFB10BD00000004024010B5044600
:1024A0004FF480510848FEF71DFB4FF48041064869
:1024B000FEF71AFB2046FEF73BFC4FF48051024822
:1024C000FEF712FB10BD00000004024010B50446E8
:1024D0004FF480510948FEF705FB4FF4804107484F
:1024E000FEF702FB2012FEF723FCE0B2FEF720FC11
:1024F0004FF480510148FEF7F7FA10BD0004024086
:1025000010B588B0044601210846FEF749FF0220B5
:102510008DF81C0000208DF81E004FF4C06006905E
:1025200000208DF81F008DF81D0006A92048FEF739
:1025300065FA072209211E48FEF7A8FA07220A2198
:102540001B48FEF7A3FA01211020FEF749FF029471
:102550000020ADF814000C20ADF812000020ADF8FA
:102560001000ADF80E00ADF80C0002A91148FFF7FD
:10257000C5FB012240F225510E48FFF79AFB0122CC
:1025800040F224410B48FFF794FB25208DF804000E
:1025900001208DF807008DF805008DF8060001A8D0
:1025A000FEF724FC01210348FFF74DFB08B010BDE6
:1025B000000002400010014010B588B0044601211F
:1025C0000420FEF7EDFE00200690079002208DF813
:1025D0001C0000208DF81E00C020069000208DF801
:1025E0001F008DF81D0006A92348FEF707FA0822F0
:1025F00006212148FEF74AFA082207211E48FEF765
:1026000045FA01212020FEF7EBFE00200290039006
:10261000049005900294ADF814000C20ADF812005F
:102620000020ADF81000ADF80E00ADF80C0002A9C6
:102630001248FFF763FB012240F225510F48FFF7D4
:1026400038FB012240F224410C48FFF732FB4720BF
:102650008DF8040001208DF8070000208DF805009A
:1026600001208DF8060001A8FEF7C0FB01210348F8
:10267000FFF7E9FA08B010BD00080240001401405D
:1026800070B5054600BF10210B48FEF722FA00285E
:10269000F9D100F013F800240AE0802020412840FE
:1026A00010B100F01DF801E000F058F8601CC4B251
:1026B000082CF2DB70BD00000008024010B520219C
:1026C0000648FEF711FA0820FFF7CAF9202103484F
:1026D000FEF708FA0120FFF7C3F910BD0008024019
:1026E00010B520210748FEF7FFF940F2DC50FFF754
:1026F000E7F920210348FEF7F5F94FF4FA70FFF7E8
:10270000DFF910BD000802401CB5002000900190C8
:1027100001210420FEF744FE01208DF80400002072
:102720008DF806002020009000208DF807008DF81D
:10273000050069460848FEF761F900208DF804009D
:102740001020009069460448FEF758F920210248FD
:10275000FEF7C8F91CBD00000008024010B520219A
:102760000748FEF7C1F94FF4FA70FFF7A9F92021E5
:102770000348FEF7B7F940F2DC50FFF7A1F910BDAE
:102780000008024070B50446002500BF02210B4836
:10279000FEF784FF0028F9D021460848FEF78AFF9B
:1027A00000BF01210548FEF779FF0028F9D0034852
:1027B000FEF77DFFC5B2284670BD00000030014025
:1027C00010B5044600F0E2F810210E48FEF78AF931
:1027D000D820FFF7D7FFC4F30740FFF7D3FFC4F3B8
:1027E0000720FFF7CFFFE0B2FFF7CCFF102105482D
:1027F000FEF77AF900BFFFF711FE00F00100002894
:10280000F9D110BD0000024070B505460C4606E047
:102810002846FFF7D5FF05F58035601EC4B2002CB1
:10282000F6D170BD1CB500F059F801210846FEF73D
:10283000B7FD01208DF8040000208DF8060010205F
:10284000009000208DF8070002208DF805006946F1
:102850000448FEF7D3F810210248FEF745F900F0CE
:10286000A5F81CBD0000024070B504460D46164692
:10287000210A6019401EB1EB102F01D0002070BD5D
:1028800000F084F810211448FEF72CF90220FFF71D
:1028900079FFC4F30740FFF775FFC4F30720FFF784
:1028A00071FFE0B2FFF76EFF07E03078FFF76AFFD5
:1028B000681EC5B205B901E0761CF6E700BF10211D
:1028C0000548FEF711F900BFFFF7A8FD00F0010071
:1028D0000028F9D10120D2E70000024000B587B0FE
:1028E00001210846FEF75CFD02208DF8180000204B
:1028F0008DF81A00E020059000208DF81B000220C2
:102900008DF8190005A91F48FEF778F80522114631
:102910001C48FEF7BBF8052206211A48FEF7B6F858
:10292000052207211748FEF7B1F801210803FEF739
:1029300057FD14216846FDF7FDFD0020ADF80C00A1
:10294000ADF80800ADF80600ADF80400ADF80000E1
:10295000ADF80E004FF48270ADF802004FF4007035
:10296000ADF80A0069460848FEF7A6FE4FF48071EC
:102970000548FEF7BFFE01210348FEF783FE07B0BE
:1029800000BD0000000002400030014010B51021E1
:102990000548FEF7A7F80620FFF7F4FE10210248CD
:1029A000FEF7A2F810BD00000000024010B5FFF7CE
:1029B000EDFF10210A48FEF795F80120FFF7E2FE2F
:1029C0000020FFF7DFFE10210548FEF78DF800BF5D
:1029D000FFF724FD00F001000028F9D110BD000030
:1029E0000000024010B5FFF71BFC0446012C0BD180
:1029F0000649087006A0FDF747FC15216004FFF7A3
:102A000003FF0BA0FDF740FC10BD000008000020F4
:102A1000D5FDD4DAB2C1B3FDB4E6B4A2D0BEC6AC23
:102A20002CC7EBB5C8B4FD2E2E2E0D0A00000000F9
:102A3000B2C1B3FDCDEAB3C92CC7EBC9D5C2BCD76F
:102A4000D6BFE22E2E2E0D0A000000004FF040707F
:102A5000E1EE100A704700005151B5C4BFA8C6ACE2
:102A600000000000000000003031323334353637CA
:102A700038394142434445464030580030313233C2
:102A800034353637383961626364656640307800C2
:102A90000400000800000000000000020001000027
:102AA00010000000C42A00080000002034000000CC
:102AB000D0010008F82A0008340000208406000035
:102AC000EC01000801000000000000000000000010
:102AD00000000200581F1400000000000101010066
:102AE0000001FFFFFFFFFFFF0000000001020304E1
:082AF0000102030406070809B6
:040000050800019559
:00000001FF
