:020000040800F2
:10000000800600203D020008450200084702000863
:10001000490200084B0200084D02000800000000E1
:100020000000000000000000000000004F02000877
:1000300051020008000000005302000855020008A9
:10004000570200085702000857020008570200082C
:10005000570200085702000857020008570200081C
:10006000570200085702000857020008570200080C
:1000700057020008570200085702000857020008FC
:10008000570200085702000857020008000000004D
:1000900000000000000000000000000057020008FF
:1000A00057020008570200085702000857020008CC
:1000B00057020008570200085702000857020008BC
:1000C00057020008570200085702000857020008AC
:1000D00057020008B9070008570200080000000096
:1000E00057020008570200085702000800000000ED
:1000F000000000000000000000000000570200089F
:1001000000000000570200085702000857020008CC
:1001100000000000000000000000000000000000DF
:10012000570200085702000857020008570200084B
:10013000570200080000000000000000000000005E
:10014000000000000000000000000000570200084E
:10015000570200085702000857020008570200081B
:1001600057020008570200080000000000000000CD
:10017000000000000000000000000000000000007F
:10018000000000005702000800000000000000000E
:100190005702000800F002F800F041F80AA090E8C9
:1001A000000C82448344AAF10107DA4501D100F032
:1001B00036F8AFF2090EBAE80F0013F0010F18BFBE
:1001C000FB1A43F00103184710CE010030CE0100A6
:1001D000103A24BF78C878C1FAD8520724BF30C873
:1001E00030C144BF04680C60704700000023002445
:1001F00000250026103A28BF78C1FBD8520728BF37
:1002000030C148BF0B607047732900F0F9800020AF
:1002100070471FB500F0D6FD1FBD10B510BD00F032
:1002200021F91146FFF7F5FF00F01AFD00F03FF944
:1002300003B4FFF7F2FF03BC00F054FB094880470A
:1002400009480047FEE7FEE7FEE7FEE7FEE7FEE7B8
:10025000FEE7FEE7FEE7FEE704480549054A064BD0
:100260007047000089060008950100088000002002
:1002700080060020800200208002002070470000DD
:100280000FB4044910B503AA029800F0BDF810BCE1
:100290005DF814FB000000202DE9F0410E460446F5
:1002A000002020622046E168884730B3252805D029
:1002B000D4E901219047206A401CF2E7E16820461A
:1002C00000278847050018D0A5F14100192802D859
:1002D00020354FF400673246294620462760FFF755
:1002E00093FF40B1012804D0F61D26F0070608361A
:1002F000D8E7361DD6E72846DAE7206ABDE8F08160
:1003000070B50C460546012A05D02878800600D530
:10031000EA69002302E0012305E05B1C934202D25C
:10032000E05C0028F9D1A869E618C01AA861286A1B
:10033000184428622846AFF3008004E0D5E9012183
:1003400014F8010B9047B442F8D32846AFF300806D
:1003500070BD00004FF0013C50F8042B51F8043BF5
:100360009A4221D1A2EB0C03934313EACC1317D189
:1003700050F8042B51F8043B9A4215D1A2EB0C0320
:10038000934313EACC130BD150F8042B51F8043BE0
:100390009A4209D1A2EB0C03934313EACC13DBD0AE
:1003A0004FF00000704700BFD01A01BAB1FA81F1D6
:1003B00001F0180122FA01F0CB40C1F12001DBB2BB
:1003C000C0B2C01A2CFA01F3D11A914311EAC31139
:1003D000E6D17047704770477047704710B5436962
:1003E00013B1AFF3008001E0FFF78AFF012010BDD9
:1003F000127800F124010A7000224A700122EDE710
:1004000011684FF0FF32E9E7074B70B50D467B44AA
:1004100000F011F80446284600F020F810B14FF023
:10042000FF3070BD204670BD1B05000001694A1CED
:1004300002610878704700B58FB0CDE90131002125
:10044000059105497944CDE9031011466846FFF747
:1004500023FF0FB000BD0000E5FFFFFF007B00F0B1
:1004600080007047754600F02BF8AE4605006946DF
:10047000534620F00700854618B020B5FFF7ECFE84
:10048000BDE820404FF000064FF000074FF0000895
:100490004FF0000B21F00701AC46ACE8C009ACE816
:1004A000C009ACE8C009ACE8C0098D46704710B57A
:1004B0000446AFF300802046BDE81040FFF7B8BE09
:1004C000004870471C000020F0B50A4600210023B8
:1004D000002400BF3DE0012505FA01F3156805EA97
:1004E00003049C4234D105684F000326BE40B54347
:1004F000056015794E00B5400668354305601579ED
:10050000012D02D01579022D16D185684F000326E2
:10051000BE40B543856055794E00B5408668354389
:100520008560456801268E40B543456045689679EB
:100530008E40B6B235434560C5684F000326BE40C5
:10054000B543C560D5794E00B540C6683543C56032
:10055000491C1029BFD3F0BD418370470183704708
:1005600029B1064A12680243044B1A6004E0034AA8
:1005700012688243014B1A60704700003038024015
:1005800029B1064A12680243044B1A6004E0034A88
:1005900012688243014B1A607047000040380240E5
:1005A0000CB50020019000903348006840F4803082
:1005B0003149086000BF3048006800F40030009006
:1005C0000198401C0190009818B90198B0F5A04F0F
:1005D000F1D12948006800F4003010B101200090EA
:1005E00001E0002000900098012844D122484030CA
:1005F000006840F080502049403108601F48006882
:1006000040F440401D4908601B48083000681A4902
:10061000083108600846006808600846006840F431
:10062000805008601648091F0860081F006840F0E5
:100630008070091F086000BF0F48006800F000705C
:100640000028F9D040F202700E4908600A480830CC
:10065000006820F003000849083108600846006877
:1006600040F00200086000BF03480830006800F056
:100670000C000828F8D10CBD003802400070004082
:1006800019544107003C024010B51548006840F479
:100690007000134908601348006840F001001149D8
:1006A000086000200F49083108600E4800680E49B4
:1006B00008400C4908600D48091D0860081F0068C3
:1006C00020F48020091F0860002006490C310860D2
:1006D000FFF766FF4FF0006001498039086010BDE8
:1006E00088ED00E000380240FFFFF6FE10300024E5
:1006F000CA430282704721B1028842F0010202809F
:1007000004E002884FF6FE731A40028070470246EA
:100710000020138A0B400BB1012000E0002070473D
:1007200002884FF6F7731A40028002880A4302805B
:100730007047000000220288184B98420ED0184BD8
:1007400098420BD0B0F1804F08D0164B984205D09C
:10075000154B984202D0154B984204D14FF68F7337
:100760001A404B881A43124B984207D0114B9842BB
:1007700004D04FF6FF431A400B891A4302804B689E
:10078000C3620B880385054B984202D0044B984204
:1007900001D18B7A038601238382704700000140D8
:1007A000000401400004004000080040000C00402C
:1007B000001000400014004010B540F225511D48C3
:1007C00000F061F880B140F225511A4800F04CF871
:1007D000184800F082F81849184A127888541748C7
:1007E0000078401C1549087040F22441114800F07F
:1007F0004AF8E8B10F4800880E48808800200E496A
:100800000E4A127888540D4908700B490CA0FFF766
:1008100037FD11A10848FFF79DFD10B900F02CFA33
:1008200006E00FA10448FFF795FD08B900F05CF859
:1008300010BD00000010014008000020040000204E
:10084000BDD3CAD5B5BDB5C4D7D6B7FBB4AECAC73C
:10085000A3BA25730D0A00006F70656E00000000DA
:10086000636C6F736500000010B50022002340F632
:100870006A14A14200D100BF0A1201249440A3B21D
:10088000DC43048010BD70B502460024002300251F
:10089000002040F66A16B14200D100BFC1F34215F4
:1008A00001F01F03012606FA03F3012D02D19689F8
:1008B000334006E0022D02D1168A334001E0968AC9
:1008C00033400C12012606FA04F41688344013B1A2
:1008D0000CB1012000E0002070BD01468888C0F303
:1008E0000800704700BF704710B508210948FFF79E
:1008F00033FE10210748FFF731FE4FF4967000F0E9
:100900000BF808210348FFF729FE10210148FFF7E3
:1009100025FE10BD00040240014645F2082201FBFD
:1009200002F000E0401E0028FCD1704700BF054ADD
:10093000128802F04002002AF9D0C2B2014B9A801C
:10094000704700000010014070B505462A2000F0F5
:10095000BDF9002000F0EAF9EF2000F0E7F92B20C4
:1009600000F0B4F9002000F0E1F9EF2000F0DEF92A
:100970002C2000F0ABF9002403E0284600F0D6F963
:10098000641CB4F5614FF8D370BD000010B500F0E1
:10099000C3F800F047F900F087F9362000F096F927
:1009A000002000F0ABF93A2000F090F9052000F0AB
:1009B000A5F9B22000F08AF90C2000F09FF90C2074
:1009C00000F09CF9002000F099F9332000F096F92E
:1009D000332000F093F9B72000F078F9352000F0CB
:1009E0008DF9BB2000F072F9192000F087F9C020C2
:1009F00000F06CF92C2000F081F9C22000F066F9BB
:100A0000012000F07BF9C32000F060F9122000F013
:100A100075F9C42000F05AF9202000F06FF9C620C3
:100A200000F054F90F2000F069F9D02000F04EF9E1
:100A3000A42000F063F9A12000F060F9E02000F0AC
:100A400045F9D02000F05AF9042000F057F90D20A4
:100A500000F054F9112000F051F9132000F04EF984
:100A60002B2000F04BF93F2000F048F9542000F013
:100A700045F94C2000F042F9182000F03FF90D2014
:100A800000F03CF90B2000F039F91F2000F036F996
:100A9000232000F033F9E12000F018F9D02000F015
:100AA0002DF9042000F02AF90C2000F027F911207C
:100AB00000F024F9132000F021F92C2000F01EF999
:100AC0003F2000F01BF9442000F018F9512000F0FD
:100AD00015F92F2000F012F91F2000F00FF91F2048
:100AE00000F00CF9202000F009F9232000F006F9AD
:100AF000212000F0EBF8112000F0E8F8292000F0A8
:100B0000E5F802210348FFF729FD0020FFF71CFF4D
:100B100010BD0000000402401CB501210220FFF7B7
:100B20001FFD45F20240009001208DF804000020D6
:100B30008DF806008DF8070069460648FFF7C4FCEB
:100B400002210448FFF708FD4FF480510148FFF7E8
:100B500005FD1CBD000402402DE9F04707460E4686
:100B6000144625466888A98800FB01F804F10809A5
:100B70002A2000F0ABF8384600F0D8F869883944EC
:100B8000491E88B200F0D2F82B2000F09FF83046C2
:100B900000F0CCF8A9883144491E88B200F0C6F8AC
:100BA0002C2000F093F807E0B9F8000000F0BEF840
:100BB000A8F1010809F10209B8F1000FF4D1BDE86C
:100BC000F087000070B504464FF400511448FFF759
:100BD000C3FC4FF400411248FFF7C0FC00251BE0A6
:100BE0004FF400510E48FFF7B7FC04F0800028B125
:100BF0004FF400410A48FFF7B1FC04E04FF4004114
:100C00000748FFF7A9FC4FF400510548FFF7A6FC81
:100C10006006040E681CC5B2082DE1DB70BD000043
:100C2000000402401CB501210220FFF799FC0020BE
:100C3000009001904FF42040009001208DF80400B6
:100C400000208DF806008DF8070002208DF80500C1
:100C500069460248FFF738FC1CBD00000004024052
:100C6000FFF794FE034A00210846FFF775FF00BF17
:100C7000FEE70000CE0D000810B508210948FFF777
:100C80006DFC10210748FFF767FC4FF49670FFF7E3
:100C900043FE08210348FFF761FC10210148FFF7DC
:100CA0005DFC10BD0004024010B54FF480610648A1
:100CB000FFF752FC642000F053F84FF480610248C3
:100CC000FFF74CFC10BD00000004024010B50446C4
:100CD0004FF480510848FFF73FFC4FF4804106482D
:100CE000FFF73AFC2046FFF76DFF4FF480510248B2
:100CF000FFF734FC10BD00000004024010B50446AC
:100D00004FF480510848FFF727FC4FF48041064814
:100D1000FFF724FC2046FFF755FF4FF480510248AF
:100D2000FFF71CFC10BD00000004024010B5044693
:100D30004FF480510948FFF70FFC4FF480410748FA
:100D4000FFF70CFC2012FFF73DFFE0B2FFF73AFF80
:100D50004FF480510148FFF701FC10BD0004024030
:100D60003EB5044601210820FFF70AFC0020009050
:100D700001900290ADF80800ADF8020004EB840089
:100D80000121C1EB4000019042F2CF00ADF800001C
:100D900069460B48FFF7CEFC08210948FFF7C0FC65
:100DA00001210748FFF7A4FC01210548FFF7A3FC38
:100DB00000BF01210248FFF7AAFC0028F9D03EBD80
:100DC000000C00404FF04070E1EE100A7047001038
:100DD000F000F000011BDE04DE04DE04DE04DE04AD
:100DE000DE04DE04DE04BE04BE04BE04BE04BE0493
:100DF000BE04BE04BE04BE04BE04BE04BE04BE04E3
:100E0000BE04BE04BE04BE04BE049E049E049E0432
:100E10009E049E04BE04BF04DF04FF0CDF049E0496
:100E20007E047D047D045D045D045D045D045D0459
:100E30005D043C043C043D043D043D043D043D048C
:100E40003D043D043D043D043D043D043D043D049A
:100E50001D041D041D041D041D041D041D041C048B
:100E60001C041C041C04FC031C041C041C04FC03C4
:100E7000FC03FC03FC03FC03FC03FC03FC03DC039A
:100E8000DC03DC03DC03BC03BC03BC03BC03BC030A
:100E9000BC03BC03BC03BC03BC039B039B039B03BD
:100EA0009B039B039B039B039B037B037B037B03B2
:100EB0007B037B037B035B035B035B035B035B03E2
:100EC0003A033A033A033A033A033B033A033A0339
:100ED0001A033A033A031A031A031A031A031A03EA
:100EE0001A03FA02FA02FA02FA02FA02FA02FA0201
:100EF000F902F902FA02F902F902D902D902D90279
:100F0000D902D902D902B902B902B902B902B902A9
:100F1000B902B902B9029902B902B902B902B90219
:100F200099029902990299029902990299029902E9
:100F300079027902790279029802790279027902BA
:100F400079027902790279027902790279025802EA
:100F500058025802580258025802580258025802C1
:100F600058025802580258025802580258025802B1
:100F70005802380238025802380238023802380261
:100F80003802380238023802380237023702370294
:100F900037023702370217021702370237023702C9
:100FA0001702170217021702170217021702170279
:100FB000170217021702DE04DE04DE04DE04DE047C
:100FC000DE04DE04DE04DE04DE04BE04BE04BE0471
:100FD000BE04BE04BE04BE04BE04BE04BE04BE0401
:100FE000BE04BE04BE04BE04BE049E049E049E0451
:100FF0009E049E049E04BF049E049E04BF04FF0C36
:10100000FF0CBE047D045D047D045D043D043D04CD
:101010005D045D045D045D043D043C043C043D044A
:101020003D043D043D043D043D043D043D041D04D8
:101030001D041D041D041D041D041D041D041C04A9
:101040001C041C041C04FC031C041C041C04FC03E2
:10105000FC03FC03FC03FC03FC03FC03FC03DC03B8
:10106000DC03DC03DC03BC03BC03BC03BC03BC0328
:10107000BC03BC03BC03BC03BC039B039B039B03DB
:101080009B039B039B039B039B037B037B037B03D0
:101090007B037B037B035B035B035B035B035B0300
:1010A0005B035B035B033B033A033B033A033A03F3
:1010B0003A033A033A031A031A031A031A031A03E8
:1010C0001A03FA02FA02FA02FA02FA02F902F90221
:1010D000F902F902F902F902F902D902D902D90298
:1010E000D902D902D902B902B902B902B902B902C8
:1010F000B902B902B902B902B902B902B902B90218
:101100009902990299029902990299029902990207
:101110009902790279029902990279029902790277
:1011200079027902790279027902790279027902E7
:1011300058025802580258025802580258025802DF
:1011400058025802580258025802580258025802CF
:10115000580238023802580238023802380238027F
:1011600038023802380238023802370237023702B2
:1011700037023702370237023702370217021702E7
:101180001702170217021702170217021702170297
:10119000170217021702DE04DE04DE04DE04DE049A
:1011A000DE04DE04DE04DE04DE04DE04BE04BE046F
:1011B000BE04BE04BE04BE04BE04BE04BE04BE041F
:1011C000BE04BE04BE04BE04BE04BE049E049E044F
:1011D0009E049E049E049E049E049E049E049E04FF
:1011E000BF04DF0CFF0CBE047D045D047D047D04A0
:1011F0005D043D043D043D045D045D045D045D0447
:101200003D043D043D043D043D043D043D041D04F6
:101210001D041D041D041D041D041D041D041C04C7
:101220001C041C041C041C041C041C041C04FC03DF
:10123000FC03FC03FC03FC03FC03FC03FC03DC03D6
:10124000DC03DC03DC03BC03BC03BC03BC03BC0346
:10125000BC03BC03BC03BC03BC03BC039B039B03D8
:101260009B039B039B039B039B037B039B039B03AE
:101270007B037B037B035B035B035B035B035B031E
:101280005B035B035B035B033A033A033A033A03F2
:101290003A033A033A033A031A031A031A031A03E6
:1012A0001A03FA02FA02FA02FA02FA02FA02F9023E
:1012B000F902F902F902F902F902D902D902D902B6
:1012C000D902D902D902B902B902B902B902B902E6
:1012D000B902B902B902B902B902B902B902B90236
:1012E000B902990299029902990299029902990206
:1012F0009902990299029902790279027902790296
:101300007802790279027902790279027902780207
:1013100058025802580258025802580258025802FD
:1013200058025802580258025802580258025802ED
:10133000580238023802580238023802380238029D
:1013400038023802380238023802370237023702D0
:101350003702370237023702370217021702170225
:1013600017021702170217021702170217021702B5
:10137000170217021702DE04DE04DE04DE04DE04B8
:10138000DE04DE04DE04DE04DE04DE04BE04BE048D
:10139000BE04BE04BE04BE04BE04BE04BE04BE043D
:1013A000BE04BE04BE04BE04BE04BE049E049E046D
:1013B0009E049E049E049E049E049E049E049E041D
:1013C0009E049E04BF04BE04DF0CBF0C7D043D04DC
:1013D0005D045D045D043D045D045D045D043D0445
:1013E0003C043D043D043D043D043D043D041D0416
:1013F0001D041D041D041D041D041D041D041D04E5
:101400001C041C041C041C041C041C04FC03FC031E
:10141000FC03FC03FC03FC03FC03FC03DC03DC0314
:10142000DC03DC03DC03BC03BC03BC03BC03BC0364
:10143000BC03BC03BC03BC03BC03BC03BC039B03D5
:101440009B039B039B039B039B039B039B039B03AC
:101450009B037B037B035B035B035B035B035B031C
:101460005B035B035B033A035B033A033B033A030F
:101470003A033A033A033A031A033A031A031A03E4
:101480001A03FA021A03FA02FA02FA02FA02FA023A
:10149000FA02FA02FA02F902F902D902D902D902D1
:1014A000D902D902D902D902D902D902B902B902A4
:1014B000B902B902B902B902B902B902B902B90254
:1014C000B902990299029902990299029902990224
:1014D00099029902990279027902790279027802D5
:1014E0007802790279027902790279027902780226
:1014F00078025802580258025802580258025802FC
:10150000580258025802580258025802580258020B
:1015100058023802380258023802380238023802BB
:1015200038023802380238023802370237023702EE
:101530003702370237023702370237021702170223
:1015400017021702370217021702170217021702B3
:10155000170217021702DE04DE04DE04DE04DE04D6
:10156000DE04DE04DE04DE04DE04DE04DE04DE046B
:10157000DE04BE04BE04BE04BE04BE04BE04BE043B
:10158000BE04BE04BE04BE04BE04BE04BE049E046B
:101590009E049E049E049E049E049E049E049E043B
:1015A0009E049E049E049E047E049E04DF0CDF0CB9
:1015B0009E045D045D043D043D045D045D045D0422
:1015C0003D043D043D043D043D043D043D043D0413
:1015D0003D043D043D041D041D041C041C041D04A5
:1015E0001D041C041C041C041C041C04FC03FC033C
:1015F000FC03FD03FC03FC03FC03FC03FC03DC0312
:10160000DC03DC03DC03DC03DC03DC03DC03BC0302
:10161000BC03BC03BC03BC03BC03BC03BC039C03F2
:101620009C039C039C039B039B039B039C039C03C5
:101630009B037B037B037B037B035B035B035B03FA
:101640005B035B035B035B035B033A035B033A03EC
:101650005A033A033A033A031A033A031A031A03E2
:101660001A031A031A03FA02FA02FA02FA02FA0237
:10167000FA02FA02FA02F902F902D902D902D902EF
:10168000D902DA02DA02DA02DA02D902D902B9029E
:10169000B902B902B902B902B902B902B902B90272
:1016A00099029902B9029902990299029902990242
:1016B0009902990299029902990299027902790292
:1016C0007902790279027902790278027802780245
:1016D000780258025802580258025802580258021A
:1016E000580258025802580258025802580258022A
:1016F00058023802380258023802380238023802DA
:10170000380238023802380238023702370237020C
:10171000370A370237023702370237021702170239
:1017200017021702370217021702170217021702D1
:10173000170217021702DE04DE04DE04DE04DE04F4
:10174000DE04DE04DE04DE04DE04DE04DE04DE0489
:10175000DE04BE04BE04BE04BE04BE04BE04BE0459
:10176000BE04BE04BE04BE04BE04BE04BE049E0489
:101770009E049E049E049E04BE049E049E047E0459
:101780007E049E049E049E049E049E047E049E0489
:10179000BF0CDF0C9F0C7E045D045D043D045D0402
:1017A0005D043D043D043D043D043D043D043D0411
:1017B0003D043D043D041D041D041D041C041D04C2
:1017C0001D041D041C041D041C04FC03FC031C0458
:1017D0001C04FD03FC03FC03FC03FC03FC03FC03EF
:1017E000FC03DC03DC03DC03DC03DC03DC03BC0301
:1017F000BC03BC03BC03BC03BC03BC03BC03BC03F1
:101800009C039C039C039C039C039C039C039C03E0
:101810009B037B037B037B037B037B035B035B03F8
:101820005B035B035B033A035B033B033B033A034A
:101830003A033A033A033A031A033A031A031A0320
:101840001A031A031A03FA02FA02FA02FA02F90256
:10185000F902FA02FA02FA02F902FA02D902D902EC
:10186000D902DA02DA02DA02DA02D902D902D9029C
:10187000B902B902B902B902B902B902B902B90290
:101880009902B902B9029902990299029902990240
:1018900099029902990299029902990279027902B0
:1018A0007902790279027902790278027802780263
:1018B0007802580258025902580258025802580237
:1018C0005802580258025802580258025802580248
:1018D00058025802580258023802380238023802B8
:1018E000380238023802380238023702370237022B
:1018F000370A370237023702370237021702170258
:10190000170217021702170217021702170217020F
:10191000170217021702DE04DE04DE04DE04DE0412
:10192000DE04DE04DE04DE04DE04DE04DE04DE04A7
:10193000DE04DE04BE04BE04BE04BE04BE04BE0457
:10194000BE04BE04BE04BE04BE04BE04BE04BE0487
:10195000BE049E049E049E049E049E04BE04BE0417
:101960009E047E047D047E049E049E049E047E04E8
:101970007E049F04DF0CBF0C9F0C7E045D043D04BD
:101980003D045D045E043D043D043D043D043D040E
:101990003D043D043D043D041D041D041C041C04C1
:1019A0001C041D041D041D041C04FC03FC03FD0396
:1019B000FD03FD03FD03FD03FC03FC03FC03FC032B
:1019C000FC03FC03DC03DC03DC03DD03DC03DC03DE
:1019D000BC03BC03BC03BC03BC03BC03BC03BC030F
:1019E000BC039C039C039C039C039C039B039B03E1
:1019F0009B039B037B037B037B037B037B035B03D7
:101A00005B035B035B035B033A035B033A033A0349
:101A10003A033A033A033A033A033A031A031A031E
:101A20003A031A031A031A03FA02FA02FA02FA0232
:101A3000FA02FA02FA02FA02F902FA02D902D90209
:101A4000D902DA02DA02DA02DA02DA02DA02DA02B7
:101A5000DA02B902B902B902B902B902B902B9028D
:101A6000B902B902B902990299029902990299023E
:101A700099029902990299029902790278027802F0
:101A80007902790278027802780278027802780284
:101A90007802580258027902790258025802580214
:101AA0005802580258025802580258025802580266
:101AB00058025802580258023802380238023802D6
:101AC0003802380238023802380238023802370247
:101AD000370237023702370237023702370237023E
:101AE000170217021702170217021702170217022E
:101AF000170217021702DE04DE04DE04DE04DE0431
:101B0000DE04DE04DE04DE04DE04DE04DE04DE04C5
:101B1000DE04DE04DE04BE04BE04BE04BE04BE0455
:101B2000BE04BE04BE04BE04BE04BE04BE04BE04A5
:101B3000BE04BE04BE049E049E049E049E049E0435
:101B40009E049E049E049E049E047E047E047E04E5
:101B50009E049E047E047E04BF0CDF0CBF0C7E043A
:101B60005D043D043D043D043D043D043D043D044D
:101B70003D043D043D043D043D041D041D041C04BE
:101B80001C041D041D041D041C04FC03FC03FD03B4
:101B90001D04FD03FD03FD03FD03FC03FC03FD0326
:101BA000FD03FC03DC03DC03DC03DC03DC03DC03FC
:101BB000DC03DC03DC03BC03BC03BC03BC03BC03CD
:101BC000BC039C039C03BC039C039C039B039B03DF
:101BD0009B039B037B037B037B037B037B037B03D5
:101BE0005B035B035B035B033A035B033A035B0347
:101BF0003A033B033A033A033A033A031A031A033C
:101C00003A031A031A031A031A03FA02FA02FA022F
:101C1000FA02FA02FA02FA02F902FA02FA02D90206
:101C2000D902DA02DA02DA02DA02DA02DA02DA02D5
:101C3000DA02B902B902B902B902B902B902B902AB
:101C4000B902B902B902990299029902990299025C
:101C500099029902990299029902990279027902EC
:101C60009902990278027802780278027802780262
:101C70007802580258027902790258025802580232
:101C80005802580258025802580258025802580284
:101C900058025802580258023802380238023802F4
:101CA0003802380238023702380238023802370266
:101CB00017023702370A3702370237023702370274
:101CC000170217021702170217021702170217024C
:101CD000170217021702DE04FE04FE04DE04DE040F
:101CE000DE04DE04DE04DE04DE04DE04DE04DE04E4
:101CF000DE04DE04DE04BE04BE04BE04BE04BE0474
:101D0000BE04BE04BE04BE04BE04BE04BE04BE04C3
:101D1000BE04BE04BE04BE04BE049E049E049E0413
:101D20009E049E049E049E049E049E049E047E04C3
:101D30007E047E047E047E047E049E04BF04DF0CC9
:101D4000BF0C9E047E045D045D043D043D043D041F
:101D50003D043D043D043D043D043D041D041D04BB
:101D60001C04FC03FC031D041D041D041D041D04B0
:101D70001D04FD03FD03FD03FD03FC03FC03FC0345
:101D8000FC03DC03DC03DC03DC03DD03DD03DD0338
:101D9000DC03DC03BC03BC03BC03BC03BC03BC030B
:101DA0009C03BC03BC03BC039C039C039C039C03DB
:101DB0009C039C037C037B037B037B035B035B0330
:101DC0007B035B037B035B035B035B035B033A0304
:101DD0003A033A033A033A033A031A033A031A035B
:101DE0001A031A031A031A03FA021A03FA02FA026E
:101DF000FA02D902FA02F902FA02FA02FA02FA0225
:101E0000D902DA02DA02DA02DA02DA02DA02DA02F3
:101E1000DA02B902B902B902B902B902B902B902C9
:101E2000B902B902B9029902B902B902990299023A
:101E300099029902990299029902990299029902CA
:101E4000990299027902790278027802780278027E
:101E500078027802780279025802580279027802F0
:101E600058025802580258025802580238025802C2
:101E700058025802580258023802380258023802F2
:101E80003802380238023802380238023802370283
:101E900037023702370A3702370237023702370272
:101EA000170217021702370A170217021702170242
:101EB000170217021702DE04FE04FE04DE04DE042D
:101EC000DE04DE04DE04DE04DE04DE04DE04DE0402
:101ED000DE04DE04DE04BE04BE04BE04BE04BE0492
:101EE000BE04BE04BE04BE04BE04BE04BE04BE04E2
:101EF000BE04BE04BE04BE04BE049E049E049E0432
:101F00009E049E049E049E049E049E049E047E04E1
:101F10007E047E047E047E047E047E047E047E04B1
:101F20009E04BF0CBF0C9F0C7E045D045D045D0429
:101F30003D043D043D043D043D043D043D043D0499
:101F40001D041D041D041D041D041D041D041D0489
:101F50001D04FD03FD03FD03FD03FC03FC03FC0363
:101F6000FC03DC03DC03DC03DC03DD03DD03DD0356
:101F7000DC03DC03BC03BC03BC03BC03BC03BC0329
:101F8000BC03BC03BC03BC039C039C039C039C03D9
:101F90009C039C039C039B037B037B037B037B03CE
:101FA0007B035B035B035B035B035B035B033B0341
:101FB0003A033A033A033A033A033A033A033A0339
:101FC0001A031A031A031A03FA021A0BFA02FA0284
:101FD000FA02FA02FA02FA02FA02FA02FA02FA0221
:101FE000FA02DA02DA02DA02DA02DA02DA02DA02F1
:101FF000DA02DA02B902B902B902B902B902B902C7
:10200000B902B902B9029902B90299029902990278
:1020100099029902990299029902990299029902E8
:10202000990299029902790279027802780278027B
:1020300078027802780279027902580279027802ED
:1020400058025802580258025802580258025802C0
:102050005802580258025802380238025802380210
:102060003802380238023802380238023802370A99
:1020700037021702370237023702370237023702B8
:102080001702170217021702170217021702170288
:10209000170217021702FE04FE04FE04DE04DE042B
:1020A000DE04DE04DE04DE04DE04DE04DE04DE0420
:1020B000DE04DE04DE04DE04DE04BE04BE04BE0470
:1020C000BE04BE04BE04BE04BE04BE04BE04BE0400
:1020D000BE04BE04BE04BE04BE049E049E049E0450
:1020E0009E049E049E049E049E049E049E049E04E0
:1020F0007E047E047E047E047E047E047E047E04D0
:102100007E049F04BF0C9F04BF0CBF0C7E043D04E3
:102110003D043D043D043D043D045D043D043D0497
:102120001D041D041D041D041D041D041D041D04A7
:102130001D041D04FD03FD03FD03FD03FD03FD035D
:10214000FC03DD03DD03DD03DD03DD03DD03DD0370
:10215000DD03DD03DD03BC03BC03BC03BC03BC0324
:10216000BC03BC03BC03BC03BC039C039C039C03D7
:102170009C039C039C039C039C037C037C037B03C8
:102180007B037B037B035B035B035B035B035B03FF
:102190005B033B033B033B033A033A033A031A0353
:1021A0001A031A031A031A031A031A031A03FA0268
:1021B000FA02FA02FA02FA02FA02FA02FA02FA023F
:1021C000FA02DA02DA02DA02DA02DA02DA02DA020F
:1021D000DA02DA02DA02B902B902B902B902B902C4
:1021E000B902BA02BA0299029902990299029902B5
:1021F0009902990299029902990299027902790247
:1022000079029902990279027802780278027802BA
:102210007802790279027902790258027902790208
:1022200058025802580258025802580258025802DE
:10223000580258025802580258023802580238020E
:102240003802380238023802380238023802380AB6
:1022500038023702370237023702370237023702B5
:102260003702170217021702170217021702170286
:10227000170217021702FE04FE04FE04DE04DE0449
:10228000DE04DE04DE04DE04DE04DE04DE04DE043E
:10229000DE04DE04DE04DE04DE04BE04BE04BE048E
:1022A000BE04BE04BE04BE04BE04BE04BE04BE041E
:1022B000BE04BE04BE04BE049E049E049E049E048E
:1022C0009E049E049E049E049E049E049E049E04FE
:1022D0007E047E047E047E047E047E049E049E04AE
:1022E0007E047E047E049E047E049E04DF0CDF0CCC
:1022F0009E045D043D045D043D043D041D043D0455
:102300003D041D041D041D041D041D041D041D04A5
:102310001D041D041D04FD03FD03FD03FD03FD035A
:10232000FC03DD03DD03DD03DD03DD03DD03DD038E
:10233000DD03DD03DD03DC03BC03BC03BC03BC0322
:10234000BC03BC039C03BC03BC039C039C039C0315
:102350009C039C039C037C037C037C037C037C0325
:102360007C037C037C035B035B035B035B035B031A
:102370005B033B033B033B033B033B033A031A036F
:102380001A031A031A031A031A031A031A03FA0286
:10239000FA02FA02FA02FA02FA02FA02FA02FA025D
:1023A000FA02DA02DA02DA02DA02BA02BA02DA026D
:1023B000DA02DA02DA02B902B902B902B902B902E2
:1023C000B902BA02B90299029902990299029902D4
:1023D0009902990299029902990299029902790245
:1023E00099029902990278027802780278027802BA
:1023F0007802790279027902790258025802580269
:1024000058025802580258025802580258025802FC
:10241000580258025802580258023802580238022C
:1024200038023802380238023802380238023802DC
:1024300038023702370A37023702370237023702CB
:102440003702370237021702170217021702170264
:10245000170217021702FE04FE04FE04FE04DE0447
:10246000FE04FE04DE04DE04DE04DE04DE04DE041C
:10247000DE04DE04DE04DE04DE04DE04DE04BE046C
:10248000BE04BE04BE04BE04BE04BE04BE04BE043C
:10249000BE04BE04BE04BE049E049E04BE049E048C
:1024A0009E049E049E049E049E049E049E049E041C
:1024B0009E047E047E047E047E047E047E047E04EC
:1024C0007E047E047E049E049E047E045E047E04DC
:1024D000BF0CBF0C9E043D043D045E045E043D043D
:1024E0003D041D041D041D041D041D041D041D04C4
:1024F0001D041D041D04FD03FD03FD03FD03FD0379
:10250000FC03FD03FD03DD03DD03DD03DD03DD036C
:10251000DD03DD03DD03DD03DD03BD03BD03BD031B
:10252000BC03BC039C03BC03BC039C039C039C0333
:102530009C039C039C039C039C037C037C037C0303
:102540007C037C037B035B037B035B035B035B0319
:102550003B033B033B033B033B033B033B033B038B
:102560001A031A031A031A031A03FA02FA02FA02E6
:10257000FA02FA02FA02FA02FA02FA02FA02FA027B
:10258000FA02DA02DA02DA02DA02DA02DA02DA024B
:10259000DA02DA02DA02BA02DA02BA02BA02BA02DB
:1025A000BA02BA02B90299029902990299029A02F0
:1025B0009A029A029A029902990299029902990240
:1025C0009902790279027902790279027902790213
:1025D00079027902790258025802580258025802C8
:1025E000580258025802580258025802580258021B
:1025F000580258023802580258025802580238024B
:1026000038023802380238023802370237023702FD
:1026100037023802380237023702370237023702F0
:1026200037023702170217021702170217021702A2
:10263000170217021702FE04FE04FE04FE04DE0465
:10264000FE04FE04DE04DE04DE04DE04DE04FE041A
:10265000DE04DE04DE04DE04DE04DE04DE04BE048A
:10266000BE04BE04BE04BE04BE04BE04BE04BE045A
:10267000BE04BE04BE04BE049E049E04BE04BE048A
:102680009E049E049E049E049E049E049E049E043A
:102690009E049E049E047E047E047E047E047E04CA
:1026A0007E047E049E047E047E047E049F049E04B9
:1026B0005E047E04BF0CDF149E0C3D041D041D044B
:1026C0003D043D043D043D041D041D041D041D0482
:1026D0001D041D041D04FD03FD03FD03FD03FD0397
:1026E000FC03FD03FD03DD03DD03DD03DD03DD038B
:1026F000DD03DD03DD03DD03DD03BD03BD03BD033A
:10270000BC03BC03BC03BC03BC03BC039C039C0311
:102710009C039C039C039C039C037C037C037C0321
:102720007C035C035C035B037B035B035B035B0376
:102730003B033B035B033B033B033B033B033B0389
:102740003B033B031A031A031A03FA02FA02FA02C2
:10275000FA02FA02FA02FA02FA02FA02FA02FA0299
:10276000DA02DA02DA02DA02DA02DA02DA02DA0289
:10277000DA02DA02DA02BA02DA02BA02BA02BA02F9
:10278000BA02BA02BA02BA029902990299029A02EC
:102790009A029A029A02990299029A029A0299025C
:1027A0009902790279027902790279027902790231
:1027B00079027902790258025802580258025802E6
:1027C0005802580258025802580258025802580239
:1027D0005802380238025802580258025802380289
:1027E000380238023802370238023802380238021A
:1027F000380A380217023702370237023702170247
:102800001702170217021702170217021702170200
:10281000170217021702FE04FE04FE04FE04FE0463
:10282000FE04FE04DE04DE04DE04DE04DE04DE0458
:10283000DE04DE04DE04DE04DE04DE04DE04DE0488
:10284000DE04BE04BE04BE04BE04BE04BE04BE0458
:10285000BE04BE04BE04BE049E049E04BE04BE04A8
:102860009E049E049E049E049E049E049E049E0458
:102870009E049E049E047E047E049E049E047E04A8
:102880007E047E047E049E049E047E045E045E0438
:102890007E047E047E045E049F0CDF14BF0C5E0485
:1028A0001D041D043D041D041D041D041D041D0400
:1028B0001D041D041D04FD03FD03FD03FD03FD03B5
:1028C000FD03FD03FD03FD03DD03DD03DD03DD0388
:1028D000DD03DD03DD03DD03DD03DD03DD03BD0318
:1028E000BD03BC03BC03BD03BD03BC03BC039C030D
:1028F0009C039C039C039C039C039C039C037C0300
:102900007C037C037C035C035C035B035B035B0372
:102910005B035B033B033B033B033B033B033B0387
:102920003B031A031A031A031A03FA021A03FA02E0
:10293000FA02FA02FA02FA02FA02FA02FA02FA02B7
:10294000DA02DA02DA02DA02DA02DA02DA02DA02A7
:10295000DA02DA02DA02BA02DA02DA02BA02BA02F7
:10296000BA02BA02BA02BA02BA029A02BA029A02C7
:102970009A0299029A029A029A029902990299027B
:10298000990279027902990279027902790279022F
:1029900079027902790258027902790258025802C2
:1029A0007902580258027802580258025802580216
:1029B0005802580258025802580258025802380267
:1029C0003802380238023702380238023802380A30
:1029D000380A380A3702370237023702370237021D
:1029E000170217021702170217021702170217021F
:1029F000170217021702FE04FE04FE04FE04FE0482
:102A0000FE04FE04DE04FE04DE04DE04DE04DE0456
:102A1000DE04DE04DE04DE04DE04DE04DE04DE04A6
:102A2000BE04BE04BE04BE04BE04BE04BE04BE0496
:102A3000BE04BE04BE04BE049E049E04BE04BE04C6
:102A40009E049E04BE049E049E049E049E049E0456
:102A50009E049E049E049E047E047E047E047E04E6
:102A60009E047E047E047E047E049E049E049E04D6
:102A70007E047E049E049E047E045E047E04BF0CDD
:102A8000BF0C7E0C3D043D043D041D041D041D04CB
:102A90001D041D041D04FD03FD03FD03FD03FD03D3
:102AA000FD03FD03FD03FD03FD03DD03DD03DD0386
:102AB000DD03DD03DD03DD03DD03DD03DD03DD0316
:102AC000BD03BD03DD03BD03BD03BC03BC039C0309
:102AD0009C039C039C039C039C039C039C039C03FE
:102AE0007C037C037C037C035C035C035B035B0370
:102AF0005B035B033B033B035B035B033B033B0366
:102B00003B031A031A031A033B031A031A031A039B
:102B1000FA021A03FA02FA02FA02FA02FA02FA02B4
:102B2000DA02DA02FA02DA02DA02DA02DA02DA02A5
:102B3000DA02DA02DA02BA02DA02DA02BA02BA0215
:102B4000BA02BA02BA02BA02BA029A02BA029A02E5
:102B5000990299029A029A029A02990279027902DA
:102B6000790299029902790279027902790279024D
:102B7000790279027902790279027902580279029E
:102B80007902780258027802580258025802580214
:102B90005802580258025802580258025802380285
:102BA0003802380238023802380237021702370278
:102BB000380238023702370237023702370237024B
:102BC00037023702370217021702170217021702DD
:102BD000170217021702FE04FE04FE04FE04FE04A0
:102BE000FE04DE04DE04FE04DE04DE04DE04DE0495
:102BF000DE04DE04DE04DE04DE04DE04DE04DE04C5
:102C0000DE04BE04BE04BE04BE04BE04BE04BE0494
:102C1000BE04BE04BE04BE04BE04BE04BE049E04C4
:102C20009E049E049E049E049E049E049E049E0494
:102C30009E049E049E049E049E049E049E049E0484
:102C40009E049E049E047E047E047E047E047E0414
:102C50007E047E047E047E047F047F047E047E0462
:102C60007E049F0CBF0C7F0C5E041D041D041D041C
:102C70001D041D041D04FD03FD03FD03FD03FD03F1
:102C8000FD03FD03FD03FD03FD03FD03DD03DD0384
:102C9000DD03DD03DD03DD03DD03BD03DD03DD0354
:102CA000BD03BD03BD03BC03BC03BC03BC039C0349
:102CB0009C039C039C039C039C039C037C037C035C
:102CC0007C037C037C037C037C035C035C035C036C
:102CD0005C035B035B033B033B033B033B033B03A3
:102CE0003B033B033B033B031B031A031A031A0377
:102CF0001A031A03FA02FA02FA02FA02FA02FA02B2
:102D0000FA02FA02FA02DA02DA02DA02DA02DA0283
:102D1000DA02DA02BA02DA02DA02DA02DA02DA02F3
:102D2000BA02BA02BA02BA02BA02BA02BA02BA02C3
:102D3000BA029A029A0279029A029A029A029A02B4
:102D4000990299027902990279027902790279024B
:102D5000790279027902790278027802780278029F
:102D60007802780278027802580258025802580213
:102D70005802580258025802580258025802580283
:102D80005802380238023802380238023802380253
:102D9000380238021702380A38023702370217029F
:102DA000170217021702370217021702170217023B
:102DB000170217021702FE04FE04FE04FE04FE04BE
:102DC000FE04DE04DE04FE04DE04DE04DE04DE04B3
:102DD000DE04DE04DE04DE04DE04DE04DE04DE04E3
:102DE000DE04BE04BE04BE04BE04BE04BE04BE04B3
:102DF000BE04BE04BE04BE04BE04BE04BE049E04E3
:102E00009E049E049E049E049E049E049E049E04B2
:102E10009E049E049E049E049E049E049E049E04A2
:102E20009E049E049E047E047E047E047E047E0432
:102E30007E047E047E045E045E047E047E045E04E2
:102E40007E047E047F047E04BF0C9F0C5E041D0480
:102E50001D041D04FD033D041D04FD03FC03FC03D0
:102E6000FD03FD03FD03FD03FD03FD03DD03DD03A2
:102E7000DD03DD03DD03DD03DD03BD03BD03BD03B2
:102E8000BD03BD03BD03BC03BC03BC03BC03BC0347
:102E90009C039C039C039C039C039C039C039C033A
:102EA0009C037C037C037C037C037C037C037C030A
:102EB0005C035B035B033B033B033B033B033B03C1
:102EC0003B033B033B033B031B031A031A031A0395
:102ED0001A031A031A03FA02FA02FA02FA02FA02AF
:102EE000FA02FA02FA02FA02FA02DA02DA02DA0262
:102EF000DA02DA02DA02DA02DA02DA02DA02DA02F2
:102F0000BA02BA02BA02BA02BA02BA02BA02BA02E1
:102F1000BA02BA02BA029A029A029A029A02990272
:102F20009A02990279029902790279027902790268
:102F300079027902790278027802780278027802BE
:102F40007802780278027802580258025802580231
:102F500058025802580258025802580258025802A1
:102F60005802380238023802380238023802380271
:102F700038023802380238023802370237021702A4
:102F80001702370237023702170217021702170219
:102F9000170217021702FE04FE04FE04FE04FE04DC
:102FA000FE04FE04FE04FE04FE04DE04DE04DE0471
:102FB000DE04DE04DE04DE04DE04DE04DE04DE0401
:102FC000DE04BE04BE04BE04BE04BE04BE04BE04D1
:102FD000BE04BE04BE04BE04BE04BE04BE049E0401
:102FE0009E049E049E049E049E049E049E049E04D1
:102FF0009E049E049E049E049E049E049E049E04C1
:103000009E049E049E047E047E049E047E047E0430
:103010007E047E047E045E045E045E045E047E0420
:103020007E047E045E049F045E047F04BF0C9F0C3C
:103030003E041D043E04FD03FD031D041D041D0488
:103040001D04FD03FD03DD03FD03FD03FD03DD039F
:10305000DD03DD03DD03DD03DD03DD03DD03DD0370
:10306000DD03BD03BD03BD03BD03BC03BC03BC0343
:10307000BC03BC03BC039C039C039C039C039C03F8
:103080009C037C037C037C037C037C037C037C0328
:103090005C035C035B035B035B035B033B033B037E
:1030A0003B033B033B033B033B031B031B031A0391
:1030B0001A031A031A03FA02FA02FA02FA02FA02CD
:1030C000FA02FA02FA02FA02FA02FA02DA02DA0260
:1030D000DA02DA02DA02DA02DA02DA02DA02DA0210
:1030E000BA02BA02BA02BA02BA02BA02BA02BA0200
:1030F000BA02BA02BA029A029A029A029902990292
:103100009A029A0299029902990279027902790245
:1031100079027902790278027802780278027802DC
:10312000780278027802780258025802580258024F
:1031300058025802580258025802580258025802BF
:1031400058023802580A3802380238023802370268
:1031500037023802380238023802370237023702A3
:103160003702370237023702170217021702170217
:10317000170217021702FE04FE04FE04FE04FE04FA
:10318000FE04FE04FE04FE04FE04DE04DE04DE048F
:10319000DE04DE04DE04DE04DE04DE04DE04DE041F
:1031A000DE04BE04BE04BE04BE04BE04BE04BE04EF
:1031B000BE04BE04BE04BE04BE04BE04BE04BE04FF
:1031C000BE049E049E049E049E049E049E049E04CF
:1031D0009E049E049E049E049E049E049E049E04DF
:1031E0009E049E049E047E047E049E049E047E042F
:1031F0007E047E047E047F047F045E045E045E041D
:103200007E047E047E045E047E047E043E045E042E
:10321000BF149F145E0C1D041D041D041D04FD033A
:10322000FD03FD031D04FD03FD03FD03FD03DD039D
:10323000DD03DD03DD03DD03DD03DD03DD03DD038E
:10324000DD03BD03BD03BD03BD03BD03BC03BC0360
:10325000BC03BC03BC039C039C039C039C039C0316
:103260009C037C037C037C037C037C037C037C0346
:103270005C035C035B035B035B035B035B033B037C
:103280003B033B033B033B033B033B031B031A038F
:103290001A031A031A03FA02FA02FA02FA02FA02EB
:1032A000FA02FA02FA02DA02FA02FA02FA02DA027E
:1032B000DA02DA02DA02DA02DA02DA02DA02DA022E
:1032C000DA02BA02BA02BA02BA02BA02BA02BA02FE
:1032D000BA02BA02BA029A029A029A0299029902B0
:1032E0009A029A0299029902990279027902790264
:1032F00079027902790278027802780278027802FB
:10330000780278027802780278025802580258024D
:10331000580258025802580A5802580258023802F5
:1033200038023802380238023802380238023702CE
:1033300038023802380238023802380237023702BF
:103340003702370237023702170217021702170235
:10335000170217021702FE04FE04FE04FE04FE0418
:10336000FE04FE04FE04FE04FE04DE04DE04DE04AD
:10337000DE04DE04DE04DE04DE04DE04DE04DE043D
:10338000DE04DE04DE04BE04BE04BE04BE04BE04CD
:10339000BE04BE04BE04BE04BE04BE04BE04BE041D
:1033A000BE04BE04BE049E049E049E049E049E04AD
:1033B0009E049E049E049E049E049E049E049E04FD
:1033C0009E049E049E047E047E049E049E047E044D
:1033D0007E047E047E047F047E045E045E045E043C
:1033E0005E047E047E047F045E045E045E045E046C
:1033F0005E047F0C9F0CBF147F0C1E04FD031D0494
:103400001D041D04FD03FD03FD03FD03FD03FD037A
:10341000DD03DD03FD03DD03DD03DD03DD03DD038C
:10342000DD03DD03DD03BD03BD03BD03BD03BD033C
:10343000BD03BD03BD03BD03BD039C039C039D03EE
:103440009D039D039D039D037C037C037C037C0300
:103450007C037C035C035C035C035C035C035B0335
:103460003B033B033B033B033B033B031B031B03AC
:103470001B031B031B03FA02FA02FA02FA02FA0206
:10348000FA02FA02FA02DA02FA02FA02FA02DA029C
:10349000DA02DA02DA02DA02DA02DA02DA02DA024C
:1034A000DA02DA02DA02BA02BA02BA02BA02BA02DC
:1034B000BA02BA02BA029A029A029A029A029A02CC
:1034C0009A029A0299029902990279027902790282
:1034D0007902790279027902790279027902790214
:1034E0007902790279027902790258025802580267
:1034F00058025802580258025802580258025802FC
:1035000038023802380238023802380238023802EB
:10351000380238021702380A3802380238023702F5
:103520003702370237023702170217021702170253
:10353000170217021702FE04FE04FE04FE04FE0436
:10354000FE04FE04FE04FE04FE04DE04DE04DE04CB
:10355000DE04DE04DE04DE04DE04DE04DE04DE045B
:10356000DE04DE04DE04BE04BE04BE04BE04BE04EB
:10357000BE04BE04BE04BE04BE04BE04BE04BE043B
:10358000BE04BE04BE04BE04BE049E049E049E048B
:103590009E049E049E049E049E049E049E049E041B
:1035A0009E049E049E047E047E049E049E047E046B
:1035B0007E047E047E047E047E045E045E047E043B
:1035C0007E047E047E045E045E047F047F045E0449
:1035D0005E045E045E045F049F0C9F0C7F0C3E043F
:1035E000FD03FD031D041D04FD03FD03FD03FD0399
:1035F000FD03FD03FD03DD03DD03DD03DD03DD036B
:10360000DD03DD03DD03DD03DD03BD03BD03BD031A
:10361000BD03BD03BD03BD03BD039C039C039D030C
:103620009D039D039D039D037C037C037C037C031E
:103630007C037C037C035C035C035C035C035C0332
:103640005B033B033B033B033B033B033B031B038A
:103650001B031B031B03FA021B031B03FA02FA02E0
:10366000FA02FA02FA02FA02FA02FA02DA02DA02BA
:10367000DA02DA02DA02FA02FA02FA02DA02DA020A
:10368000DA02DA02DA02BA02BA02BA02BA02BA02FA
:10369000BA02BA02BA029A029A029A029A029A02EA
:1036A0009A029A0299029902990299027902790280
:1036B0007902790279027902790279027902790232
:1036C00079027902790258025802580258025802C7
:1036D000580258025802580258025802580258021A
:1036E00058023802380238023802380238023802EA
:1036F000380238021702380238023802380237021C
:1037000037021702170237021702170217021702B1
:10371000170217021702FE04FE04FE04FE04FE0454
:10372000FE04FE04FE04FE04FE04FE04DE04DE04C9
:10373000DE04DE04DE04DE04DE04DE04DE04DE0479
:10374000DE04DE04DE04BE04BE04BE04BE04BE0409
:10375000BE04BE04BE04BE04BE04BE04BE04BE0459
:10376000BE04BE04BE04BE04BE04BE04BE049E0469
:103770009E049E049E049E049E049E049E049E0439
:103780009E049E049E047E047E049E049E049E0469
:103790007E047E047E047F047E047E047E047F0417
:1037A0007F047E047E047F047E045E045E045E0467
:1037B0005F045F045F045F045E045F047F0C9F0C82
:1037C0007F0C3E04FD031D04FD03FD03FD03FD030B
:1037D000FD03FD03FD03DD03DD03DD03DD03DD0389
:1037E000DD03DD03DD03DD03DD03BD03BD03BD0339
:1037F000BD03BD03BD03BD03BD03BD039D039D0309
:103800009D039D039D039D039C037C037C037C031C
:103810007C037C037C035C035C035C035C035C0350
:103820005C033B033B033B033B033B033B033B0387
:103830001B031B031B031B031B031B03FA02FA02DC
:10384000FA02FA02FA02FA02FA02FA02DA02DA02D8
:10385000FA02DB02DB02DB02DB02DB02DA02DA0263
:10386000DA02DA02DA02BA02BA02BA02BA02BA0218
:10387000BA02BA02BA029A029A029A029A029A0208
:103880009A029A029A02990299029902790279029D
:103890007902790279027902790279027902790250
:1038A00079027902790258027902580258025802C4
:1038B0005802580258025802580258023802380278
:1038C00058025802580238023802380238023802C8
:1038D000380238023802380238023802370237021A
:1038E00037023702170237021702170217021702B0
:1038F000170217021702FE04FE04FE04FE04FE0473
:10390000FE04FE04FE04FE04FE04FE04DE04DE04E7
:10391000DE04DE04DE04DE04DE04DE04DE04DE0497
:10392000DE04DE04DE04BE04BE04BE04BE04BE0427
:10393000BE04BE04BE04BE04BE04BE04BE04BE0477
:10394000BE04BE04BE04BE04BE04BE04BE049E0487
:103950009E049E049E049E049E049E049E049E0457
:103960009E049E049E049E047E047E049E049E0487
:103970009E047E047E047F047E047E047E047F0415
:103980007F047F047E047F047E047E047E045F0443
:103990005F045E045F045F045F045F045F045F0410
:1039A0005F049F0CBF143E041D04FD03FD031D04B2
:1039B000FD03FD03FD03DD03DD03DD03DD03DD03A7
:1039C000DD03DD03DD03DD03DD03BD03BD03BD0357
:1039D000BD03BD03BD03BD03BD03BD03BD03BD03E7
:1039E0009D039D039D039D039D037C037C037C033A
:1039F0007C037C037C037C035C035C035C035C034F
:103A00005C035C033B033B033B033B033B033B0384
:103A10001B031B031B031B031B03FA02FA02FA021C
:103A2000FA02FA02FA02FA02FA02FB02FB02FB02B3
:103A3000FB02DB02DA02DB02DB02DB02DA02DA0281
:103A4000DA02DA02DA02DA02DA02BA02BA02BA02F6
:103A5000BA02BA02BA02BA02BA029A029A029A02E6
:103A60009A029A029A0299029902790279027902DB
:103A7000790279027902790279027902790279026E
:103A800079027902790279027902790258025802A0
:103A9000580258023802580A5802580238023802AE
:103AA0003802380258023802380238023802380226
:103AB000380238023802370237023702370237023B
:103AC00037023702370237021702170217021702AE
:103AD000170217021702FE04FE04FE04FE04FE0491
:103AE000FE04FE04FE04FE04FE04FE04FE04DE04E6
:103AF000DE04DE04DE04DE04DE04DE04DE04DE04B6
:103B0000DE04DE04DE04BE04BE04BE04BE04BE0445
:103B1000BE04BE04BE04BE04BE04BE04BE04BE0495
:103B2000BE04BE04BE04BE04BE04BE04BE04BE0485
:103B30009E049E04BE049E049E049E049E049E0455
:103B40009E049E049E047E047E047E049E049E04C5
:103B50009E049E049E047F047E047E047E047E04F4
:103B60007E047E047E047E047E047F047F047F0442
:103B70005F045F047F045F045F045F045F045F040D
:103B80005F045F045E04BF149F0C5F0C1D04FD0303
:103B90001D04FD03FD03FD03FD03DD03DD03DD0364
:103BA000DD03DD03DD03DD03DD03DD03BD03BD0355
:103BB000BD03BD03BD03BD03BD03BD03BD03BD0305
:103BC000BD039D039D039D039D039D039D039D03D5
:103BD0009D039D037C037C035C035C035C037C030B
:103BE0007C035C035C033C033C033C033B033B035F
:103BF0003B031B031B031B031B031B031B031B03B5
:103C0000FB02FB02FB02FB02FB02FB02FB02FB02CC
:103C1000FB02DB02DB02DB02FB02DB02DB02DB027C
:103C2000DB02DB02BA02BA02BA02BA02BA02BA0272
:103C3000BA02BA02BA02BA02BA029A02BA029A02E4
:103C4000BA029A029A029A029902790279027902D8
:103C5000790279027902790279027902790279028C
:103C600079025802580279027902790279025802DF
:103C70005802580258025802580258025802580274
:103C80003802580258023802380238023802380224
:103C90003802380237023802380237023702370258
:103CA00037023702170237023702170217021702CC
:103CB00017021702370AFE04FE04FE04FE04FE0487
:103CC000FE04FE04FE04FE04FE04FE04FE04DE0404
:103CD000DE04DE04DE04DE04DE04DE04DE04DE04D4
:103CE000DE04DE04DE04BE04BE04BE04BE04BE0464
:103CF000BE04BE04BE04BE04BE04BE04BE04BE04B4
:103D0000BE04BE04BE04BE04BE04BE04BE04BE04A3
:103D1000BE04BE04BE049E049E049E049E049E0433
:103D20009E049E049E047E047E049E049E049E04C3
:103D30009E049E049E047F047F047E047E047E0411
:103D40007E047E047E047E047E047F047F047F0460
:103D50005F045F045F045F045F045F045F045F044B
:103D60005F045F045F043E045E047F0C9F147F0CBD
:103D70001D04FD031D041E04DD03DD03FD03FE031E
:103D8000DD03BD03DD03DD03DD03BD03DD03DD0373
:103D9000DD03BD03BD03BD03BD03BD03BD03BD0303
:103DA000BD039D039D039D039D039D039D039D03F3
:103DB0009D039D037D037C037C037C037C035C03E8
:103DC0005C035C035C033C033C033C033C033C039B
:103DD0003B031B031B031B031B031B031B031B03D3
:103DE0001B03FB02FB02FB02FB02FB02FB02FB02CA
:103DF000FB02FB02FB02FB02FB02FB02DB02DB021B
:103E0000DB02DB02DB02DB02DB02BA02BA02BA022D
:103E1000BA02BA02BA02BA02BA029A02BA029A0202
:103E20009A029A029A029A029A0279027902790215
:103E300079027902790279027902790279027902AA
:103E40007902580258027902580258025802580260
:103E50005802580258025802580258025802580292
:103E60005802580258023802380238023802380222
:103E70003702370237023802380238023802370276
:103E800017023702370237023702170217021702EA
:103E9000170217021702FE04FE04FE04FE04FE04CD
:103EA000FE04FE04FE04FE04FE04FE04FE04FE0402
:103EB000DE04DE04DE04DE04DE04DE04DE04DE04F2
:103EC000DE04DE04DE04DE04DE04DE04DE04DE04E2
:103ED000BE04BE04BE04BE04BE04BE04BE04BE04D2
:103EE000BE04BE04BE04BE04BE04BE04BE04BE04C2
:103EF000BE04BE049E049E049E049E049E049E0472
:103F00009E049E049E049E049E049E049E049E04A1
:103F10009E049E049E047F047F047F047E047E042E
:103F20007E047E047E047E047E047E047F047F047F
:103F30005F045F045F045F045F045F045F045F0469
:103F40005F045F045F045F045F043E043E047F0C73
:103F5000BF147F0C1E04FD03FE031E04FD03DD03DE
:103F6000FE03FE03DD03DE03DE03DD03DD03DD030D
:103F7000DD03BD03BD03BD03BD03BD03BD03BD0321
:103F8000BD03BD03BD039D039D039D039D039D03D1
:103F90009D039D037D037D037D037D037D035C0302
:103FA0005C035C035C035C033C033C033C033C0399
:103FB0003C033B031B031B031B031B031B031B03D0
:103FC0001B03FB02FB02FB02FB02FB02FB02FB02E8
:103FD000FB02FB02FB02DB02DB02DB02DB02DB0299
:103FE000FB02DB02DB02DB02DB02DB02BB02BB0209
:103FF000BB02BB02BB02BA02BB02BA02BA029A02FD
:104000009A029A029A029A029A029A029A027902F1
:1040100079027902790279027902790279027902C8
:10402000790279025902790258025802790258023B
:1040300058025802580258025802580258025802B0
:104040005802580258023802380238023802380240
:1040500038023802380237023802380A380237028A
:104060001702370237023702370217021702170208
:10407000170217021702FE04FE04FE04FE04FE04EB
:10408000FE04FE04FE04FE04FE04FE04FE04FE0420
:10409000FE04DE04DE04DE04DE04DE04DE04DE04F0
:1040A000DE04DE04DE04DE04DE04DE04DE04DE0400
:1040B000BE04BE04BE04BE04BE04BE04BE04BE04F0
:1040C000BE04BE04BE04BE04BE04BE04BE04BE04E0
:1040D000BE04BE049E049E049E049E049E049E0490
:1040E0009E049E049E049E049E049E049E049E04C0
:1040F0009E049E049E047F047F047F047F047E044C
:104100007E047E047E047E047E047E047E047F049E
:104110005F045F045F045F045F047F045F045F0467
:104120005F045F045F043E043F045F045F045F04B8
:104130003E045F0C9F0C7F141E04DD03FD03FE0391
:10414000DD03DD03FE03DE03DD03DD03DD03DD034D
:10415000DE03DE03DE03BD03BD03BD03BD03BD03FC
:10416000BD03BD03BD039D039D039D039D039D03EF
:104170009D039D039D039D039D037D037D037C03A0
:104180005C035C035C035C035C033C033C033C0397
:104190003C033C033B031B031B031B031B031B03CD
:1041A0001B031B03FB02FB02FB02FB02FB02FB02E5
:1041B000FB02DB02DB02DB02DB02DB02DB02DB02F7
:1041C000DB02DB02DB02DB02DB02DB02DB02BB0227
:1041D000BB02BB02BB02BA02BB02BA02BA029A021B
:1041E0009A029A029A029A029A029A0A9A02790208
:1041F00079027902790279027902790279027902E7
:1042000079027902790279027902790279025802F7
:10421000580258025802580A580A580258025802BE
:1042200038023802380238023802380238023802BE
:1042300038023802380237023802380A38023702A8
:104240001702370237023702370217021702170226
:10425000170217021702FE04FE04FE04FE04FE0409
:10426000FE04FE04FE04FE04FE04FE04FE04FE043E
:10427000FE04FE04DE04DE04DE04DE04DE04DE04EE
:10428000DE04DE04DE04DE04DE04DE04DE04BE043E
:10429000BE04BE04BE04BE04BE04BE04BE04BE040E
:1042A000BE04BE04BE04BE04BE04BE04BE04BE04FE
:1042B000BE04BE049E04BE04BE049E049E049E046E
:1042C0009E049E049E049E049E049E049E049E04DE
:1042D0009E047E047E047E047E047F047E047E04AD
:1042E0007E047E047E047E047E047E047E047E04BE
:1042F0005E045E045E045F047F047F045F045F0469
:104300005F045F045F047F045F043E045F045F0496
:104310005F043F045F043F049F0C9F145F04FE038F
:10432000FD03FE03FE03FE03FE03DE03DE03DE03E6
:10433000DE03DE03DE03DD03DD03BE03BE03BE03D7
:10434000BD03BE03BE039E039E039E039E039D0307
:104350009D039D039D039D037D037D037D037D03DD
:104360007D037D037D035D035D035C035C035C03F0
:104370003C033C033C033C031B031B031B031B03C9
:104380001B031B03FB02FB02FB02FB02FB02FB0203
:10439000FB02DB02DB02DB02DB02DB02DB02DB0215
:1043A000DB02DB02DB02DB02DB02DB02DB02BB0245
:1043B000BB02BB02BB02BB02BB02BB02BA02BA0217
:1043C000BA029A029A029A029A029A029A027A020D
:1043D0007A02790279027902790279027902790204
:1043E000790279027902580258025802580258029A
:1043F000580258025802580A5802580258025802E5
:10440000580258023802380238023802380238029C
:1044100038023802380238023802380238023702CD
:104420003702370237021702370217021702170244
:10443000170217021702FE04FE04FE04FE04FE0427
:10444000FE04FE04FE04FE04FE04FE04FE04FE045C
:10445000FE04FE04FE04DE04DE04DE04DE04DE04EC
:10446000DE04DE04DE04DE04DE04DE04DE04BE045C
:10447000BE04BE04BE04BE04BE04BE04BE04BE042C
:10448000BE04BE04BE04BE04BE04BE04BE04BE041C
:10449000BE04BE04BE04BE049E049E049E049E048C
:1044A0009E049E049E049E049E049E049E049E04FC
:1044B0007E047E047E047E047E047F047F047F04E9
:1044C0007E047E047E047E047E047E047F047F04DA
:1044D0007E045E047E047F047F047F047F047F04E7
:1044E0005F045F045F045F047F047F043E043F04B5
:1044F0005F045F043F045F043E045F047F0C9F0C75
:104500005F0C1E04FE03FE03FE03FE03DE03DE0358
:10451000DE03BE03BE03DD03DD03BE03BE03BE0335
:10452000BE03BE03BE039D039E039E039E039D0325
:104530009D039D039D039D037D037D037D037D03FB
:104540007D037D037D035D035D035C035C033C032E
:104550003C033C033C033C031B031B031B031B03E7
:104560001B031B03FB02FB02FB02FB02FB02FB0221
:10457000FB02FB02FB02FB02DB02DB02DB02DB02D3
:10458000DB02DB02DB02DB02DB02DB02DB02BB0263
:10459000BB02BB02BB02BB02BB02BB029A02BA0255
:1045A000BA029A029A029A029A029A029A029A020B
:1045B0007A02790279027902790279027902590242
:1045C00079027902790258025802580258025802B8
:1045D000580258025802580258025802580258020B
:1045E000580258025802380238023802380238029B
:1045F00038023802380238023802370237023702EE
:1046000037023702370217023702370A170217023A
:10461000170217021702FE04FE04FE04FE04FE0445
:10462000FE04FE04FE04FE04FE04FE04FE04FE047A
:10463000FE04FE04FE04DE04DE04DE04DE04DE040A
:10464000DE04DE04DE04DE04DE04DE04DE04DE045A
:10465000DE04DE04BE04BE04BE04BE04BE04BE040A
:10466000BE04BE04BE04BE04BE04BE04BE04BE043A
:10467000BE04BE04BE04BE049E049E04BE049E048A
:104680009E049E04BE049E049E049E049E049E04FA
:104690007E047E047E047E049F047F047F047F04E6
:1046A0007F047E047E047E047E047E047E047E04F9
:1046B0007E047E047E045F045F045F045F047F0465
:1046C0007F045F045F045F045E045F047F047F0473
:1046D0005F043F047F043E045F045F043E045F0404
:1046E0007F0C7F0C5F0CFE03FE03DE03DE03DE03A4
:1046F000FE03FE03DE03DE03DE03BE03BE03BE03D2
:10470000BE03BE03BE03BE039E039E03BE039E0301
:104710009D039D039E039D039D037D037D037D03F8
:104720007D037D037D035D035D035C035C033C034C
:104730003C033C033C033C033C031C031C031B03E2
:104740001B031B031B031B031B03FB02FB02FC02DB
:10475000FC02FC02FC02FC0AFC02FB02FB02FB0264
:10476000DB02DB02DB02DB02DB02DB02DB02DB0261
:10477000BB02BB02BB02BB02BB02BB0ABA02BB024A
:104780009A029A029A029A029A029A029A029A0249
:104790009A029A027902790279027902790259021F
:1047A0007902790279027902790279027902580252
:1047B00078027802580258025802580258025802E9
:1047C0005802580258025802580238023802380279
:1047D000380238023802380238023802380237020A
:1047E0003702370237021702370217021702170281
:1047F000170217021702FE04FE04FE04FE04FE0464
:10480000FE04FE04FE04FE04FE04FE04FE04FE0498
:10481000FE04FE04FE04DE04DE04DE04DE04DE0428
:10482000DE04DE04DE04DE04DE04DE04DE04DE0478
:10483000DE04DE04DE04DE04BE04BE04BE04BE04E8
:104840009E04BE04BE04BE04BE04BE04BE04BE0478
:10485000BE04BE04BE04BE049E049E04BE04BE0488
:104860009E049E04BE049E049E049E049E049E0418
:104870007E047E047E049F049F047F049F049F04A3
:104880007F047F047E047E047E047E047E047F0415
:104890007E047E047E047F045F045F045F047F0463
:1048A0007F047F045F047F047F045F045F045F0470
:1048B0005F045F045F043F045F045F045F043F0420
:1048C0003F045F045F0C7F0C5F0C1E04FE03FE03BD
:1048D000DE03DE03BD03DE03DE03DE03BE03BE0331
:1048E000BE03BE03BE03BE03BE039E03BE03BE03E0
:1048F000BE039E03BE039E039E039D039D037D0393
:104900007D037D037D037D037D035D035D035D0307
:104910005C033C033C033C033C033C031C031B03C0
:104920001B031B031B031C031C031C03FB02FC02D5
:10493000FC02FC02FC021C0BFC02FC02FC02FC025E
:10494000FB02DB02DB02DB02DB02DB02DB02DB025F
:10495000DB02DB02BB02BB02BB02DB0ABA02BB0208
:104960009A029A029A029A029A029A029A029A0A5F
:104970009A0A9A0279027902790279027902590235
:1049800059027902790258027902790258025802D2
:104990007802580258025802580258025802580227
:1049A0005802380238023802380238023802380217
:1049B00038023702370237023802380A3802370223
:1049C00037023702370217021702170217021702BF
:1049D000170217021702FE041E051E051E051E05FE
:1049E000FE04FE04FE04FE04FE04FE04FE04FE04B7
:1049F000FE04FE04FE04DE04DE04DE04DE04DE0447
:104A0000DE04DE04DE04DE04DE04DE04DE04BE04B6
:104A1000DE04DE04BE04BE04BE04BE04BE04BE0446
:104A2000BE04BE04BE04BE04BE04BE04BE04BE0476
:104A3000BE04BE04BE04BE04BE049E049E049E04C6
:104A40009E049E049E049E049F049E049E049F0454
:104A50009F049F049F049F049F049F049F049F043E
:104A60007E047E047F047E047E047E047E047F0434
:104A70007F047E047E047F047F047E047E047F0422
:104A80007F047F047F045F045F045F045F045F04AE
:104A90005F045F045F043F043F043F043F043F049E
:104AA0003F043F045F043F045F0C7F0C5F0C1F0456
:104AB000FE03DD03FE03DE03DE03DE03DE03BE03CF
:104AC000BE03BE03DE03BE03BE03BE03BE03DE039E
:104AD000BE039E03BE03BE039E039D039D039E0370
:104AE0009E037E037D037D035D035D035D035D0324
:104AF0005D035C033C035D035C033C033C031C035C
:104B00001C033C033C031C031B03FC02FC02FC02D1
:104B1000FC02FC02FC02FC02FC02FC02FC02FC02A5
:104B2000FC02FC02FC02DC02DC02DC02DB02DB0237
:104B3000BB02BB02BB02BB02BB02BA02BA02BB028F
:104B4000BB02BB02BA029A029A029A029A029A0223
:104B50009A029A027A02790279027902790259025A
:104B60005902590259025902590258025802580270
:104B70005802580258025802580258025802580265
:104B800058025802580238023802380238023802F5
:104B90003802380238023802380237023702380247
:104BA00038023702170237021702170217021702DC
:104BB000170217021702FE041E051E051E051E051C
:104BC000FE04FE04FE04FE04FE04FE04FE04FE04D5
:104BD000FE04FE04FE04DE04FE04DE04DE04DE0445
:104BE000DE04DE04DE04DE04DE04DE04DE04BE04D5
:104BF000DE04DE04BE04DE04DE04BE04BE04BE0425
:104C0000BE04BE04BE04BE04BE04BE04BE04BE0494
:104C1000BE04BE04BE04BE04BE049E049E049E04E4
:104C20009E049E049E049E049F049F049E049F0471
:104C30009F049F049F049F049F049F049F049F045C
:104C40007E047E047F047E047E047E047E047F0452
:104C50007F047F047E047F047F047E047E047F043F
:104C60007F047F047F045F045F045F045F045F04CC
:104C70005F045F045F043F045F045F043F043F047C
:104C80003F043F043F045F043F041E045F047F0CA5
:104C90007F0C3F0CFE03DE03DE03DE03DE03BE03F8
:104CA000DE03DE03DE03DE03BE03BE03BE039E039C
:104CB0009E039E03BE03BE039E039E039E039E03AC
:104CC0009E039E037E037E037E037D035D035D03DF
:104CD0005D035D035C035D035C033C033C031C0359
:104CE0001C033C033C033C031C031C031C031C036C
:104CF000FC02FC021C03FC02FC02FC02FC02FC02A3
:104D0000FC02FC02FC02DC02DC02DC02DC02DC0253
:104D1000BB02BB02BB02BB02BB02BB02BB02BB02AB
:104D2000BB02BA02BA029A029A029A029A029A0242
:104D30009A029A029A027902790A790A790A790A18
:104D4000790A790A790A59025902790279025802D4
:104D50005802580258025802580258025802580283
:104D60005802580258023802380238023802380213
:104D70003802380238023802380238023802370264
:104D8000370237023702370237023702170217029B
:104D9000170217021702FE041E051E051E051E053A
:104DA000FE04FE04FE04FE04FE04FE04FE04FE04F3
:104DB000FE04FE04FE04DE04FE04FE04DE04DE0443
:104DC000DE04DE04DE04DE04DE04DE04DE04DE04D3
:104DD000DE04DE04BE04DE04DE04BE04BE04BE0443
:104DE000BE04BE04BE04BE04BE04BE04BE04BE04B3
:104DF000BE04BE04BE04BE04BE049E049E049E0403
:104E00009E049E049E049E049F049F049E049F048F
:104E10009F049F049F049F049F049F049F049F047A
:104E20007E047E047F047E047E047E047E047F0470
:104E30007F047F047F047F047F047E047E047E045D
:104E40007F047F047F047F045F045F045F045F04CA
:104E50005F045F045F045F045F045F045F045F043A
:104E60005F043F043F043F043F045F043F041F040A
:104E70003F045F0C7F0C5F0CFE03BD03DE03DE030B
:104E8000DE03DE03DE03BE03BE03BE03BE03BE03BA
:104E9000BE03BE039E039E039E039E039E039E03CA
:104EA0009E039E039E037E037E037E037D035D03BC
:104EB0005D035D035D035D035D033D033C033C0354
:104EC0003C031C033C031C031C031C031C031C03AA
:104ED000FC02FC02FC02FC02FC02FC02FC02FC02E2
:104EE000FC02FC02FC02DC02DC02DC02DC02DC0272
:104EF000DC02BB02BB02BB02BB02BB02BB02BB02A9
:104F0000BA02BA02BA029A029A029A029A029A0261
:104F10009A029A029A027902790279027902790256
:104F2000790259025902590259027902790258024A
:104F300058025802580258025802580258025802A1
:104F40005802580258023802380238023802380231
:104F50003802380238023802380238023802370282
:104F600017023702370217023702370237021702D9
:104F7000170217021702FE041E051E051E051E0558
:104F8000FE04FE04FE04FE04FE04FE04FE04FE0411
:104F9000FE04FE04FE04FE04FE04FE04DE04DE0441
:104FA000DE04DE04DE04DE04DE04DE04DE04DE04F1
:104FB000DE04DE04BE04DE04DE04BE04BE04BE0461
:104FC000BE04BE04BE04BE04BE04BE04BE04BE04D1
:104FD000BE04BE04BE04BE04BE049E049E049E0421
:104FE0009E049E049E049F049F049F049E049F04AD
:104FF0009F049F049F049F049F049F049F049F0499
:105000009F047F047F047F047F047F047F047F0468
:105010007F047F047F047F047F047E047E047E047B
:105020007F047F047F047F047F045F045F045F04C8
:105030005F045F045F045F045F045F045F045F0458
:105040005F045F045F045F043F043F043F043F04C8
:105050003F043F043F043F045F0C5F0CFE03DE038C
:10506000DE03DE03DE03DE03DE03BE03BE03BE0398
:10507000BE03BE03BE03BE03BE03BE039E039E0368
:105080009E039E039E037E037E037E037E037D03B9
:105090007D035D035D035D035D033D033C033C0352
:1050A0003C033C033C031C031C031C031C031C03A8
:1050B0001C031C031C03FC02FC02FC02FC02FC029D
:1050C000FC02FC02FC02DC02DC02DC02DC02DC0290
:1050D000DC02DC02BB02BB02BB02BB02BB02BB02A6
:1050E000BA02BA02BA029A029A029A029A029A0280
:1050F0009A029A029A027902790279027902790275
:105100007902790259025902590279027902580248
:1051100058025802580258025802580258025802BF
:10512000580258025802380238023802380238024F
:1051300038023802380238023802380238023702A0
:1051400037023702370237023702370237021702B7
:105150001702170217021E051E051E051E051E0555
:10516000FE04FE04FE04FE04FE04FE04FE04FE042F
:10517000FE04FE04FE04FE04FE04FE04FE04DE043F
:10518000DE04DE04DE04DE04DE04DE04DE04DE040F
:10519000DE04BE04BE04DE04DE04BE04BE04BE049F
:1051A000BE04BE04BE04BE04BE04BE04BE04BE04EF
:1051B000BE04BE04BE04BE04BE04BE04BE049E04FF
:1051C0009E049E049E049F049F049F049E049F04CB
:1051D0009F049F049F049F049F049F047E047E04F9
:1051E0009F047F047F047F047F047F047F047F0487
:1051F0007F047F047F047F047F047E047E047F0499
:105200007F047F047F047F047F047F047F047F0486
:105210007F045F045F045F045F045F045F045F0456
:105220005F045F045F045F045F045F043F043F04A6
:105230003F043F045F045F043F045F0C7F0C3F0C9E
:10524000FE03DE03FE03BE03BE03DE03DE0BDE034E
:10525000BE03BE03DF0BBE03BF03BF03BF03BF0319
:105260009E039E039F039E039E037E037E037E0395
:105270007E037E037D035D035D035D035D033D03EC
:105280003C031C033C031C031C031C031C031C03E6
:105290001C031C031C03FC02FC02FC02FC02FC02BB
:1052A000FC02FC02FC02FC02FC02DC02DC02DC026E
:1052B000DC02DC02DC02BB02BB02BB02BB02BB02A3
:1052C000BB02BB02BB02BA02BA029A029A029A025B
:1052D0009A029A029A027902790279027902790293
:1052E0007902790259025902590279027902580267
:1052F00058025802580258025802580258025802DE
:10530000580258025802380238023802380238026D
:1053100038023802370238023802370237023702C1
:1053200038023702370237023702370217021702F4
:105330001702170217021E051E051E051E051E0573
:105340001E05FE04FE04FE04FE04FE04FE04FE042C
:10535000FE04FE04FE04FE04FE04FE04FE04DE045D
:10536000DE04DE04DE04DE04DE04DE04DE04DE042D
:10537000DE04BE04BE04DE04DE04BE04BE04BE04BD
:10538000BE04BE04BE04BE04BE04BE04BE04BE040D
:10539000BE04BE04BE04BE04BE04BE04BE049E041D
:1053A000BE049E049E049F049F049F049E049F04C9
:1053B0009F049F049F049F049F049F047E047E0417
:1053C0009F049F049F047F047F047F047F047F0465
:1053D0007F047F047F047F047F047E047E047F04B7
:1053E0007F047F047F047F047F047F047F047F04A5
:1053F0007F045F045F045F045F045F045F045F0475
:105400005F045F045F047F045F043F043F043F04C4
:105410005F045F045F045F045F043F043F045F0CAC
:105420007F0C3F0CFE03FE03DE03DE03DE03DE0320
:10543000DE03BE03BE03BF03DF03BF03BF03BF031F
:10544000BF039F039F039F039F037E037E039E036F
:105450009E037E037E037E037D035E035D035D0387
:105460003D033D033D033D033C031C031C031C03A0
:105470001C031C031C03FC02FC02FC02FC02FC02D9
:10548000FC02FC02FC02FC02FC02FC02DC02DC026C
:10549000DC02DC02DC02DB02DB02BB02BB02BB0281
:1054A000BB02BB02BB02BA02BA029A029A029A0279
:1054B0009A029A029A0279027902790279027902B1
:1054C0007902590259025902590279027902790284
:1054D00058025802580258025802580258025802FC
:1054E000580258025802380238023802380238028C
:1054F00038023802370238023802370237023802DF
:105500003802370237023702370217021702170232
:105510001702170217021E051E051E051E051E0591
:105520001E05FE04FE04FE04FE04FE04FE04FE044A
:10553000FE04FE04FE04FE04FE04FE04FE04DE047B
:10554000DE04DE04DE04DE04DE04DE04DE04DE044B
:10555000DE04BE04BE04DE04DE04BE04BE04BE04DB
:10556000BE04BE04BE04BE04BE04BE04BE04BE042B
:10557000BE04BE04BE04BE04BE04BE04BE049E043B
:10558000BE049E049E049F049F049F049E049F04E7
:105590009F049F049F049F049F049F047E047E0435
:1055A0009F049F049F047F047F047F047F047F0483
:1055B0007F047F047F047F047F047E047E047F04D5
:1055C0007F047F047F047F047F047F047F047F04C3
:1055D0007F047F047F047F045F045F045F045F0433
:1055E0007F045F045F045F045F045F045F045F0483
:1055F0003F043F043F045F043F043F045F043F0453
:105600003F043F045F0C5F0C1F0CDE03BE03BE03B0
:10561000DE03DE03DF03DF03BF03BF03BF03BF03FC
:10562000BF03BF03BF03BF03BF039F039E039E03CC
:105630009E037E037E037E037E037E035E035E0382
:105640005D033D033D033D033D033D031C031C037C
:105650001C031C031C031D031D031D031D03FD026E
:10566000FD021D031D03FC02FC02FC02FC02DC0225
:10567000DC02DC02DC02DC02DB02DB02BB02BB027E
:10568000DB02BB02BB02BA02BA029A029A029A0277
:105690009A029A029A029A029A029A027A02790A63
:1056A00079027902790259025902590259027902A2
:1056B00079025802580258025802580258025802F9
:1056C00058025802380238023802380238023802CA
:1056D00038023802370238023802370237023702FE
:1056E0003702370237023702370237023702170212
:1056F0001702170217021E051E051E051E051E05B0
:105700001E05FE04FE04FE04FE04FE04FE04FE0468
:10571000FE04FE04FE04FE04FE04FE04FE04FE0479
:10572000DE04DE04DE04DF04DE04DE04DE04DE0468
:10573000DE04BE04BE04DE04DE04DE04BE04BE04D9
:10574000BE04BE04BE04BE04BE04BE04BE04BE0449
:10575000BE04BE04BE04BE04BE04BE04BE049E0459
:10576000BE049E049E049F049F049F049E049F0405
:105770009F049F049F049F049F049F047E047E0453
:105780009F049F049F047F047F047F047F047F04A1
:105790007F047F047F047F047F047E047E047F04F3
:1057A0007F047F047F047F047F047F047F047F04E1
:1057B0007F047F047F047F047F045F045F047F0411
:1057C0007F045F045F047F047F045F045F043F0481
:1057D0003F045F045F045F045F045F045F043F04F1
:1057E0003F043F043F041F045F0C5F0C1F04DE03F3
:1057F000DE03DE03DE03DF03BF03BF03BF03BF031C
:10580000BF03BF03BF03BF03BF039F039F039E03E9
:105810009E037E037E037E037E037E037E035E0380
:105820005E033E033D033D033D033D033D031D0376
:105830003D0B3D0B1D031D031D031D031D031D0318
:10584000FD021D031D03FD02FD02FC02FC02DC0241
:10585000DC02DC02DC02DC0ADC02DC02DB02DB0252
:10586000BB02BB029B029B02BA029A029A029A02F4
:105870009A029A029A02790279027A0279027902EC
:1058800079027902790259025902590259027902C0
:1058900079027902790258025802580258025802D5
:1058A00058025802380238023802380238023802E8
:1058B000380238023702380238023802380237021A
:1058C0003702370237023702370237023702170230
:1058D0001702170217021E051E05FE04FE041E0510
:1058E0001E05FE04FE04FE04FE04FE04FE04FE0487
:1058F000FE04FE04FE04FE04FE04FE04FE04FE0498
:10590000FE04FE04FE04DE04DE04DE04DE04DE0427
:10591000DE04DE04DE04DE04DE04BE04BE04BE04D7
:10592000BE04BE04BE04BE04BE04BE04BE04BE0467
:10593000BE04BE04BE04BE04BE04BE04BE049E0477
:105940009E049E049E049F049E049E049F049F0444
:105950009F049F049F049F049F049F049F049F042F
:105960009F049F049F049F047F047F047F047F049F
:105970009F049F049F047F047F047F047F047F04AF
:105980007F047F047F047F047F047F047F047F04FF
:105990007F047F047F045F045F045F045F045F048F
:1059A0005F047F047F045F045F045F045F045F049F
:1059B0005F045F045F045F045F045F045F043F04EF
:1059C0003F043F043F043F043F043F0C5F0C5F0C67
:1059D0003F0C1F04DE03DF03DF03DF03DF03BF032E
:1059E000BF03BF03BF039F03BF03BF039F039F0307
:1059F000BF0B9F039E039E037E037E037E037E03F5
:105A00005E035E035E033D033D033D033D033D0333
:105A10001D031D031D031D031D031D031D031D0386
:105A20001D031D031D03FD021D03FD02FC02FD02FB
:105A3000FC02DC02DC02DC02DC02DC02DC02BB0277
:105A4000BB02BB02BB02BB02BB02BA029A029A02B1
:105A50009A029A029A029A029A029A0279027902A8
:105A600079027902590259025902590259027902FE
:105A700079027902790258025802580258025802F3
:105A80005802580238023802380238023802380206
:105A90003802380238023802380238023802380236
:105AA000370237023702370237021702370217026E
:105AB000170217021702FE041E051E051E051E050D
:105AC0001E05FE04FE04FE04FE04FE04FE04FE04A5
:105AD000FE04FE04FE04FE04FE04FE04FE04FE04B6
